:100000000C94BD030C94DE030C94DE030C94DE030D
:100010000C94DE030C94DE030C94DE030C94DE03DC
:100020000C94DE030C94DE030C94DE030C94DE03CC
:100030000C94DE030C94DE030C94DE030C94DE03BC
:100040000C94DE030C94DE030C94DE030C94DE03AC
:100050000C94DE030C94DE030C94DE030C94DE039C
:100060000C94DE030C944F100C9479100C94DE0366
:100070000C94DE030C94DE030C94DE030C94DE037C
:100080000C94DE030C94DE030C94DE030C94DE036C
:100090000C943E110C9468110C94DE030C94DE0356
:1000A0000C94DE030C94DE030C94DE030C94DE034C
:1000B0000C94DE030C94DE030C94DE030C94DE033C
:1000C0000C94DE030C94DE030C94DE030C94DE032C
:1000D0000C94DE030C94DE030C94DE030C94DE031C
:1000E0000C94DE030C9426040C94BB040C94D509E8
:1000F0000C94BF090C94480D0C942E050C94F50338
:100100000C94670D0C94EA040C9419040C943304B9
:100110000C94FA0F0C94770D0C94DF090C94550491
:100120000C94540D0C941A100C9419050C9483051E
:100130000C946A050C94710D0C94320D0C94EC0F18
:100140000C94640D0C94FF040C94EB090C945E0D5C
:100150000C9402100C9456050C94400D0C94DB0981
:100160000C940C100C94D0040C94A1040C94081062
:100170000C940A040C946D0D0C948B120C94CD0904
:10018000436F6D6D616E6420636F6D706C696D653A
:100190006E7420627974652077726F6E672E2047C7
:1001A0006F743A203078253032582030782530323C
:1001B000580D0A00536869656C6420747970653A5B
:1001C00020556E6B6E6F776E2E206269745F303AC9
:1001D000202575206269745F313A20257520626997
:1001E000745F613A202575206269745F623A202548
:1001F00075206269745F633A2025750D0A005368A3
:1002000069656C6420747970653A2044657465632F
:1002100074656420534849454C445F545950455FC8
:100220004D435334380D0A00536869656C6420747B
:100230007970653A20446574656374656420534839
:1002400049454C445F545950455F31373032410D78
:100250000A00536869656C6420747970653A2044BB
:100260006574656374656420534849454C445F5424
:100270005950455F323730585F4D434D3638373629
:10028000580D0A00476F7420636F6D6D616E643A9C
:100290002025780D0A004E6F20736869656C642014
:1002A00061747461636865642E2043616E6E6F745F
:1002B0002070726F636565642E0D0A0070676D5F54
:1002C0006D6561737572655F31327628290D0A009C
:1002D00053776974636820696E2077726F6E672048
:1002E000706F736974696F6E3A2025640D0A004956
:1002F0006E76616C696420736869656C64207479DA
:1003000070653A202564206465763A2025640D0ADC
:100310000053657474696E6720646576696365204F
:10032000747970653A2025640D0A00496E76616C17
:1003300069642064657669636520747970653A2024
:1003400025640D0A0070676D5F323730785F6D632A
:100350006D36383736785F73746172745F626C61C2
:100360006E6B5F636865636B28290D0A0070676DAB
:100370005F323730785F6D636D36383736785F734C
:10038000746172745F7265616428290D0A00706778
:100390006D5F323730785F6D636D36383736785F32
:1003A00073746172745F77726974652829205F675E
:1003B0005F7573654874733D2564205F675F65787A
:1003C0007472615772697465733D25640D0A00701B
:1003D000676D5F323730785F6D636D3638373678EA
:1003E0005F726561645F6368756E6B28292074684D
:1003F00069734368756E6B3D25642072656D616934
:100400006E696E673D2564205F675F6F6666736522
:10041000743D25640D0A0070676D5F323730785F78
:100420006D636D36383736785F77726974655F63F0
:1004300068756E6B28292064617461207665726925
:10044000666965642E2053657474696E67207374E1
:100450006F70617420746F2025640D0A0070676DE1
:100460005F323730785F6D636D36383736785F7757
:10047000726974655F6368756E6B282920646174A6
:10048000613D307825303258206368756E6B5B694A
:100490005D3D30782530325820617474656D70741C
:1004A0003D25640D0A0070676D5F323730785F6DEF
:1004B000636D36383736785F77726974655F636865
:1004C000756E6B282920746869734368756E6B3D7F
:1004D00025642072656D61696E696E673D256420D3
:1004E0005F675F6F66667365743D25640D0A007013
:1004F000676D5F323730785F6D636D3638373678C9
:100500005F696F5F696E697428293A20636F6D7047
:100510006C657465640D0A0070676D5F3137303249
:10052000615F726573657428290D0A0070676D5FDD
:1005300031373032615F73746172745F626C616E07
:100540006B5F636865636B28290D0A0070676D5FD8
:1005500031373032615F73746172745F72656164E8
:1005600028290D0A0070676D5F31373032615F6492
:100570006F5F726573657428290D0A0070676D5F7F
:1005800031373032615F73746172745F777269748E
:100590006528290D0A0070676D5F31373032615F61
:1005A000726561645F6368756E6B28292074686981
:1005B000734368756E6B3D25642072656D61696E6D
:1005C000696E673D2564205F675F31373032615F58
:1005D0006F66667365743D25640D0A0070676D5F14
:1005E00031373032615F77726974655F6368756E49
:1005F0006B282920746869734368756E6B3D2564A8
:100600002072656D61696E696E673D2564205F6764
:100610005F31373032615F6F66667365743D2564A4
:100620000D0A0070676D5F31373032615F696E6946
:100630007428293A20636F6D706C657465640D0AC7
:100640000070676D5F6D637334385F7374617274CB
:100650005F626C616E6B5F636865636B28290D0A6E
:100660000070676D5F6D637334385F7374617274AB
:100670005F7265616428290D0A0070676D5F6D63A4
:100680007334385F73746172745F7772697465284C
:1006900029205F675F7573654874733D2564205F2B
:1006A000675F65787472615772697465733D25641C
:1006B0000D0A0070676D5F6D637334385F7265613A
:1006C000645F6368756E6B2829207468697343687A
:1006D000756E6B3D25642072656D61696E696E672C
:1006E0003D2564205F675F6F66667365743D2564B2
:1006F0000D0A0070676D5F6D637334385F777269E0
:1007000074655F6368756E6B28292074686973432C
:1007100068756E6B3D25642072656D61696E696EEA
:10072000673D2564205F675F6F66667365743D256E
:10073000640D0A0070676D5F6D637334385F7365B5
:10074000745F706172616D7328293A20636F6D70F8
:100750006C657465640D0A0070676D5F6D6373345A
:10076000385F696F5F696E697428293A20636F6D1D
:10077000706C657465640D0A000011241FBECFEF14
:10078000D1E2DEBFCDBF00E00CBF12E0A0E0B2E0DE
:10079000E2E5FDE200E00BBF02C007900D92AE3033
:1007A000B107D9F722E0AEE0B2E001C01D92A9374F
:1007B000B207E1F70E9498120C947D160C94000089
:1007C0000895CF93DF93D82F0E947312C82F8830DB
:1007D00008F074C0E82F880FFF0B909170028827F3
:1007E000E158F94E8F4F0C949D13913009F040C0A1
:1007F0000E948F0A1F92CF9381E193E09F938F9382
:100800000E94BF130F900F900F900F9080E0DF9128
:10081000CF910895923061F581E00E949C06882373
:1008200009F468C044E660E072E081E00E94850659
:10083000E1CF9230E9F482E00E949C06882309F41B
:1008400059C044E660E074E082E0F0CF923081F479
:1008500083E00E949C06882309F44CC049E160E0D3
:1008600070E283E0E3CF49E160E074E0933011F19E
:100870001F92CF931F929F938FEE92E09F938F933F
:100880000E94BF130F900F900F900F900F900F903A
:100890000E942A118111FCCF8D2F0E9415110E94F8
:1008A0002A118111FCCF86E021C0933009F749E17C
:1008B00060E078E08C2F0E94DD0D9CCF1F928F931B
:1008C0008BE293E09F938F930E94BF130F900F9042
:1008D0000F900F900E942A118111FCCF8D2F0E9442
:1008E00015110E942A118111FCCF84E00E9415117C
:1008F0008FEF8DCF1F92CF9380ED92E09F938F93D8
:100900000E94BF130F900F900F900F900E942A111A
:100910008111FCCF8D2F0E9415110E942A11811187
:10092000FCCF87E0E3CFCF93DF9380518A3008F08C
:1009300003C1E82FF0E08827E957F94E8F4F0C9458
:100940009D1380E10E94E10387FDF6C08091700253
:10095000813011F40E94C30C80917002823011F436
:100960000E94590980917002833009F0E5C0DF913F
:10097000CF910C94880F80917002813011F40E9405
:10098000C10A80917002823011F40E94DB068091CE
:100990007002833009F0D0C0DF91CF910C94350EF6
:1009A00082E10E94E10387FDC7C08091700281301F
:1009B00011F40E94DE0C80917002823011F40E94CA
:1009C000820980917002833009F0B6C0DF91CF9127
:1009D0000C94AF0F80917002813011F40E94B40B1F
:1009E00080917002823011F40E9470088091700230
:1009F000833009F0A1C0DF91CF910C94E00E84E127
:100A00000E94E10387FD98C080917002813011F44B
:100A10000E94F50C80917002823011F40E949909B5
:100A200080917002833009F087C0DF91CF910C94E0
:100A3000C60F80917002813011F40E94530C809196
:100A40007002823011F40E94F208809170028330AB
:100A500009F072C0DF91CF910C94440F8CEB92E0BF
:100A60009F938F930E94BF130F900F900E942A11A3
:100A70008111FCCF87E10E9415110E942A1181117A
:100A8000FCCF0E9415110E946912EC010E942A11EC
:100A90008111FCCF8D2F0E9415110E942A11811106
:100AA000FCCF8C2FDF91CF910C94151180917002A7
:100AB000813011F40E940C0D80917002823011F48B
:100AC0000E94B706809170028330B1F5DF91CF911B
:100AD0000C94050E88E10E94E10387FD2DC08091F2
:100AE0007002813011F40E94230D809170028230D7
:100AF00011F40E94B009809170028330E9F4DF9113
:100B0000CF910C94DD0F88E10E94E10387FD14C0B2
:100B100080917002813011F40E948B0D80917002DF
:100B2000823011F40E94030A80917002833021F414
:100B3000DF91CF910C943A10DF91CF91089580FF0F
:100B400046C05F9A81FF45C0A29A82FF44C0A19A25
:100B500083FF43C0A09A20910B0184FF40C020680E
:100B600020930B0120910B0185FF3BC02064209353
:100B70000B0120910B0186FF36C0206220930B01F0
:100B800020910B0187FF31C0206120930B01209140
:100B90000B0190FF2CC0286020930B0120910B01CA
:100BA00091FF27C0246020930B0120910B0192FF3D
:100BB00022C0226020930B0120910B0193FF1DC0E6
:100BC000216020930B0194FF1AC02B9A08955F981F
:100BD000B9CFA298BACFA198BBCFA098BCCF2F779E
:100BE000BFCF2F7BC4CF2F7DC9CF2F7ECECF277F06
:100BF000D3CF2B7FD8CF2D7FDDCF2E7FE2CF2B9889
:100C00000895CF93C82F8093700290E080E00E94F7
:100C10009F05579A9A9A999A989A80910A018068A2
:100C200080930A0180910A01806480930A01809177
:100C30000A01806280930A0180910A018061809399
:100C40000A0180910A01886080930A0180910A015B
:100C5000846080930A0180910A01826080930A0176
:100C600080910A01816080930A01239A11B8C130F2
:100C700019F4CF910C94940AC23019F4CF910C94CA
:100C80004C06CF91089582B9089580B108958FEFF1
:100C900081B9089511B8089510921A0210921302A2
:100CA000109214021092150210921602109217025E
:100CB00010921202109211028FEF80930E02E2E066
:100CC000F1E080818F7D808380818F7B80832C9871
:100CD0002D986B986B98E1E0F1E08081877F8083AD
:100CE00080818F7E80838081806280838081806428
:100CF0008083249A259A26988FEE94E09F938F9371
:100D00000E94BF130F900F900895409317027093A5
:100D100012026093110280930E0210921002109240
:100D20000F0210921A0210921302109214021092E3
:100D30001502109216020895982F639904C08FEF40
:100D4000890F823038F0639B03C081E0933009F053
:100D500080E0089581E008952D9A2FEF81EE94E0D0
:100D6000215080409040E1F700C0000008952C9889
:100D7000809102018F7B80930201809102018F7D1F
:100D8000809302012FEF81EE94E02150804090404B
:100D9000E1F700C000002D980E944A060E942A1127
:100DA0008111FCCF86E10E9415110E942A11811148
:100DB000FCCF0C9415112F923F924F925F926F923D
:100DC0007F928F929F92AF92BF92CF92DF92EF92DB
:100DD000FF920F931F93CF93DF9300D000D00F9219
:100DE0000F92CDB7DEB720910F02309110028091A3
:100DF000110290911202821B930B8C018930910594
:100E000014F008E010E03F932F939F938F931F936C
:100E10000F9386EA94E09F938F930E94BF130FB6BF
:100E2000F894DEBF0FBECDBFD12CED2CF12CE01617
:100E3000F10608F46AC0412C8DE5C82E84E0D82E56
:100E400097E1A92E94E0B92EE42CF12C80910F02A9
:100E500090911002E016F10608F462C0080F191F05
:100E60001093100200930F028091110290911202D0
:100E70000817190709F028C10E942A118111FCCF17
:100E800081E10E9415110E942A118111FCCF82E09C
:100E90000E9415110E942A118111FCCF80911A0223
:100EA0000E9415110E942A118111FCCF80910E021F
:100EB000833009F001C1809116020E9415110E9431
:100EC0002A118111FCCF80910E02833009F0F6C007
:100ED000809115020E9415110E942A118111FCCFE8
:100EE00080910E02833009F0EBC0809114020E94C1
:100EF00015110E942A118111FCCF80910E028330BE
:100F000009F0E0C08091130230C00E947312E1E04A
:100F1000F0E0EC0FFD1FEE0DFF1D8083D39485CF15
:100F20002091190260901702211102C06624639477
:100F30008E0D9F1D0E949F05512C712CE1E0F0E069
:100F4000EC0FFD1FEE0EFF1E4701761440F151100D
:100F500096C00E942A118111FCCF81E10E941511D7
:100F60000E942A118111FCCF8AE028960FB6F894CE
:100F7000DEBF0FBECDBFDF91CF911F910F91FF90CC
:100F8000EF90DF90CF90BF90AF909F908F907F9029
:100F90006F905F904F903F902F900C941511F70138
:100FA00030802C9AF5E0FA95F1F700000E94470690
:100FB000832D0E9443068AE18A95F1F700C0809153
:100FC000020180628093020180910E02833009F059
:100FD00051C0EFE3FFE13197F1F700C000008091CD
:100FE00002018F7D809302019AE19A95F1F700C08A
:100FF0000E944A062C98809119028823B9F1E5E0F5
:10100000EA95F1F70000809102018064809302016B
:10101000F5E0FA95F1F700000E944506382E809120
:1010200002018F7B80930201F40120801F927F9246
:101030001F922F921F923F92DF92CF920E94BF1376
:101040000FB6F894DEBF0FBECDBF231011C05110F4
:101050000FC060901802670C1F926F92BF92AF9200
:101060000E94BF130F900F900F900F905524539430
:1010700073946BCF8FE99FE00197F1F7AECF80912A
:101080001A02871508F4872D80931A0280911302A3
:1010900090911402A0911502B0911602870D911D36
:1010A000A11DB11D8093130290931402A093150209
:1010B000B09316024394C8CE80E0FFCE80E00ACF02
:1010C00080E015CF80E051CF0E942A118111FCCF22
:1010D00081E10E9415110E942A118111FCCF45CF98
:1010E0000F931F93CF93DF9300911102109112027F
:1010F00080910F0290911002081B190BE801093032
:10110000110514F0C8E0D0E00E942A118111FCCF33
:1011100083E10E9415110E942A118111FCCF809158
:101120000F02909110028C0F9D1F2091110230919F
:1011300012028217930781F180E00E9415118091BD
:1011400010028F9380910F028F931F930F93DF9361
:10115000CF938FEC93E09F938F930E94BF138DB733
:101160009EB708960FB6F8949EBF0FBE8DBF10E0D5
:1011700080910F0290911002212F30E02C173D0733
:101180006CF0C80FD91FD0931002C0930F02DF91EB
:10119000CF911F910F91089582E0CFCF820F931FBF
:1011A0000E949F0595E09A95F1F700008091020159
:1011B00080648093020185E08A95F1F700000E9427
:1011C0002A118111FCCF0E9445060E9415118091C1
:1011D00002018F7B8093020195E09A95F1F7000060
:1011E0001F5FC6CF1F93CF93DF93D0E0C0E0809105
:1011F000110290911202C817D907C8F01FEF809111
:101200001102909112028C179D0789F50E942A11F4
:101210008111FCCF85E10E9415110E942A118111D4
:10122000FCCF82E0DF91CF911F910C941511CE017C
:101230000E949F0585E08A95F1F7000080910201E8
:1012400080648093020185E08A95F1F700000E9496
:101250004506182F809102018F7B8093020185E063
:101260008A95F1F700001F3F51F62196C0CF0E94EA
:101270002A118111FCCF85E10E9415110E942A11CB
:101280008111FCCF89E00E9415110E942A11811161
:10129000FCCF8D2F0E9415110E942A118111FCCFC5
:1012A0008C2F0E9415110E942A118111FCCF812FD1
:1012B000B9CF0E947312809319020E947312809317
:1012C00018021F928F93809119021F928F938EE8BC
:1012D00093E09F938F930E94BF130E94AC060F90E0
:1012E0000F900F900F900F900F900E942A11811174
:1012F000FCCF80E10E9415110E942A118111FCCFC0
:101300000C9415118DE693E09F938F930E94BF1369
:101310000E94AC060F900F900E942A118111FCCF01
:1013200082E10E9415110E942A118111FCCF0C94B8
:10133000151185E493E09F938F930E94BF130E9441
:10134000AC060F900F900E942A118111FCCF84E10E
:101350000E9415110E942A118111FCCF0C941511C5
:101360000E9473128150873008F03FC0E82F880F29
:10137000FF0B8827EF56F94E8F4F0C949D130E9458
:10138000AC060E942A118111FCCF88E10E94151140
:101390000E942A118111FCCF33C00E94AC068091BB
:1013A0000201806480930201ECCF0E94AC06809120
:1013B00002018062F7CF0E94AC062C9AE2CF0E9415
:1013C000AC060E9447068AEA0E9443068AEA9AE02F
:1013D0000E949F05D6CF0E94AC060E94470685E575
:1013E0000E94430685E595E1F3CF0E942A11811101
:1013F000FCCF83E00E9415110E942A118111FCCFBD
:1014000080E00C9415110E942A118111FCCF89E112
:101410000E9415110E942A118111FCCF0E94151102
:101420000E942A118111FCCF0E9445060C941511CF
:1014300085E695E09F938F930E94BF130F900F90C6
:101440001D9B2CC0809102018F7B809302012D98FF
:101450002FEF81EE94E0215080409040E1F700C0F2
:1014600000002FEF81EE94E0215080409040E1F7A2
:1014700000C000002FEF81EE94E0215080409040AA
:10148000E1F700C00000809102018F7E809302018D
:10149000809102018F7D809302012C981E9B23C0B6
:1014A00080910201877F809302012E982FEF81EEB9
:1014B00094E0215080409040E1F700C000002FEF01
:1014C00081EE94E0215080409040E1F700C00000A0
:1014D000809102018F7E80930201809102018F7DB5
:1014E000809302012C980C944A061E990AC02E9AE9
:1014F0002FEF81EE94E0215080409040E1F700C052
:10150000000008951D990AC02D9A2FEF81EE94E0F6
:10151000215080409040E1F700C0000008951092F3
:101520007202109271020895E2E0F1E08081877FFB
:10153000808380818F7B808380818F7E8083808188
:101540008F7D80832C982D982E986C986B98E1E075
:10155000F1E08081886080838081806180838081E8
:1015600080628083808180648083249A259A269A71
:1015700083E296E09F938F930E94BF130F900F908A
:101580000895AF92BF92CF92DF92EF92FF920F93A6
:101590001F93CF93DF9300D000D00F920F92CDB75F
:1015A000DEB7209171023091720280E091E0821BDF
:1015B000930B8C018930910510F008E010E0C02EEB
:1015C0003F932F939F938F931F930F938CED95E0F1
:1015D0009F938F930E94BF130E94820A8091020101
:1015E0008064809302018FE891E00197F1F700C0D9
:1015F0000000FE0131965F010FB6F894DEBF0FBE0A
:10160000CDBF7F018E2D8A198C1508F45DC0D12CB9
:10161000E0907102F0907202DC105CC00E0D1F1D94
:101620001093720200937102809102018F7B80936C
:101630000201EFE8F1E03197F1F700C0000080917E
:101640007102909172028115914009F081C00E944F
:101650002A118111FCCF81E10E9415110E942A11EB
:101660008111FCCF82E00E9415110E942A11811184
:10167000FCCF0E9415110E942A118111FCCF0E94FB
:1016800015110E942A118111FCCF0E9415110E9490
:101690002A118111FCCF0E9415110E942A1181117B
:1016A000FCCF80E028960FB6F894DEBF0FBECDBF0A
:1016B000DF91CF911F910F91FF90EF90DF90CF902E
:1016C000BF90AF900C9415110E947312F701819393
:1016D0007F0198CFF501F1905F01ED0C0E94470664
:1016E0008F2D0E944306F12CC701809590950E9492
:1016F0009F05F5EDFA95F1F700002C9A87E592E049
:101700000197F1F700C00000C7010E949F0595ED09
:101710009A95F1F7000080910201806180930201A7
:10172000EFE2FAE23197F1F700C000008091020188
:101730008F7E80930201F5EDFA95F1F700002C9869
:101740008FE79BEB0197F1F700C00000D39460CFC7
:101750000E942A118111FCCF81E10E9415110E9483
:101760002A118111FCCF9DCF0F931F93CF93DF934D
:10177000809171029091720200E011E0081B190B38
:10178000E8010930110514F0C8E0D0E00E942A11E8
:101790008111FCCF83E10E9415110E942A11811151
:1017A000FCCF80917102909172028C0F9D1F811568
:1017B000914009F448C080E00E94151180917202A6
:1017C0008F93809171028F931F930F93DF93CF9329
:1017D00086E995E09F938F930E94BF130E94750A3C
:1017E000809102018860809302018FE891E0019767
:1017F000F1F700C000008DB79EB708960FB6F894B9
:101800009EBF0FBE8DBF10E0812F90E08C179D070B
:10181000E4F080910201877F809302018FE891E0DC
:101820000197F1F700C0000080917102909172025F
:10183000C80FD91FD0937202C0937102DF91CF916C
:101840001F910F91089582E0B7CF209171023091DE
:101850007202820F931F0E949F058FE891E001970B
:10186000F1F700C0000080910201806280930201C4
:101870008FE891E00197F1F700C000000E942A1163
:101880008111FCCF0E9445060E9415118091020132
:101890008F7D809302018FE891E00197F1F700C0FE
:1018A00000001F5FB1CF1F93CF93DF930E94750A93
:1018B00080910201886080930201D0E0C0E0CE01F7
:1018C0000E949F058FE891E00197F1F700C00000AA
:1018D000809102018062809302018FE891E001977C
:1018E000F1F700C000000E944506182F8091020108
:1018F0008F7D809302018FE891E00197F1F700C09E
:101900000000111105C02196C11591E0D907B9F663
:1019100080910201877F80930201C11581E0D80781
:1019200089F40E942A118111FCCF85E10E941511D2
:101930000E942A118111FCCF82E0DF91CF911F918B
:101940000C9415110E942A118111FCCF85E10E948F
:1019500015110E942A118111FCCF89E00E941511F6
:101960000E942A118111FCCF0E9415110E942A1198
:101970008111FCCF8C2F0E9415110E942A11811118
:10198000FCCF812FDACF0E9473120E9473120E9443
:10199000180A8CE795E09F938F930E94BF130F90D6
:1019A0000F900E942A118111FCCF80E10E94151135
:1019B0000E942A118111FCCF0C9415110E94180A63
:1019C0008CE495E09F938F930E94BF130F900F902C
:1019D0000E942A118111FCCF82E10E9415110E9400
:1019E0002A118111FCCF0C9415110E94180A8CE267
:1019F00095E09F938F930E94BF130F900F900E94CA
:101A00002A118111FCCF84E10E9415110E942A1134
:101A10008111FCCF0C94151188E195E09F938F9371
:101A20000E94BF130E94180A0F900F900E942A1163
:101A30008111FCCF86E10E9415110E942A118111AB
:101A4000FCCF0C9415110E94731281508A3008F05B
:101A500054C0E82F880FFF0B8827E856F94E8F4FA8
:101A60000C949D130E94750A0E942A118111FCCFCB
:101A700088E10E9415110E942A118111FCCF48C0F3
:101A80000E94750A80910201806280930201ECCF6E
:101A90000E94750A809102018860809302018AEA9F
:101AA00090E00E949F05E0CF0E94750A809102019C
:101AB00088608093020185E590E0F3CF0E94750A6B
:101AC000809102018860E1CF0E94820ACDCF0E94FE
:101AD000820A809102018061D8CF0E94820A2C9AEA
:101AE000C3CF0E94820A809102018064D6CF0E94F7
:101AF000820A809102018064DCCF0E942A11811148
:101B0000FCCF83E00E9415110E942A118111FCCFA5
:101B100080E00C9415110E942A118111FCCF89E1FB
:101B20000E9415110E942A118111FCCF0E941511EB
:101B30000E942A118111FCCF0E9445060C941511B8
:101B4000109225021092200210922102109222027D
:101B50001092230210921F0210921E028FEF8093A8
:101B60001B022F9A2E982D982C98E2E0F1E08081AC
:101B70008F7B808380818F7E80838081877F80833D
:101B80007398279A269A259A249AE1E0F1E08081B9
:101B9000806480838081806180838081886080838D
:101BA0006B9A80818F7D808388E597E09F938F93E8
:101BB0000E94BF130F900F90089570931F026093BF
:101BC0001E0280931B0210921D0210921C021092A2
:101BD00025021092200210922102109222021092ED
:101BE000230284E397E09F938F930E94BF130F908B
:101BF0000F9008952D9A2FEF81EE94E021508040B0
:101C00009040E1F700C0000008952F9A2E9880912F
:101C100002018F7B8093020180910201877F809374
:101C20000201809102018F7E809302012C98739AA9
:101C30002FEF81EE94E0215080409040E1F700C00A
:101C400000002D980E944A0690E080E00E949F05C7
:101C50000E942A118111FCCF86E10E9415110E9479
:101C60002A118111FCCF0C9415111F93CF93DF9390
:101C700020911C0230911D0280911E0290911F0242
:101C8000821B930BEC018930910514F0C8E0D0E081
:101C90003F932F939F938F93DF93CF9383EF96E0A0
:101CA0009F938F930E94BF138DB79EB708960FB670
:101CB000F8949EBF0FBE8DBF10E01C171D0608F4E0
:101CC00054C080911C0290911D02CD2B09F051C08F
:101CD00020911E0230911F022817390709F064C0B5
:101CE0000E942A118111FCCF81E10E9415110E94EE
:101CF0002A118111FCCF82E00E9415110E942A1145
:101D00008111FCCF809125020E9415110E942A1199
:101D10008111FCCF80911B028330F1F58091230269
:101D20000E9415110E942A118111FCCF80911B0283
:101D30008330A1F5809122020E9415110E942A1180
:101D40008111FCCF80911B02833051F580912102DB
:101D50000E9415110E942A118111FCCF80911B0253
:101D6000833001F58091200212C00E9473121F5F20
:101D7000A4CF0E949F050E942A118111FCCF81E10E
:101D80000E9415110E942A118111FCCF8AE0DF9177
:101D9000CF911F910C94151180E0C2CF80E0CCCF81
:101DA00080E0D6CF80E0F3CF0E942A118111FCCFD2
:101DB00081E10E9415110E942A118111FCCFE7CF09
:101DC0000F931F93CF93DF9300911E0210911F0278
:101DD00080911C0290911D02081B190BE80109302B
:101DE000110514F0C8E0D0E00E942A118111FCCF47
:101DF00083E10E9415110E942A118111FCCF80916C
:101E00001C0290911D028C0F9D1F20911E0230918B
:101E10001F028217930781F180E00E9415118091C3
:101E20001D028F9380911C028F931F930F93DF935A
:101E3000CF9383EB96E09F938F930E94BF138DB750
:101E40009EB708960FB6F8949EBF0FBE8DBF10E0E8
:101E500080911C0290911D02212F30E02C173D072C
:101E60006CF0C80FD91FD0931D02C0931C02DF91E4
:101E7000CF911F910F91089582E0CFCF820F931FD2
:101E80000E949F051F5FE4CFCF93DF93D0E0C0E0B7
:101E900080911E0290911F02C817D90798F08C17E5
:101EA0009D07A9F40E942A118111FCCF85E10E94AF
:101EB00015110E942A118111FCCF82E0DF91CF9190
:101EC0000C941511CE010E949F052196E1CF0E942E
:101ED0002A118111FCCF85E10E9415110E942A115F
:101EE0008111FCCF89E00E9415110E942A118111F5
:101EF000FCCF8D2F0E9415110E942A118111FCCF59
:101F00008C2F0E9415110E942A118111FCCFD6CF6F
:101F10000E947312809324020E9473121F928F9367
:101F2000809124021F928F938AE796E09F938F936C
:101F30000E94BF130E94FA0D0F900F900F900F9008
:101F40000F900F900E942A118111FCCF80E10E9416
:101F500015110E942A118111FCCF0C94151181E6F4
:101F600096E09F938F930E94BF130E94FA0D0F90EB
:101F70000F900E942A118111FCCF82E10E9415115D
:101F80000E942A118111FCCF0C94151181E496E076
:101F90009F938F930E94BF130E94FA0D0F900F9092
:101FA0000E942A118111FCCF84E10E9415110E9428
:101FB0002A118111FCCF0C9415110E9473128150CB
:101FC000873008F049C0E82F880FFF0B8827EE55AF
:101FD000F94E8F4F0C949D130E94FA0D0E942A1106
:101FE0008111FCCF88E10E9415110E942A118111F4
:101FF000FCCF3DC00E94FA0D809102018860809361
:102000000201ECCF0E94FA0D809102018064F7CFAB
:102010000E94FA0D2C9AE2CF0E94FA0D0E94470608
:102020008AEA0E94430680E092E00E949F052E9A71
:102030002F98D4CF0E94FA0D0E94470685E50E9492
:10204000430680E095E00E949F0580910201806137
:10205000809302017398C2CF0E942A118111FCCF94
:1020600083E00E9415110E942A118111FCCF80E0AB
:102070000C9415110E942A118111FCCF89E10E9454
:1020800015110E942A118111FCCF0E9415110E9486
:102090002A118111FCCF0E9445060C9415112F9333
:1020A0002FB72F932BB72F938F939F93EF93FF937C
:1020B0008091C0009091C600E0914D02EF5FEF70FB
:1020C00020914C022E1799F08871E0934D02F0E0B8
:1020D000E05BFD4F908380934B02FF91EF919F91C6
:1020E0008F912F912BBF2F912FBF2F91189580E0AB
:1020F000F2CF8F938FB78F938BB78F939F93EF937D
:10210000FF9390914F0280914E029817A9F0E091B1
:102110004E02EF5FEF70E0934E02F0E0E05AFD4FA9
:1021200080818093C600FF91EF919F918F918BBF2B
:102130008F918FBF8F9118958091C1008F7D809373
:10214000C100F1CF10924F0210924E0210924D0238
:1021500010924C029091C20090689093C200282F78
:1021600021709091C20080FF38C090649093C200AB
:102170009091C20092609093C2009091C2009460CE
:102180009093C2009091C10081FF29C09460909308
:10219000C100222319F082FF24C06A9A9091C100E5
:1021A00083FF21C090619093C10084FF1EC0809185
:1021B000C00082608093C0008091C10080688093DD
:1021C000C1006093C4007093C5008091C100886015
:1021D0008093C100699A689808959F7BC7CF9B7FC1
:1021E000D6CF6A98DBCF9F7EDECF8091C0008D7FF7
:1021F000E1CF20914D0290914C0281E0291301C062
:1022000080E0089590914D0280914C02981759F00A
:10221000E0914C02EF5FEF70E0934C02F0E0E05B86
:10222000FD4F8081089580E0089590914F029F5F57
:102230009F7020914E022917E1F3E92FF0E0E05A58
:10224000FD4F808390934F028091C1008062809304
:10225000C100089590914F0280914E02981309C0D9
:102260008091C00085FB882780F991E089278170E3
:10227000089581E0FCCF80914B0208952F932FB7F2
:102280002F932BB72F938F939F93EF93FF9380916F
:10229000C8009091CE00E0912802EF5FEF7020918E
:1022A00027022E1799F08871E0932802F0E0E55D8F
:1022B000FD4F908380932602FF91EF919F918F9124
:1022C0002F912BBF2F912FBF2F91189580E0F2CF28
:1022D0008F938FB78F938BB78F939F93EF93FF93CA
:1022E00090912A02809129029817A9F0E091290281
:1022F000EF5FEF70E0932902F0E0E55CFD4F808135
:102300008093CE00FF91EF919F918F918BBF8F9122
:102310008FBF8F9118958091C9008F7D8093C900E0
:10232000F1CF10922A0210922902109228021092E4
:1023300027029091CA0090689093CA00282F2170BC
:102340009091CA0080FF38C090649093CA00909129
:10235000CA0092609093CA009091CA0094609093D2
:10236000CA009091C90081FF29C094609093C90070
:10237000222319F082FF24C0549A9091C90083FF50
:1023800021C090619093C90084FF1EC08091C80055
:1023900082608093C8008091C90080688093C900E2
:1023A0006093CC007093CD008091C90088608093C9
:1023B000C900539A529808959F7BC7CF9B7FD6CF71
:1023C0005498DBCF9F7EDECF8091C8008D7FE1CF18
:1023D000209128029091270281E0291301C080E01A
:1023E00008959091280280912702981759F0E09162
:1023F0002702EF5FEF70E0932702F0E0E55DFD4F0D
:102400008081089580E0089590912A029F5F9F70D7
:10241000209129022917E1F3E92FF0E0E55CFD4F57
:10242000808390932A028091C90080628093C900C2
:10243000089590912A0280912902981309C08091F1
:10244000C80085FB882780F991E08927817008956D
:1024500081E0FCCF80912602089510927C0087E8ED
:1024600080937A000895CF93DF93582FEB0140E0DB
:1024700060E070E0CB01451313C0242F30E050E042
:1024800040E00E947B13A7E9BCE00E94A5139E01D7
:1024900050E040E00E947B13C901DF91CF91089585
:1024A000EFE9FFE03197F1F700C0000020917A00DA
:1024B000206420937A0020917A0026FDFCCF2091A1
:1024C000780030917900620F731F811D911D4F5F5D
:1024D000D2CFECE7F0E08081807E80836BE077E014
:1024E0008AE00C9433120E94F9108823E1F30C94D3
:1024F00002110F931F93CF938C010E94F910C82FE4
:10250000882321F00E940211F80180838C2FCF9143
:102510001F910F910895CF93C82F0E941912811116
:10252000FCCF8C2F0E94041290E080E0CF910895A0
:102530000F920F92CDB7DEB769E170E088E00E949C
:10254000A21069E170E088E00E94911180E092E0C1
:10255000909376028093750278940E942D1288E100
:102560009EE00FB6F894A895809360000FBE9093FC
:1025700060006D989D986C98809101018E7F80938A
:102580000101809101018D7F809301018CB1F82FB1
:10259000F07285FB222720F982B3682F607285FBD9
:1025A000332730F99CB1892F807194FB552750F95E
:1025B00090910001917070910001E72FE27071FB22
:1025C000442740F9F11148C0662309F45EC082E552
:1025D00092E09F938F930E94BF130F900F9082E021
:1025E0000E94010680E8C82E81E0D82E94E8E92EEA
:1025F00092E0F92ECE0102960E947912882309F406
:102600006EC014E6CE0101960E947912882309F467
:1026100068C099818A81282F30E0192F10951813EE
:1026200050C0205131092A30310508F058C0812F9F
:10263000012E000C990BA89597FDDCCF9F938F93EB
:10264000FF92EF920E94BF13812F0E9493040F907C
:102650000F900F900F90CECF61110AC088E292E0E8
:102660009F938F930E94BF130F900F9081E0B8CF7C
:10267000892B8E2B51F48EEF91E09F938F930E94C4
:10268000BF130F900F9083E0ABCF1F925F931F9209
:102690009F931F924F931F923F931F922F9384EB10
:1026A00091E09F938F930E94BF1386E992E09F93DE
:1026B0008F930E94BF130FB6F894DEBF0FBECDBF3D
:1026C000FFCF1F929F931F928F93DF92CF920E9412
:1026D000BF130F900F900F900F900F900F901FEF60
:1026E000A6CF8FE99FE00197F1F700C000001150DD
:1026F00009F088CFF4CFA1E21A2EAA1BBB1BFD0163
:102700000DC0AA1FBB1FEE1FFF1FA217B307E407D0
:10271000F50720F0A21BB30BE40BF50B661F771F28
:10272000881F991F1A9469F7609570958095909508
:102730009B01AC01BD01CF010895EE0FFF1F881F63
:102740008BBF0790F691E02D19940E94B013A59FBE
:10275000900DB49F900DA49F800D911D112408959C
:10276000A29FB001B39FC001A39F700D811D1124D2
:10277000911DB29F700D811D1124911D08950F931D
:102780001F93CF93DF93CDB7DEB7AE01485F5F4FA6
:10279000DA016D917D91AD0103E712E0F8018281CC
:1027A0009381DC0113962C911397286013962C9338
:1027B0000E94E613D8011296ED91FC912381277FA8
:1027C0002383DF91CF911F910F9108952F923F9214
:1027D0004F925F926F927F928F929F92AF92BF9231
:1027E000CF92DF92EF92FF920F931F93CF93DF93DD
:1027F00000D000D000D00F920F92CDB7DEB77C0191
:102800003B018A01FC0117821682838181FFCEC1C0
:102810009AE0292ECE0101965C01F7019381F30124
:1028200093FD859193FF81913F01882309F446C16F
:10283000853239F493FD859193FF81913F01853273
:1028400029F4B70190E00E94EF15E7CF912C412CBD
:10285000512CFFE1F51538F08B3209F188F4803204
:1028600001F1833221F157FC3AC020ED280F2A30C4
:1028700040F556FE1FC0929C200D1124922E06C0DA
:102880008D3291F0803379F7689450F8F30193FD1D
:10289000859193FF81913F018111DBCF20C0689426
:1028A00051F8689452F8F2CF689453F8EFCF6894D7
:1028B00054F8ECCF429C200D1124422E689455F818
:1028C000E5CF8E3229F456FCF9C0689456F8DECF75
:1028D0008C3619F4689457F8D9CF8836B9F2982F06
:1028E0009F7D95549330C0F08336A1F18337C1F1B9
:1028F000833509F05BC0F801C190D1908F01692D3B
:1029000070E056FC02C06FEF7FEFC6010E94D91540
:102910004C01689457F80AC00C5F1F4F2FE32983BE
:1029200088248394912C6501E89457F853FC04C0E3
:102930004814190409F018F5342C8114910431F568
:10294000332009F46ACFB70180E290E00E94EF15CE
:102950003A94F6CFF801808189830E5F1F4FE0CF54
:10296000F801C190D1908F01692D70E056FC02C032
:102970006FEF7FEFC6010E94E4154C01D5CFB70180
:1029800080E290E00E94EF154A94D2CFF60157FC06
:10299000859157FE81916F01B70190E00E94EF157C
:1029A00031103A94F1E08F1A9108C7CF843619F0AC
:1029B000893609F074C0F80157FE6AC061917191BF
:1029C000819191918F01252D2F76D22E97FF09C0ED
:1029D00090958095709561957F4F8F4F9F4F68942C
:1029E000D7F82AE030E0A5010E941F16C82ECA18A9
:1029F0008C2C5D2CD6FE0CC0E89450F8C91440F421
:102A0000D4FE05C0D2FC03C0FD2DFE7E5F2E892CB6
:102A100054FEA4C0FE01EC0DF11D8081803309F04D
:102A200096C0252D297E522E852D8870382E53FC78
:102A3000A4C050FE9EC09C2C841418F44C0C942C02
:102A4000981854FEA0C0B70180E390E00E94EF15F3
:102A500052FE09C088E790E051FE02C088E590E090
:102A6000B7010E94EF15C91408F499C0CA94D12C7B
:102A70009FEFC91AD90ACA0CDB1CF60182916F01BB
:102A8000B70190E00E94EF15AC14BD04B1F758CF28
:102A900061917191072E000C880B990B93CFD52C67
:102AA000E894D4F82AE030E08537E1F1952D997F5C
:102AB000D92E8F36A9F1F0F4883551F1F7018681CE
:102AC00097812B960FB6F894DEBF0FBECDBFDF9176
:102AD000CF911F910F91FF90EF90DF90CF90BF901B
:102AE000AF909F908F907F906F905F904F903F90AE
:102AF0002F900895803749F0883701F7D4FE02C03F
:102B00006894D2F820E130E00DC06894D4F8F6CF94
:102B100054FE03C0E92FE660DE2E20E132E002C061
:102B200028E030E0F801D7FE0DC0619171918191EC
:102B300091918F01A5010E941F16C82ECA18E89412
:102B4000D7F856CF6191719190E080E0F2CF52FCBE
:102B500002C0839469CF8394839466CF852D867851
:102B600009F462CFF6CFB70180E290E00E94EF1542
:102B700083948414C0F3312C64CF342C381884141B
:102B800008F45FCFF8CF852D867809F46CCF8BE2FF
:102B900051FE80E257FC8DE2B70190E062CFB701B1
:102BA00080E390E00E94EF159A945DCF8FEF9FEF46
:102BB00088CFFC010590615070400110D8F78095D6
:102BC00090958E0F9F1F0895FC01615070400190F9
:102BD0000110D8F7809590958E0F9F1F08950F9341
:102BE0001F93CF93DF93182F092FEB018B8181FD6A
:102BF00009C01FEF0FEF812F902FDF91CF911F9111
:102C00000F91089582FF14C02E813F818C819D8198
:102C1000281739073CF4E881F981CF01019699839F
:102C2000888310838E819F8101969F838E83E3CF5B
:102C3000E885F985812F1995892BA1F3DACFFA015F
:102C4000AA27283051F1203181F1E8946F936E7FEB
:102C50006E5F7F4F8F4F9F4FAF4FB1E03ED0B4E0DC
:102C60003CD0670F781F891F9A1FA11D680F791F1D
:102C70008A1F911DA11D6A0F711D811D911DA11D2E
:102C800020D009F468943F912AE0269F112430193E
:102C9000305D3193DEF6CF010895462F4770405DD9
:102CA0004193B3E00FD0C9F7F6CF462F4F70405D88
:102CB0004A3318F0495D31FD4052419302D0A9F7E3
:102CC000EACFB4E0A6959795879577956795BA95DD
:102CD000C9F700976105710508959B01AC010A2EA3
:102CE00006945795479537952795BA95C9F7620F7A
:102CF000731F841F951FA01D0895F894FFCFF5033F
:102D00000A04190426043304550433045504A104A9
:102D1000BB04D004EA04FF04190556052E056A0514
:102D20008305BF09CD09D509DB09DF09EB09BF0917
:102D3000320D400D480D540D5E0D640D670D6D0D87
:102D4000710D770DEC0F02100810FA0F0C101A100D
:022D5000EC0F86
:0E2D520000000003000000008B1200000000D3
:00000001FF
