:100000000C94CA000C94EB000C94EB000C94EB00E5
:100010000C94EB000C94EB000C94EB000C94EB00B4
:100020000C94EB000C94EB000C94EB000C94EB00A4
:100030000C94EB000C94EB000C94EB000C94EB0094
:100040000C94EB000C94EB000C94EB000C94EB0084
:100050000C94EB000C94EB000C94EB000C94EB0074
:100060000C94EB000C94410F0C946B0F0C94EB0070
:100070000C94EB000C94EB000C94EB000C94EB0054
:100080000C94EB000C94EB000C94EB000C94EB0044
:100090000C9430100C945A100C94EB000C94EB0060
:1000A0000C94EB000C94EB000C94EB000C94EB0024
:1000B0000C94EB000C94EB000C94EB000C94EB0014
:1000C0000C94EB000C94EB000C94EB000C94EB0004
:1000D0000C94EB000C94EB000C94EB000C94EB00F4
:1000E0000C94EB000C94E00E0C9494010C94BD0164
:1000F0000C9422020C94E7090C94C9020C94470159
:100100000C94A4020C94D5060C940C0A0C94620175
:100110000C9467020C94BC0E0C94FD090C94D50E43
:100120000C94C7060C94DF090C9439010C94D10986
:100130000C94060A0C949E110C94DD010C94590148
:100140000C9484020C94100A0C941D010C94D70E8C
:100150000C940B010C94B9060C94010F0C94E20E54
:100160000C94CA0E0C94D9060C942C010C94E40E39
:100170000C94E5060C9402020C9447020C94030ABA
:100180000C9402010C94F3090C94CF060C94EB0E22
:100190000C94160A11241FBECFEFD1E2DEBFCDBFF3
:1001A00000E00CBF12E0A0E0B2E0E8E1F5E200E020
:1001B0000BBF02C007900D92AE30B107D9F722E015
:1001C000AEE0B2E001C01D92A637B207E1F70E948F
:1001D000AB110C9456120C9400000895CF93DF934A
:1001E000D82F0E948611C82F8F3008F072C0E82FD8
:1001F000880FFF0B90910E028827E85AFD4E8F4F13
:100200000C943412913009F047C00E9483078C2F60
:10021000DF91CF910895923011F09430E9F581E0AB
:100220000E94F003882309F464C044E660E072E0B1
:1002300081E00E94D903C0E0EACF923011F09430FF
:1002400059F582E00E94F003882309F452C044E685
:1002500060E074E082E0EDCF9430F1F48EE00E9433
:10026000F003882309F445C044E660E078E08EE0BE
:10027000E0CF923011F0943079F483E00E94F003E3
:100280008823B9F149E160E070E283E0D2CF45E034
:1002900060E074E0933091F00E941C108111FCCF5B
:1002A0008D2F0E9407100E941C108111FCCF86E048
:1002B0001CC0933089F745E060E078E08C2F0E9405
:1002C000740AB9CF933041F745E060E070E18AE00D
:1002D000F6CF0E941C108111FCCF8D2F0E940710B9
:1002E0000E941C108111FCCF84E00E940710CFEF08
:1002F0008ECF0E941C108111FCCF8D2F0E94071001
:100300000E941C108111FCCF87E0EFCFCF93DF93C9
:1003100080518A3008F062C1E82FF0E08827E9595F
:10032000FD4E8F4F0C94341280E10E94EE0087FD49
:1003300055C180910E02813021F4DF91CF910C9450
:100340008109823021F4DF91CF910C9474068330BF
:1003500021F4DF91CF910C94170E0E941C10811193
:10036000FCCF80E10E9407100E941C108111FCCF7D
:1003700085E0DF91CF910C94071080910E028130BF
:1003800021F4DF91CF910C94AD07823021F4DF91FD
:10039000CF910C945404833021F4DF91CF910C94CD
:1003A000F70A0E941C108111FCCF81E10E94071006
:1003B0000E941C108111FCCFDBCF82E10E94EE0075
:1003C00087FD0CC180910E02813021F4DF91CF9125
:1003D0000C949409823021F4DF91CF910C948B0618
:1003E000833021F4DF91CF910C94510E0E941C10A8
:1003F0008111FCCF82E10E9407100E941C10811124
:10040000FCCFB6CF80910E02813021F4DF91CF91E5
:100410000C948E08823021F4DF91CF910C94A605C4
:10042000833021F4DF91CF910C94A80C0E941C1012
:100430008111FCCF83E10E9407100E941C108111E2
:10044000FCCF96CF84E10E94EE0087FDC7C080916B
:100450000E02813021F4DF91CF910C94A3098230F8
:1004600021F4DF91CF910C949A06833021F4DF912F
:10047000CF910C94760E0E941C108111FCCF84E168
:100480000E9407100E941C108111FCCF71CF809137
:100490000E02813021F4DF91CF910C94110982304A
:1004A00021F4DF91CF910C940D06833021F4DF917C
:1004B000CF910C945F0D0E941C108111FCCF85E13F
:1004C0000E9407100E941C108111FCCF51CF0E9486
:1004D0001C108111FCCF87E10E9407100E941C10A4
:1004E0008111FCCF0E9407100E947C11EC010E9438
:1004F0001C108111FCCF8D2F0E9407100E941C1030
:100500008111FCCF8C2F35CF80910E02813021F4E8
:10051000DF91CF910C94B209823021F4DF91CF9119
:100520000C943004833021F4DF91CF910C94C20AF3
:100530000E941C108111FCCF86E10E9407100E94CE
:100540001C108111FCCF14CF88E10E94EE0087FDC2
:1005500045C080910E02813021F4DF91CF910C943F
:10056000C109823021F4DF91CF910C94A906833028
:1005700021F4DF91CF910C94AC0E0E941C108111DC
:10058000FCCF88E10E9407100E941C108111FCCF53
:10059000EFCE89E10E94EE0087FD20C080910E021F
:1005A000813021F4DF91CF910C942A0A823021F41A
:1005B000DF91CF910C94FD06833021F4DF91CF9130
:1005C0000C942C0F0E941C108111FCCF89E10E9419
:1005D00007100E941C108111FCCFCACEDF91CF9171
:1005E00008959C0180FF46C05F9A21FF45C0A29AF2
:1005F00022FF44C0A19A23FF43C0A09A80910B011F
:1006000024FF40C0806880930B0180910B0125FF7F
:100610003BC0806480930B0180910B0126FF36C0A4
:10062000806280930B0180910B0127FF31C08061B4
:1006300080930B0180910B0130FF2CC08860809368
:100640000B0180910B0131FF27C0846080930B0167
:1006500080910B0132FF22C0826080930B01809158
:100660000B0133FF1DC0816080930B0134FF1AC062
:100670002B9A08955F98B9CFA298BACFA198BBCF13
:10068000A098BCCF8F77BFCF8F7BC4CF8F7DC9CFD2
:100690008F7ECECF877FD3CF8B7FD8CF8D7FDDCF9F
:1006A0008E7FE2CF2B980895CF93C82F80930E02B0
:1006B00090E080E00E94F102579A9A9A999A989A4B
:1006C00080910A01806880930A0180910A01806408
:1006D00080930A0180910A01806280930A018091CF
:1006E0000A01806180930A0180910A0188608093E9
:1006F0000A0180910A01846080930A0180910A01B5
:10070000826080930A0180910A01816080930A01CE
:10071000239A11B8C13019F4CF910C9488078091B5
:100720000E02823019F4CF910C94A603C33019F451
:10073000CF910C943F0ACF91089582B9089580B16A
:1007400008958FEF81B9089511B8089510921C0291
:1007500010921502109216021092170210921802AF
:100760001092190210921402109213029FEF9093AC
:100770000F0280931002E2E0F1E080818F7D8083A0
:1007800080818F7B80832C982D986B986B98E1E00B
:10079000F1E08081877F808380818F7E808380816C
:1007A00080628083808180648083249A259A269841
:1007B000089540931902709314026093130280937A
:1007C0000F02109212021092110210921C0210924B
:1007D0001502109216021092170210921802089534
:1007E00090911002923081F4639908C09FEF980FA6
:1007F000923010F481E008958E30E1F3639B02C0E3
:100800008330C1F380E008959430E1F790910A01BC
:100810009E7F90930A0195E09A95F1F700009091E0
:10082000090190FF06C09FEF980F923018F38E30A9
:1008300009F39091090190FD02C08330D9F28091B3
:100840000A01816080930A01DDCF2D9A2FEF81EE9E
:1008500094E0215080409040E1F700C000000895EE
:100860002C98809102018F7B80930201809102017C
:100870008F7D809302012FEF81EE94E02150804024
:100880009040E1F700C000002D980E94A4030E9450
:100890001C108111FCCF86E10E9407100E941C10E1
:1008A0008111FCCF0C9407109F92AF92BF92CF9210
:1008B000DF92EF92FF920F931F93CF93DF9300D0BD
:1008C00000D00F920F92CDB7DEB7009113021091B6
:1008D00014028091110290911202081B190B093029
:1008E000110514F008E010E0D12CED2CF12CE016ED
:1008F000F10608F462C0C12CAC2CB12C809111021D
:1009000090911202A016B10608F462C0080F191FD8
:10091000109312020093110280911302909114021D
:100920000817190709F006C10E941C108111FCCF9D
:1009300081E10E9407100E941C108111FCCF82E00F
:100940000E9407100E941C108111FCCF80911C0294
:100950000E9407100E941C108111FCCF80910F0291
:10096000833009F0DFC0809118020E9407100E94B6
:100970001C108111FCCF80910F02833009F0D4C08C
:10098000809117020E9407100E941C108111FCCF59
:1009900080910F02833009F0C9C0809116020E9435
:1009A00007100E941C108111FCCF80910F02833030
:1009B00009F0BEC08091150230C00E948611E1E0AE
:1009C000F0E0EC0FFD1FEE0DFF1D8083D3948DCF63
:1009D00020911B02E0901902211102C0EE24E39441
:1009E0008A0D9B1D0E94F102D12CFF24F39481E01B
:1009F00090E08C0F9D1FA80EB91EEF1408F5D110C2
:100A000074C00E941C108111FCCF81E10E9407106C
:100A10000E941C108111FCCF8AE028960FB6F89432
:100A2000DEBF0FBECDBFDF91CF911F910F91FF9021
:100A3000EF90DF90CF90BF90AF909F900C940710F5
:100A4000F50190802C9AF5E0FA95F1F700000E94EC
:100A5000A103892D0E949D038AE18A95F1F700C0C8
:100A60008091020180628093020180910F028330A5
:100A7000B9F5EFE3FFE13197F1F700C00000809195
:100A800002018F7D809302019AE19A95F1F700C0EF
:100A90000E94A4032C9880911B028823E9F0E5E0D2
:100AA000EA95F1F7000080910201806480930201D1
:100AB000F5E0FA95F1F700000E949F039091020182
:100AC0009F7B90930201F5019081981307C0D1108C
:100AD00005C0E0901A02EF0CDD24D394F3948DCF7F
:100AE0008FE99FE00197F1F7C8CF80911C028F1525
:100AF00008F48F2D80931C028091150290911602AC
:100B0000A0911702B09118028F0D911DA11DB11D6A
:100B10008093150290931602A0931702B0931802C7
:100B2000C394EACE80E021CF80E02CCF80E037CFA5
:100B300080E073CF0E941C108111FCCF81E10E94E4
:100B400007100E941C108111FCCF67CF1F93CF9319
:100B5000DF93C0911302D091140280911102909101
:100B60001202C81BD90BC930D10514F0C8E0D0E07F
:100B70000E941C108111FCCF83E10E9407100E948B
:100B80001C108111FCCF80911102909112028C0FE8
:100B90009D1F209113023091140282179307B9F020
:100BA00080E00E94071010E08091110290911202E3
:100BB000212F30E02C173D0764F0C80FD91FD093C8
:100BC0001202C0931102DF91CF911F91089582E02C
:100BD000E8CF820F931F0E94F10285E08A95F1F71A
:100BE00000008091020180648093020185E08A9573
:100BF000F1F700000E941C108111FCCF0E949F039E
:100C00000E940710809102018F7B8093020185E092
:100C10008A95F1F700001F5FC7CF1F93CF93DF9333
:100C2000D0E0C0E08091130290911402C817D90758
:100C3000C8F01FEF80911302909114028C179D074A
:100C400089F50E941C108111FCCF85E10E940710DC
:100C50000E941C108111FCCF82E0DF91CF911F9187
:100C60000C940710CE010E94F10285E08A95F1F7FD
:100C700000008091020180648093020185E08A95E2
:100C8000F1F700000E949F03182F809102018F7BD3
:100C90008093020185E08A95F1F700001F3F51F62D
:100CA0002196C0CF0E941C108111FCCF85E10E94CB
:100CB00007100E941C108111FCCF89E00E940710D0
:100CC0000E941C108111FCCF8D2F0E9407100E94E2
:100CD0001C108111FCCF8C2F0E9407100E941C1049
:100CE0008111FCCF812FB9CF0E94861180931B0206
:100CF0000E94861180931A020E9425040E941C10F3
:100D00008111FCCF80E10E9407100E941C1081110C
:100D1000FCCF0C9407100E9425040E941C10811126
:100D2000FCCF82E10E9407100E941C108111FCCFB1
:100D30000C9407100E9425040E941C108111FCCF06
:100D400084E10E9407100E941C108111FCCF0C94BA
:100D500007100E948611EFEFE80FE73008F03FC060
:100D60000E2E000CFF0B8827EF58FD4E8F4F0C9472
:100D700034120E9425040E941C108111FCCF88E1CE
:100D80000E9407100E941C108111FCCF33C00E94EA
:100D9000250480910201806480930201ECCF0E94BF
:100DA0002504809102018062F7CF0E9425042C9ACD
:100DB000E2CF0E9425040E94A1038AEA0E949D03BB
:100DC0008AEA9AE00E94F102D6CF0E9425040E948E
:100DD000A10385E50E949D0385E595E1F3CF0E947F
:100DE0001C108111FCCF83E00E9407100E941C1090
:100DF0008111FCCF80E00C9407100E941C1081111F
:100E0000FCCF89E10E9407100E941C108111FCCFC9
:100E10000E9407100E941C108111FCCF0E949F03AA
:100E20000C9407100C94F1021D9B2CC080910201C0
:100E30008F7B809302012D982FEF81EE94E021505B
:100E400080409040E1F700C000002FEF81EE94E079
:100E5000215080409040E1F700C000002FEF81EE6C
:100E600094E0215080409040E1F700C00000809164
:100E700002018F7E80930201809102018F7D809319
:100E800002012C981E9B23C080910201877F8093D2
:100E900002012E982FEF81EE94E021508040904087
:100EA000E1F700C000002FEF81EE94E02150804078
:100EB0009040E1F700C00000809102018F7E809396
:100EC0000201809102018F7D809302012C980C9485
:100ED000A4031E990AC02E9A2FEF81EE94E02150B0
:100EE00080409040E1F700C0000008951D990AC0BD
:100EF0002D9A2FEF81EE94E0215080409040E1F751
:100F000000C00000089510921E0210921D02089564
:100F1000E2E0F1E08081877F808380818F7B808326
:100F200080818F7E808380818F7D80832C982D9817
:100F30002E986C986B98E1E0F1E080818860808366
:100F400080818061808380818062808380818064F1
:100F50008083249A259A269A0895AF92BF92CF92C1
:100F6000DF92EF92FF920F931F93CF93DF9300D006
:100F700000D00F920F92CDB7DEB780911D029091F5
:100F80001E0200E011E0081B190B0930110510F0DA
:100F900008E010E0C02E0E94760780910201806474
:100FA000809302018FE891E00197F1F700C0000003
:100FB000FE0131965F017F018E2D8A198C1508F490
:100FC0005DC0D12CE0901D02F0901E02DC105CC0D0
:100FD000E00EF11EF0921E02E0921D0280910201CD
:100FE0008F7B80930201EFE8F1E03197F1F700C0C9
:100FF000000080911D0290911E028115914009F020
:1010000081C00E941C108111FCCF81E10E94071059
:101010000E941C108111FCCF82E00E9407100E94E8
:101020001C108111FCCF0E9407100E941C1081111E
:10103000FCCF0E9407100E941C108111FCCF0E945F
:1010400007100E941C108111FCCF0E9407100E9403
:101050001C108111FCCF80E028960FB6F894DEBFFB
:101060000FBECDBFDF91CF911F910F91FF90EF90F9
:10107000DF90CF90BF90AF900C9407100E94861124
:10108000F70181937F0198CFF501F1905F01ED0C9D
:101090000E94A1038F2D0E949D03F12CC701809512
:1010A00090950E94F102F5EDFA95F1F700002C9A67
:1010B00087E592E00197F1F700C00000C7010E94A8
:1010C000F10295ED9A95F1F700008091020180619F
:1010D00080930201EFE2FAE23197F1F700C00000DD
:1010E000809102018F7E80930201F5EDFA95F1F770
:1010F00000002C988FE79BEB0197F1F700C00000F0
:10110000D39460CF0E941C108111FCCF81E10E941A
:1011100007100E941C108111FCCF9DCF1F93CF930D
:10112000DF9380911D0290911E02C0E0D1E0C81BA8
:10113000D90BC930D10514F0C8E0D0E00E941C10D2
:101140008111FCCF83E10E9407100E941C108111C5
:10115000FCCF80911D0290911E028C0F9D1F811566
:10116000914079F180E00E9407100E946907809108
:1011700002018860809302018FE891E00197F1F706
:1011800000C0000010E0812F90E08C179D07DCF07C
:1011900080910201877F809302018FE891E001979F
:1011A000F1F700C0000080911D0290911E02C80F4F
:1011B000D91FD0931E02C0931D02DF91CF911F91C2
:1011C000089582E0D0CF20911D0230911E02820F3F
:1011D000931F0E94F1028FE891E00197F1F700C0A0
:1011E0000000809102018062809302018FE891E00B
:1011F0000197F1F700C000000E941C108111FCCF84
:101200000E949F030E940710809102018F7D8093AE
:1012100002018FE891E00197F1F700C000001F5F25
:10122000B2CF1F93CF93DF930E9469078091020191
:10123000886080930201D0E0C0E0CE010E94F102FC
:101240008FE891E00197F1F700C000008091020162
:101250008062809302018FE891E00197F1F700C06E
:1012600000000E949F03182F809102018F7D8093C0
:1012700002018FE891E00197F1F700C00000111121
:1012800005C02196C11591E0D907B9F680910201F8
:10129000877F80930201C11581E0D80789F40E94FD
:1012A0001C108111FCCF85E10E9407100E941C10C8
:1012B0008111FCCF82E0DF91CF911F910C94071038
:1012C0000E941C108111FCCF85E10E9407100E9432
:1012D0001C108111FCCF89E00E9407100E941C1095
:1012E0008111FCCF0E9407100E941C108111FCCFBD
:1012F0008C2F0E9407100E941C108111FCCF812F9F
:10130000DACF0E9486110E9486110E9414070E9463
:101310001C108111FCCF80E10E9407100E941C105C
:101320008111FCCF0C9407100E9414070E941C101E
:101330008111FCCF82E10E9407100E941C108111D4
:10134000FCCF0C9407100E9414070E941C108111FE
:10135000FCCF84E10E9407100E941C108111FCCF79
:101360000C9407100E9414070E941C108111FCCFDE
:1013700086E10E9407100E941C108111FCCF0C9482
:1013800007100E948611EFEFE80FEA3008F054C012
:101390000E2E000CFF0B8827E858FD4E8F4F0C9443
:1013A00034120E9469070E941C108111FCCF88E151
:1013B0000E9407100E941C108111FCCF48C00E949F
:1013C000690780910201806280930201ECCF0E9444
:1013D0006907809102018860809302018AEA90E0A7
:1013E0000E94F102E0CF0E946907809102018860AB
:1013F0008093020185E590E0F3CF0E946907809118
:1014000002018860E1CF0E947607CDCF0E94760767
:10141000809102018061D8CF0E9476072C9AC3CFB9
:101420000E947607809102018064D6CF0E947607E1
:10143000809102018064DCCF0E941C108111FCCFDE
:1014400083E00E9407100E941C108111FCCF80E0F5
:101450000C9407100E941C108111FCCF89E10E949E
:1014600007100E941C108111FCCF0E9407100E94DF
:101470001C108111FCCF0E949F030C940710109246
:101480002B0210922502109226021092270210922F
:10149000280210922402109223028FEF80931F02E1
:1014A0002E982F982D982C98E2E0F1E080818F7B88
:1014B000808380818F7E80838081877F8083739803
:1014C00026982798259A249AE1E0F1E080818064AB
:1014D00080838081806180838081886080836B9A33
:1014E00080818F7D80830895409329027093240228
:1014F0006093230280931F02109222021092210215
:1015000010922B02109225021092260210922702AE
:101510001092280291E08B3009F090E09195909321
:101520002002089580911F028B30F4F488300CF56E
:10153000863021F18730F9F084508230E0F02D9A26
:101540002FEF81EE94E0215080409040E1F700C001
:101550000000809102018F7E8093020180911F0222
:1015600073988B3071F408958B3041F08C50823039
:1015700030F7269801C0269A2798E1CF269A279A15
:10158000DECF0895809102018F7B809302018091CC
:101590000201877F80930201809102018F7E8093F8
:1015A00002012C9873982FEF81EE94E02150804037
:1015B0009040E1F700C000002D980E94A4038091A4
:1015C0001F028B3089F090E080E00E94F1020E94BF
:1015D0001C108111FCCF86E10E9407100E941C1094
:1015E0008111FCCF0C94071080E098E0EECF9F9221
:1015F000AF92BF92CF92DF92EF92FF920F931F9321
:10160000CF93DF9300D000D00F920F92CDB7DEB70B
:1016100000912302109124028091210290912202D4
:10162000081B190B0930110514F008E010E0D12C4B
:10163000ED2CF12CE016F10608F44EC0B12CCB2CA9
:10164000D12CE0902102F0902202C016D10608F4BD
:101650004EC00E0D1F1D1093220200932102809197
:101660002302909124020817190709F065C10E940E
:101670001C108111FCCF81E10E9407100E941C10F8
:101680008111FCCF82E00E9407100E941C10811182
:10169000FCCF80912B020E9407100E941C10811128
:1016A000FCCF809128020E9407100E941C1081111B
:1016B000FCCF809127020E9407100E941C1081110C
:1016C000FCCF809126020E9407100E941C108111FD
:1016D000FCCF809125025DC00E948611E1E0F0E020
:1016E000EC0FFD1FEE0DFF1D8083D394A1CFEC0CFA
:1016F000FD1C80912A02A0902902811102C0AA2417
:10170000A39480911F028B3009F056C0739A809188
:101710001F028B3029F0809102018F7E809302019D
:101720000E94A1038E2D0E949D03EE242FE0F22241
:1017300080911F028B3009F441C080E090E08E2937
:101740009F290E94F1028AE68A95F1F700C08091F4
:101750001F028B30B1F573989AE69A95F1F700C0A5
:10176000E12CFF24F394E1E0F0E0EC0FFD1FCE0E3E
:10177000DF1EAF1440F5E110BCC00E941C108111A7
:10178000FCCF81E10E9407100E941C108111FCCF48
:101790008AE028960FB6F894DEBF0FBECDBFDF916A
:1017A000CF911F910F91FF90EF90DF90CF90BF905E
:1017B000AF909F900C9407107398A9CF80E098E0A9
:1017C000BECF739AC9CFF60190808091200289150F
:1017D000D9F180911F028B3029F0809102018F7E18
:1017E000809302010E94A103892D0E949D03FAE6C5
:1017F000FA95F1F700C080911F028B3069F180915A
:1018000002018860809302018FE99FE00197F1F760
:1018100000C000002C9A9FEFE0E7F2E09150E0401A
:10182000F040E1F700C000002C988FE99FE001979D
:10183000F1F700C0000080910201877F80930201D0
:101840009AE69A95F1F700C080912A02811128C08A
:10185000EE24E394F3948DCF809102018061809314
:1018600002019AE69A95F1F700C080910201886022
:1018700080930201EFEFF0E722E0E150F0402040DA
:10188000E1F700C0000080910201877F8093020190
:101890008AE68A95F1F700C0809102018F7ECECF53
:1018A0000E94A40380911F028B3009F03FC08091F9
:1018B0000B018E7F80930B01EAE6EA95F1F700C0F9
:1018C000FAE6FA95F1F700C00E949F0390911F027B
:1018D0009B3029F490910B01916090930B012AE6C3
:1018E0002A95F1F700C0F60190819813B3CFE1106B
:1018F000AFCF80912B028F1508F48F2D80932B0290
:101900008091250290912602A0912702B091280291
:101910008F0D911DA11DB11D80932502909326026C
:10192000A0932702B0932802B39489CE809102013C
:10193000806180930201C4CF0E941C108111FCCFF2
:1019400081E10E9407100E941C108111FCCF21CF61
:10195000FF920F931F93CF93DF93C0912302D091F7
:1019600024028091210290912202C81BD90BC93018
:10197000D10514F0C8E0D0E00E941C108111FCCF0A
:1019800083E10E9407100E941C108111FCCF8091FE
:101990002102909122028C0F9D1F209123023091F1
:1019A000240282179307C9F080E00E940710F12CEF
:1019B00080912102909122020F2D10E00C171D073B
:1019C00074F0C80FD91FD0932202C0932102DF9177
:1019D000CF911F910F91FF90089582E0E6CF080FFD
:1019E000191F0E94A10380911F028B3009F4739A82
:1019F000802F0E949D0300271F7080911F028B3053
:101A000009F456C080E090E0802B912B0E94F102F7
:101A10008AE68A95F1F700C080911F028B3009F0A9
:101A20004AC073980E94A4038AE68A95F1F700C021
:101A300080911F02863011F08C3049F480910201B0
:101A40008061809302018AE68A95F1F700C0809157
:101A50001F028B3049F480910B018E7F80930B0124
:101A60008AE68A95F1F700C00E949F03182F8091A3
:101A70001F02863011F08C3029F4809102018F7E94
:101A80008093020180911F028B30B9F480910B0189
:101A9000816080930B018AE68A95F1F700C00E946D
:101AA0001C108111FCCF812F0E940710F39480CF6E
:101AB00080E098E0A9CF739AB5CF7398ECCF1F93CD
:101AC000CF93DF931AEAD0E0C0E080912302909197
:101AD0002402C817D907C8F08091230290912402EC
:101AE0008C179D0709F081C00E941C108111FCCF4A
:101AF00085E10E9407100E941C108111FCCF82E03A
:101B0000DF91CF911F910C9407100E94A103809147
:101B10001F028B3009F4739A8C2F0E949D039E0143
:101B200022273F7080911F028B3009F457C080E05C
:101B300090E0822B932B0E94F1028AE68A95F1F7BE
:101B400000C080911F028B3009F04BC073988AE669
:101B50008A95F1F700C00E94A4038AE68A95F1F7FE
:101B600000C080911F02863011F08C3049F48091C2
:101B700002018061809302018AE68A95F1F700C034
:101B800080911F028B3049F480910B018E7F8093EE
:101B90000B018AE68A95F1F700C00E949F03182F77
:101BA00080911F02863011F08C3029F4809102015F
:101BB0008F7E8093020180911F028B30A1F480916F
:101BC0000B01816080930B018AE68A95F1F700C0D2
:101BD00080912002811380CF219677CF80E098E01A
:101BE000A8CF739AB4CF7398EFCF0E941C108111C5
:101BF000FCCF85E10E9407100E941C108111FCCFD0
:101C000089E00E9407100E941C108111FCCF8D2FCB
:101C10000E9407100E941C108111FCCF8C2F0E9483
:101C200007100E941C108111FCCF812F69CF0E94E8
:101C3000861180932A020E94861180911F0288508B
:101C4000833070F40E941C108111FCCF80E10E944F
:101C500007100E941C108111FCCF83E00C94071028
:101C60000E94920A80910201806480930201809117
:101C70001F028B3091F4809102018F7E80930201CC
:101C800073980E941C108111FCCF80E10E94071004
:101C90000E941C108111FCCFE1CF80910201806174
:101CA000EDCF0E94920A809102018064809302012C
:101CB00080911F02863019F08B50823098F4809109
:101CC00002018F7E8093020173980E941C10811183
:101CD000FCCF82E10E9407100E941C108111FCCFF2
:101CE0000C940710809102018061ECCF80911F025B
:101CF0008850833070F40E941C108111FCCF84E165
:101D00000E9407100E941C108111FCCF83E00C94EC
:101D100007100E94920A8091020180648093020160
:101D200080911F02863011F08B3091F48091020176
:101D30008F7E8093020173980E941C108111FCCF4A
:101D400084E10E9407100E941C108111FCCFDFCF9C
:101D5000809102018061EDCF0E948611EFEFE80FC4
:101D6000EA3008F06BC00E2E000CFF0B8827EE57F0
:101D7000FD4E8F4F0C9434120E94920A0E941C1048
:101D80008111FCCF88E10E9407100E941C10811174
:101D9000FCCF5FC084E080931F020E94920A809172
:101DA0000201886080930201E9CF86E0F4CF88E0E9
:101DB00080931F020E94920A809102018064F2CFF8
:101DC00084E0F6CF86E0F4CF84E080931F020E9487
:101DD000920A2C9AD3CF0E94920A0E94A1038AEA07
:101DE0000E949D0380E09AE00E94F102809102012E
:101DF0008F7E8093020180911F028B30D1F4739803
:101E0000BDCF0E94920A0E94A10385E50E949D0316
:101E100080911F028B3079F080E095E00E94F10202
:101E20008091020180618093020180911F028B30BA
:101E300031F7739AA3CF80E09DE0F0CF0E941C1091
:101E40008111FCCF83E00E9407100E941C108111B9
:101E5000FCCF80E00C9407100E941C108111FCCF75
:101E600089E10E9407100E941C108111FCCF0E9482
:101E700007100E941C108111FCCF0E949F030C943C
:101E800007102F932FB72F932BB72F938F939F93D9
:101E9000EF93FF938091C0009091C600E0915302B0
:101EA000EF5FEF70209152022E1799F08871E09346
:101EB0005302F0E0EA5AFD4F908380935102FF9164
:101EC000EF919F918F912F912BBF2F912FBF2F912A
:101ED000189580E0F2CF8F938FB78F938BB78F9346
:101EE0009F93EF93FF93909155028091540298171E
:101EF000A9F0E0915402EF5FEF70E0935402F0E03C
:101F0000EA59FD4F80818093C600FF91EF919F9128
:101F10008F918BBF8F918FBF8F9118958091C1004A
:101F20008F7D8093C100F1CF109255021092540220
:101F300010925302109252029091C20090689093B6
:101F4000C200282F21709091C20080FF38C0906499
:101F50009093C2009091C20092609093C2009091C1
:101F6000C20094609093C2009091C10081FF29C08B
:101F700094609093C100222319F082FF24C06A9AD2
:101F80009091C10083FF21C090619093C10084FFB4
:101F90001EC08091C00082608093C0008091C1000B
:101FA00080688093C1006093C4007093C5008091E5
:101FB000C10088608093C100699A689808959F7BEA
:101FC000C7CF9B7FD6CF6A98DBCF9F7EDECF809135
:101FD000C0008D7FE1CF209153029091520281E0A9
:101FE000291301C080E0089590915302809152021C
:101FF000981759F0E0915202EF5FEF70E0935202B0
:10200000F0E0EA5AFD4F8081089580E008959091B4
:1020100055029F5F9F70209154022917E1F3E92F29
:10202000F0E0EA59FD4F8083909355028091C10002
:1020300080628093C100089590915502809154026E
:10204000981309C08091C00085FB882780F991E032
:1020500089278170089581E0FCCF80915102089515
:102060002F932FB72F932BB72F938F939F93EF938C
:10207000FF938091C8009091CE00E0912E02EF5F17
:10208000EF7020912D022E1799F08871E0932E02A7
:10209000F0E0EF5CFD4F908380932C02FF91EF9175
:1020A0009F918F912F912BBF2F912FBF2F9118951B
:1020B00080E0F2CF8F938FB78F938BB78F939F93DF
:1020C000EF93FF939091300280912F029817A9F01F
:1020D000E0912F02EF5FEF70E0932F02F0E0EF5BF3
:1020E000FD4F80818093CE00FF91EF919F918F9162
:1020F0008BBF8F918FBF8F9118958091C9008F7D75
:102100008093C900F1CF1092300210922F021092EA
:102110002E0210922D029091CA0090689093CA00EE
:10212000282F21709091CA0080FF38C0906490934E
:10213000CA009091CA0092609093CA009091CA0020
:1021400094609093CA009091C90081FF29C0946067
:102150009093C900222319F082FF24C0549A9091D1
:10216000C90083FF21C090619093C90084FF1EC005
:102170008091C80082608093C8008091C900806807
:102180008093C9006093CC007093CD008091C9000A
:1021900088608093C900539A529808959F7BC7CF57
:1021A0009B7FD6CF5498DBCF9F7EDECF8091C80037
:1021B0008D7FE1CF20912E0290912D0281E0291395
:1021C00001C080E0089590912E0280912D02981711
:1021D00059F0E0912D02EF5FEF70E0932D02F0E0F7
:1021E000EF5CFD4F8081089580E00895909130026A
:1021F0009F5F9F7020912F022917E1F3E92FF0E0F4
:10220000EF5BFD4F8083909330028091C900806224
:102210008093C90008959091300280912F02981305
:1022200009C08091C80085FB882780F991E0892743
:102230008170089581E0FCCF80912C020895109266
:102240007C0087E880937A000895CF93DF9300D0D5
:1022500000D0CDB7DEB76D837E8390E019821A82FD
:102260001B821C82981327C0292F30E050E040E0E9
:1022700069817A818B819C810E941212A7E9BCE05E
:102280000E943C1269837A838B839C836D817E815B
:102290009B0150E040E069817A818B819C810E94A2
:1022A0001212C90126960FB6F894DEBF0FBECDBF3D
:1022B000DF91CF910895EFE9FFE03197F1F700C08A
:1022C000000020917A00206420937A0020917A0007
:1022D00026FDFCCF209178003091790049815A8108
:1022E0006B817C81420F531F611D711D49835A838D
:1022F0006B837C839F5FB6CFECE7F0E08081807ECC
:1023000080836BE077E08AE00C9425110E94EB0F4C
:102310008823E1F30C94F40F0F931F93CF938C0158
:102320000E94EB0FC82F882321F00E94F40FF801C0
:1023300080838C2FCF911F910F910895CF93C82F39
:102340000E940B118111FCCF8C2F0E94F61090E09F
:1023500080E0CF9108950F920F92CDB7DEB769E17B
:1023600070E088E00E94940F78940E941F116D988D
:102370009D986C98809101018E7F809301018091DE
:1023800001018D7F809301014CB182B380729CB1B9
:10239000209100013091000145FD11C0811182E0C2
:1023A0000E945403CE010196082FF92ECE01029609
:1023B0000E948C1114E681111EC0A895F7CF8823C6
:1023C00081F090712170922B832F827031FD04C0B7
:1023D0009111E6CF83E0E4CF84E0992309F380E014
:1023E000DFCF81E0DDCF8FE99FE00197F1F700C0FB
:1023F0000000115011F3802F9F2D0E948C11882313
:1024000091F39A81898180958913D7CF482F4051C4
:10241000550B4A30510588F6A89587FDC7CF0E9415
:102420008601C4CFA1E21A2EAA1BBB1BFD010DC061
:10243000AA1FBB1FEE1FFF1FA217B307E407F50774
:1024400020F0A21BB30BE40BF50B661F771F881F50
:10245000991F1A9469F760957095809590959B01E6
:10246000AC01BD01CF010895EE0FFF1F881F8BBF88
:102470000790F691E02D19940E944712A59F900DA8
:10248000B49F900DA49F800D911D11240895A29FCB
:10249000B001B39FC001A39F700D811D1124911D38
:1024A000B29F700D811D1124911D0895F894FFCFE6
:1024B00002010B011D013901470159014701590171
:1024C0004701590162015901470159012C01940149
:1024D000BD01DD0102022202470284026702A4025A
:1024E000C902B906C706CF06D506D906E506B9065C
:1024F000D109DF09E709F309FD09030A060A0C0AF5
:10250000100A160ABC0ED70EE00EE20EE40ECA0E3A
:08251000D50EEB0E010FBC0E0D
:0E25180000000003000000009E110000000003
:00000001FF
