:100000000C94CE000C94EF000C94EF000C94EF00D5
:100010000C94EF000C94EF000C94EF000C94EF00A4
:100020000C94EF000C94EF000C94EF000C94EF0094
:100030000C94EF000C94EF000C94EF000C94EF0084
:100040000C94EF000C94EF000C94EF000C94EF0074
:100050000C94EF000C94EF000C94EF000C94EF0064
:100060000C94EF000C94EE0F0C9418100C94EF000D
:100070000C94EF000C94EF000C94EF000C94EF0044
:100080000C94EF000C94EF000C94EF000C94EF0034
:100090000C94DD100C9407110C94EF000C94EF00FD
:1000A0000C94EF000C94EF000C94EF000C94EF0014
:1000B0000C94EF000C94EF000C94EF000C94EF0004
:1000C0000C94EF000C94EF000C94EF000C94EF00F4
:1000D0000C94EF000C94EF000C94EF000C94EF00E4
:1000E0000C94EF000C948D0F0C9498010C94940ACE
:1000F0000C944B010C9472070C94B90A0C94660191
:100100000C94690F0C94AA0A0C9477020C9484073F
:100110000C94820F0C94E5010C9478070C948C0AD3
:100120000C943D010C9494020C940C020C947E0AE5
:100130000C94B30A0C9465070C9455020C944B1262
:100140000C9457070C945D010C942E020C949707A5
:100150000C94BD0A0C9421010C94840F0C948E070E
:100160000C940F010C94C3010C94DD020C94AE0F9F
:100170000C948F0F0C94770F0C9430010C946B0738
:100180000C94910F0C94B6020C94B00A0C940601D6
:100190000C94A00A0C94980F0C94C30A11241FBE4F
:1001A000CFEFD1E2DEBFCDBF00E00CBF12E0A0E098
:1001B000B2E0E6E7F6E200E00BBF02C007900D9266
:1001C000AE30B107D9F722E0AEE0B2E001C01D9237
:1001D000A637B207E1F70E9458120C9403130C944F
:1001E00000000895CF93DF93D82F0E943312C82FB9
:1001F0008F3008F072C0E82F880FFF0B90910E022D
:100200008827EB5FFC4E8F4F0C94E112913009F080
:1002100047C00E9430088C2FDF91CF910895923013
:1002200011F09430E9F581E00E948D04882309F4EF
:1002300064C044E660E072E081E00E947604C0E0C1
:10024000EACF923011F0943059F582E00E948D048B
:10025000882309F452C044E660E074E082E0EDCF08
:100260009430F1F48EE00E948D04882309F445C097
:1002700044E660E078E08EE0E0CF923011F0943018
:1002800079F483E00E948D048823B9F149E160E0AC
:1002900070E283E0D2CF45E060E074E0933091F00B
:1002A0000E94C9108111FCCF8D2F0E94B4100E94B2
:1002B000C9108111FCCF86E01CC0933089F745E05E
:1002C00060E078E08C2F0E94210BB9CF933041F78A
:1002D00045E060E070E18AE0F6CF0E94C91081112C
:1002E000FCCF8D2F0E94B4100E94C9108111FCCF49
:1002F00084E00E94B410CFEF8ECF0E94C91081110C
:10030000FCCF8D2F0E94B4100E94C9108111FCCF28
:1003100087E0EFCFCF93DF9380518A3008F074C12C
:10032000E82FF0E08827EC5EFC4E8F4F0C94E11232
:1003300080E10E94F20087FD67C180910E0281304A
:1003400021F4DF91CF910C942E0A823011F0843089
:1003500021F4DF91CF910C941207833021F4DF91C7
:10036000CF910C94C40E0E94C9108111FCCF80E182
:100370000E94B4100E94C9108111FCCF85E0DF916A
:10038000CF910C94B41080910E02813021F4DF9152
:10039000CF910C945A08823011F0843021F4DF910F
:1003A000CF910C94F704833021F4DF91CF910C941A
:1003B000A40B0E94C9108111FCCF81E10E94B410EE
:1003C0000E94C9108111FCCFD9CF82E10E94F200B6
:1003D00087FD1AC180910E02813021F4DF91CF9107
:1003E0000C94410A823011F0843021F4DF91CF91D6
:1003F0000C942907833021F4DF91CF910C94FE0EE9
:100400000E94C9108111FCCF82E10E94B4100E94A9
:10041000C9108111FCCFB2CF80910E02813021F43E
:10042000DF91CF910C943B09823011F0843021F49C
:10043000DF91CF910C944C06833021F4DF91CF9162
:100440000C94550D0E94C9108111FCCF83E10E94CC
:10045000B4100E94C9108111FCCF90CF84E10E949A
:10046000F20087FDD1C080910E02813021F4DF912E
:10047000CF910C94500A823011F0843021F4DF9136
:10048000CF910C943807833021F4DF91CF910C94F5
:10049000230F0E94C9108111FCCF84E10E94B41087
:1004A0000E94C9108111FCCF69CF80910E0281306A
:1004B00021F4DF91CF910C94BE09823011F0843089
:1004C00021F4DF91CF910C94AF06833021F4DF91BA
:1004D000CF910C940C0E0E94C9108111FCCF85E1C4
:1004E0000E94B4100E94C9108111FCCF47CF0E9416
:1004F000C9108111FCCF87E10E94B4100E94C9107D
:100500008111FCCF0E94B4100E942912EC010E94BC
:10051000C9108111FCCF8D2F0E94B4100E94C91008
:100520008111FCCF8C2F2BCF80910E02813021F4D2
:10053000DF91CF910C945F0A823011F0843021F466
:10054000DF91CF910C94D404833021F4DF91CF91CB
:100550000C946F0B0E94C9108111FCCF86E10E94A0
:10056000B4100E94C9108111FCCF08CF88E10E940D
:10057000F20087FD49C080910E02813021F4DF91A5
:10058000CF910C946E0A823011F0843021F4DF9107
:10059000CF910C944707833021F4DF91CF910C94D5
:1005A000590F0E94C9108111FCCF88E10E94B4103C
:1005B0000E94C9108111FCCFE1CE89E10E94F200B6
:1005C00087FD22C080910E02813021F4DF91CF910E
:1005D0000C94D70A823011F0843021F4DF91CF914E
:1005E0000C94AC07833021F4DF91CF910C94D90F98
:1005F0000E94C9108111FCCF89E10E94B4100E94B1
:10060000C9108111FCCFBACEDF91CF9108959C0122
:1006100080FF46C05F9A21FF45C0A29A22FF44C0D6
:10062000A19A23FF43C0A09A80910B0124FF40C0F0
:10063000806880930B0180910B0125FF3BC0806493
:1006400080930B0180910B0126FF36C0806280935E
:100650000B0180910B0127FF31C0806180930B015A
:1006600080910B0130FF2CC0886080930B0180913A
:100670000B0131FF27C0846080930B0180910B0137
:1006800032FF22C0826080930B0180910B0133FF07
:100690001DC0816080930B0134FF1AC02B9A08950E
:1006A0005F98B9CFA298BACFA198BBCFA098BCCF82
:1006B0008F77BFCF8F7BC4CF8F7DC9CF8F7ECECFBB
:1006C000877FD3CF8B7FD8CF8D7FDDCF8E7FE2CF5B
:1006D0002B980895CF93C82F80930E0290E080E06E
:1006E0000E940703579A9A9A999A989A80910A01B8
:1006F000806880930A0180910A01806480930A01D6
:1007000080910A01806280930A0180910A018061D0
:1007100080930A0180910A01886080930A01809188
:100720000A01846080930A0180910A0182608093AB
:100730000A0180910A01816080930A01239A11B80D
:10074000C13019F4CF910C94350880910E0282309B
:1007500011F0843019F4CF910C943704C33019F49C
:10076000CF910C94EC0ACF91089582B9089580B18D
:1007700008958FEF81B9089511B808959C01809173
:10078000020185FF15C02130310549F022303105C5
:1007900029F0809102018F7D80930201089580915C
:1007A00002018F7D80930201809102018061F4CF6C
:1007B0008091020184FF0CC02130310579F38091D2
:1007C00002018F7E809302012230310541F00895AD
:1007D0002130310549F32230310509F00895809127
:1007E00002018062D9CF90910F029E3061F488237C
:1007F00031F0809102018860809302010895809118
:100800000201877FF9CF882311F02C9A08952C9844
:10081000089590910F029E3049F4882321F081E0E1
:1008200090E00C94BE0390E080E0FBCF882331F091
:1008300080910201806480930201089580910201F9
:100840008F7BF9CFCF93DF93EC010E940703809158
:100850000F028E3039F480910201D2FF06C08F7BE7
:1008600080930201DF91CF9108958064F9CF1092B7
:100870001C0210921502109216021092170210928A
:1008800018021092190210921402109213029FEF94
:1008900090930F0280931002E2E0F1E080818F7E5E
:1008A00080838081877F808380818F7D808380812A
:1008B0008F7B80832C982D986B986B98E1E0F1E00A
:1008C0008081877F808380818F7E8083808180622A
:1008D0008083808180648083249A80818860808383
:1008E000808180618083259A26980895409319021B
:1008F000709314026093130280930F0210921202FD
:100900001092110210921C021092150210921602FF
:1009100010921702109218020895982F80911002D9
:10092000823079F4639906C08FEF890F823078F1B5
:100930009E3069F1639B03C081E0933009F080E051
:1009400008958430E1F780910A018E7F80930A0137
:100950008AE68A95F1F700C08091090180FF07C0FF
:100960008FEF890F823088F081E09E3009F080E0BF
:100970002091090120FD03C0933009F481E090919A
:100980000A01916090930A01089581E0F1CF81E01E
:1009900008952D9A2FEF81EE94E0215080409040F1
:1009A000E1F700C00000089580E00E94F30380E0BA
:1009B0000E94090481E090E00E94BE032FEF81EEC7
:1009C00094E0215080409040E1F700C000002D9855
:1009D0000E94BC030E94C9108111FCCF86E10E94D5
:1009E000B4100E94C9108111FCCF0C94B4108F92E6
:1009F0009F92AF92BF92CF92DF92EF92FF920F93AE
:100A00001F93CF93DF9300D000D00F920F92CDB7FA
:100A1000DEB700911302109114028091110290919F
:100A20001202081B190B0930110514F008E010E040
:100A300081E00E94F303D12CED2CF12CE016F1069D
:100A400008F465C0C12CAC2CB12C8091110290919E
:100A50001202A016B10608F465C0080F191F109302
:100A60001202009311028091130290911402081750
:100A7000190709F005C180E00E94F3030E94C91024
:100A80008111FCCF81E10E94B4100E94C910811134
:100A9000FCCF82E00E94B4100E94C9108111FCCFEB
:100AA00080911C020E94B4100E94C9108111FCCFD9
:100AB00080910F02833009F0DBC0809118020E9400
:100AC000B4100E94C9108111FCCF80910F028330B5
:100AD00009F0D0C0809117020E94B4100E94C91082
:100AE0008111FCCF80910F02833009F0C5C0809145
:100AF00016020E94B4100E94C9108111FCCF80918F
:100B00000F02833009F0BAC08091150230C00E94F4
:100B10003312E1E0F0E0EC0FFD1FEE0DFF1D8083CE
:100B2000D3948ACF20911B02E0901902211102C0B8
:100B3000EE24E3948A0D9B1D0E942204D12CFF24F5
:100B4000F39481E090E08C0F9D1FA80EB91EEF1466
:100B500010F5D11070C00E94C9108111FCCF81E145
:100B60000E94B4100E94C9108111FCCF8AE028961F
:100B70000FB6F894DEBF0FBECDBFDF91CF911F91AE
:100B80000F91FF90EF90DF90CF90BF90AF909F902C
:100B90008F900C94B410F5018080F5E0FA95F1F790
:100BA00000000E94B903882D0E94B5038AE18A954E
:100BB000F1F700C082E090E00E94BE0380910F0236
:100BC000833081F5EFE3FFE13197F1F700C00000DA
:100BD00090E080E00E94BE039AE19A95F1F700C090
:100BE00080911B028823D1F00E94BC03E5E0EA95C6
:100BF000F1F7000081E00E940904F5E0FA95F1F7B1
:100C000000000E94B703982E80E00E94090489101A
:100C100007C0D11005C0E0901A02EF0CDD24D39478
:100C2000F39495CF8FE99FE00197F1F700C00000A2
:100C300081E090E0CFCF80911C028F1508F48F2DBA
:100C400080931C028091150290911602A0911702C8
:100C5000B09118028F0D911DA11DB11D8093150239
:100C600090931602A0931702B0931802C394EBCE90
:100C700080E025CF80E030CF80E03BCF80E077CFB1
:100C80000E94C9108111FCCF81E10E94B4100E9422
:100C9000C9108111FCCF6BCF1F93CF93DF93C0910D
:100CA0001302D09114028091110290911202C81B7C
:100CB000D90BC930D10514F0C8E0D0E00E94C910AA
:100CC0008111FCCF83E10E94B4100E94C9108111F0
:100CD000FCCF80911102909112028C0F9D1F2091E8
:100CE00013023091140282179307B9F080E00E943A
:100CF000B41010E08091110290911202212F30E087
:100D00002C173D0764F0C80FD91FD0931202C0936F
:100D10001102DF91CF911F91089582E0E8CF820FF9
:100D2000931F0E94220485E08A95F1F7000081E07C
:100D30000E94090485E08A95F1F700000E94C9101D
:100D40008111FCCF0E94B7030E94B41080E00E9482
:100D5000090485E08A95F1F700001F5FCBCF1F9350
:100D6000CF93DF93D0E0C0E0809113029091140202
:100D7000C817D907C8F01FEF809113029091140291
:100D80008C179D0769F50E94C9108111FCCF85E180
:100D90000E94B4100E94C9108111FCCF82E0DF9143
:100DA000CF911F910C94B410CE010E94220485E0D3
:100DB0008A95F1F7000081E00E94090485E08A9598
:100DC000F1F700000E94B703182F80E00E94090489
:100DD00085E08A95F1F700001F3F71F62196C4CF98
:100DE0000E94C9108111FCCF85E10E94B4100E94BD
:100DF000C9108111FCCF89E00E94B4100E94C91073
:100E00008111FCCF8D2F0E94B4100E94C910811156
:100E1000FCCF8C2F0E94B4100E94C9108111FCCF0E
:100E2000812FBDCF0E94331280931B020E94331288
:100E300080931A020E94C9040E94C9108111FCCF3C
:100E400080E10E94B4100E94C9108111FCCF0C9463
:100E5000B4100E94C9040E94C9108111FCCF82E124
:100E60000E94B4100E94C9108111FCCF0C94B410E0
:100E70000E94C9040E94C9108111FCCF84E10E9424
:100E8000B4100E94C9108111FCCF0C94B4100E94C0
:100E90003312EFEFE80FE93008F050C00E2E000CCF
:100EA000FF0B8827E25EFC4E8F4F0C94E1120E94EC
:100EB000C9040E94C9108111FCCF88E10E94B410BE
:100EC0000E94C9108111FCCF44C00E94C90481E076
:100ED0000E940904EECF0E94C90482E090E00E94C3
:100EE000BE03E7CF0E94C90481E00E94F303E1CF73
:100EF0000E94C9040E94B9038AEA0E94B5038AEAE3
:100F00009AE00E942204D5CF0E94C9040E94B9032E
:100F100085E50E94B50385E595E1F3CF0E94C904FC
:100F200090E080E00E94BE0390E080E0EACF0E9463
:100F3000C90480E094E00E942204D6CF0E94C91028
:100F40008111FCCF83E00E94B4100E94C91081116E
:100F5000FCCF80E00C94B4100E94C9108111FCCF2A
:100F600089E10E94B4100E94C9108111FCCF0E9437
:100F7000B4100E94C9108111FCCF0E94B7030C94D9
:100F8000B4101D9B2CC0809102018F7B80930201C5
:100F90002D982FEF81EE94E0215080409040E1F7B2
:100FA00000C000002FEF81EE94E02150804090407F
:100FB000E1F700C000002FEF81EE94E02150804067
:100FC0009040E1F700C00000809102018F7E809385
:100FD0000201809102018F7D809302012C981E9B5B
:100FE00023C080910201877F809302012E982FEF0A
:100FF00081EE94E0215080409040E1F700C0000075
:101000002FEF81EE94E0215080409040E1F700C046
:101010000000809102018F7E809302018091020185
:101020008F7D809302012C980C94BC031E990AC0FA
:101030002E9A2FEF81EE94E0215080409040E1F70E
:1010400000C0000008951D990AC02D9A2FEF81EE6F
:1010500094E0215080409040E1F700C000000895E6
:1010600010921E0210921D020895E2E0F1E08081CC
:10107000877F808380818F7B808380818F7E808348
:1010800080818F7D80832C982D982E986C986B98FA
:10109000E1E0F1E0808188608083808180618083ED
:1010A000808180628083808180648083249A259AF5
:1010B000269A0895AF92BF92CF92DF92EF92FF925D
:1010C0000F931F93CF93DF9300D000D00F920F9216
:1010D000CDB7DEB780911D0290911E0200E011E0B5
:1010E000081B190B0930110510F008E010E0C02EA4
:1010F0000E942308809102018064809302018FE89E
:1011000091E00197F1F700C00000FE0131965F0108
:101110007F018E2D8A198C1508F45DC0D12CE090CA
:101120001D02F0901E02DC105CC0E00EF11EF09279
:101130001E02E0921D02809102018F7B80930201CA
:10114000EFE8F1E03197F1F700C0000080911D0257
:1011500090911E028115914009F081C00E94C91032
:101160008111FCCF81E10E94B4100E94C91081114D
:10117000FCCF82E00E94B4100E94C9108111FCCF04
:101180000E94B4100E94C9108111FCCF0E94B410BB
:101190000E94C9108111FCCF0E94B4100E94C91096
:1011A0008111FCCF0E94B4100E94C9108111FCCFA4
:1011B00080E028960FB6F894DEBF0FBECDBFDF915A
:1011C000CF911F910F91FF90EF90DF90CF90BF9044
:1011D000AF900C94B4100E943312F70181937F01F9
:1011E00098CFF501F1905F01ED0C0E94B9038F2DAE
:1011F0000E94B503F12CC701809590950E940703CA
:10120000F5EDFA95F1F700002C9A87E592E0019749
:10121000F1F700C00000C7010E94070395ED9A9501
:10122000F1F7000080910201806180930201EFE2FA
:10123000FAE23197F1F700C00000809102018F7E41
:1012400080930201F5EDFA95F1F700002C988FE7F5
:101250009BEB0197F1F700C00000D39460CF0E9490
:10126000C9108111FCCF81E10E94B4100E94C91005
:101270008111FCCF9DCF1F93CF93DF9380911D02EF
:1012800090911E02C0E0D1E0C81BD90BC930D10536
:1012900014F0C8E0D0E00E94C9108111FCCF83E1B6
:1012A0000E94B4100E94C9108111FCCF80911D02D0
:1012B00090911E028C0F9D1F8115914079F180E065
:1012C0000E94B4100E9416088091020188608093E9
:1012D00002018FE891E00197F1F700C0000010E0F3
:1012E000812F90E08C179D07DCF080910201877FB1
:1012F000809302018FE891E00197F1F700C00000B0
:1013000080911D0290911E02C80FD91FD0931E021A
:10131000C0931D02DF91CF911F91089582E0D0CF3D
:1013200020911D0230911E02820F931F0E9407031D
:101330008FE891E00197F1F700C000008091020171
:101340008062809302018FE891E00197F1F700C07D
:1013500000000E94C9108111FCCF0E94B7030E94B7
:10136000B410809102018F7D809302018FE891E09B
:101370000197F1F700C000001F5FB2CF1F93CF931A
:10138000DF930E9416088091020188608093020119
:10139000D0E0C0E0CE010E9407038FE891E0019702
:1013A000F1F700C000008091020180628093020189
:1013B0008FE891E00197F1F700C000000E94B703A9
:1013C000182F809102018F7D809302018FE891E0B8
:1013D0000197F1F700C00000111105C02196C11559
:1013E00091E0D907B9F680910201877F80930201CD
:1013F000C11581E0D80789F40E94C9108111FCCF82
:1014000085E10E94B4100E94C9108111FCCF82E0D6
:10141000DF91CF911F910C94B4100E94C9108111DB
:10142000FCCF85E10E94B4100E94C9108111FCCF4D
:1014300089E00E94B4100E94C9108111FCCF0E9463
:10144000B4100E94C9108111FCCF8C2F0E94B410DF
:101450000E94C9108111FCCF812FDACF0E94331274
:101460000E9433120E94C1070E94C9108111FCCF53
:1014700080E10E94B4100E94C9108111FCCF0C942D
:10148000B4100E94C1070E94C9108111FCCF82E1F3
:101490000E94B4100E94C9108111FCCF0C94B410AA
:1014A0000E94C1070E94C9108111FCCF84E10E94F3
:1014B000B4100E94C9108111FCCF0C94B4100E948A
:1014C000C1070E94C9108111FCCF86E10E94B410AF
:1014D0000E94C9108111FCCF0C94B4100E943312E9
:1014E000EFEFE80FEA3008F054C00E2E000CFF0BAF
:1014F0008827E95DFC4E8F4F0C94E1120E9416087C
:101500000E94C9108111FCCF88E10E94B4100E9492
:10151000C9108111FCCF48C00E94160880910201B9
:10152000806280930201ECCF0E9416088091020134
:101530008860809302018AEA90E00E940703E0CF6E
:101540000E9416088091020188608093020185E55F
:1015500090E0F3CF0E941608809102018860E1CFED
:101560000E942308CDCF0E94230880910201806150
:10157000D8CF0E9423082C9AC3CF0E9423088091C1
:1015800002018064D6CF0E9423088091020180640A
:10159000DCCF0E94C9108111FCCF83E00E94B410FF
:1015A0000E94C9108111FCCF80E00C94B4100E94FD
:1015B000C9108111FCCF89E10E94B4100E94C910AA
:1015C0008111FCCF0E94B4100E94C9108111FCCF80
:1015D0000E94B7030C94B41010922B0210922502B3
:1015E00010922602109227021092280210922402D2
:1015F000109223028FEF80931F022E982F982D9820
:101600002C98E2E0F1E080818F7B808380818F7E67
:1016100080838081877F8083739826982798259A76
:10162000249AE1E0F1E080818064808380818061A0
:1016300080838081886080836B9A80818F7D8083A6
:1016400008954093290270932402609323028093AB
:101650001F02109222021092210210922B0210926D
:10166000250210922602109227021092280291E081
:101670008B3009F090E0919590932002089580912D
:101680001F028B30F4F488300CF5863021F187305E
:10169000F9F084508230E0F02D9A2FEF81EE94E043
:1016A000215080409040E1F700C00000809102018D
:1016B0008F7E8093020180911F0273988B3071F4AA
:1016C00008958B3041F08C50823030F7269801C05D
:1016D000269A2798E1CF269A279ADECF08958091FF
:1016E00002018F7B8093020180910201877F8093AA
:1016F0000201809102018F7E809302012C987398E1
:101700002FEF81EE94E0215080409040E1F700C03F
:1017100000002D980E94BC0380911F028B3089F03D
:1017200090E080E00E9407030E94C9108111FCCF65
:1017300086E10E94B4100E94C9108111FCCF0C9464
:10174000B41080E098E0EECF9F92AF92BF92CF921C
:10175000DF92EF92FF920F931F93CF93DF9300D00E
:1017600000D00F920F92CDB7DEB7009123021091F7
:1017700024028091210290912202081B190B09304A
:10178000110514F008E010E0D12CED2CF12CE0163E
:10179000F10608F44EC0B12CCB2CD12CE0902102E4
:1017A000F0902202C016D10608F44EC00E0D1F1D87
:1017B000109322020093210280912302909124022F
:1017C0000817190709F065C10E94C9108111FCCFE3
:1017D00081E10E94B4100E94C9108111FCCF82E007
:1017E0000E94B4100E94C9108111FCCF80912B027D
:1017F0000E94B4100E94C9108111FCCF8091280270
:101800000E94B4100E94C9108111FCCF8091270260
:101810000E94B4100E94C9108111FCCF8091260251
:101820000E94B4100E94C9108111FCCF8091250242
:101830005DC00E943312E1E0F0E0EC0FFD1FEE0D01
:10184000FF1D8083D394A1CFEC0CFD1C80912A0254
:10185000A0902902811102C0AA24A39480911F02A2
:101860008B3009F056C0739A80911F028B3029F09B
:10187000809102018F7E809302010E94B9038E2D18
:101880000E94B503EE242FE0F22280911F028B30DC
:1018900009F441C080E090E08E299F290E9407034F
:1018A0008AE68A95F1F700C080911F028B30B1F56E
:1018B00073989AE69A95F1F700C0E12CFF24F3940F
:1018C000E1E0F0E0EC0FFD1FCE0EDF1EAF1440F59F
:1018D000E110BCC00E94C9108111FCCF81E10E94BF
:1018E000B4100E94C9108111FCCF8AE028960FB66F
:1018F000F894DEBF0FBECDBFDF91CF911F910F9146
:10190000FF90EF90DF90CF90BF90AF909F900C949E
:10191000B4107398A9CF80E098E0BECF739AC9CF76
:10192000F6019080809120028915D9F180911F02E3
:101930008B3029F0809102018F7E809302010E94FA
:10194000B903892D0E94B503FAE6FA95F1F700C0B4
:1019500080911F028B3069F1809102018860809331
:1019600002018FE99FE00197F1F700C000002C9A77
:101970009FEFE0E7F2E09150E040F040E1F700C077
:1019800000002C988FE99FE00197F1F700C000005C
:1019900080910201877F809302019AE69A95F1F780
:1019A00000C080912A02811128C0EE24E394F394B0
:1019B0008DCF809102018061809302019AE69A9511
:1019C000F1F700C080910201886080930201EFEF7F
:1019D000F0E722E0E150F0402040E1F700C00000D5
:1019E00080910201877F809302018AE68A95F1F750
:1019F00000C0809102018F7ECECF0E94BC038091F7
:101A00001F028B3009F03FC080910B018E7F8093C5
:101A10000B01EAE6EA95F1F700C0FAE6FA95F1F76C
:101A200000C00E94B70390911F029B3029F490914F
:101A30000B01916090930B012AE62A95F1F700C003
:101A4000F60190819813B3CFE110AFCF80912B02B4
:101A50008F1508F48F2D80932B0280912502909191
:101A60002602A0912702B09128028F0D911DA11D81
:101A7000B11D8093250290932602A0932702B09374
:101A80002802B39489CE8091020180618093020183
:101A9000C4CF0E94C9108111FCCF81E10E94B41013
:101AA0000E94C9108111FCCF21CFFF920F931F9389
:101AB000CF93DF93C0912302D09124028091210221
:101AC00090912202C81BD90BC930D10514F0C8E08F
:101AD000D0E00E94C9108111FCCF83E10E94B410B4
:101AE0000E94C9108111FCCF8091210290912202A5
:101AF0008C0F9D1F2091230230912402821793079F
:101B0000C9F080E00E94B410F12C809121029091E4
:101B100022020F2D10E00C171D0774F0C80FD91FFB
:101B2000D0932202C0932102DF91CF911F910F9198
:101B3000FF90089582E0E6CF080F191F0E94B903B5
:101B400080911F028B3009F4739A802F0E94B50395
:101B500000271F7080911F028B3009F456C080E06F
:101B600090E0802B912B0E9407038AE68A95F1F77B
:101B700000C080911F028B3009F04AC073980E9408
:101B8000BC038AE68A95F1F700C080911F02863077
:101B900011F08C3049F48091020180618093020140
:101BA0008AE68A95F1F700C080911F028B3049F4D4
:101BB00080910B018E7F80930B018AE68A95F1F765
:101BC00000C00E94B703182F80911F02863011F0C9
:101BD0008C3029F4809102018F7E809302018091E4
:101BE0001F028B30B9F480910B01816080930B014F
:101BF0008AE68A95F1F700C00E94C9108111FCCFD6
:101C0000812F0E94B410F39480CF80E098E0A9CF98
:101C1000739AB5CF7398ECCF1F93CF93DF931AEAE3
:101C2000D0E0C0E08091230290912402C817D90728
:101C3000C8F080912302909124028C179D0709F02F
:101C400081C00E94C9108111FCCF85E10E94B410AF
:101C50000E94C9108111FCCF82E0DF91CF911F91CA
:101C60000C94B4100E94B90380911F028B3009F4C8
:101C7000739A8C2F0E94B5039E0122273F7080919A
:101C80001F028B3009F457C080E090E0822B932B29
:101C90000E9407038AE68A95F1F700C080911F022F
:101CA0008B3009F04BC073988AE68A95F1F700C033
:101CB0000E94BC038AE68A95F1F700C080911F025A
:101CC000863011F08C3049F480910201806180935C
:101CD00002018AE68A95F1F700C080911F028B30DD
:101CE00049F480910B018E7F80930B018AE68A95DF
:101CF000F1F700C00E94B703182F80911F028630B1
:101D000011F08C3029F4809102018F7E80930201C2
:101D100080911F028B30A1F480910B018160809330
:101D20000B018AE68A95F1F700C0809120028113A9
:101D300080CF219677CF80E098E0A8CF739AB4CF78
:101D40007398EFCF0E94C9108111FCCF85E10E94EA
:101D5000B4100E94C9108111FCCF89E00E94B41018
:101D60000E94C9108111FCCF8D2F0E94B4100E94D7
:101D7000C9108111FCCF8C2F0E94B4100E94C91091
:101D80008111FCCF812F69CF0E94331280932A02E8
:101D90000E94331280911F028850833070F40E9499
:101DA000C9108111FCCF80E10E94B4100E94C910BB
:101DB0008111FCCF83E00C94B4100E943F0B809102
:101DC000020180648093020180911F028B3091F4A4
:101DD000809102018F7E8093020173980E94C91046
:101DE0008111FCCF80E10E94B4100E94C9108111C2
:101DF000FCCFE1CF809102018061EDCF0E943F0BCB
:101E00008091020180648093020180911F028630DC
:101E100019F08B50823098F4809102018F7E80936C
:101E2000020173980E94C9108111FCCF82E10E94C7
:101E3000B4100E94C9108111FCCF0C94B410809191
:101E400002018061ECCF80911F028850833070F4D2
:101E50000E94C9108111FCCF84E10E94B4100E943D
:101E6000C9108111FCCF83E00C94B4100E943F0B89
:101E70008091020180648093020180911F0286306C
:101E800011F08B3091F4809102018F7E80930201DA
:101E900073980E94C9108111FCCF84E10E94B41094
:101EA0000E94C9108111FCCFDFCF809102018061B7
:101EB000EDCF0E943312EFEFE80FEA3008F06BC06D
:101EC0000E2E000CFF0B8827EF5CFC4E8F4F0C94FE
:101ED000E1120E943F0B0E94C9108111FCCF88E1E2
:101EE0000E94B4100E94C9108111FCCF5FC084E031
:101EF00080931F020E943F0B8091020188608093B3
:101F00000201E9CF86E0F4CF88E080931F020E94AF
:101F10003F0B809102018064F2CF84E0F6CF86E02F
:101F2000F4CF84E080931F020E943F0B2C9AD3CF02
:101F30000E943F0B0E94B9038AEA0E94B50380E029
:101F40009AE00E940703809102018F7E8093020134
:101F500080911F028B30D1F47398BDCF0E943F0B4C
:101F60000E94B90385E50E94B50380911F028B3062
:101F700079F080E095E00E94070380910201806182
:101F80008093020180911F028B3031F7739AA3CFA7
:101F900080E09DE0F0CF0E94C9108111FCCF83E06A
:101FA0000E94B4100E94C9108111FCCF80E00C94F3
:101FB000B4100E94C9108111FCCF89E10E94B410B5
:101FC0000E94C9108111FCCF0E94B4100E94C91058
:101FD0008111FCCF0E94B7030C94B4102F932FB73C
:101FE0002F932BB72F938F939F93EF93FF93809112
:101FF000C0009091C600E0915302EF5FEF70209116
:1020000052022E1799F08871E0935302F0E0EA5AD9
:10201000FD4F908380935102FF91EF919F918F919B
:102020002F912BBF2F912FBF2F91189580E0F2CFCA
:102030008F938FB78F938BB78F939F93EF93FF936C
:1020400090915502809154029817A9F0E0915402A2
:10205000EF5FEF70E0935402F0E0EA59FD4F8081AA
:102060008093C600FF91EF919F918F918BBF8F91CD
:102070008FBF8F9118958091C1008F7D8093C10093
:10208000F1CF109255021092540210925302109206
:1020900052029091C20090689093C200282F217044
:1020A0009091C20080FF38C090649093C2009091DC
:1020B000C20092609093C2009091C200946090938D
:1020C000C2009091C10081FF29C094609093C1002B
:1020D000222319F082FF24C06A9A9091C10083FFE5
:1020E00021C090619093C10084FF1EC08091C00008
:1020F00082608093C0008091C10080688093C1009D
:102100006093C4007093C5008091C1008860809383
:10211000C100699A689808959F7BC7CF9B7FD6CFEF
:102120006A98DBCF9F7EDECF8091C0008D7FE1CFAC
:10213000209153029091520281E0291301C080E066
:1021400008959091530280915202981759F0E091AE
:102150005202EF5FEF70E0935202F0E0EA5AFD4F57
:102160008081089580E00895909155029F5F9F704F
:10217000209154022917E1F3E92FF0E0EA59FD4FCD
:102180008083909355028091C10080628093C1004A
:1021900008959091550280915402981309C080913E
:1021A000C00085FB882780F991E089278170089518
:1021B00081E0FCCF8091510208952F932FB72F9388
:1021C0002BB72F938F939F93EF93FF938091C8002A
:1021D0009091CE00E0912E02EF5FEF7020912D02E2
:1021E0002E1799F08871E0932E02F0E0EF5CFD4F1E
:1021F000908380932C02FF91EF919F918F912F916B
:102200002BBF2F912FBF2F91189580E0F2CF8F9386
:102210008FB78F938BB78F939F93EF93FF9390918B
:10222000300280912F029817A9F0E0912F02EF5F02
:10223000EF70E0932F02F0E0EF5BFD4F8081809321
:10224000CE00FF91EF919F918F918BBF8F918FBFA8
:102250008F9118958091C9008F7D8093C900F1CF2F
:102260001092300210922F0210922E0210922D0224
:102270009091CA0090689093CA00282F2170909185
:10228000CA0080FF38C090649093CA009091CA0041
:1022900092609093CA009091CA0094609093CA0093
:1022A0009091C90081FF29C094609093C9002223B6
:1022B00019F082FF24C0549A9091C90083FF21C075
:1022C00090619093C90084FF1EC08091C800826015
:1022D0008093C8008091C90080688093C900609392
:1022E000CC007093CD008091C90088608093C900B4
:1022F000539A529808959F7BC7CF9B7FD6CF54980F
:10230000DBCF9F7EDECF8091C8008D7FE1CF209113
:102310002E0290912D0281E0291301C080E00895E2
:1023200090912E0280912D02981759F0E0912D0284
:10233000EF5FEF70E0932D02F0E0EF5CFD4F8081E6
:10234000089580E00895909130029F5F9F702091E2
:102350002F022917E1F3E92FF0E0EF5BFD4F8083B7
:10236000909330028091C90080628093C9000895E3
:102370009091300280912F02981309C08091C8007B
:1023800085FB882780F991E089278170089581E095
:10239000FCCF80912C02089510927C0087E88093F6
:1023A0007A000895CF93DF9300D000D0CDB7DEB789
:1023B0006D837E8390E019821A821B821C8298139F
:1023C00027C0292F30E050E040E069817A818B817D
:1023D0009C810E94BF12A7E9BCE00E94E9126983B8
:1023E0007A838B839C836D817E819B0150E040E0EA
:1023F00069817A818B819C810E94BF12C9012696D6
:102400000FB6F894DEBF0FBECDBFDF91CF91089518
:10241000EFE9FFE03197F1F700C0000020917A006A
:10242000206420937A0020917A0026FDFCCF209131
:1024300078003091790049815A816B817C81420F0B
:10244000531F611D711D49835A836B837C839F5F7A
:10245000B6CFECE7F0E08081807E80836BE077E0B0
:102460008AE00C94D2110E9498108823E1F30C9416
:10247000A1100F931F93CF938C010E949810C82F27
:10248000882321F00E94A110F80180838C2FCF9126
:102490001F910F910895CF93C82F0E94B8118111F9
:1024A000FCCF8C2F0E94A31190E080E0CF91089583
:1024B0000F920F92CDB7DEB769E170E088E00E941D
:1024C000411078940E94CC116D989D986C988091E1
:1024D00001018E7F80930101809101018D7F8093A6
:1024E00001014CB182B380729CB120910001309106
:1024F000000145FD11C0811182E00E946A03CE01F6
:102500000196082FF92ECE0102960E94391214E688
:1025100081111EC0A895F7CF882381F0907121709A
:10252000922B832F827031FD04C09111E6CF83E09E
:10253000E4CF84E0992309F380E0DFCF81E0DDCFB1
:102540008FE99FE00197F1F700C00000115011F3EF
:10255000802F9F2D0E943912882391F39A818981BF
:1025600080958913D7CF482F4051550B4A305105DC
:1025700088F6A89587FDC7CF0E948A01C4CFA1E243
:102580001A2EAA1BBB1BFD010DC0AA1FBB1FEE1FED
:10259000FF1FA217B307E407F50720F0A21BB30B38
:1025A000E40BF50B661F771F881F991F1A9469F7B4
:1025B00060957095809590959B01AC01BD01CF0110
:1025C0000895EE0FFF1F881F8BBF0790F691E02D37
:1025D00019940E94F412A59F900DB49F900DA49F92
:1025E000800D911D11240895A29FB001B39FC001D9
:1025F000A39F700D811D1124911DB29F700D811D2F
:102600001124911D0895F894FFCF06010F012101B7
:102610003D014B015D014B015D014B015D01660117
:102620005D014B015D0130019801C301E5010C0220
:102630002E02550294027702B602DD0257076507A3
:102640006B0772077807840757078E0797077E0A7C
:102650008C0A940AA00AAA0AB00AB30AB90ABD0AE7
:10266000C30A690F840F8D0F8F0F910F770F820FA1
:06267000980FAE0F690F88
:0E26760000000003000000004B1200000000F6
:00000001FF
