:100000000C94C0000C94E1000C94E1000C94E1000D
:100010000C94E1000C94E1000C94E1000C94E100DC
:100020000C94E1000C94E1000C94E1000C94E100CC
:100030000C94E1000C94E1000C94E1000C94E100BC
:100040000C94E1000C94E1000C94E1000C94E100AC
:100050000C94E1000C94E1000C94E1000C94E1009C
:100060000C94E1000C943B0D0C94650D0C94E10094
:100070000C94E1000C94E1000C94E1000C94E1007C
:100080000C94E1000C94E1000C94E1000C94E1006C
:100090000C942A0E0C94540E0C94E1000C94E10084
:1000A0000C94E1000C94E1000C94E1000C94E1004C
:1000B0000C94E1000C94E1000C94E1000C94E1003C
:1000C0000C94E1000C94E1000C94E1000C94E1002C
:1000D0000C94E1000C94E1000C94E1000C94E1001C
:1000E0000C94E1000C9418020C94C9010C94850145
:1000F0000C9418060C9445020C942C020C941E06C9
:100100000C9410060C94E3010C9422060C94F70056
:100110000C94F80C0C94770F0C9449090C9437014B
:100120000C9456090C9439090C942D090C9419015E
:100130000C949A010C9443090C9452090C940D01EF
:100140000C9425090C9425010C94D80C0C94F40CF7
:100150000C946B010C94B4010C94E60C0C94020604
:100160000C94F8010C94060D0C94EE0C0C94FE000B
:100170000C9417090C945C090C944C090C942E06F1
:1001800011241FBECFEFD1E2DEBFCDBF00E00CBF18
:1001900012E0A0E0B2E0E2EAF0E200E00BBF02C051
:1001A00007900D92AE30B107D9F722E0AEE0B2E091
:1001B00001C01D92A437B207E1F70E94840F0C948E
:1001C00025100C9400000895CF93C82F0E945F0F54
:1001D000282F883008F054C0E82F880FFF0B90912B
:1001E00071028827E95DFF4E8F4F0C940310913008
:1001F00089F50E94CA0680E0CF910895923051F5AA
:1002000081E00E945B03882309F44AC044E660E071
:1002100072E081E00E944403EECF9230D9F482E094
:100220000E945B038823E1F144E660E074E082E031
:10023000F1CF923079F483E00E945B03882381F14F
:1002400049E160E070E283E0E5CF45E060E074E022
:10025000933091F00E94160E8111FCCF8C2F0E94DA
:10026000010E0E94160E8111FCCF86E015C093305E
:1002700089F745E060E078E0822F0E94B909BBCFA2
:100280000E94160E8111FCCF8C2F0E94010E0E943D
:10029000160E8111FCCF84E00E94010E8FEFACCFCF
:1002A0000E94160E8111FCCF8C2F0E94010E0E941D
:1002B000160E8111FCCF87E0EFCFCF93DF938051F3
:1002C0008A3008F0FBC0E82FF0E08827E15DFF4EA0
:1002D0008F4F0C94031080E10E94E40087FDEEC074
:1002E00080917102813011F40E94C80880917102DE
:1002F000823011F40E94BE0580917102833009F0B2
:10030000DDC0DF91CF910C94730C8091710281302C
:1003100011F40E94F40680917102823011F40E945F
:100320009A0380917102833009F0C8C0DF91CF91A8
:100330000C94090A82E10E94E40087FDBFC080910D
:100340007102813011F40E94DB08809171028230C9
:1003500011F40E94D50580917102833009F0AEC07E
:10036000DF91CF910C94950C80917102813011F442
:100370000E94D50780917102823011F40E94F0042E
:1003800080917102833009F099C0DF91CF910C9474
:10039000730B84E10E94E40087FD90C0809171029C
:1003A000813011F40E94EA0880917102823011F4C8
:1003B0000E94E40580917102833009F07FC0DF91D3
:1003C000CF910C94AF0C80917102813011F40E9496
:1003D000580880917102823011F40E945705809173
:1003E0007102833009F06AC0DF91CF910C94F40B55
:1003F0000E94160E8111FCCF87E10E94010E0E941F
:10040000160E8111FCCF0E94010E0E94550FEC01C7
:100410000E94160E8111FCCF8D2F0E94010E0E94AA
:10042000160E8111FCCF8C2FDF91CF910C94010E11
:1004300080917102813011F40E94F908809171025B
:10044000823011F40E947603809171028330B1F5FD
:10045000DF91CF910C94D90988E10E94E40087FDD7
:100460002DC080917102813011F40E9408098091A1
:100470007102823011F40E94F30580917102833081
:10048000E9F4DF91CF910C94C90C88E10E94E4005B
:1004900087FD14C080917102813011F40E947009AF
:1004A00080917102823011F40E944606809171029F
:1004B000833021F4DF91CF910C94260DDF91CF9101
:1004C000089580FF46C05F9A81FF45C0A29A82FFCF
:1004D00044C0A19A83FF43C0A09A20910B0184FFDE
:1004E00040C0206820930B0120910B0185FF3BC089
:1004F000206420930B0120910B0186FF36C02062FF
:1005000020930B0120910B0187FF31C020612093C4
:100510000B0120910B0190FF2CC0286020930B0150
:1005200020910B0191FF27C0246020930B012091A3
:100530000B0192FF22C0226020930B0120910B013E
:1005400093FF1DC0216020930B0194FF1AC02B9ACA
:1005500008955F98B9CFA298BACFA198BBCFA098C1
:10056000BCCF2F77BFCF2F7BC4CF2F7DC9CF2F7E9E
:10057000CECF277FD3CF2B7FD8CF2D7FDDCF2E7F40
:10058000E2CF2B980895CF93C82F8093710290E00B
:1005900080E00E946102579A9A9A999A989A80915B
:1005A0000A01806880930A0180910A018064809327
:1005B0000A0180910A01806280930A0180910A01F8
:1005C000806180930A0180910A01886080930A010A
:1005D00080910A01846080930A0180910A018260FF
:1005E00080930A0180910A01816080930A01239A15
:1005F00011B8C13019F4CF910C94CF06C23019F460
:10060000CF910C941303C33019F4CF910C94850946
:10061000CF91089582B9089580B108958FEF81B97F
:10062000089511B8089510921A02109213021092B0
:1006300014021092150210921602109217021092D4
:100640001202109211028FEF80930E02E2E0F1E0AD
:1006500080818F7D808380818F7B80832C982D98F3
:100660006B986B98E1E0F1E08081877F80838081E7
:100670008F7E80838081806280838081806480839C
:10068000249A259A2698089540931702709312028F
:100690006093110280930E021092100210920F02CA
:1006A00010921A0210921302109214021092150264
:1006B000109216020895982F639904C08FEF890F46
:1006C000823038F0639B03C081E0933009F080E012
:1006D000089581E008952D9A2FEF81EE94E0215046
:1006E00080409040E1F700C0000008952C98809170
:1006F00002018F7B80930201809102018F7D8093A4
:1007000002012FEF81EE94E0215080409040E1F70C
:1007100000C000002D980E9411030E94160E811146
:10072000FCCF86E10E94010E0E94160E8111FCCFC3
:100730000C94010E7F928F929F92AF92BF92CF92B4
:10074000DF92EF92FF920F931F93CF93DF9300D02E
:1007500000D00F920F92CDB7DEB700911102109129
:10076000120220910F0230911002021B130B09306C
:10077000110514F008E010E0D12CED2CF12CE0165E
:10078000F10608F462C0C12CAC2CB12C80910F0290
:1007900090911002A016B10608F462C0080F191F4C
:1007A0001093100200930F02809111029091120297
:1007B0000817190709F008C10E94160E8111FCCF15
:1007C00081E10E94010E0E94160E8111FCCF82E091
:1007D0000E94010E0E94160E8111FCCF80911A0218
:1007E0000E94010E0E94160E8111FCCF80910E0214
:1007F000833009F0E1C0809116020E94010E0E9430
:10080000160E8111FCCF80910E02833009F0D6C004
:10081000809115020E94010E0E94160E8111FCCFDC
:1008200080910E02833009F0CBC0809114020E94A7
:10083000010E0E94160E8111FCCF80910E028330B2
:1008400009F0C0C08091130230C00E945F0FE1E048
:10085000F0E0EC0FFD1FEE0DFF1D8083D3948DCFD4
:1008600020911902E0901702211102C0EE24E394B6
:100870008A0D9B1D0E946102D12CF12C81E090E039
:100880008C0F9D1FA80EB91E4501FE1418F1D11042
:1008900076C00E94160E8111FCCF81E10E94010EEC
:1008A0000E94160E8111FCCF8AE028960FB6F894AC
:1008B000DEBF0FBECDBFDF91CF911F910F91FF9093
:1008C000EF90DF90CF90BF90AF909F908F907F90F0
:1008D0000C94010EF50170802C9AF5E0FA95F1F771
:1008E00000000E940E03872D0E940A038AE18A9568
:1008F000F1F700C080910201806280930201809133
:100900000E028330B9F5EFE3FFE13197F1F700C054
:100910000000809102018F7D809302019AE19A95F7
:10092000F1F700C00E9411032C98809119028823CE
:10093000E9F0E5E0EA95F1F70000809102018064BA
:1009400080930201F5E0FA95F1F700000E940C0394
:10095000909102019F7B90930201F4019081981382
:1009600007C0D11005C0E0901802EF0CDD24D3942D
:10097000F3948BCF8FE99FE00197F1F7C8CF809177
:100980001A028F1508F48F2D80931A02809113029A
:1009900090911402A0911502B09116028F0D911D35
:1009A000A11DB11D8093130290931402A093150210
:1009B000B0931602C394E8CE80E01FCF80E02ACF28
:1009C00080E035CF80E071CF0E94160E8111FCCF00
:1009D00081E10E94010E0E94160E8111FCCF65CFAD
:1009E0001F93CF93DF93C0911102D09112022091F7
:1009F0000F0230911002C21BD30BC930D10514F085
:100A0000C8E0D0E00E94160E8111FCCF83E10E9465
:100A1000010E0E94160E8111FCCF80910F02909161
:100A200010028C0F9D1F209111023091120282172B
:100A30009307B9F080E00E94010E10E080910F0250
:100A400090911002212F30E02C173D0764F0C80F61
:100A5000D91FD0931002C0930F02DF91CF911F9145
:100A6000089582E0E8CF820F931F0E94610285E023
:100A70008A95F1F700008091020180648093020161
:100A800085E08A95F1F700000E94160E8111FCCFD7
:100A90000E940C030E94010E809102018F7B8093C3
:100AA000020185E08A95F1F700001F5FC7CF1F9311
:100AB000CF93DF93D0E0C0E08091110290911202B9
:100AC000C817D907C8F01FEF809111029091120248
:100AD0008C179D0789F50E94160E8111FCCF85E1C8
:100AE0000E94010E0E94160E8111FCCF82E0DF9160
:100AF000CF911F910C94010ECE010E94610285E0FE
:100B00008A95F1F7000080910201806480930201D0
:100B100085E08A95F1F700000E940C03182F809160
:100B200002018F7B8093020185E08A95F1F7000036
:100B30001F3F51F62196C0CF0E94160E8111FCCFA7
:100B400085E10E94010E0E94160E8111FCCF89E002
:100B50000E94010E0E94160E8111FCCF8D2F0E9463
:100B6000010E0E94160E8111FCCF8C2F0E94010EE7
:100B70000E94160E8111FCCF812FB9CF0E945F0F0A
:100B8000809319020E945F0F809318020E946B03EA
:100B90000E94160E8111FCCF80E10E94010E0E947E
:100BA000160E8111FCCF0C94010E0E946B030E9463
:100BB000160E8111FCCF82E10E94010E0E94160EDA
:100BC0008111FCCF0C94010E0E946B030E94160E43
:100BD0008111FCCF84E10E94010E0E94160E81114A
:100BE000FCCF0C94010E0E945F0F8150873008F0FB
:100BF0003FC0E82F880FFF0B8827E75CFF4E8F4F21
:100C00000C9403100E946B030E94160E8111FCCFFE
:100C100088E10E94010E0E94160E8111FCCF33C0A4
:100C20000E946B0380910201806480930201ECCFEB
:100C30000E946B03809102018062F7CF0E946B03D8
:100C40002C9AE2CF0E946B030E940E038AEA0E9454
:100C50000A038AEA9AE00E946102D6CF0E946B03DF
:100C60000E940E0385E50E940A0385E595E1F3CF16
:100C70000E94160E8111FCCF83E00E94010E0E949B
:100C8000160E8111FCCF80E00C94010E0E94160E0E
:100C90008111FCCF89E10E94010E0E94160E811184
:100CA000FCCF0E94010E0E94160E8111FCCF0E9403
:100CB0000C030C94010E1D9B2CC0809102018F7BB4
:100CC000809302012D982FEF81EE94E02150804017
:100CD0009040E1F700C000002FEF81EE94E021503A
:100CE00080409040E1F700C000002FEF81EE94E0DB
:100CF000215080409040E1F700C000008091020147
:100D00008F7E80930201809102018F7D809302018A
:100D10002C981E9B23C080910201877F8093020143
:100D20002E982FEF81EE94E0215080409040E1F723
:100D300000C000002FEF81EE94E0215080409040F1
:100D4000E1F700C00000809102018F7E80930201D4
:100D5000809102018F7D809302012C980C941103E5
:100D60001E990AC02E9A2FEF81EE94E02150804008
:100D70009040E1F700C0000008951D990AC02D9A27
:100D80002FEF81EE94E0215080409040E1F700C0C9
:100D90000000089510927302109272020895E2E02A
:100DA000F1E08081877F808380818F7B8083808159
:100DB0008F7E808380818F7D80832C982D982E98C4
:100DC0006C986B98E1E0F1E080818860808380819D
:100DD0008061808380818062808380818064808361
:100DE000249A259A269A0895AF92BF92CF92DF92C5
:100DF000EF92FF920F931F93CF93DF9300D000D019
:100E00000F920F92CDB7DEB780917202909173026C
:100E100000E011E0081B190B0930110510F008E083
:100E200010E0C02E0E94BD06809102018064809374
:100E300002018FE891E00197F1F700C00000FE0188
:100E400031965F017F018E2D8A198C1508F45DC0E3
:100E5000D12CE0907202F0907302DC105CC0E00EC6
:100E6000F11EF0927302E0927202809102018F7B78
:100E700080930201EFE8F1E03197F1F700C0000044
:100E800080917202909173028115914009F081C0A6
:100E90000E94160E8111FCCF81E10E94010E0E947A
:100EA000160E8111FCCF82E00E94010E0E94160EE8
:100EB0008111FCCF0E94010E0E94160E8111FCCF01
:100EC0000E94010E0E94160E8111FCCF0E94010E9D
:100ED0000E94160E8111FCCF0E94010E0E94160E78
:100EE0008111FCCF80E028960FB6F894DEBF0FBECC
:100EF000CDBFDF91CF911F910F91FF90EF90DF90C9
:100F0000CF90BF90AF900C94010E0E945F0FF7013D
:100F100081937F0198CFF501F1905F01ED0C0E9464
:100F20000E038F2D0E940A03F12CC7018095909526
:100F30000E946102F5EDFA95F1F700002C9A87E521
:100F400092E00197F1F700C00000C7010E94610222
:100F500095ED9A95F1F700008091020180618093F0
:100F60000201EFE2FAE23197F1F700C00000809150
:100F700002018F7E80930201F5EDFA95F1F70000F2
:100F80002C988FE79BEB0197F1F700C00000D394FA
:100F900060CF0E94160E8111FCCF81E10E94010EEC
:100FA0000E94160E8111FCCF9DCF1F93CF93DF932C
:100FB0008091720290917302C0E0D1E0C81BD90BFE
:100FC000C930D10514F0C8E0D0E00E94160E81119E
:100FD000FCCF83E10E94010E0E94160E8111FCCF0E
:100FE00080917202909173028C0F9D1F8115914028
:100FF00079F180E00E94010E0E94B006809102010A
:101000008860809302018FE891E00197F1F700C0BA
:10101000000010E0812F90E08C179D07DCF080919C
:101020000201877F809302018FE891E00197F1F739
:1010300000C000008091720290917302C80FD91F06
:10104000D0937302C0937202DF91CF911F910895E4
:1010500082E0D0CF2091720230917302820F931FF1
:101060000E9461028FE891E00197F1F700C0000053
:10107000809102018062809302018FE891E00197E4
:10108000F1F700C000000E94160E8111FCCF0E94F3
:101090000C030E94010E809102018F7D809302015A
:1010A0008FE891E00197F1F700C000001F5FB2CF19
:1010B0001F93CF93DF930E94B00680910201886056
:1010C00080930201D0E0C0E0CE010E9461028FE86F
:1010D00091E00197F1F700C0000080910201806269
:1010E000809302018FE891E00197F1F700C00000C2
:1010F0000E940C03182F809102018F7D80930201C2
:101100008FE891E00197F1F700C00000111105C0D0
:101110002196C11591E0D907B9F680910201877F28
:1011200080930201C11581E0D80789F40E94160E50
:101130008111FCCF85E10E94010E0E94160E8111E3
:10114000FCCF82E0DF91CF911F910C94010E0E94A1
:10115000160E8111FCCF85E10E94010E0E94160E31
:101160008111FCCF89E00E94010E0E94160E8111B0
:10117000FCCF0E94010E0E94160E8111FCCF8C2F15
:101180000E94010E0E94160E8111FCCF812FDACF32
:101190000E945F0F0E945F0F0E945B060E94160E66
:1011A0008111FCCF80E10E94010E0E94160E811178
:1011B000FCCF0C94010E0E945B060E94160E81115A
:1011C000FCCF82E10E94010E0E94160E8111FCCF1D
:1011D0000C94010E0E945B060E94160E8111FCCF3A
:1011E00084E10E94010E0E94160E8111FCCF0C9426
:1011F000010E0E945B060E94160E8111FCCF86E153
:101200000E94010E0E94160E8111FCCF0C94010E5B
:101210000E945F0F81508A3008F054C0E82F880F79
:10122000FF0B8827E05CFF4E8F4F0C9403100E9449
:10123000B0060E94160E8111FCCF88E10E94010EBB
:101240000E94160E8111FCCF48C00E94B00680910A
:101250000201806280930201ECCF0E94B00680916F
:1012600002018860809302018AEA90E00E94610294
:10127000E0CF0E94B0068091020188608093020155
:1012800085E590E0F3CF0E94B0068091020188606E
:10129000E1CF0E94BD06CDCF0E94BD068091020124
:1012A0008061D8CF0E94BD062C9AC3CF0E94BD0694
:1012B000809102018064D6CF0E94BD068091020118
:1012C0008064DCCF0E94160E8111FCCF83E00E9467
:1012D000010E0E94160E8111FCCF80E00C94010ECD
:1012E0000E94160E8111FCCF89E10E94010E0E941E
:1012F000160E8111FCCF0E94010E0E94160E811164
:10130000FCCF0E940C030C94010E10922602109246
:101310001F021092200210922102109222021092BB
:10132000230210921E0210921D022F982E982D98C3
:101330002C98E2E0F1E080818F7B808380818F7E3A
:1013400080838081877F80837398279A269A259A45
:10135000249AE1E0F1E08081806480838081806173
:1013600080838081886080836B9A80818F7D808379
:1013700008954093230270931E0260931D02109201
:101380001C0210921B021092260210921F02109251
:101390002002109221021092220208952D9A2FEF1E
:1013A00081EE94E0215080409040E1F700C00000C1
:1013B00008952E98809102018F7B80930201809185
:1013C0000201877F80930201809102018F7E8093CA
:1013D00002012C9873982F982FEF81EE94E0215002
:1013E00080409040E1F700C000002D980E9411035A
:1013F00090E080E00E9461020E94160E8111FCCFF5
:1014000086E10E94010E0E94160E8111FCCF0C9401
:10141000010E9F92AF92BF92CF92DF92EF92FF9216
:101420000F931F93CF93DF9300D000D00F920F92B2
:10143000CDB7DEB700911D0210911E0280911B02F4
:1014400090911C02081B190B0930110514F008E0DB
:1014500010E0D12CED2CF12CE016F10608F44EC072
:10146000A12CCA2CD12CE0901B02F0901C02C016BB
:10147000D10608F44EC00E0D1F1D10931C020093E0
:101480001B0280911D0290911E020817190709F096
:101490001EC10E94160E8111FCCF81E10E94010E37
:1014A0000E94160E8111FCCF82E00E94010E0E9464
:1014B000160E8111FCCF809126020E94010E0E941F
:1014C000160E8111FCCF809122020E94010E0E9413
:1014D000160E8111FCCF809121020E94010E0E9404
:1014E000160E8111FCCF809120020E94010E0E94F5
:1014F000160E8111FCCF80911F0252C00E945F0F17
:10150000E1E0F0E0EC0FFD1FEE0DFF1D8083D394B2
:10151000A1CFEC0CFD1C80912502B090230281111B
:1015200002C0BB24B39473982AE12A95F1F700C056
:10153000809102018F7E809302018AE18A95F1F702
:1015400000C00E940E038E2D0E940A03C701882747
:1015500097700E946102EFEFFCE73197F1F700C04E
:101560000000739A8FEF9CE70197F1F700C000002D
:10157000E12CF12CE1E0F0E0EC0FFD1FCE0EDF1EC0
:10158000FB1408F1E11086C00E94160E8111FCCFF9
:1015900081E10E94010E0E94160E8111FCCF8AE0AB
:1015A00028960FB6F894DEBF0FBECDBFDF91CF9166
:1015B0001F910F91FF90EF90DF90CF90BF90AF9071
:1015C0009F900C94010EF6019080809102018F7E15
:1015D00080930201FAE1FA95F1F700C00E940E0330
:1015E0002AE12A95F1F700C0892D0E940A038AE1B9
:1015F0008A95F1F700C08091020188608093020112
:101600009AE19A95F1F700C02C9AEFEFF0E722E00B
:10161000E150F0402040E1F700C000002C988AE142
:101620008A95F1F700C080910201877F80930201C3
:1016300080E00E940A039FE7E8E3F1E09150E04078
:10164000F040E1F700C00000809125028823F1F00E
:101650000E9411032AE12A95F1F700C0809102014E
:101660008061809302018AE68A95F1F700C00E94AA
:101670000C039AE19A95F1F700C0F6019081981356
:1016800007C0E11005C0B0902402BF0CEE24E39423
:10169000F39476CF809126028F1508F48F2D8093D6
:1016A000260280911F0290912002A0912102B09108
:1016B00022028F0D911DA11DB11D80931F029093D9
:1016C0002002A0932102B0932202A394CACE0E94CA
:1016D000160E8111FCCF81E10E94010E0E94160EB0
:1016E0008111FCCF5DCFFF920F931F93CF93DF93B8
:1016F000C0911D02D0911E0280911B0290911C028C
:10170000C81BD90BC930D10514F0C8E0D0E00E9445
:10171000160E8111FCCF83E10E94010E0E94160E6D
:101720008111FCCF80911B0290911C028C0F9D1F98
:1017300020911D0230911E0282179307C9F080E0AC
:101740000E94010EF12C80911B0290911C020F2D22
:1017500010E00C171D0774F0C80FD91FD0931C029E
:10176000C0931B02DF91CF911F910F91FF900895BD
:1017700082E0E6CF080F191F809102018F7E8093CF
:1017800002018AE18A95F1F700C00E940E03802FC2
:101790000E940A03C801882797700E9461028AE1AB
:1017A0008A95F1F700C0739A8AE18A95F1F700C033
:1017B0000E941103809102018061809302018AE6F8
:1017C0008A95F1F700C00E940C03182F73988AE1E4
:1017D0008A95F1F700C00E94160E8111FCCF812F6F
:1017E0000E94010EF394AFCF1F93CF93DF93D0E00D
:1017F000C0E080911D0290911E02C817D907D0F059
:1018000010E080911D0290911E028C179D0709F037
:1018100048C00E94160E8111FCCF85E10E94010E86
:101820000E94160E8111FCCF82E0DF91CF911F91B3
:101830000C94010E809102018F7E809302018AE157
:101840008A95F1F700C00E940E038C2F0E940A03B4
:10185000CE01882797700E9461028AE18A95F1F78C
:1018600000C0739A8AE18A95F1F700C00E941103C3
:10187000809102018061809302018AE18A95F1F7EB
:1018800000C08AE68A95F1F700C00E940C03182F69
:1018900073988AE18A95F1F700C01111B2CF2196B1
:1018A000A8CF0E94160E8111FCCF85E10E94010E87
:1018B0000E94160E8111FCCF89E00E94010E0E9449
:1018C000160E8111FCCF8D2F0E94010E0E94160E64
:1018D0008111FCCF8C2F0E94010E0E94160E8111E7
:1018E000FCCF812FA2CF0E945F0F809325020E9420
:1018F0005F0F809324020E94CE09809102018064D0
:10190000809302012F9A80910201806180930201ED
:101910000E94160E8111FCCF80E10E94010E0E94F0
:10192000160E8111FCCF0C94010E0E94CE098091FD
:1019300002018064809302012F9A809102018061EC
:10194000809302010E94160E8111FCCF82E10E9459
:10195000010E0E94160E8111FCCF0C94010E0E9404
:10196000CE09809102018064809302012F9A8091B8
:1019700002018061809302010E94160E8111FCCF4A
:1019800084E10E94010E0E94160E8111FCCF0C947E
:10199000010E0E945F0F8150873008F049C0E82F88
:1019A000880FFF0B8827E65BFF4E8F4F0C940310C8
:1019B0000E94CE090E94160E8111FCCF88E10E9480
:1019C000010E0E94160E8111FCCF3DC00E94CE096F
:1019D00080910201886080930201ECCF0E94CE09C1
:1019E000809102018064F7CF0E94CE092C9AE2CF49
:1019F0000E94CE090E940E038AEA0E940A0380E038
:101A000092E00E9461022E9A2F98D4CF0E94CE09B4
:101A10000E940E0385E50E940A0380E095E00E9483
:101A20006102809102018061809302017398C2CFAC
:101A30000E94160E8111FCCF83E00E94010E0E94CD
:101A4000160E8111FCCF80E00C94010E0E94160E40
:101A50008111FCCF89E10E94010E0E94160E8111B6
:101A6000FCCF0E94010E0E94160E8111FCCF0E9435
:101A70000C030C94010E2F932FB72F932BB72F939A
:101A80008F939F93EF93FF938091C0009091C60036
:101A9000E0914E02EF5FEF7020914D022E1799F00A
:101AA0008871E0934E02F0E0EF5AFD4F90838093EF
:101AB0004C02FF91EF919F918F912F912BBF2F910E
:101AC0002FBF2F91189580E0F2CF8F938FB78F9310
:101AD0008BB78F939F93EF93FF93909150028091D8
:101AE0004F029817A9F0E0914F02EF5FEF70E0937B
:101AF0004F02F0E0EF59FD4F80818093C600FF91C7
:101B0000EF919F918F918BBF8F918FBF8F91189580
:101B10008091C1008F7D8093C100F1CF109250025F
:101B200010924F0210924E0210924D029091C200FC
:101B300090689093C200282F21709091C20080FF7E
:101B400038C090649093C2009091C20092609093CC
:101B5000C2009091C20094609093C2009091C10025
:101B600081FF29C094609093C100222319F082FF65
:101B700024C06A9A9091C10083FF21C09061909324
:101B8000C10084FF1EC08091C00082608093C000AD
:101B90008091C10080688093C1006093C4007093FD
:101BA000C5008091C10088608093C100699A6898DF
:101BB00008959F7BC7CF9B7FD6CF6A98DBCF9F7E50
:101BC000DECF8091C0008D7FE1CF20914E029091B9
:101BD0004D0281E0291301C080E0089590914E02EA
:101BE00080914D02981759F0E0914D02EF5FEF7030
:101BF000E0934D02F0E0EF5AFD4F8081089580E0C0
:101C00000895909150029F5F9F7020914F02291775
:101C1000E1F3E92FF0E0EF59FD4F808390935002FC
:101C20008091C10080628093C1000895909150021C
:101C300080914F02981309C08091C00085FB8827CE
:101C400080F991E089278170089581E0FCCF80912F
:101C50004C0208952F932FB72F932BB72F938F9369
:101C60009F93EF93FF938091C8009091CE00E091F5
:101C70002902EF5FEF70209128022E1799F08871EA
:101C8000E0932902F0E0E45DFD4F9083809327020A
:101C9000FF91EF919F918F912F912BBF2F912FBF8C
:101CA0002F91189580E0F2CF8F938FB78F938BB7DA
:101CB0008F939F93EF93FF9390912B0280912A0231
:101CC0009817A9F0E0912A02EF5FEF70E0932A02E3
:101CD000F0E0E45CFD4F80818093CE00FF91EF91B6
:101CE0009F918F918BBF8F918FBF8F91189580910E
:101CF000C9008F7D8093C900F1CF10922B02109202
:101D00002A0210922902109228029091CA0090682B
:101D10009093CA00282F21709091CA0080FF38C08C
:101D200090649093CA009091CA0092609093CA0008
:101D30009091CA0094609093CA009091C90081FF6D
:101D400029C094609093C900222319F082FF24C017
:101D5000549A9091C90083FF21C090619093C9006B
:101D600084FF1EC08091C80082608093C80080916B
:101D7000C90080688093C9006093CC007093CD0047
:101D80008091C90088608093C900539A5298089541
:101D90009F7BC7CF9B7FD6CF5498DBCF9F7EDECF74
:101DA0008091C8008D7FE1CF209129029091280277
:101DB00081E0291301C080E008959091290280916B
:101DC0002802981759F0E0912802EF5FEF70E09336
:101DD0002802F0E0E45DFD4F8081089580E00895E1
:101DE00090912B029F5F9F7020912A022917E1F3A7
:101DF000E92FF0E0E45CFD4F808390932B0280910B
:101E0000C90080628093C900089590912B0280914F
:101E10002A02981309C08091C80085FB882780F9A1
:101E200091E089278170089581E0FCCF809127029D
:101E3000089510927C0087E880937A000895CF93EC
:101E4000DF93582FEB0140E060E070E0CB014513D9
:101E500013C0242F30E050E040E00E94E10FA7E9DA
:101E6000BCE00E940B109E0150E040E00E94E10F98
:101E7000C901DF91CF910895EFE9FFE03197F1F7C4
:101E800000C0000020917A00206420937A00209105
:101E90007A0026FDFCCF2091780030917900620F06
:101EA000731F811D911D4F5FD2CFECE7F0E0808161
:101EB000807E80836BE077E08AE00C941F0F0E94A5
:101EC000E50D8823E1F30C94EE0D0F931F93CF9350
:101ED0008C010E94E50DC82F882321F00E94EE0D91
:101EE000F80180838C2FCF911F910F910895CF938C
:101EF000C82F0E94050F8111FCCF8C2F0E94F00E7D
:101F000090E080E0CF9108950F920F92CDB7DEB7A9
:101F100069E170E088E00E948E0D78940E94190FAC
:101F20006D989D986C98809101018E7F809301013E
:101F3000809101018D7F809301014CB192B3907229
:101F40008CB1309100012091000145FD03C0911139
:101F50000BC0FFCF9923A1F080713170832B2270C9
:101F6000822BB9F783E001C082E00E94C302CE0158
:101F700002960E94650F14E681110CC0A895F7CF58
:101F800081E0F3CF8FE99FE00197F1F700C00000F7
:101F90001150A1F3CE0101960E94650F882391F3A1
:101FA0009A81898180958913E9CF482F4051550B3B
:101FB0004A30510518F7A89587FDD9CF0E945D01D9
:101FC000D6CFA1E21A2EAA1BBB1BFD010DC0AA1F72
:101FD000BB1FEE1FFF1FA217B307E407F50720F092
:101FE000A21BB30BE40BF50B661F771F881F991F0D
:101FF0001A9469F760957095809590959B01AC0156
:10200000BD01CF010895EE0FFF1F881F8BBF079002
:10201000F691E02D19940E941610A59F900DB49F83
:10202000900DA49F800D911D11240895A29FB001D1
:10203000B39FC001A39F700D811D1124911DB29FFC
:10204000700D811D1124911D0895F894FFCFF700A4
:10205000FE000D01190125013701250137016B0132
:1020600085019A01B401C901E3011802F8012C02AB
:1020700045020206100618061E0622062E06020655
:10208000170925092D093909430949094C0952093C
:1020900056095C09D80CEE0CF40CE60CF80C060D95
:0220A000D80C5A
:0E20A2000000000300000000770F00000000A7
:00000001FF
