:100000000C94C0000C94E1000C94E1000C94E1000D
:100010000C94E1000C94E1000C94E1000C94E100DC
:100020000C94E1000C94E1000C94E1000C94E100CC
:100030000C94E1000C94E1000C94E1000C94E100BC
:100040000C94E1000C94E1000C94E1000C94E100AC
:100050000C94E1000C94E1000C94E1000C94E1009C
:100060000C94E1000C94C70B0C94F10B0C94E10080
:100070000C94E1000C94E1000C94E1000C94E1007C
:100080000C94E1000C94E1000C94E1000C94E1006C
:100090000C94B60C0C94E00C0C94E1000C94E10070
:1000A0000C94E1000C94E1000C94E1000C94E1004C
:1000B0000C94E1000C94E1000C94E1000C94E1003C
:1000C0000C94E1000C94E1000C94E1000C94E1002C
:1000D0000C94E1000C94E1000C94E1000C94E1001C
:1000E0000C94E1000C9418020C94720B0C94C9014E
:1000F0000C9485010C9413060C9445020C942C026C
:100100000C9419060C940B060C94E3010C941D0638
:100110000C94F7000C94030E0C9444090C943701D2
:100120000C9451090C9434090C9428090C9419016D
:100130000C949A010C94920B0C943E090C944D096A
:100140000C940D010C9420090C9425010C94640B63
:100150000C946B010C94800B0C94B4010C94FD0571
:100160000C94F8010C94FE000C947A0B0C94840B04
:100170000C9412090C9457090C9447090C94290605
:1001800011241FBECFEFD1E2DEBFCDBF00E00CBF18
:1001900012E0A0E0B2E0EEECFDE100E00BBF02C037
:1001A00007900D92AE30B107D9F722E0AEE0B2E091
:1001B00001C01D92A237B207E1F70E94100E0C9405
:1001C000BB0E0C9400000895CF93C82F0E94EB0D36
:1001D000282F883008F054C0E82F880FFF0B90912B
:1001E0006F028827E354F14F8F4F0C94990E913092
:1001F00089F50E94C50680E0CF910895923051F5AF
:1002000081E00E945603882309F44AC044E660E076
:1002100072E081E00E943F03EECF9230D9F482E099
:100220000E9456038823E1F144E660E074E082E036
:10023000F1CF923079F483E00E945603882381F154
:1002400049E160E070E283E0E5CF49E160E074E01D
:10025000933091F00E94A20C8111FCCF8C2F0E9450
:100260008D0C0E94A20C8111FCCF86E015C093304A
:1002700089F749E160E078E0822F0E94B509BBCFA1
:100280000E94A20C8111FCCF8C2F0E948D0C0E9429
:10029000A20C8111FCCF84E00E948D0C8FEFACCFBB
:1002A0000E94A20C8111FCCF8C2F0E948D0C0E9409
:1002B000A20C8111FCCF87E0EFCFCF93DF93805169
:1002C0008A3008F0FBC0E82FF0E08827EB53F14FAD
:1002D0008F4F0C94990E80E10E94E40087FDEEC0E0
:1002E00080916F02813011F40E94C30880916F02E7
:1002F000823011F40E94B90580916F02833009F0B9
:10030000DDC0DF91CF910C94240B80916F0281307E
:1003100011F40E94EF0680916F02823011F40E9466
:10032000950380916F02833009F0C8C0DF91CF91AF
:100330000C94010A82E10E94E40087FDBFC0809115
:100340006F02813011F40E94D60880916F028230D2
:1003500011F40E94D00580916F02833009F0AEC085
:10036000DF91CF910C94370B80916F02813011F4A3
:100370000E94D00780916F02823011F40E94EB043A
:1003800080916F02833009F099C0DF91CF910C9476
:10039000970A84E10E94E40087FD90C080916F027B
:1003A000813011F40E94E50880916F02823011F4CF
:1003B0000E94DF0580916F02833009F07FC0DF91DA
:1003C000CF910C94460B80916F02813011F40E9402
:1003D000530880916F02823011F40E94520580917F
:1003E0006F02833009F06AC0DF91CF910C94E00A6C
:1003F0000E94A20C8111FCCF87E10E948D0C0E940B
:10040000A20C8111FCCF0E948D0C0E94E10DEC0129
:100410000E94A20C8111FCCF8D2F0E948D0C0E9496
:10042000A20C8111FCCF8C2FDF91CF910C948D0CFD
:1004300080916F02813011F40E94F40880916F0264
:10044000823011F40E94710380916F028330B1F504
:10045000DF91CF910C94D50988E10E94E40087FDDB
:100460002DC080916F02813011F40E9403098091A8
:100470006F02823011F40E94EE0580916F0283308A
:10048000E9F4DF91CF910C94550B88E10E94E400D0
:1004900087FD14C080916F02813011F40E946B09B6
:1004A00080916F02823011F40E94410680916F02A8
:1004B000833021F4DF91CF910C94B20BDF91CF9177
:1004C000089580FF46C05F9A81FF45C0A29A82FFCF
:1004D00044C0A19A83FF43C0A09A20910B0184FFDE
:1004E00040C0206820930B0120910B0185FF3BC089
:1004F000206420930B0120910B0186FF36C02062FF
:1005000020930B0120910B0187FF31C020612093C4
:100510000B0120910B0190FF2CC0286020930B0150
:1005200020910B0191FF27C0246020930B012091A3
:100530000B0192FF22C0226020930B0120910B013E
:1005400093FF1DC0216020930B0194FF1AC02B9ACA
:1005500008955F98B9CFA298BACFA198BBCFA098C1
:10056000BCCF2F77BFCF2F7BC4CF2F7DC9CF2F7E9E
:10057000CECF277FD3CF2B7FD8CF2D7FDDCF2E7F40
:10058000E2CF2B980895CF93C82F80936F0290E00D
:1005900080E00E946102579A9A9A999A989A80915B
:1005A0000A01806880930A0180910A018064809327
:1005B0000A0180910A01806280930A0180910A01F8
:1005C000806180930A0180910A01886080930A010A
:1005D00080910A01846080930A0180910A018260FF
:1005E00080930A0180910A01816080930A01239A15
:1005F00011B8C13019F4CF910C94CA06C23019F465
:10060000CF910C940E03CF91089582B9089580B1D3
:1006100008958FEF81B9089511B8089510921A02C4
:1006200010921302109214021092150210921602E8
:100630001092170210921202109211028FEF809303
:100640000E02E2E0F1E080818F7D808380818F7BEC
:1006500080832C982D986B986B98E1E0F1E0808175
:10066000877F808380818F7E80838081806280838A
:10067000808180648083249A259A269808954093E7
:100680001702709312026093110280930E0210926F
:10069000100210920F0210921A021092130210927E
:1006A000140210921502109216020895982F639961
:1006B00004C08FEF890F823038F0639B03C081E064
:1006C000933009F080E0089581E008952D9A2FEF8E
:1006D00081EE94E0215080409040E1F700C000009E
:1006E00008952C98809102018F7B80930201809164
:1006F00002018F7D809302012FEF81EE94E0215063
:1007000080409040E1F700C000002D980E940C034B
:100710000E94A20C8111FCCF86E10E948D0C0E94E8
:10072000A20C8111FCCF0C948D0C7F928F929F9222
:10073000AF92BF92CF92DF92EF92FF920F931F93EF
:10074000CF93DF9300D000D00F920F92CDB7DEB7DA
:10075000009111021091120220910F0230911002AB
:10076000021B130B0930110514F008E010E0D12C26
:10077000ED2CF12CE016F10608F462C0C12CAC2C73
:10078000B12C80910F0290911002A016B10608F4CE
:1007900062C0080F191F1093100200930F0280917E
:1007A0001102909112020817190709F008C10E945E
:1007B000A20C8111FCCF81E10E948D0C0E94A20C41
:1007C0008111FCCF82E00E948D0C0E94A20C81114D
:1007D000FCCF80911A020E948D0C0E94A20C811104
:1007E000FCCF80910E02833009F0E1C080911602A7
:1007F0000E948D0C0E94A20C8111FCCF80910E02F0
:10080000833009F0D6C0809115020E948D0C0E94A1
:10081000A20C8111FCCF80910E02833009F0CBC075
:10082000809114020E948D0C0E94A20C8111FCCFB9
:1008300080910E02833009F0C0C08091130230C055
:100840000E94EB0DE1E0F0E0EC0FFD1FEE0DFF1D4F
:100850008083D3948DCF20911902E090170221114B
:1008600002C0EE24E3948A0D9B1D0E946102D12CEC
:10087000F12C81E090E08C0F9D1FA80EB91E450160
:10088000FE1418F1D11076C00E94A20C8111FCCF89
:1008900081E10E948D0C0E94A20C8111FCCF8AE0A4
:1008A00028960FB6F894DEBF0FBECDBFDF91CF9173
:1008B0001F910F91FF90EF90DF90CF90BF90AF907E
:1008C0009F908F907F900C948D0CF50170802C9AE6
:1008D000F5E0FA95F1F700000E940903872D0E94C8
:1008E00005038AE18A95F1F700C0809102018062D8
:1008F0008093020180910E028330B9F5EFE3FFE1AE
:100900003197F1F700C00000809102018F7D809344
:1009100002019AE19A95F1F700C00E940C032C980D
:10092000809119028823E9F0E5E0EA95F1F70000EB
:1009300080910201806480930201F5E0FA95F1F75D
:1009400000000E940703909102019F7B9093020197
:10095000F4019081981307C0D11005C0E0901802EF
:10096000EF0CDD24D394F3948BCF8FE99FE00197B4
:10097000F1F7C8CF80911A028F1508F48F2D80935C
:100980001A028091130290911402A0911502B09165
:1009900016028F0D911DA11DB11D8093130290931E
:1009A0001402A0931502B0931602C394E8CE80E01F
:1009B0001FCF80E02ACF80E035CF80E071CF0E944A
:1009C000A20C8111FCCF81E10E948D0C0E94A20C2F
:1009D0008111FCCF65CF1F93CF93DF93C09111029C
:1009E000D091120220910F0230911002C21BD30B42
:1009F000C930D10514F0C8E0D0E00E94A20C8111EA
:100A0000FCCF83E10E948D0C0E94A20C8111FCCFCF
:100A100080910F02909110028C0F9D1F2091110266
:100A20003091120282179307B9F080E00E948D0C7A
:100A300010E080910F0290911002212F30E02C17CE
:100A40003D0764F0C80FD91FD0931002C0930F0266
:100A5000DF91CF911F91089582E0E8CF820F931F1D
:100A60000E94610285E08A95F1F700008091020101
:100A700080648093020185E08A95F1F700000E946E
:100A8000A20C8111FCCF0E9407030E948D0C809163
:100A900002018F7B8093020185E08A95F1F70000C7
:100AA0001F5FC7CF1F93CF93DF93D0E0C0E080914B
:100AB000110290911202C817D907C8F01FEF809158
:100AC0001102909112028C179D0789F50E94A20CC9
:100AD0008111FCCF85E10E948D0C0E94A20C811136
:100AE000FCCF82E0DF91CF911F910C948D0CCE0151
:100AF0000E94610285E08A95F1F700008091020171
:100B000080648093020185E08A95F1F700000E94DD
:100B10000703182F809102018F7B8093020185E0EB
:100B20008A95F1F700001F3F51F62196C0CF0E9431
:100B3000A20C8111FCCF85E10E948D0C0E94A20CB9
:100B40008111FCCF89E00E948D0C0E94A20C8111C2
:100B5000FCCF8D2F0E948D0C0E94A20C8111FCCF26
:100B60008C2F0E948D0C0E94A20C8111FCCF812F32
:100B7000B9CF0E94EB0D809319020E94EB0D809378
:100B800018020E9466030E94A20C8111FCCF80E132
:100B90000E948D0C0E94A20C8111FCCF0C948D0C34
:100BA0000E9466030E94A20C8111FCCF82E10E9488
:100BB0008D0C0E94A20C8111FCCF0C948D0C0E9414
:100BC00066030E94A20C8111FCCF84E10E948D0C6F
:100BD0000E94A20C8111FCCF0C948D0C0E94EB0D95
:100BE0008150873008F03FC0E82F880FFF0B88271F
:100BF000E153F14F8F4F0C94990E0E9466030E94AF
:100C0000A20C8111FCCF88E10E948D0C0E94A20CE5
:100C10008111FCCF33C00E94660380910201806481
:100C200080930201ECCF0E946603809102018062F2
:100C3000F7CF0E9466032C9AE2CF0E9466030E94BF
:100C400009038AEA0E9405038AEA9AE00E94610287
:100C5000D6CF0E9466030E94090385E50E94050322
:100C600085E595E1F3CF0E94A20C8111FCCF83E0D2
:100C70000E948D0C0E94A20C8111FCCF80E00C948C
:100C80008D0C0E94A20C8111FCCF89E10E948D0C79
:100C90000E94A20C8111FCCF0E948D0C0E94A20C1C
:100CA0008111FCCF0E9407030C948D0C1D9B2CC05E
:100CB000809102018F7B809302012D982FEF81EEAE
:100CC00094E0215080409040E1F700C000002FEFF9
:100CD00081EE94E0215080409040E1F700C0000098
:100CE0002FEF81EE94E0215080409040E1F700C06A
:100CF0000000809102018F7E8093020180910201A9
:100D00008F7D809302012C981E9B23C0809102014D
:100D1000877F809302012E982FEF81EE94E021507F
:100D200080409040E1F700C000002FEF81EE94E09A
:100D3000215080409040E1F700C000008091020106
:100D40008F7E80930201809102018F7D809302014A
:100D50002C980C940C031E990AC02E9A2FEF81EE4A
:100D600094E0215080409040E1F700C000000895D9
:100D70001D990AC02D9A2FEF81EE94E021508040FA
:100D80009040E1F700C000000895109271021092A7
:100D900070020895E2E0F1E08081877F80838081A6
:100DA0008F7B808380818F7E808380818F7D808315
:100DB0002C982D982E986C986B98E1E0F1E080814A
:100DC000886080838081806180838081806280836D
:100DD000808180648083249A259A269A0895AF9210
:100DE000BF92CF92DF92EF92FF920F931F93CF9318
:100DF000DF9300D000D00F920F92CDB7DEB7809175
:100E000070029091710200E011E0081B190B09308B
:100E1000110510F008E010E0C02E0E94B806809185
:100E200002018064809302018FE891E00197F1F75D
:100E300000C00000FE0131965F017F018E2D8A19EE
:100E40008C1508F45DC0D12CE0907002F090710216
:100E5000DC105CC0E00EF11EF0927102E0927002B4
:100E6000809102018F7B80930201EFE8F1E03197DE
:100E7000F1F700C00000809170029091710281151D
:100E8000914009F081C00E94A20C8111FCCF81E148
:100E90000E948D0C0E94A20C8111FCCF82E00E9466
:100EA0008D0C0E94A20C8111FCCF0E948D0C0E941F
:100EB000A20C8111FCCF0E948D0C0E94A20C81110A
:100EC000FCCF0E948D0C0E94A20C8111FCCF0E94CD
:100ED0008D0C0E94A20C8111FCCF80E028960FB6E9
:100EE000F894DEBF0FBECDBFDF91CF911F910F9160
:100EF000FF90EF90DF90CF90BF90AF900C948D0C4F
:100F00000E94EB0DF70181937F0198CFF501F190DD
:100F10005F01ED0C0E9409038F2D0E940503F12C47
:100F2000C701809590950E946102F5EDFA95F1F761
:100F300000002C9A87E592E00197F1F700C00000CD
:100F4000C7010E94610295ED9A95F1F7000080912A
:100F50000201806180930201EFE2FAE23197F1F73A
:100F600000C00000809102018F7E80930201F5EDA8
:100F7000FA95F1F700002C988FE79BEB0197F1F7BA
:100F800000C00000D39460CF0E94A20C8111FCCF5E
:100F900081E10E948D0C0E94A20C8111FCCF9DCF9B
:100FA0001F93CF93DF938091700290917102C0E004
:100FB000D1E0C81BD90BC930D10514F0C8E0D0E08E
:100FC0000E94A20C8111FCCF83E10E948D0C0E9433
:100FD000A20C8111FCCF80917002909171028C0F54
:100FE0009D1F8115914079F180E00E948D0C0E9437
:100FF000AB06809102018860809302018FE891E046
:101000000197F1F700C0000010E0812F90E08C17ED
:101010009D07DCF080910201877F809302018FE8B9
:1010200091E00197F1F700C000008091700290916B
:101030007102C80FD91FD0937102C0937002DF9163
:10104000CF911F91089582E0D0CF2091700230910E
:101050007102820F931F0E9461028FE891E0019755
:10106000F1F700C0000080910201806280930201CC
:101070008FE891E00197F1F700C000000E94A20CF8
:101080008111FCCF0E9407030E948D0C8091020108
:101090008F7D809302018FE891E00197F1F700C006
:1010A00000001F5FB2CF1F93CF93DF930E94AB0668
:1010B00080910201886080930201D0E0C0E0CE01FF
:1010C0000E9461028FE891E00197F1F700C00000F3
:1010D000809102018062809302018FE891E0019784
:1010E000F1F700C000000E940703182F8091020151
:1010F0008F7D809302018FE891E00197F1F700C0A6
:101100000000111105C02196C11591E0D907B9F66B
:1011100080910201877F80930201C11581E0D80789
:1011200089F40E94A20C8111FCCF85E10E948D0CF4
:101130000E94A20C8111FCCF82E0DF91CF911F9120
:101140000C948D0C0E94A20C8111FCCF85E10E94B1
:101150008D0C0E94A20C8111FCCF89E00E948D0CA5
:101160000E94A20C8111FCCF0E948D0C0E94A20C47
:101170008111FCCF8C2F0E948D0C0E94A20C81113A
:10118000FCCF812FDACF0E94EB0D0E94EB0D0E9465
:1011900056060E94A20C8111FCCF80E10E948D0CAA
:1011A0000E94A20C8111FCCF0C948D0C0E9456065B
:1011B0000E94A20C8111FCCF82E10E948D0C0E9442
:1011C000A20C8111FCCF0C948D0C0E9456060E943B
:1011D000A20C8111FCCF84E10E948D0C0E94A20C14
:1011E0008111FCCF0C948D0C0E9456060E94A20C1B
:1011F0008111FCCF86E10E948D0C0E94A20C81110E
:10120000FCCF0C948D0C0E94EB0D81508A3008F0BD
:1012100054C0E82F880FFF0B8827EA52F14F8F4FF9
:101220000C94990E0E94AB060E94A20C8111FCCF77
:1012300088E10E948D0C0E94A20C8111FCCF48C055
:101240000E94AB0680910201806280930201ECCF84
:101250000E94AB06809102018860809302018AEAB5
:1012600090E00E946102E0CF0E94AB0680910201F3
:1012700088608093020185E590E0F3CF0E94AB0681
:10128000809102018860E1CF0E94B806CDCF0E9414
:10129000B806809102018061D8CF0E94B8062C9ACE
:1012A000C3CF0E94B806809102018064D6CF0E940D
:1012B000B806809102018064DCCF0E94A20C8111EB
:1012C000FCCF83E00E948D0C0E94A20C8111FCCF08
:1012D00080E00C948D0C0E94A20C8111FCCF89E15E
:1012E0000E948D0C0E94A20C8111FCCF0E948D0CDB
:1012F0000E94A20C8111FCCF0E9407030C948D0C5C
:1013000010922402109220021092210210922202C6
:101310001092230210921F0210921E028FEF8093F0
:101320001B022F9A2E982D982C98E2E0F1E08081F4
:101330008F7B808380818F7E80838081877F808385
:101340007398279A269A259A249AE1E0F1E0808101
:1013500080648083808180618083808188608083D5
:101360006B9A80818F7D8083089570931F026093B4
:101370001E0280931B0210921D0210921C021092FA
:101380002402109220021092210210922202109246
:10139000230208952D9A2FEF81EE94E02150804092
:1013A0009040E1F700C0000008952F9A2E98809198
:1013B00002018F7B8093020180910201877F8093DD
:1013C0000201809102018F7E809302012C98739A12
:1013D0002FEF81EE94E0215080409040E1F700C073
:1013E00000002D980E940C030E94A20C8111FCCFDA
:1013F00086E10E948D0C0E94A20C8111FCCF0C94FE
:101400008D0C1F93CF93DF93C0911E02D0911F02CA
:1014100080911C0290911D02C81BD90BC930D105C7
:1014200014F0C8E0D0E010E01C171D0608F454C00A
:1014300080911C0290911D02CD2B09F051C020918A
:101440001E0230911F022817390709F064C00E945C
:10145000A20C8111FCCF81E10E948D0C0E94A20C94
:101460008111FCCF82E00E948D0C0E94A20C8111A0
:10147000FCCF809124020E948D0C0E94A20C81114D
:10148000FCCF80911B028330F1F5809123020E94F2
:101490008D0C0E94A20C8111FCCF80911B02833025
:1014A000A1F5809122020E948D0C0E94A20C811154
:1014B000FCCF80911B02833051F5809121020E9464
:1014C0008D0C0E94A20C8111FCCF80911B028330F5
:1014D00001F58091200212C00E94EB0D1F5FA4CF86
:1014E0000E9461020E94A20C8111FCCF81E10E9446
:1014F0008D0C0E94A20C8111FCCF8AE0DF91CF916C
:101500001F910C948D0C80E0C2CF80E0CCCF80E0A6
:10151000D6CF80E0F3CF0E94A20C8111FCCF81E1F5
:101520000E948D0C0E94A20C8111FCCFE7CF1F936B
:10153000CF93DF93C0911E02D0911F0220911C0215
:1015400030911D02C21BD30BC930D10514F0C8E085
:10155000D0E00E94A20C8111FCCF83E10E948D0C8F
:101560000E94A20C8111FCCF80911C0290911D025F
:101570008C0F9D1F20911E0230911F02821793072E
:10158000B9F080E00E948D0C10E080911C029091D7
:101590001D02212F30E02C173D0764F0C80FD91F22
:1015A000D0931D02C0931C02DF91CF911F9108952B
:1015B00082E0E8CF820F931F0E9461021F5FE5CF98
:1015C000CF93DF93D0E0C0E080911E0290911F0284
:1015D000C817D90798F08C179D07A9F40E94A20C90
:1015E0008111FCCF85E10E948D0C0E94A20C81111B
:1015F000FCCF82E0DF91CF910C948D0CCE010E9444
:1016000061022196E1CF0E94A20C8111FCCF85E1FD
:101610000E948D0C0E94A20C8111FCCF89E00E94D7
:101620008D0C0E94A20C8111FCCF8D2F0E948D0C7D
:101630000E94A20C8111FCCF8C2F0E948D0C0E9465
:10164000A20C8111FCCFD6CF0E94EB0D0E94EB0DB6
:101650000E94CA090E94A20C8111FCCF80E10E9465
:101660008D0C0E94A20C8111FCCF0C948D0C0E9459
:10167000CA090E94A20C8111FCCF82E10E948D0C4C
:101680000E94A20C8111FCCF0C948D0C0E94CA09FF
:101690000E94A20C8111FCCF84E10E948D0C0E945B
:1016A000A20C8111FCCF0C948D0C0E94EB0D81508B
:1016B000873008F049C0E82F880FFF0B8827E052D9
:1016C000F14F8F4F0C94990E0E94CA090E94A20CF0
:1016D0008111FCCF88E10E948D0C0E94A20C811127
:1016E000FCCF3DC00E94CA098091020188608093AE
:1016F0000201ECCF0E94CA09809102018064F7CFF9
:101700000E94CA092C9AE2CF0E94CA090E940903CA
:101710008AEA0E9405038AEA9AE00E9461022E9AF0
:101720002F98D4CF0E94CA090E94090385E50E9420
:10173000050385E595E10E946102809102018061C7
:10174000809302017398C2CF0E94A20C8111FCCF3A
:1017500083E00E948D0C0E94A20C8111FCCF80E0DE
:101760000C948D0C0E94A20C8111FCCF89E10E9487
:101770008D0C0E94A20C8111FCCF0E948D0C0E9446
:10178000A20C8111FCCF0E9407030C948D0C2F93A7
:101790002FB72F932BB72F938F939F93EF93FF9395
:1017A0008091C0009091C600E0914C02EF5FEF7015
:1017B00020914B022E1799F08871E0934C02F0E0D3
:1017C000E15BFD4F908380934A02FF91EF919F91DF
:1017D0008F912F912BBF2F912FBF2F91189580E0C4
:1017E000F2CF8F938FB78F938BB78F939F93EF9396
:1017F000FF9390914E0280914D029817A9F0E091CD
:101800004D02EF5FEF70E0934D02F0E0E15AFD4FC3
:1018100080818093C600FF91EF919F918F918BBF44
:101820008F918FBF8F9118958091C1008F7D80938C
:10183000C100F1CF10924E0210924D0210924C0254
:1018400010924B029091C20090689093C200282F92
:1018500021709091C20080FF38C090649093C200C4
:101860009091C20092609093C2009091C2009460E7
:101870009093C2009091C10081FF29C09460909321
:10188000C100222319F082FF24C06A9A9091C100FE
:1018900083FF21C090619093C10084FF1EC080919E
:1018A000C00082608093C0008091C10080688093F6
:1018B000C1006093C4007093C5008091C10088602E
:1018C0008093C100699A689808959F7BC7CF9B7FDA
:1018D000D6CF6A98DBCF9F7EDECF8091C0008D7F10
:1018E000E1CF20914C0290914B0281E0291301C07D
:1018F00080E0089590914C0280914B02981759F026
:10190000E0914B02EF5FEF70E0934B02F0E0E15BA0
:10191000FD4F8081089580E0089590914E029F5F71
:101920009F7020914D022917E1F3E92FF0E0E15A71
:10193000FD4F808390934E028091C100806280931E
:10194000C100089590914E0280914D02981309C0F4
:101950008091C00085FB882780F991E089278170FC
:10196000089581E0FCCF80914A0208952F932FB70C
:101970002F932BB72F938F939F93EF93FF93809188
:10198000C8009091CE00E0912702EF5FEF702091A8
:1019900026022E1799F08871E0932702F0E0E65DA9
:1019A000FD4F908380932502FF91EF919F918F913E
:1019B0002F912BBF2F912FBF2F91189580E0F2CF41
:1019C0008F938FB78F938BB78F939F93EF93FF93E3
:1019D00090912902809128029817A9F0E09128029D
:1019E000EF5FEF70E0932802F0E0E65CFD4F80814E
:1019F0008093CE00FF91EF919F918F918BBF8F913C
:101A00008FBF8F9118958091C9008F7D8093C900F9
:101A1000F1CF109229021092280210922702109200
:101A200026029091CA0090689093CA00282F2170D6
:101A30009091CA0080FF38C090649093CA00909142
:101A4000CA0092609093CA009091CA0094609093EB
:101A5000CA009091C90081FF29C094609093C90089
:101A6000222319F082FF24C0549A9091C90083FF69
:101A700021C090619093C90084FF1EC08091C8006E
:101A800082608093C8008091C90080688093C900FB
:101A90006093CC007093CD008091C90088608093E2
:101AA000C900539A529808959F7BC7CF9B7FD6CF8A
:101AB0005498DBCF9F7EDECF8091C8008D7FE1CF31
:101AC000209127029091260281E0291301C080E035
:101AD00008959091270280912602981759F0E0917D
:101AE0002602EF5FEF70E0932602F0E0E65DFD4F27
:101AF0008081089580E00895909129029F5F9F70F2
:101B0000209128022917E1F3E92FF0E0E65CFD4F70
:101B10008083909329028091C90080628093C900DC
:101B200008959091290280912802981309C080910C
:101B3000C80085FB882780F991E089278170089586
:101B400081E0FCCF80912502089510927C0087E807
:101B500080937A000895CF93DF93582FEB0140E0F4
:101B600060E070E0CB01451313C0242F30E050E05B
:101B700040E00E94770EA7E9BCE00E94A10E9E0102
:101B800050E040E00E94770EC901DF91CF910895A7
:101B9000EFE9FFE03197F1F700C0000020917A00F3
:101BA000206420937A0020917A0026FDFCCF2091BA
:101BB000780030917900620F731F811D911D4F5F76
:101BC000D2CFECE7F0E08081807E80836BE077E02D
:101BD0008AE00C94AB0D0E94710C8823E1F30C9405
:101BE0007A0C0F931F93CF938C010E94710CC82F16
:101BF000882321F00E947A0CF80180838C2FCF91EA
:101C00001F910F910895CF93C82F0E94910D8111BC
:101C1000FCCF8C2F0E947C0D90E080E0CF91089546
:101C20000F920F92CDB7DEB769E170E088E00E94B5
:101C30001A0C78940E94A50D88E19EE00FB6F894E6
:101C4000A895809360000FBE909360006D989D985A
:101C50006C98809101018D7F809301018091010139
:101C60008E7F809301014CB192B390728CB1309110
:101C700000012091000145FD03C091110BC0FFCF71
:101C80009923A1F080713270832B2170822BB9F7D8
:101C900083E001C082E00E94C302CE0102960E944E
:101CA000F10D14E681110CC0A895F7CF81E0F3CFB8
:101CB0008FE99FE00197F1F700C000001150A1F3F8
:101CC000CE0101960E94F10D882391F39A818981BA
:101CD00080958913E9CF482F4051550B4A30510563
:101CE00018F7A89587FDD9CF0E945D01D6CFA1E254
:101CF0001A2EAA1BBB1BFD010DC0AA1FBB1FEE1F86
:101D0000FF1FA217B307E407F50720F0A21BB30BD0
:101D1000E40BF50B661F771F881F991F1A9469F74C
:101D200060957095809590959B01AC01BD01CF01A8
:101D30000895EE0FFF1F881F8BBF0790F691E02DCF
:101D400019940E94AC0EA59F900DB49F900DA49F76
:101D5000800D911D11240895A29FB001B39FC00171
:101D6000A39F700D811D1124911DB29F700D811DC7
:101D70001124911D0895F894FFCFF700FE000D0186
:101D8000190125013701250137016B0185019A01F0
:101D9000B401C901E3011802F8012C024502FD0556
:101DA0000B06130619061D062906FD051209200952
:101DB000280934093E09440947094D0951095709C1
:0E1DC000640B720B7A0B800B840B920B640B7E
:0E1DCE000000000300000000030E00000000F3
:00000001FF
