:100000000C94C8000C94E9000C94E9000C94E900ED
:100010000C94E9000C94E9000C94E9000C94E900BC
:100020000C94E9000C94E9000C94E9000C94E900AC
:100030000C94E9000C94E9000C94E9000C94E9009C
:100040000C94E9000C94E9000C94E9000C94E9008C
:100050000C94E9000C94E9000C94E9000C94E9007C
:100060000C94E9000C94010E0C942B0E0C94E900F6
:100070000C94E9000C94E9000C94E9000C94E9005C
:100080000C94E9000C94E9000C94E9000C94E9004C
:100090000C94F00E0C941A0F0C94E9000C94E900E7
:1000A0000C94E9000C94E9000C94E9000C94E9002C
:1000B0000C94E9000C94E9000C94E9000C94E9001C
:1000C0000C94E9000C94E9000C94E9000C94E9000C
:1000D0000C94E9000C94E9000C94E9000C94E900FC
:1000E0000C94E9000C9496060C9451020C94310285
:1000F0000C94A6090C949A060C94A40D0C94B30DC0
:100100000C94CB090C94BC090C94EC010C94B10D2B
:100110000C940C020C949E090C947E010C948E029B
:100120000C9490090C94C5090C94CC0D0C94AF0D53
:100130000C945E100C9490060C9488060C94A60DFA
:100140000C94CF090C9425010C948B0D0C94BA0DD2
:100150000C947A060C94A6060C94990D0C944C0100
:100160000C94C7010C94C2090C9400010C94B209C0
:100170000C9443010C946E020C94B3020C94A701EE
:100180000C9418010C9431010C9408010C94D509BD
:1001900011241FBECFEFD1E2DEBFCDBF00E00CBF08
:1001A00012E0A0E0B2E0E2E8F2E200E00BBF02C041
:1001B00007900D92AE30B107D9F722E0AEE0B2E081
:1001C00001C01D92A437B207E1F70E946B100C9496
:1001D0000F110C9400000895CF93DF93D82F0E9445
:1001E0004610C82F8B3008F05EC0E82F880FFF0B39
:1001F00090910E028827EF5EFE4E8F4F0C94ED100B
:100200009130A1F50E9442078C2FDF91CF91089584
:10021000923061F581E00E94D603882309F453C02F
:1002200044E660E072E081E00E94BF03C0E0ECCFF2
:100230009230E1F482E00E94D603882309F443C09F
:1002400044E660E074E082E0EFCF923079F483E03E
:100250000E94D6038823B9F149E160E070E283E0AF
:10026000E3CF45E060E074E0933091F00E94CB0F63
:100270008111FCCF8D2F0E94B60F0E94CB0F8111F0
:10028000FCCF86E01CC0933089F745E060E078E061
:100290008C2F0E94330ACACF933041F745E060E0CB
:1002A00070E18AE0F6CF0E94CB0F8111FCCF8D2F39
:1002B0000E94B60F0E94CB0F8111FCCF84E00E94F8
:1002C000B60FCFEFA1CF0E94CB0F8111FCCF8D2FA6
:1002D0000E94B60F0E94CB0F8111FCCF87E0EFCFB9
:1002E000CF93DF9380518A3008F062C1E82FF0E0AD
:1002F0008827E45EFE4E8F4F0C94ED1080E10E9443
:10030000EC0087FD55C180910E02813021F4DF9110
:10031000CF910C944009823021F4DF91CF910C945D
:100320003506833021F4DF91CF910C94F30C0E94B9
:10033000CB0F8111FCCF80E10E94B60F0E94CB0F42
:100340008111FCCF85E0DF91CF910C94B60F8091A5
:100350000E02813021F4DF91CF910C946C07823032
:1003600021F4DF91CF910C941504833021F4DF91B7
:10037000CF910C949D0A0E94CB0F8111FCCF81E19B
:100380000E94B60F0E94CB0F8111FCCFDBCF82E120
:100390000E94EC0087FD0CC180910E02813021F497
:1003A000DF91CF910C945309823021F4DF91CF91EA
:1003B0000C944C06833021F4DF91CF910C94250DE1
:1003C0000E94CB0F8111FCCF82E10E94B60F0E94E8
:1003D000CB0F8111FCCFB6CF80910E02813021F47A
:1003E000DF91CF910C944D08823021F4DF91CF91B1
:1003F0000C946705833021F4DF91CF910C94EB0BC3
:100400000E94CB0F8111FCCF83E10E94B60F0E94A6
:10041000CB0F8111FCCF96CF84E10E94EC0087FDC9
:10042000C7C080910E02813021F4DF91CF910C94EE
:100430006209823021F4DF91CF910C945B06833006
:1004400021F4DF91CF910C94470D0E94CB0F8111C5
:10045000FCCF84E10E94B60F0E94CB0F8111FCCF2C
:1004600071CF80910E02813021F4DF91CF910C94F5
:10047000D008823021F4DF91CF910C94CE058330E7
:1004800021F4DF91CF910C94700C0E94CB0F81115D
:10049000FCCF85E10E94B60F0E94CB0F8111FCCFEB
:1004A00051CF0E94CB0F8111FCCF87E10E94B60F84
:1004B0000E94CB0F8111FCCF0E94B60F0E943C100E
:1004C000EC010E94CB0F8111FCCF8D2F0E94B60F43
:1004D0000E94CB0F8111FCCF8C2F35CF80910E0263
:1004E000813021F4DF91CF910C947109823021F495
:1004F000DF91CF910C94F103833021F4DF91CF9100
:100500000C946F0A0E94CB0F8111FCCF86E10E94F0
:10051000B60F0E94CB0F8111FCCF14CF88E10E944F
:10052000EC0087FD45C080910E02813021F4DF91FF
:10053000CF910C948009823021F4DF91CF910C94FB
:100540006A06833021F4DF91CF910C947B0D0E94D9
:10055000CB0F8111FCCF88E10E94B60F0E94CB0F18
:100560008111FCCFEFCE89E10E94EC0087FD20C015
:1005700080910E02813021F4DF91CF910C94E90932
:10058000823021F4DF91CF910C94BE06833021F4A8
:10059000DF91CF910C94EC0D0E94CB0F8111FCCF19
:1005A00089E10E94B60F0E94CB0F8111FCCFCACE09
:1005B000DF91CF9108959C0180FF46C05F9A21FF93
:1005C00045C0A29A22FF44C0A19A23FF43C0A09A2B
:1005D00080910B0124FF40C0806880930B018091C3
:1005E0000B0125FF3BC0806480930B0180910B01C0
:1005F00026FF36C0806280930B0180910B0127FF9C
:1006000031C0806180930B0180910B0130FF2CC0C1
:10061000886080930B0180910B0131FF27C08460BB
:1006200080930B0180910B0132FF22C08260809386
:100630000B0180910B0133FF1DC0816080930B0182
:1006400034FF1AC02B9A08955F98B9CFA298BACFF9
:10065000A198BBCFA098BCCF8F77BFCF8F7BC4CFE3
:100660008F7DC9CF8F7ECECF877FD3CF8B7FD8CFE3
:100670008D7FDDCF8E7FE2CF2B980895CF93C82F4B
:1006800080930E0290E080E00E94DB02579A9A9AD3
:10069000999A989A80910A01806880930A018091C2
:1006A0000A01806480930A0180910A01806280932C
:1006B0000A0180910A01806180930A0180910A01F8
:1006C000886080930A0180910A01846080930A0106
:1006D00080910A01826080930A0180910A01816001
:1006E00080930A01239A11B8C13019F4CF910C9468
:1006F0004707C23019F4CF910C948E03C33019F41C
:10070000CF910C94FE09CF91089582B9089580B1DC
:1007100008958FEF81B9089511B8089510921B02C2
:1007200010921402109215021092160210921702E3
:100730001092180210921302109212028FEF8093FF
:100740000F02E2E0F1E080818F7D808380818F7BEA
:1007500080832C982D986B986B98E1E0F1E0808174
:10076000877F808380818F7E808380818062808389
:10077000808180648083249A259A269808954093E6
:100780001802709313026093120280930F0210926A
:1007900011021092100210921B0210921402109279
:1007A000150210921602109217020895982F63995D
:1007B00004C08FEF890F823038F0639B03C081E063
:1007C000933009F080E0089581E008952D9A2FEF8D
:1007D00081EE94E0215080409040E1F700C000009D
:1007E00008952C98809102018F7B80930201809163
:1007F00002018F7D809302012FEF81EE94E0215062
:1008000080409040E1F700C000002D980E948C03CA
:100810000E94CB0F8111FCCF86E10E94B60F0E948F
:10082000CB0F8111FCCF0C94B60F9F92AF92BF9269
:10083000CF92DF92EF92FF920F931F93CF93DF93AC
:1008400000D000D00F920F92CDB7DEB70091120208
:10085000109113028091100290911102081B190B44
:100860000930110514F008E010E0D12CED2CF12C2A
:10087000E016F10608F462C0C12CAC2CB12C8091BA
:10088000100290911102A016B10608F462C0080F80
:10089000191F10931102009310028091120290917F
:1008A00013020817190709F006C10E94CB0F811126
:1008B000FCCF81E10E94B60F0E94CB0F8111FCCFCB
:1008C00082E00E94B60F0E94CB0F8111FCCF809175
:1008D0001B020E94B60F0E94CB0F8111FCCF8091AA
:1008E0000F02833009F0DFC0809117020E94B60F1B
:1008F0000E94CB0F8111FCCF80910F02833009F051
:10090000D4C0809116020E94B60F0E94CB0F8111B5
:10091000FCCF80910F02833009F0C9C0809115028D
:100920000E94B60F0E94CB0F8111FCCF80910F0265
:10093000833009F0BEC08091140230C00E9446107E
:10094000E1E0F0E0EC0FFD1FEE0DFF1D8083D3947E
:100950008DCF20911A02E0901802211102C0EE24DE
:10096000E3948A0D9B1D0E94DB02D12CFF24F3949B
:1009700081E090E08C0F9D1FA80EB91EEF1408F5C2
:10098000D11074C00E94CB0F8111FCCF81E10E9475
:10099000B60F0E94CB0F8111FCCF8AE028960FB6CC
:1009A000F894DEBF0FBECDBFDF91CF911F910F91A5
:1009B000FF90EF90DF90CF90BF90AF909F900C94FE
:1009C000B60FF50190802C9AF5E0FA95F1F700004A
:1009D0000E948903892D0E9485038AE18A95F1F797
:1009E00000C08091020180628093020180910F0219
:1009F0008330B9F5EFE3FFE13197F1F700C0000074
:100A0000809102018F7D809302019AE19A95F1F71E
:100A100000C00E948C032C9880911A028823E9F070
:100A2000E5E0EA95F1F7000080910201806480938F
:100A30000201F5E0FA95F1F700000E94870390911A
:100A400002019F7B90930201F5019081981307C0EA
:100A5000D11005C0E0901902EF0CDD24D394F3947B
:100A60008DCF8FE99FE00197F1F7C8CF80911B02EE
:100A70008F1508F48F2D80931B02809114029091A2
:100A80001502A0911602B09117028F0D911DA11DA4
:100A9000B11D8093140290931502A0931602B09397
:100AA0001702C394EACE80E021CF80E02CCF80E013
:100AB00037CF80E073CF0E94CB0F8111FCCF81E153
:100AC0000E94B60F0E94CB0F8111FCCF67CF1F93FE
:100AD000CF93DF93C0911202D09113028091100244
:100AE00090911102C81BD90BC930D10514F0C8E090
:100AF000D0E00E94CB0F8111FCCF83E10E94B60FA2
:100B00000E94CB0F8111FCCF8091100290911102B5
:100B10008C0F9D1F209112023091130282179307B0
:100B2000B9F080E00E94B60F10E080911002909121
:100B30001102212F30E02C173D0764F0C80FD91F98
:100B4000D0931102C0931002DF91CF911F910895AD
:100B500082E0E8CF820F931F0E94DB0285E08A9536
:100B6000F1F700008091020180648093020185E02A
:100B70008A95F1F700000E94CB0F8111FCCF0E94F3
:100B800087030E94B60F809102018F7B8093020140
:100B900085E08A95F1F700001F5FC7CF1F93CF93C1
:100BA000DF93D0E0C0E08091120290911302C81749
:100BB000D907C8F01FEF80911202909113028C1791
:100BC0009D0789F50E94CB0F8111FCCF85E10E9422
:100BD000B60F0E94CB0F8111FCCF82E0DF91CF9145
:100BE0001F910C94B60FCE010E94DB0285E08A951E
:100BF000F1F700008091020180648093020185E09A
:100C00008A95F1F700000E948703182F8091020156
:100C10008F7B8093020185E08A95F1F700001F3FEA
:100C200051F62196C0CF0E94CB0F8111FCCF85E1F8
:100C30000E94B60F0E94CB0F8111FCCF89E00E9469
:100C4000B60F0E94CB0F8111FCCF8D2F0E94B60FE3
:100C50000E94CB0F8111FCCF8C2F0E94B60F0E94F7
:100C6000CB0F8111FCCF812FB9CF0E94461080930A
:100C70001A020E944610809319020E94E6030E9405
:100C8000CB0F8111FCCF80E10E94B60F0E94CB0FE9
:100C90008111FCCF0C94B60F0E94E6030E94CB0F8B
:100CA0008111FCCF82E10E94B60F0E94CB0F81110F
:100CB000FCCF0C94B60F0E94E6030E94CB0F81116B
:100CC000FCCF84E10E94B60F0E94CB0F8111FCCFB4
:100CD0000C94B60F0E944610EFEFE80FE73008F0D3
:100CE0003FC00E2E000CFF0B8827EA5DFE4E8F4F93
:100CF0000C94ED100E94E6030E94CB0F8111FCCFF3
:100D000088E10E94B60F0E94CB0F8111FCCF33C047
:100D10000E94E60380910201806480930201ECCF7F
:100D20000E94E603809102018062F7CF0E94E603F1
:100D30002C9AE2CF0E94E6030E9489038AEA0E946D
:100D400085038AEA9AE00E94DB02D6CF0E94E6037E
:100D50000E94890385E50E94850385E595E1F3CF2F
:100D60000E94CB0F8111FCCF83E00E94B60F0E943E
:100D7000CB0F8111FCCF80E00C94B60F0E94CB0FFB
:100D80008111FCCF89E10E94B60F0E94CB0F811127
:100D9000FCCF0E94B60F0E94CB0F8111FCCF0E94A6
:100DA00087030C94B60F1D9B2CC0809102018F7B92
:100DB000809302012D982FEF81EE94E02150804026
:100DC0009040E1F700C000002FEF81EE94E0215049
:100DD00080409040E1F700C000002FEF81EE94E0EA
:100DE000215080409040E1F700C000008091020156
:100DF0008F7E80930201809102018F7D809302019A
:100E00002C981E9B23C080910201877F8093020152
:100E10002E982FEF81EE94E0215080409040E1F732
:100E200000C000002FEF81EE94E021508040904000
:100E3000E1F700C00000809102018F7E80930201E3
:100E4000809102018F7D809302012C980C948C0379
:100E50001E990AC02E9A2FEF81EE94E02150804017
:100E60009040E1F700C0000008951D990AC02D9A36
:100E70002FEF81EE94E0215080409040E1F700C0D8
:100E80000000089510921D0210921C020895E2E0E5
:100E9000F1E08081877F808380818F7B8083808168
:100EA0008F7E808380818F7D80832C982D982E98D3
:100EB0006C986B98E1E0F1E08081886080838081AC
:100EC0008061808380818062808380818064808370
:100ED000249A259A269A0895AF92BF92CF92DF92D4
:100EE000EF92FF920F931F93CF93DF9300D000D028
:100EF0000F920F92CDB7DEB780911C0290911D0228
:100F000000E011E0081B190B0930110510F008E092
:100F100010E0C02E0E94350780910201806480930A
:100F200002018FE891E00197F1F700C00000FE0197
:100F300031965F017F018E2D8A198C1508F45DC0F2
:100F4000D12CE0901C02F0901D02DC105CC0E00E81
:100F5000F11EF0921D02E0921C02809102018F7B33
:100F600080930201EFE8F1E03197F1F700C0000053
:100F700080911C0290911D028115914009F081C061
:100F80000E94CB0F8111FCCF81E10E94B60F0E941D
:100F9000CB0F8111FCCF82E00E94B60F0E94CB0FD5
:100FA0008111FCCF0E94B60F0E94CB0F8111FCCFA4
:100FB0000E94B60F0E94CB0F8111FCCF0E94B60F8A
:100FC0000E94CB0F8111FCCF0E94B60F0E94CB0F65
:100FD0008111FCCF80E028960FB6F894DEBF0FBEDB
:100FE000CDBFDF91CF911F910F91FF90EF90DF90D8
:100FF000CF90BF90AF900C94B60F0E944610F701AF
:1010000081937F0198CFF501F1905F01ED0C0E9473
:1010100089038F2D0E948503F12CC701809590953F
:101020000E94DB02F5EDFA95F1F700002C9A87E5B6
:1010300092E00197F1F700C00000C7010E94DB02B7
:1010400095ED9A95F1F700008091020180618093FF
:101050000201EFE2FAE23197F1F700C0000080915F
:1010600002018F7E80930201F5EDFA95F1F7000001
:101070002C988FE79BEB0197F1F700C00000D39409
:1010800060CF0E94CB0F8111FCCF81E10E94B60F8F
:101090000E94CB0F8111FCCF9DCF1F93CF93DF9385
:1010A00080911C0290911D02C0E0D1E0C81BD90BB9
:1010B000C930D10514F0C8E0D0E00E94CB0F8111F7
:1010C000FCCF83E10E94B60F0E94CB0F8111FCCFB1
:1010D00080911C0290911D028C0F9D1F81159140E3
:1010E00079F180E00E94B60F0E94280780910201EA
:1010F0008860809302018FE891E00197F1F700C0CA
:10110000000010E0812F90E08C179D07DCF08091AB
:101110000201877F809302018FE891E00197F1F748
:1011200000C0000080911C0290911D02C80FD91FC1
:10113000D0931D02C0931C02DF91CF911F9108959F
:1011400082E0D0CF20911C0230911D02820F931FAC
:101150000E94DB028FE891E00197F1F700C00000E8
:10116000809102018062809302018FE891E00197F3
:10117000F1F700C000000E94CB0F8111FCCF0E944C
:1011800087030E94B60F809102018F7D8093020138
:101190008FE891E00197F1F700C000001F5FB2CF28
:1011A0001F93CF93DF930E942807809102018860EC
:1011B00080930201D0E0C0E0CE010E94DB028FE804
:1011C00091E00197F1F700C0000080910201806278
:1011D000809302018FE891E00197F1F700C00000D1
:1011E0000E948703182F809102018F7D8093020156
:1011F0008FE891E00197F1F700C00000111105C0E0
:101200002196C11591E0D907B9F680910201877F37
:1012100080930201C11581E0D80789F40E94CB0FA9
:101220008111FCCF85E10E94B60F0E94CB0F811186
:10123000FCCF82E0DF91CF911F910C94B60F0E94FA
:10124000CB0F8111FCCF85E10E94B60F0E94CB0F1E
:101250008111FCCF89E00E94B60F0E94CB0F811153
:10126000FCCF0E94B60F0E94CB0F8111FCCF8C2FB8
:101270000E94B60F0E94CB0F8111FCCF812FDACFD5
:101280000E9446100E9446100E94D3060E94CB0F77
:101290008111FCCF80E10E94B60F0E94CB0F81111B
:1012A000FCCF0C94B60F0E94D3060E94CB0F811185
:1012B000FCCF82E10E94B60F0E94CB0F8111FCCFC0
:1012C0000C94B60F0E94D3060E94CB0F8111FCCF65
:1012D00084E10E94B60F0E94CB0F8111FCCF0C94C9
:1012E000B60F0E94D3060E94CB0F8111FCCF86E17E
:1012F0000E94B60F0E94CB0F8111FCCF0C94B60F49
:101300000E944610EFEFE80FEA3008F054C00E2EAE
:10131000000CFF0B8827E35DFE4E8F4F0C94ED1001
:101320000E9428070E94CB0F8111FCCF88E10E9408
:10133000B60F0E94CB0F8111FCCF48C00E94280736
:1013400080910201806280930201ECCF0E94280705
:10135000809102018860809302018AEA90E00E94F5
:10136000DB02E0CF0E942807809102018860809311
:10137000020185E590E0F3CF0E94280780910201E9
:101380008860E1CF0E943507CDCF0E94350780915C
:1013900002018061D8CF0E9435072C9AC3CF0E94EA
:1013A0003507809102018064D6CF0E943507809175
:1013B00002018064DCCF0E94CB0F8111FCCF83E05F
:1013C0000E94B60F0E94CB0F8111FCCF80E00C94DD
:1013D000B60F0E94CB0F8111FCCF89E10E94B60F9E
:1013E0000E94CB0F8111FCCF0E94B60F0E94CB0F41
:1013F0008111FCCF0E9487030C94B60F1092290232
:1014000010922302109224021092250210922602BA
:1014100010922202109221028FEF80931E022E98CA
:101420002F982D982C98E2E0F1E080818F7B8083CB
:1014300080818F7E80838081877F808373982698C8
:101440002798259A249AE1E0F1E0808180648083E6
:101450008081806180838081886080836B9A8081B5
:101460008F7D8083089540932702709322026093BA
:10147000210280931E021092200210921F021092ED
:101480002902109223021092240210922502109237
:101490002602089580911E02873029F03CF48630A0
:1014A000C9F0843034F0269A279803C088508330DE
:1014B000A0F02D9A2FEF81EE94E0215080409040D3
:1014C000E1F700C00000809102018F7E809302014D
:1014D00073980895269A279AECCF2698E5CF8091A5
:1014E00002018F7B8093020180910201877F8093AC
:1014F0000201809102018F7E809302012C987398E3
:101500002FEF81EE94E0215080409040E1F700C041
:1015100000002D980E948C0390E080E00E94DB0286
:101520000E94CB0F8111FCCF86E10E94B60F0E9472
:10153000CB0F8111FCCF0C94B60F9F92AF92BF924C
:10154000CF92DF92EF92FF920F931F93CF93DF938F
:1015500000D000D00F920F92CDB7DEB700912102DC
:101560001091220280911F0290912002081B190BFA
:101570000930110514F008E010E0D12CED2CF12C0D
:10158000E016F10608F44EC0B12CEB2CF12CC09003
:101590001F02D0902002E016F10608F44EC00C0D98
:1015A0001D1D1093200200931F0280912102909133
:1015B00022020817190709F002C10E94CB0F8111FE
:1015C000FCCF81E10E94B60F0E94CB0F8111FCCFAE
:1015D00082E00E94B60F0E94CB0F8111FCCF809158
:1015E00029020E94B60F0E94CB0F8111FCCF80917F
:1015F00026020E94B60F0E94CB0F8111FCCF809172
:1016000025020E94B60F0E94CB0F8111FCCF809162
:1016100024020E94B60F0E94CB0F8111FCCF809153
:10162000230247C00E944610E1E0F0E0EC0FFD1FEE
:10163000EE0DFF1D8083D394A1CFCE0CDF1C8091D3
:101640002802A0902702811102C0AA24A3947398B3
:10165000809102018F7E809302010E9489038C2D6C
:101660000E948503C601882797700E94DB022AE644
:101670002A95F1F700C0739A8AE68A95F1F700C0BF
:10168000C12CDD24D394E1E0F0E0EC0FFD1FEE0E61
:10169000FF1EAD1408F5C11075C00E94CB0F81115B
:1016A000FCCF81E10E94B60F0E94CB0F8111FCCFCD
:1016B0008AE028960FB6F894DEBF0FBECDBFDF914B
:1016C000CF911F910F91FF90EF90DF90CF90BF903F
:1016D000AF909F900C94B60FF7019080992099F1EC
:1016E000809102018F7E809302010E948903892DDF
:1016F0000E948503FAE6FA95F1F700C08091020195
:101700008860809302018FE99FE00197F1F700C0A4
:1017100000002C9A9FEFE0E7F2E09150E040F040AB
:10172000E1F700C000002C988FE99FE00197F1F7E6
:1017300000C0000080910201877F809302019AE639
:101740009A95F1F700C080912802811104C0CC2441
:10175000C394D3949ECF0E948C0380910201806138
:1017600080930201EAE6EA95F1F700C00E94870340
:10177000FAE6FA95F1F700C0F70190819813E9CFE6
:10178000C110E5CF809129028D1508F48D2D80932D
:1017900029028091230290912402A0912502B09108
:1017A00026028D0D911DA11DB11D809323029093E2
:1017B0002402A0932502B0932602B394E6CE0E94A1
:1017C000CB0F8111FCCF81E10E94B60F0E94CB0F9D
:1017D0008111FCCF6ECFFF920F931F93CF93DF93B6
:1017E000C0912102D091220280911F02909120028B
:1017F000C81BD90BC930D10514F0C8E0D0E00E9455
:10180000CB0F8111FCCF83E10E94B60F0E94CB0F5A
:101810008111FCCF80911F02909120028C0F9D1F9F
:10182000209121023091220282179307C9F080E0B3
:101830000E94B60FF12C80911F02909120020F2D73
:1018400010E00C171D0774F0C80FD91FD0932002A9
:10185000C0931F02DF91CF911F910F91FF900895C8
:1018600082E0E6CF080F191F0E948903802F0E9493
:101870008503C80188279F700E94DB028AE68A954B
:10188000F1F700C0739A0E948C038AE68A95F1F7FB
:1018900000C080911E02863049F48091020180616F
:1018A000809302018AE68A95F1F700C00E948703BF
:1018B000182F80911E02863029F4809102018F7EBC
:1018C0008093020173988AE68A95F1F700C00E941E
:1018D000CB0F8111FCCF812F0E94B60FF394ABCFB9
:1018E0001F93CF93DF93D0E0C0E0809121029091CD
:1018F0002202C817D907D0F010E080912102909100
:1019000022028C179D0709F04CC00E94CB0F811159
:10191000FCCF85E10E94B60F0E94CB0F8111FCCF56
:1019200082E0DF91CF911F910C94B60F0E94890342
:101930008C2F0E948503CE0188279F700E94DB02B6
:101940008AE68A95F1F700C0739A8AE68A95F1F7DC
:1019500000C00E948C038AE68A95F1F700C080914E
:101960001E02863049F48091020180618093020159
:101970008AE68A95F1F700C00E948703182F8091AC
:101980001E02863029F4809102018F7E809302012D
:1019900073988AE68A95F1F700C01111AECF2196AF
:1019A000A4CF0E94CB0F8111FCCF85E10E94B60F1E
:1019B0000E94CB0F8111FCCF89E00E94B60F0E94DC
:1019C000CB0F8111FCCF8D2F0E94B60F0E94CB0F41
:1019D0008111FCCF8C2F0E94B60F0E94CB0F81117A
:1019E000FCCF812F9ECF0E944610809328020E9438
:1019F000461080911E028850833070F40E94CB0FF5
:101A00008111FCCF80E10E94B60F0E94CB0F8111A3
:101A1000FCCF83E00C94B60F0E944A0A8091020129
:101A200080648093020180910201806180930201B1
:101A300073980E94CB0F8111FCCF80E10E94B60FFA
:101A40000E94CB0F8111FCCFE5CF0E944A0A809102
:101A5000020180648093020180911E02863099F415
:101A6000809102018F7E8093020173980E94CB0FB8
:101A70008111FCCF82E10E94B60F0E94CB0F811131
:101A8000FCCF0C94B60F809102018061ECCF809165
:101A90001E028850833070F40E94CB0F8111FCCF5E
:101AA00084E10E94B60F0E94CB0F8111FCCF83E02E
:101AB0000C94B60F0E944A0A8091020180648093C0
:101AC000020180911E02863091F4809102018F7E86
:101AD0008093020173980E94CB0F8111FCCF84E1A7
:101AE0000E94B60F0E94CB0F8111FCCFE1CF8091F5
:101AF00002018061EDCF0E944610EFEFE80FEA305F
:101B000008F05CC00E2E000CFF0B8827E95CFE4E2F
:101B10008F4F0C94ED100E944A0A0E94CB0F811146
:101B2000FCCF88E10E94B60F0E94CB0F8111FCCF41
:101B300050C084E080931E020E944A0A80910201F4
:101B4000886080930201E9CF86E0F4CF88E080933B
:101B50001E020E944A0A809102018064F2CF84E052
:101B6000F6CF86E0F4CF84E080931E020E944A0AFA
:101B70002C9AD3CF0E944A0A0E9489038AEA0E94C3
:101B8000850380E09AE00E94DB02809102018F7E53
:101B900080930201739AC1CF0E944A0A0E9489036E
:101BA00085E50E94850380E095E00E94DB0280913C
:101BB00002018061809302017398AFCF0E94CB0F26
:101BC0008111FCCF83E00E94B60F0E94CB0F8111E0
:101BD000FCCF80E00C94B60F0E94CB0F8111FCCF9C
:101BE00089E10E94B60F0E94CB0F8111FCCF0E94A9
:101BF000B60F0E94CB0F8111FCCF0E9487030C947B
:101C0000B60F2F932FB72F932BB72F938F939F93AD
:101C1000EF93FF938091C0009091C600E091510234
:101C2000EF5FEF70209150022E1799F08871E093CA
:101C30005102F0E0EC5AFD4F908380934F02FF91E8
:101C4000EF919F918F912F912BBF2F912FBF2F91AC
:101C5000189580E0F2CF8F938FB78F938BB78F93C8
:101C60009F93EF93FF9390915302809152029817A4
:101C7000A9F0E0915202EF5FEF70E0935202F0E0C2
:101C8000EC59FD4F80818093C600FF91EF919F91A9
:101C90008F918BBF8F918FBF8F9118958091C100CD
:101CA0008F7D8093C100F1CF1092530210925202A7
:101CB00010925102109250029091C200906890933D
:101CC000C200282F21709091C20080FF38C090641C
:101CD0009093C2009091C20092609093C200909144
:101CE000C20094609093C2009091C10081FF29C00E
:101CF00094609093C100222319F082FF24C06A9A55
:101D00009091C10083FF21C090619093C10084FF36
:101D10001EC08091C00082608093C0008091C1008D
:101D200080688093C1006093C4007093C500809167
:101D3000C10088608093C100699A689808959F7B6C
:101D4000C7CF9B7FD6CF6A98DBCF9F7EDECF8091B7
:101D5000C0008D7FE1CF209151029091500281E02F
:101D6000291301C080E008959091510280915002A2
:101D7000981759F0E0915002EF5FEF70E093500236
:101D8000F0E0EC5AFD4F8081089580E00895909135
:101D900053029F5F9F70209152022917E1F3E92FB0
:101DA000F0E0EC59FD4F8083909353028091C10085
:101DB00080628093C10008959091530280915202F5
:101DC000981309C08091C00085FB882780F991E0B5
:101DD00089278170089581E0FCCF80914F0208959A
:101DE0002F932FB72F932BB72F938F939F93EF930F
:101DF000FF938091C8009091CE00E0912C02EF5F9C
:101E0000EF7020912B022E1799F08871E0932C022D
:101E1000F0E0E15DFD4F908380932A02FF91EF9106
:101E20009F918F912F912BBF2F912FBF2F9118959D
:101E300080E0F2CF8F938FB78F938BB78F939F9361
:101E4000EF93FF9390912E0280912D029817A9F0A5
:101E5000E0912D02EF5FEF70E0932D02F0E0E15C86
:101E6000FD4F80818093CE00FF91EF919F918F91E4
:101E70008BBF8F918FBF8F9118958091C9008F7DF7
:101E80008093C900F1CF10922E0210922D02109271
:101E90002C0210922B029091CA0090689093CA0075
:101EA000282F21709091CA0080FF38C090649093D1
:101EB000CA009091CA0092609093CA009091CA00A3
:101EC00094609093CA009091C90081FF29C09460EA
:101ED0009093C900222319F082FF24C0549A909154
:101EE000C90083FF21C090619093C90084FF1EC088
:101EF0008091C80082608093C8008091C90080688A
:101F00008093C9006093CC007093CD008091C9008C
:101F100088608093C900539A529808959F7BC7CFD9
:101F20009B7FD6CF5498DBCF9F7EDECF8091C800B9
:101F30008D7FE1CF20912C0290912B0281E029131B
:101F400001C080E0089590912C0280912B02981797
:101F500059F0E0912B02EF5FEF70E0932B02F0E07D
:101F6000E15DFD4F8081089580E0089590912E02FB
:101F70009F5F9F7020912D022917E1F3E92FF0E078
:101F8000E15CFD4F808390932E028091C9008062B6
:101F90008093C900089590912E0280912D0298138C
:101FA00009C08091C80085FB882780F991E08927C6
:101FB0008170089581E0FCCF80912A0208951092EB
:101FC0007C0087E880937A000895CF93DF9300D058
:101FD00000D0CDB7DEB76D837E8390E019821A8280
:101FE0001B821C82981327C0292F30E050E040E06C
:101FF00069817A818B819C810E94CB10A7E9BCE02A
:102000000E94F51069837A838B839C836D817E8126
:102010009B0150E040E069817A818B819C810E9424
:10202000CB10C90126960FB6F894DEBF0FBECDBF08
:10203000DF91CF910895EFE9FFE03197F1F700C00C
:10204000000020917A00206420937A0020917A0089
:1020500026FDFCCF209178003091790049815A818A
:102060006B817C81420F531F611D711D49835A830F
:102070006B837C839F5FB6CFECE7F0E08081807E4E
:1020800080836BE077E08AE00C94E50F0E949A0F62
:102090008823E1F30C94A30F0F931F93CF938C012C
:1020A0000E949A0FC82F882321F00E94A30FF801E5
:1020B00080838C2FCF911F910F910895CF93C82FBC
:1020C0000E94DC0E8111FCCF8C2F0E94C70E90E085
:1020D00080E0CF9108950F920F92CDB7DEB769E1FE
:1020E00070E088E00E94430F78940E94DF0F6D98A3
:1020F0009D986C98809101018E7F80930101809161
:1021000001018D7F809301014CB182B380729CB13B
:10211000309100012091000145FD11C0811182E044
:102120000E943E03CE010196082FF92ECE010296A1
:102130000E944C1014E6811117C0A895F7CF882390
:1021400049F090713170932B2270922B83E041F310
:1021500080E0E6CF81E0E4CF8FE99FE00197F1F7DF
:1021600000C00000115049F3802F9F2D0E944C1099
:10217000882391F39A81898180958913DECF482F36
:102180004051550B4A305105C0F6A89587FDCECF7A
:102190000E947001CBCFA1E21A2EAA1BBB1BFD012E
:1021A0000DC0AA1FBB1FEE1FFF1FA217B307E40736
:1021B000F50720F0A21BB30BE40BF50B661F771F8E
:1021C000881F991F1A9469F760957095809590956E
:1021D0009B01AC01BD01CF010895EE0FFF1F881FC9
:1021E0008BBF0790F691E02D19940E940011A59FD6
:1021F000900DB49F900DA49F800D911D1124089502
:10220000A29FB001B39FC001A39F700D811D112437
:10221000911DB29F700D811D1124911D0895F89498
:10222000FFCF0001080118012501310143013101EF
:102230004301310143014C017E01A701C701EC01BB
:102240000C0231026E0251028E02B3027A06880637
:10225000900696069A06A6067A0690099E09A60991
:10226000B209BC09C209C509CB09CF09D5098B0D33
:10227000A60DAF0DB10DB30D990DA40DBA0DCC0D7A
:022280008B0DC4
:0E22820000000003000000005E1000000000DD
:00000001FF
