:100000000C94CA000C94EB000C94EB000C94EB00E5
:100010000C94EB000C94EB000C94EB000C94EB00B4
:100020000C94EB000C94EB000C94EB000C94EB00A4
:100030000C94EB000C94EB000C94EB000C94EB0094
:100040000C94EB000C94EB000C94EB000C94EB0084
:100050000C94EB000C94EB000C94EB000C94EB0074
:100060000C94EB000C94BA0F0C94E40F0C94EB007E
:100070000C94EB000C94EB000C94EB000C94EB0054
:100080000C94EB000C94EB000C94EB000C94EB0044
:100090000C94A9100C94D3100C94EB000C94EB006E
:1000A0000C94EB000C94EB000C94EB000C94EB0024
:1000B0000C94EB000C94EB000C94EB000C94EB0014
:1000C0000C94EB000C94EB000C94EB000C94EB0004
:1000D0000C94EB000C94EB000C94EB000C94EB00F4
:1000E0000C94EB000C94590F0C9494010C9454074D
:1000F0000C94BD010C9422020C94600A0C94C90269
:100100000C9447010C94A4020C94850A0C9462018F
:100110000C9467020C94350F0C94760A0C944E0FD5
:100120000C9460070C94580A0C9439010C944707FE
:100130000C944A0A0C947F0A0C9417120C94DD015B
:100140000C9459010C9484020C944E070C94890A67
:100150000C941D010C94500F0C940B010C947A0F0D
:100160000C945B0F0C94430F0C942C010C945D0FBA
:100170000C9433070C9402020C9447020C947C0AF2
:100180000C9402010C946C0A0C94640F0C944107BB
:100190000C948F0A11241FBECFEFD1E2DEBFCDBF7A
:1001A00000E00CBF12E0A0E0B2E0EAE0F6E200E01E
:1001B0000BBF02C007900D92AE30B107D9F722E015
:1001C000AEE0B2E001C01D92A637B207E1F70E948F
:1001D00024120C94CF120C9400000895CF93DF9357
:1001E000D82F0E94FF11C82F8F3008F072C0E82F5F
:1001F000880FFF0B90910E028827EF52FD4E8F4F14
:100200000C94AD12913009F047C00E94FC078C2F6E
:10021000DF91CF910895923011F09430E9F581E0AB
:100220000E947404882309F464C044E660E072E02C
:1002300081E00E945D04C0E0EACF923011F094307A
:1002400059F582E00E947404882309F452C044E600
:1002500060E074E082E0EDCF9430F1F48EE00E9433
:100260007404882309F445C044E660E078E08EE039
:10027000E0CF923011F0943079F483E00E9474045E
:100280008823B9F149E160E070E283E0D2CF45E034
:1002900060E074E0933091F00E9495108111FCCFE2
:1002A0008D2F0E9480100E9495108111FCCF86E056
:1002B0001CC0933089F745E060E078E08C2F0E9405
:1002C000ED0AB9CF933041F745E060E070E18AE094
:1002D000F6CF0E9495108111FCCF8D2F0E948010C7
:1002E0000E9495108111FCCF84E00E948010CFEF16
:1002F0008ECF0E9495108111FCCF8D2F0E9480100F
:100300000E9495108111FCCF87E0EFCFCF93DF9350
:1003100080518A3008F062C1E82FF0E08827E0526F
:10032000FD4E8F4F0C94AD1280E10E94EE0087FDD0
:1003300055C180910E02813021F4DF91CF910C9450
:10034000FA09823021F4DF91CF910C94EE068330CC
:1003500021F4DF91CF910C94900E0E9495108111A1
:10036000FCCF80E10E9480100E9495108111FCCF8B
:1003700085E0DF91CF910C94801080910E02813046
:1003800021F4DF91CF910C942608823021F4DF9183
:10039000CF910C94D704833021F4DF91CF910C944A
:1003A000700B0E9495108111FCCF81E10E9480109A
:1003B0000E9495108111FCCFDBCF82E10E94EE00FC
:1003C00087FD0CC180910E02813021F4DF91CF9125
:1003D0000C940D0A823021F4DF91CF910C94050723
:1003E000833021F4DF91CF910C94CA0E0E949510B6
:1003F0008111FCCF82E10E9480100E949510811132
:10040000FCCFB6CF80910E02813021F4DF91CF91E5
:100410000C940709823021F4DF91CF910C942806C7
:10042000833021F4DF91CF910C94210D0E9495101F
:100430008111FCCF83E10E9480100E9495108111F0
:10044000FCCF96CF84E10E94EE0087FDC7C080916B
:100450000E02813021F4DF91CF910C941C0A82307E
:1004600021F4DF91CF910C941407833021F4DF91B4
:10047000CF910C94EF0E0E9495108111FCCF84E176
:100480000E9480100E9495108111FCCF71CF809145
:100490000E02813021F4DF91CF910C948A098230D1
:1004A00021F4DF91CF910C948B06833021F4DF91FE
:1004B000CF910C94D80D0E9495108111FCCF85E14D
:1004C0000E9480100E9495108111FCCF51CF0E9494
:1004D00095108111FCCF87E10E9480100E94951039
:1004E0008111FCCF0E9480100E94F511EC010E9446
:1004F00095108111FCCF8D2F0E9480100E949510C5
:100500008111FCCF8C2F35CF80910E02813021F4E8
:10051000DF91CF910C942B0A823021F4DF91CF919F
:100520000C94B404833021F4DF91CF910C943B0BF5
:100530000E9495108111FCCF86E10E9480100E94DC
:1005400095108111FCCF14CF88E10E94EE0087FD49
:1005500045C080910E02813021F4DF91CF910C943F
:100560003A0A823021F4DF91CF910C942307833033
:1005700021F4DF91CF910C94250F0E9495108111E9
:10058000FCCF88E10E9480100E9495108111FCCF61
:10059000EFCE89E10E94EE0087FD20C080910E021F
:1005A000813021F4DF91CF910C94A30A823021F4A1
:1005B000DF91CF910C947807833021F4DF91CF91B4
:1005C0000C94A50F0E9495108111FCCF89E10E9427
:1005D00080100E9495108111FCCFCACEDF91CF917F
:1005E00008959C0180FF46C05F9A21FF45C0A29AF2
:1005F00022FF44C0A19A23FF43C0A09A80910B011F
:1006000024FF40C0806880930B0180910B0125FF7F
:100610003BC0806480930B0180910B0126FF36C0A4
:10062000806280930B0180910B0127FF31C08061B4
:1006300080930B0180910B0130FF2CC08860809368
:100640000B0180910B0131FF27C0846080930B0167
:1006500080910B0132FF22C0826080930B01809158
:100660000B0133FF1DC0816080930B0134FF1AC062
:100670002B9A08955F98B9CFA298BACFA198BBCF13
:10068000A098BCCF8F77BFCF8F7BC4CF8F7DC9CFD2
:100690008F7ECECF877FD3CF8B7FD8CF8D7FDDCF9F
:1006A0008E7FE2CF2B980895CF93C82F80930E02B0
:1006B00090E080E00E94F102579A9A9A999A989A4B
:1006C00080910A01806880930A0180910A01806408
:1006D00080930A0180910A01806280930A018091CF
:1006E0000A01806180930A0180910A0188608093E9
:1006F0000A0180910A01846080930A0180910A01B5
:10070000826080930A0180910A01816080930A01CE
:10071000239A11B8C13019F4CF910C94010880913B
:100720000E02823019F4CF910C941E04C33019F4D8
:10073000CF910C94B80ACF91089582B9089580B1F1
:1007400008958FEF81B9089511B808959C018091A3
:10075000020185FF19C02130310549F022303105F1
:1007600029F0809102018F7D80930201089580918C
:1007700002018F7D8093020185E08A95F1F70000E8
:10078000809102018061F0CF8091020184FF14C04A
:100790002130310559F3809102018F7E809302014F
:1007A0002230310509F0089585E08A95F1F70000BF
:1007B000809102018062D8CF2130310509F32230C7
:1007C0003105B1F3089590910F029E3061F48823B2
:1007D00031F0809102018860809302010895809138
:1007E0000201877FF9CF882311F02C9A08952C9865
:1007F000089590910F029E3049F4882321F081E002
:1008000090E00C94A60390E080E0FBCF882331F0C9
:100810008091020180648093020108958091020119
:100820008F7BF9CFCF93DF930E94F1028091020179
:100830008F7B80930201DF91CF91089510921C026B
:1008400010921502109216021092170210921802BE
:100850001092190210921402109213029FEF9093BB
:100860000F0280931002E2E0F1E080818F7E8083AE
:100870008081877F808380818F7D808380818F7B53
:1008800080832C982D986B986B98E1E0F1E0808143
:10089000877F808380818F7E808380818062808358
:1008A000808180648083249A8081886080838081B5
:1008B00080618083259A2698089540931902709349
:1008C00014026093130280930F021092120210928E
:1008D000110210921C021092150210921602109230
:1008E000170210921802089590911002923081F42C
:1008F000639908C09FEF980F923010F481E008953B
:100900008E30E1F3639B02C08330C1F380E0089531
:100910009430E1F790910A019E7F90930A0195E04F
:100920009A95F1F700009091090190FF06C09FEFA2
:10093000980F923018F38E3009F39091090190FDD1
:1009400002C08330D9F280910A01816080930A014C
:10095000DDCF2D9A2FEF81EE94E021508040904022
:10096000E1F700C00000089580E00E94E30380E00A
:100970000E94F90390E080E00E94A6032FEF81EE31
:1009800094E0215080409040E1F700C000002D9895
:100990000E94A4030E9495108111FCCF86E10E9461
:1009A00080100E9495108111FCCF0C9480108F92C2
:1009B0009F92AF92BF92CF92DF92EF92FF920F93EE
:1009C0001F93CF93DF9300D000D00F920F92CDB73B
:1009D000DEB70091130210911402809111029091E0
:1009E0001202081B190B0930110514F008E010E081
:1009F000D12CED2CF12CE016F10608F462C0C12CCC
:100A0000AC2CB12C8091110290911202A016B1066B
:100A100008F462C0080F191F10931202009311020C
:100A200080911302909114020817190709F004C16C
:100A30000E9495108111FCCF81E10E9480100E94DC
:100A400095108111FCCF82E00E9480100E949510C9
:100A50008111FCCF80911C020E9480100E94951091
:100A60008111FCCF80910F02833009F0DDC08091AD
:100A700018020E9480100E9495108111FCCF809175
:100A80000F02833009F0D2C0809117020E948010BB
:100A90000E9495108111FCCF80910F02833009F0E4
:100AA000C7C0809116020E9480100E94951081118B
:100AB000FCCF80910F02833009F0BCC080911502F9
:100AC00030C00E94FF11E1E0F0E0EC0FFD1FEE0DE1
:100AD000FF1D8083D3948DCF20911B02E0901902DB
:100AE000211102C0EE24E3948A0D9B1D0E94120482
:100AF000D12CFF24F39481E090E08C0F9D1FA80E71
:100B0000B91EEF1410F5D11072C00E94951081111A
:100B1000FCCF81E10E9480100E9495108111FCCFD2
:100B20008AE028960FB6F894DEBF0FBECDBFDF91E6
:100B3000CF911F910F91FF90EF90DF90CF90BF90DA
:100B4000AF909F908F900C948010F501808081E091
:100B50000E94E303F5E0FA95F1F700000E94A1037B
:100B6000882D0E949D038AE18A95F1F700C082E0FA
:100B700090E00E94A60380910F02833099F5EFE385
:100B8000FFE13197F1F700C0000081E090E00E94A2
:100B9000A6039AE19A95F1F700C00E94A40380E0B1
:100BA0000E94E30380911B028823C1F0E5E0EA95EF
:100BB000F1F7000081E00E94F903F5E0FA95F1F702
:100BC00000000E949F03982E80E00E94F903891084
:100BD00007C0D11005C0E0901A02EF0CDD24D394B9
:100BE000F3948FCF8FE99FE00197F1F7CCCF8091FD
:100BF0001C028F1508F48F2D80931C028091150222
:100C000090911602A0911702B09118028F0D911DBC
:100C1000A11DB11D8093150290931602A093170297
:100C2000B0931802C394ECCE80E023CF80E02ECFA7
:100C300080E039CF80E075CF0E9495108111FCCF04
:100C400081E10E9480100E9495108111FCCF69CF34
:100C50001F93CF93DF93C0911302D0911402809120
:100C6000110290911202C81BD90BC930D10514F0A2
:100C7000C8E0D0E00E9495108111FCCF83E10E9472
:100C800080100E9495108111FCCF809111029091EB
:100C900012028C0F9D1F20911302309114028217B3
:100CA0009307B9F080E00E94801010E0809111025B
:100CB00090911202212F30E02C173D0764F0C80FED
:100CC000D91FD0931202C0931102DF91CF911F91CF
:100CD000089582E0E8CF820F931F0E94120485E0FE
:100CE0008A95F1F7000081E00E94F90385E08A957A
:100CF000F1F700000E9495108111FCCF0E949F0324
:100D00000E94801080E00E94F90385E08A95F1F747
:100D100000001F5FCBCF1F93CF93DF93D0E0C0E0E5
:100D20008091130290911402C817D907C8F01FEFE1
:100D300080911302909114028C179D0769F50E940F
:100D400095108111FCCF85E10E9480100E949510C2
:100D50008111FCCF82E0DF91CF911F910C94801024
:100D6000CE010E94120485E08A95F1F7000081E02F
:100D70000E94F90385E08A95F1F700000E949F0325
:100D8000182F80E00E94F90385E08A95F1F70000B2
:100D90001F3F71F62196C4CF0E9495108111FCCFA0
:100DA00085E10E9480100E9495108111FCCF89E09E
:100DB0000E9480100E9495108111FCCF8D2F0E94FF
:100DC00080100E9495108111FCCF8C2F0E94801002
:100DD0000E9495108111FCCF812FBDCF0E94FF1181
:100DE00080931B020E94FF1180931A020E94A904A3
:100DF0000E9495108111FCCF80E10E9480100E941A
:100E000095108111FCCF0C9480100E94A9040E94BF
:100E100095108111FCCF82E10E9480100E949510F4
:100E20008111FCCF0C9480100E94A9040E9495109F
:100E30008111FCCF84E10E9480100E9495108111E5
:100E4000FCCF0C9480100E94FF11EFEFE80FE73009
:100E500008F040C00E2E000CFF0B8827E651FD4E17
:100E60008F4F0C94AD120E94A9040E94951081111D
:100E7000FCCF88E10E9480100E9495108111FCCF68
:100E800034C00E94A90481E00E94F903EECF0E94C1
:100E9000A90482E090E00E94A603E7CF0E94A90483
:100EA00081E00E94E303E1CF0E94A9040E94A10314
:100EB0008AEA0E949D038AEA9AE00E94F102D5CF55
:100EC0000E94A9040E94A10385E50E949D0385E577
:100ED00095E1F3CF0E9495108111FCCF83E00E9431
:100EE00080100E9495108111FCCF80E00C9480103E
:100EF0000E9495108111FCCF89E10E9480100E9410
:100F000095108111FCCF0E9480100E9495108111D4
:100F1000FCCF0E949F030C9480101D9B2CC08091DD
:100F200002018F7B809302012D982FEF81EE94E0D8
:100F3000215080409040E1F700C000002FEF81EE8B
:100F400094E0215080409040E1F700C000002FEF76
:100F500081EE94E0215080409040E1F700C0000015
:100F6000809102018F7E80930201809102018F7D2A
:100F7000809302012C981E9B23C080910201877FE1
:100F8000809302012E982FEF81EE94E02150804053
:100F90009040E1F700C000002FEF81EE94E0215077
:100FA00080409040E1F700C00000809102018F7EF8
:100FB00080930201809102018F7D809302012C9821
:100FC0000C94A4031E990AC02E9A2FEF81EE94E090
:100FD000215080409040E1F700C0000008951D9925
:100FE0000AC02D9A2FEF81EE94E02150804090406E
:100FF000E1F700C00000089510921E0210921D0239
:101000000895E2E0F1E08081877F808380818F7B9B
:10101000808380818F7E808380818F7D80832C98E8
:101020002D982E986C986B98E1E0F1E080818860B3
:1010300080838081806180838081806280838081E1
:1010400080648083249A259A269A0895AF92BF924D
:10105000CF92DF92EF92FF920F931F93CF93DF9384
:1010600000D000D00F920F92CDB7DEB780911D0255
:1010700090911E0200E011E0081B190B09301105C8
:1010800010F008E010E0C02E0E94EF0780910201EE
:101090008064809302018FE891E00197F1F700C02E
:1010A0000000FE0131965F017F018E2D8A198C159B
:1010B00008F45DC0D12CE0901D02F0901E02DC10FF
:1010C0005CC0E00EF11EF0921E02E0921D028091C3
:1010D00002018F7B80930201EFE8F1E03197F1F795
:1010E00000C0000080911D0290911E028115914068
:1010F00009F081C00E9495108111FCCF81E10E940E
:1011000080100E9495108111FCCF82E00E94801017
:101110000E9495108111FCCF0E9480100E949510B2
:101120008111FCCF0E9480100E9495108111FCCF8C
:101130000E9480100E9495108111FCCF0E948010A7
:101140000E9495108111FCCF80E028960FB6F8948C
:10115000DEBF0FBECDBFDF91CF911F910F91FF90EA
:10116000EF90DF90CF90BF90AF900C9480100E94D2
:10117000FF11F70181937F0198CFF501F1905F0195
:10118000ED0C0E94A1038F2D0E949D03F12CC7013D
:10119000809590950E94F102F5EDFA95F1F7000027
:1011A0002C9A87E592E00197F1F700C00000C70193
:1011B0000E94F10295ED9A95F1F7000080910201ED
:1011C000806180930201EFE2FAE23197F1F700C00B
:1011D0000000809102018F7E80930201F5EDFA9567
:1011E000F1F700002C988FE79BEB0197F1F700C017
:1011F0000000D39460CF0E9495108111FCCF81E153
:101200000E9480100E9495108111FCCF9DCF1F93EA
:10121000CF93DF9380911D0290911E02C0E0D1E038
:10122000C81BD90BC930D10514F0C8E0D0E00E942A
:1012300095108111FCCF83E10E9480100E949510CF
:101240008111FCCF80911D0290911E028C0F9D1F79
:101250008115914079F180E00E9480100E94E207A0
:10126000809102018860809302018FE891E00197EC
:10127000F1F700C0000010E0812F90E08C179D076F
:10128000DCF080910201877F809302018FE891E07A
:101290000197F1F700C0000080911D0290911E029D
:1012A000C80FD91FD0931E02C0931D02DF91CF91AA
:1012B0001F91089582E0D0CF20911D0230911E022F
:1012C000820F931F0E94F1028FE891E00197F1F7DE
:1012D00000C00000809102018062809302018FE8CB
:1012E00091E00197F1F700C000000E949510811174
:1012F000FCCF0E949F030E948010809102018F7D8D
:10130000809302018FE891E00197F1F700C000009F
:101310001F5FB2CF1F93CF93DF930E94E2078091AC
:101320000201886080930201D0E0C0E0CE010E94FB
:10133000F1028FE891E00197F1F700C00000809181
:1013400002018062809302018FE891E00197F1F73A
:1013500000C000000E949F03182F809102018F7D22
:10136000809302018FE891E00197F1F700C000003F
:10137000111105C02196C11591E0D907B9F68091E8
:101380000201877F80930201C11581E0D80789F4AB
:101390000E9495108111FCCF85E10E9480100E946F
:1013A00095108111FCCF82E0DF91CF911F910C94B9
:1013B00080100E9495108111FCCF85E10E94801061
:1013C0000E9495108111FCCF89E00E9480100E943C
:1013D00095108111FCCF0E9480100E949510811100
:1013E000FCCF8C2F0E9480100E9495108111FCCFA1
:1013F000812FDACF0E94FF110E94FF110E948D07FA
:101400000E9495108111FCCF80E10E9480100E9403
:1014100095108111FCCF0C9480100E948D070E94C2
:1014200095108111FCCF82E10E9480100E949510DE
:101430008111FCCF0C9480100E948D070E949510A2
:101440008111FCCF84E10E9480100E9495108111CF
:10145000FCCF0C9480100E948D070E949510811182
:10146000FCCF86E10E9480100E9495108111FCCF74
:101470000C9480100E94FF11EFEFE80FEA3008F0A3
:1014800054C00E2E000CFF0B8827EF50FD4E8F4FDF
:101490000C94AD120E94E2070E9495108111FCCFBE
:1014A00088E10E9480100E9495108111FCCF48C0F5
:1014B0000E94E20780910201806280930201ECCFDA
:1014C0000E94E207809102018860809302018AEA0B
:1014D00090E00E94F102E0CF0E94E20780910201B9
:1014E00088608093020185E590E0F3CF0E94E207D7
:1014F000809102018860E1CF0E94EF07CDCF0E946A
:10150000EF07809102018061D8CF0E94EF072C9AEB
:10151000C3CF0E94EF07809102018064D6CF0E9462
:10152000EF07809102018064DCCF0E949510811149
:10153000FCCF83E00E9480100E9495108111FCCFA7
:1015400080E00C9480100E9495108111FCCF89E1FD
:101550000E9480100E9495108111FCCF0E94801083
:101560000E9495108111FCCF0E949F030C94801063
:1015700010922B021092250210922602109227023E
:101580001092280210922402109223028FEF80936F
:101590001F022E982F982D982C98E2E0F1E0808180
:1015A0008F7B808380818F7E80838081877F808313
:1015B000739826982798259A249AE1E0F1E0808193
:1015C0008064808380818061808380818860808363
:1015D0006B9A80818F7D8083089540932902709358
:1015E00024026093230280931F0210922202109221
:1015F000210210922B0210922502109226021092C4
:1016000027021092280291E08B3009F090E091952A
:1016100090932002089580911F028B30F4F488305B
:101620000CF5863021F18730F9F084508230E0F0FB
:101630002D9A2FEF81EE94E0215080409040E1F709
:1016400000C00000809102018F7E80930201809192
:101650001F0273988B3071F408958B3041F08C50D9
:10166000823030F7269801C0269A2798E1CF269A33
:10167000279ADECF0895809102018F7B809302012B
:1016800080910201877F80930201809102018F7E09
:10169000809302012C9873982FEF81EE94E02150F3
:1016A00080409040E1F700C000002D980E94A40304
:1016B00080911F028B3089F090E080E00E94F1025F
:1016C0000E9495108111FCCF86E10E9480100E943B
:1016D00095108111FCCF0C94801080E098E0EECF43
:1016E0009F92AF92BF92CF92DF92EF92FF920F93B1
:1016F0001F93CF93DF9300D000D00F920F92CDB7FE
:10170000DEB7009123021091240280912102909172
:101710002202081B190B0930110514F008E010E033
:10172000D12CED2CF12CE016F10608F44EC0B12CB2
:10173000CB2CD12CE0902102F0902202C016D106D1
:1017400008F44EC00E0D1F1D1093220200932102BB
:1017500080912302909124020817190709F065C1AE
:101760000E9495108111FCCF81E10E9480100E949F
:1017700095108111FCCF82E00E9480100E9495108C
:101780008111FCCF80912B020E9480100E94951045
:101790008111FCCF809128020E9480100E94951038
:1017A0008111FCCF809127020E9480100E94951029
:1017B0008111FCCF809126020E9480100E9495101A
:1017C0008111FCCF809125025DC00E94FF11E1E0F4
:1017D000F0E0EC0FFD1FEE0DFF1D8083D394A1CF31
:1017E000EC0CFD1C80912A02A0902902811102C0FC
:1017F000AA24A39480911F028B3009F056C0739ADB
:1018000080911F028B3029F0809102018F7E80939E
:1018100002010E94A1038E2D0E949D03EE242FE061
:10182000F22280911F028B3009F441C080E090E0E9
:101830008E299F290E94F1028AE68A95F1F700C05D
:1018400080911F028B30B1F573989AE69A95F1F763
:1018500000C0E12CFF24F394E1E0F0E0EC0FFD1F69
:10186000CE0EDF1EAF1440F5E110BCC00E949510F3
:101870008111FCCF81E10E9480100E94951081119E
:10188000FCCF8AE028960FB6F894DEBF0FBECDBF1E
:10189000DF91CF911F910F91FF90EF90DF90CF904C
:1018A000BF90AF909F900C9480107398A9CF80E068
:1018B00098E0BECF739AC9CFF60190808091200244
:1018C0008915D9F180911F028B3029F08091020196
:1018D0008F7E809302010E94A103892D0E949D03A7
:1018E000FAE6FA95F1F700C080911F028B3069F19A
:1018F000809102018860809302018FE99FE0019747
:10190000F1F700C000002C9A9FEFE0E7F2E0915061
:10191000E040F040E1F700C000002C988FE99FE024
:101920000197F1F700C0000080910201877F80934A
:1019300002019AE69A95F1F700C080912A0281117E
:1019400028C0EE24E394F3948DCF8091020180614E
:10195000809302019AE69A95F1F700C08091020106
:10196000886080930201EFEFF0E722E0E150F04061
:101970002040E1F700C0000080910201877F809342
:1019800002018AE68A95F1F700C0809102018F7EFC
:10199000CECF0E94A40380911F028B3009F03FC07C
:1019A00080910B018E7F80930B01EAE6EA95F1F7B7
:1019B00000C0FAE6FA95F1F700C00E949F039091EB
:1019C0001F029B3029F490910B01916090930B01C1
:1019D0002AE62A95F1F700C0F60190819813B3CF5B
:1019E000E110AFCF80912B028F1508F48F2D8093DB
:1019F0002B028091250290912602A0912702B0919E
:101A000028028F0D911DA11DB11D80932502909379
:101A10002602A0932702B0932802B39489CE809126
:101A20000201806180930201C4CF0E949510811150
:101A3000FCCF81E10E9480100E9495108111FCCFA3
:101A400021CFFF920F931F93CF93DF93C091230277
:101A5000D09124028091210290912202C81BD90BBF
:101A6000C930D10514F0C8E0D0E00E949510811172
:101A7000FCCF83E10E9480100E9495108111FCCF61
:101A800080912102909122028C0F9D1F20912302B0
:101A90003091240282179307C9F080E00E948010E1
:101AA000F12C80912102909122020F2D10E00C1751
:101AB0001D0774F0C80FD91FD0932202C0932102D2
:101AC000DF91CF911F910F91FF90089582E0E6CFB3
:101AD000080F191F0E94A10380911F028B3009F487
:101AE000739A802F0E949D0300271F7080911F0210
:101AF0008B3009F456C080E090E0802B912B0E943F
:101B0000F1028AE68A95F1F700C080911F028B30BE
:101B100009F04AC073980E94A4038AE68A95F1F7F7
:101B200000C080911F02863011F08C3049F4809102
:101B300002018061809302018AE68A95F1F700C074
:101B400080911F028B3049F480910B018E7F80932E
:101B50000B018AE68A95F1F700C00E949F03182FB7
:101B600080911F02863011F08C3029F4809102019F
:101B70008F7E8093020180911F028B30B9F4809197
:101B80000B01816080930B018AE68A95F1F700C012
:101B90000E9495108111FCCF812F0E948010F39438
:101BA00080CF80E098E0A9CF739AB5CF7398ECCF3F
:101BB0001F93CF93DF931AEAD0E0C0E08091230215
:101BC00090912402C817D907C8F080912302909100
:101BD00024028C179D0709F081C00E949510811185
:101BE000FCCF85E10E9480100E9495108111FCCFEE
:101BF00082E0DF91CF911F910C9480100E94A1038D
:101C000080911F028B3009F4739A8C2F0E949D03E0
:101C10009E0122273F7080911F028B3009F457C02C
:101C200080E090E0822B932B0E94F1028AE68A9555
:101C3000F1F700C080911F028B3009F04BC0739800
:101C40008AE68A95F1F700C00E94A4038AE68A9585
:101C5000F1F700C080911F02863011F08C3049F4FA
:101C6000809102018061809302018AE68A95F1F7F2
:101C700000C080911F028B3049F480910B018E7F50
:101C800080930B018AE68A95F1F700C00E949F03BA
:101C9000182F80911F02863011F08C3029F480912A
:101CA00002018F7E8093020180911F028B30A1F48C
:101CB00080910B01816080930B018AE68A95F1F790
:101CC00000C080912002811380CF219677CF80E0E1
:101CD00098E0A8CF739AB4CF7398EFCF0E94951075
:101CE0008111FCCF85E10E9480100E949510811126
:101CF000FCCF89E00E9480100E9495108111FCCFDA
:101D00008D2F0E9480100E9495108111FCCF8C2F86
:101D10000E9480100E9495108111FCCF812F69CF05
:101D20000E94FF1180932A020E94FF1180911F02DE
:101D30008850833070F40E9495108111FCCF80E1AF
:101D40000E9480100E9495108111FCCF83E00C94BA
:101D500080100E940B0B809102018064809302012D
:101D600080911F028B3091F4809102018F7E8093CD
:101D7000020173980E9495108111FCCF80E10E94AE
:101D800080100E9495108111FCCFE1CF809102015B
:101D90008061EDCF0E940B0B8091020180648093E3
:101DA000020180911F02863019F08B50823098F426
:101DB000809102018F7E8093020173980E9495109A
:101DC0008111FCCF82E10E9480100E949510811148
:101DD000FCCF0C948010809102018061ECCF809147
:101DE0001F028850833070F40E9495108111FCCF3F
:101DF00084E10E9480100E9495108111FCCF83E045
:101E00000C9480100E940B0B8091020180648093DF
:101E1000020180911F02863011F08B3091F4809185
:101E200002018F7E8093020173980E9495108111A8
:101E3000FCCF84E10E9480100E9495108111FCCF9C
:101E4000DFCF809102018061EDCF0E94FF11EFEFA3
:101E5000E80FEA3008F06BC00E2E000CFF0B88274D
:101E6000E550FD4E8F4F0C94AD120E940B0B0E945B
:101E700095108111FCCF88E10E9480100E9495107E
:101E80008111FCCF5FC084E080931F020E940B0B86
:101E900080910201886080930201E9CF86E0F4CF4F
:101EA00088E080931F020E940B0B809102018064E6
:101EB000F2CF84E0F6CF86E0F4CF84E080931F0277
:101EC0000E940B0B2C9AD3CF0E940B0B0E94A103F4
:101ED0008AEA0E949D0380E09AE00E94F1028091CC
:101EE00002018F7E8093020180911F028B30D1F41A
:101EF0007398BDCF0E940B0B0E94A10385E50E9441
:101F00009D0380911F028B3079F080E095E00E9464
:101F1000F1028091020180618093020180911F0291
:101F20008B3031F7739AA3CF80E09DE0F0CF0E9411
:101F300095108111FCCF83E00E9480100E949510C3
:101F40008111FCCF80E00C9480100E9495108111CB
:101F5000FCCF89E10E9480100E9495108111FCCF76
:101F60000E9480100E9495108111FCCF0E949F0357
:101F70000C9480102F932FB72F932BB72F938F9301
:101F80009F93EF93FF938091C0009091C600E091E2
:101F90005302EF5FEF70209152022E1799F0887173
:101FA000E0935302F0E0EA5AFD4F90838093510290
:101FB000FF91EF919F918F912F912BBF2F912FBF69
:101FC0002F91189580E0F2CF8F938FB78F938BB7B7
:101FD0008F939F93EF93FF939091550280915402BA
:101FE0009817A9F0E0915402EF5FEF70E09354026C
:101FF000F0E0EA59FD4F80818093C600FF91EF9198
:102000009F918F918BBF8F918FBF8F9118958091EA
:10201000C1008F7D8093C100F1CF109255021092C4
:10202000540210925302109252029091C200906892
:102030009093C200282F21709091C20080FF38C079
:1020400090649093C2009091C20092609093C200FD
:102050009091C20094609093C2009091C10081FF62
:1020600029C094609093C100222319F082FF24C0FC
:102070006A9A9091C10083FF21C090619093C10042
:1020800084FF1EC08091C00082608093C000809158
:10209000C10080688093C1006093C4007093C50044
:1020A0008091C10088608093C100699A6898089502
:1020B0009F7BC7CF9B7FD6CF6A98DBCF9F7EDECF3B
:1020C0008091C0008D7FE1CF209153029091520208
:1020D00081E0291301C080E008959091530280911E
:1020E0005202981759F0E0915202EF5FEF70E093BF
:1020F0005202F0E0EA5AFD4F8081089580E0089591
:10210000909155029F5F9F70209154022917E1F32F
:10211000E92FF0E0EA59FD4F8083909355028091BA
:10212000C10080628093C100089590915502809112
:102130005402981309C08091C00085FB882780F95C
:1021400091E089278170089581E0FCCF8091510250
:1021500008952F932FB72F932BB72F938F939F9380
:10216000EF93FF938091C8009091CE00E0912E02F2
:10217000EF5FEF7020912D022E1799F08871E09398
:102180002E02F0E0EF5CFD4F908380932C02FF91D4
:10219000EF919F918F912F912BBF2F912FBF2F9157
:1021A000189580E0F2CF8F938FB78F938BB78F9373
:1021B0009F93EF93FF939091300280912F02981795
:1021C000A9F0E0912F02EF5FEF70E0932F02F0E0B3
:1021D000EF5BFD4F80818093CE00FF91EF919F9147
:1021E0008F918BBF8F918FBF8F9118958091C90070
:1021F0008F7D8093C900F1CF1092300210922F0290
:1022000010922E0210922D029091CA009068909325
:10221000CA00282F21709091CA0080FF38C09064B6
:102220009093CA009091CA0092609093CA009091D6
:10223000CA0094609093CA009091C90081FF29C0A0
:1022400094609093C900222319F082FF24C0549A0D
:102250009091C90083FF21C090619093C90084FFD1
:102260001EC08091C80082608093C8008091C90020
:1022700080688093C9006093CC007093CD008091FA
:10228000C90088608093C900539A529808959F7B33
:10229000C7CF9B7FD6CF5498DBCF9F7EDECF809178
:1022A000C8008D7FE1CF20912E0290912D0281E018
:1022B000291301C080E0089590912E0280912D0293
:1022C000981759F0E0912D02EF5FEF70E0932D0227
:1022D000F0E0EF5CFD4F8081089580E008959091DB
:1022E00030029F5F9F7020912F022917E1F3E92FA1
:1022F000F0E0EF5BFD4F8083909330028091C90046
:1023000080628093C90008959091300280912F02DD
:10231000981309C08091C80085FB882780F991E057
:1023200089278170089581E0FCCF80912C02089567
:1023300010927C0087E880937A000895CF93DF9312
:1023400000D000D0CDB7DEB76D837E8390E01982D8
:102350001A821B821C82981327C0292F30E050E07C
:1023600040E069817A818B819C810E948B12A7E970
:10237000BCE00E94B51269837A838B839C836D8154
:102380007E819B0150E040E069817A818B819C8154
:102390000E948B12C90126960FB6F894DEBF0FBEBD
:1023A000CDBFDF91CF910895EFE9FFE03197F1F7CD
:1023B00000C0000020917A00206420937A002091D0
:1023C0007A0026FDFCCF2091780030917900498178
:1023D0005A816B817C81420F531F611D711D49839E
:1023E0005A836B837C839F5FB6CFECE7F0E08081FC
:1023F000807E80836BE077E08AE00C949E110E94DF
:1024000064108823E1F30C946D100F931F93CF9306
:102410008C010E946410C82F882321F00E946D1047
:10242000F80180838C2FCF911F910F910895CF9346
:10243000C82F0E9484118111FCCF8C2F0E946F1134
:1024400090E080E0CF9108950F920F92CDB7DEB764
:1024500069E170E088E00E940D1078940E94981164
:102460006D989D986C98809101018E7F80930101F9
:10247000809101018D7F809301014CB182B3807204
:102480009CB1209100013091000145FD11C08111E6
:1024900082E00E945403CE010196082FF92ECE014E
:1024A00002960E94051214E681111EC0A895F7CF6E
:1024B000882381F090712170922B832F827031FDDF
:1024C00004C09111E6CF83E0E4CF84E0992309F3BF
:1024D00080E0DFCF81E0DDCF8FE99FE00197F1F76A
:1024E00000C00000115011F3802F9F2D0E94051293
:1024F000882391F39A81898180958913D7CF482FBA
:102500004051550B4A30510588F6A89587FDC7CF35
:102510000E948601C4CFA1E21A2EAA1BBB1BFD019B
:102520000DC0AA1FBB1FEE1FFF1FA217B307E407B2
:10253000F50720F0A21BB30BE40BF50B661F771F0A
:10254000881F991F1A9469F76095709580959095EA
:102550009B01AC01BD01CF010895EE0FFF1F881F45
:102560008BBF0790F691E02D19940E94C012A59F91
:10257000900DB49F900DA49F800D911D112408957E
:10258000A29FB001B39FC001A39F700D811D1124B4
:10259000911DB29F700D811D1124911D0895F89415
:1025A000FFCF02010B011D0139014701590147010C
:1025B00059014701590162015901470159012C0193
:1025C0009401BD01DD01020222024702840267027A
:1025D000A402C9023307410747074E0754076007A3
:1025E00033074A0A580A600A6C0A760A7C0A7F0A8C
:1025F000850A890A8F0A350F500F590F5B0F5D0F3F
:0A260000430F4E0F640F7A0F350FE1
:0E260A00000000030000000017120000000096
:00000001FF
