:100000000C94CE000C94EF000C94EF000C94EF00D5
:100010000C94EF000C94EF000C94EF000C94EF00A4
:100020000C94EF000C94EF000C94EF000C94EF0094
:100030000C94EF000C94EF000C94EF000C94EF0084
:100040000C94EF000C94EF000C94EF000C94EF0074
:100050000C94EF000C94EF000C94EF000C94EF0064
:100060000C94EF000C94DE0F0C9408100C94EF002D
:100070000C94EF000C94EF000C94EF000C94EF0044
:100080000C94EF000C94EF000C94EF000C94EF0034
:100090000C94CD100C94F7100C94EF000C94EF001E
:1000A0000C94EF000C94EF000C94EF000C94EF0014
:1000B0000C94EF000C94EF000C94EF000C94EF0004
:1000C0000C94EF000C94EF000C94EF000C94EF00F4
:1000D0000C94EF000C94EF000C94EF000C94EF00E4
:1000E0000C94EF000C9498010C94A80A0C948C07C3
:1000F0000C944B010C94CD0A0C9466010C948F0F58
:100100000C94BE0A0C9477020C946E0F0C94E501CB
:100110000C947F070C9498070C94A00A0C943D0152
:100120000C9494020C940C020C94920A0C94C70A3E
:100130000C9486070C9455020C943B120C9479078E
:100140000C945D010C947B0F0C94840F0C94AB0702
:100150000C942E020C94860F0C94D10A0C9421015D
:100160000C940F010C94C3010C94DD020C94600FED
:100170000C94880F0C9430010C946B070C94A50F11
:100180000C94B6020C94C40A0C9406010C94A207B9
:100190000C94B40A0C94D70A0C94790F11241FBE46
:1001A000CFEFD1E2DEBFCDBF00E00CBF12E0A0E098
:1001B000B2E0E6E5F6E200E00BBF02C007900D9268
:1001C000AE30B107D9F722E0AEE0B2E001C01D9237
:1001D000A637B207E1F70E9448120C94F3120C9470
:1001E00000000895CF93DF93D82F0E942312C82FC9
:1001F0008F3008F072C0E82F880FFF0B90910E022D
:100200008827EB50FD4E8F4F0C94D112913009F09E
:1002100047C00E9444088C2FDF91CF9108959230FF
:1002200011F09430E9F581E00E948D04882309F4EF
:1002300064C044E660E072E081E00E947604C0E0C1
:10024000EACF923011F0943059F582E00E948D048B
:10025000882309F452C044E660E074E082E0EDCF08
:100260009430F1F48EE00E948D04882309F445C097
:1002700044E660E078E08EE0E0CF923011F0943018
:1002800079F483E00E948D048823B9F149E160E0AC
:1002900070E283E0D2CF45E060E074E0933091F00B
:1002A0000E94B9108111FCCF8D2F0E94A4100E94D2
:1002B000B9108111FCCF86E01CC0933089F745E06E
:1002C00060E078E08C2F0E94350BB9CF933041F776
:1002D00045E060E070E18AE0F6CF0E94B91081113C
:1002E000FCCF8D2F0E94A4100E94B9108111FCCF69
:1002F00084E00E94A410CFEF8ECF0E94B91081112C
:10030000FCCF8D2F0E94A4100E94B9108111FCCF48
:1003100087E0EFCFCF93DF9380518A3008F074C12C
:10032000E82FF0E08827EC5FFC4E8F4F0C94D11241
:1003300080E10E94F20087FD67C180910E0281304A
:1003400021F4DF91CF910C94420A823011F0843075
:1003500021F4DF91CF910C942607833021F4DF91B3
:10036000CF910C94BB0E0E94B9108111FCCF80E19B
:100370000E94A4100E94B9108111FCCF85E0DF918A
:10038000CF910C94A41080910E02813021F4DF9162
:10039000CF910C946E08823011F0843021F4DF91FB
:1003A000CF910C940B05833021F4DF91CF910C9405
:1003B000BE0B0E94B9108111FCCF81E10E94A410F4
:1003C0000E94B9108111FCCFD9CF82E10E94F200C6
:1003D00087FD1AC180910E02813021F4DF91CF9107
:1003E0000C94550A823011F0843021F4DF91CF91C2
:1003F0000C943D07833021F4DF91CF910C94F50EDE
:100400000E94B9108111FCCF82E10E94A4100E94C9
:10041000B9108111FCCFB2CF80910E02813021F44E
:10042000DF91CF910C944F09823011F0843021F488
:10043000DF91CF910C946006833021F4DF91CF914E
:100440000C94630D0E94B9108111FCCF83E10E94CE
:10045000A4100E94B9108111FCCF90CF84E10E94BA
:10046000F20087FDD1C080910E02813021F4DF912E
:10047000CF910C94640A823011F0843021F4DF9122
:10048000CF910C944C07833021F4DF91CF910C94E1
:100490001A0F0E94B9108111FCCF84E10E94A410B0
:1004A0000E94B9108111FCCF69CF80910E0281307A
:1004B00021F4DF91CF910C94D209823011F0843075
:1004C00021F4DF91CF910C94C306833021F4DF91A6
:1004D000CF910C940F0E0E94B9108111FCCF85E1D1
:1004E0000E94A4100E94B9108111FCCF47CF0E9436
:1004F000B9108111FCCF87E10E94A4100E94B910AD
:100500008111FCCF0E94A4100E941912EC010E94DC
:10051000B9108111FCCF8D2F0E94A4100E94B91038
:100520008111FCCF8C2F2BCF80910E02813021F4D2
:10053000DF91CF910C94730A823011F0843021F452
:10054000DF91CF910C94E104833021F4DF91CF91BE
:100550000C94900B0E94B9108111FCCF86E10E948F
:10056000A4100E94B9108111FCCF08CF88E10E942D
:10057000F20087FD49C080910E02813021F4DF91A5
:10058000CF910C94820A823011F0843021F4DF91F3
:10059000CF910C945B07833021F4DF91CF910C94C1
:1005A000500F0E94B9108111FCCF88E10E94A41065
:1005B0000E94B9108111FCCFE1CE89E10E94F200C6
:1005C00087FD22C080910E02813021F4DF91CF910E
:1005D0000C94EB0A823011F0843021F4DF91CF913A
:1005E0000C94C007833021F4DF91CF910C94C90F94
:1005F0000E94B9108111FCCF89E10E94A4100E94D1
:10060000B9108111FCCFBACEDF91CF9108959C0132
:1006100080FF46C05F9A21FF45C0A29A22FF44C0D6
:10062000A19A23FF43C0A09A80910B0124FF40C0F0
:10063000806880930B0180910B0125FF3BC0806493
:1006400080930B0180910B0126FF36C0806280935E
:100650000B0180910B0127FF31C0806180930B015A
:1006600080910B0130FF2CC0886080930B0180913A
:100670000B0131FF27C0846080930B0180910B0137
:1006800032FF22C0826080930B0180910B0133FF07
:100690001DC0816080930B0134FF1AC02B9A08950E
:1006A0005F98B9CFA298BACFA198BBCFA098BCCF82
:1006B0008F77BFCF8F7BC4CF8F7DC9CF8F7ECECFBB
:1006C000877FD3CF8B7FD8CF8D7FDDCF8E7FE2CF5B
:1006D0002B980895CF93C82F80930E0290E080E06E
:1006E0000E940703579A9A9A999A989A80910A01B8
:1006F000806880930A0180910A01806480930A01D6
:1007000080910A01806280930A0180910A018061D0
:1007100080930A0180910A01886080930A01809188
:100720000A01846080930A0180910A0182608093AB
:100730000A0180910A01816080930A01239A11B80D
:10074000C13019F4CF910C94490880910E02823087
:1007500011F0843019F4CF910C943704C33019F49C
:10076000CF910C94000BCF91089582B9089580B178
:1007700008958FEF81B9089511B808959C01809173
:10078000020185FF15C02130310549F022303105C5
:1007900029F0809102018F7D80930201089580915C
:1007A00002018F7D80930201809102018061F4CF6C
:1007B0008091020184FF0CC02130310579F38091D2
:1007C00002018F7E809302012230310541F00895AD
:1007D0002130310549F32230310509F00895809127
:1007E00002018062D9CF90910F029E3061F488237C
:1007F00031F0809102018860809302010895809118
:100800000201877FF9CF882311F02C9A08952C9844
:10081000089590910F029E3049F4882321F081E0E1
:1008200090E00C94BE0390E080E0FBCF882331F091
:1008300080910201806480930201089580910201F9
:100840008F7BF9CFCF93DF93EC010E940703809158
:100850000F028E3039F480910201D2FF06C08F7BE7
:1008600080930201DF91CF9108958064F9CF1092B7
:100870001C0210921502109216021092170210928A
:1008800018021092190210921402109213029FEF94
:1008900090930F0280931002E2E0F1E080818F7E5E
:1008A00080838081877F808380818F7D808380812A
:1008B0008F7B80832C982D986B986B98E1E0F1E00A
:1008C0008081877F808380818F7E8083808180622A
:1008D0008083808180648083249A80818860808383
:1008E000808180618083259A26980895409319021B
:1008F000709314026093130280930F0210921202FD
:100900001092110210921C021092150210921602FF
:1009100010921702109218020895982F80911002D9
:10092000823079F4639906C08FEF890F823078F1B5
:100930009E3069F1639B03C081E0933009F080E051
:1009400008958430E1F780910A018E7F80930A0137
:100950008AE68A95F1F700C08091090180FF07C0FF
:100960008FEF890F823088F081E09E3009F080E0BF
:100970002091090120FD03C0933009F481E090919A
:100980000A01916090930A01089581E0F1CF81E01E
:10099000089580910F02833081F4809102018F7E4F
:1009A000809302012D9A2FEF81EE94E02150804038
:1009B0009040E1F700C0000008958091020180613D
:1009C000EFCF80E00E94F30380E00E940904809151
:1009D0000F028330E9F490E080E00E94BE032FEF25
:1009E00081EE94E0215080409040E1F700C000008B
:1009F0002D980E94BC030E94B9108111FCCF86E1A2
:100A00000E94A4100E94B9108111FCCF0C94A41074
:100A100081E090E0E2CF8F929F92AF92BF92CF920F
:100A2000DF92EF92FF920F931F93CF93DF9300D04B
:100A300000D00F920F92CDB7DEB700911302109144
:100A400014028091110290911202081B190B0930B7
:100A5000110514F008E010E081E00E94F303D12CAE
:100A6000ED2CF12CE016F10608F465C0C12CAC2C7D
:100A7000B12C8091110290911202A016B10608F4D7
:100A800065C0080F191F1093120200931102809184
:100A90001302909114020817190709F005C180E0AC
:100AA0000E94F3030E94B9108111FCCF81E10E94E2
:100AB000A4100E94B9108111FCCF82E00E94A41002
:100AC0000E94B9108111FCCF80911C020E94A410D9
:100AD0000E94B9108111FCCF80910F02833009F080
:100AE000DBC0809118020E94A4100E94B9108111ED
:100AF000FCCF80910F02833009F0D0C080911702A3
:100B00000E94A4100E94B9108111FCCF80910F02A5
:100B1000833009F0C5C0809116020E94A4100E9483
:100B2000B9108111FCCF80910F02833009F0BAC057
:100B30008091150230C00E942312E1E0F0E0EC0F3A
:100B4000FD1FEE0DFF1D8083D3948ACF20911B02E1
:100B5000E0901902211102C0EE24E3948A0D9B1D3E
:100B60000E942204D12CFF24F39481E090E08C0FAA
:100B70009D1FA80EB91EEF1410F5D11070C00E9471
:100B8000B9108111FCCF81E10E94A4100E94B9101C
:100B90008111FCCF8AE028960FB6F894DEBF0FBE15
:100BA000CDBFDF91CF911F910F91FF90EF90DF901C
:100BB000CF90BF90AF909F908F900C94A410F501B0
:100BC0008080F5E0FA95F1F700000E94B903882DC6
:100BD0000E94B5038AE18A95F1F700C082E090E0B7
:100BE0000E94BE0380910F02833081F5EFE3FFE1A5
:100BF0003197F1F700C0000090E080E00E94BE0352
:100C00009AE19A95F1F700C080911B028823D1F0F8
:100C10000E94BC03E5E0EA95F1F7000081E00E9444
:100C20000904F5E0FA95F1F700000E94B703982E49
:100C300080E00E940904891007C0D11005C0E0902F
:100C40001A02EF0CDD24D394F39495CF8FE99FE043
:100C50000197F1F700C0000081E090E0CFCF8091D4
:100C60001C028F1508F48F2D80931C0280911502B1
:100C700090911602A0911702B09118028F0D911D4C
:100C8000A11DB11D8093150290931602A093170227
:100C9000B0931802C394EBCE80E025CF80E030CF34
:100CA00080E03BCF80E077CF0E94B9108111FCCF6C
:100CB00081E10E94A4100E94B9108111FCCF6BCF7A
:100CC0001F93CF93DF93C0911302D09114028091B0
:100CD000110290911202C81BD90BC930D10514F032
:100CE000C8E0D0E00E94B9108111FCCF83E10E94DE
:100CF000A4100E94B9108111FCCF80911102909133
:100D000012028C0F9D1F2091130230911402821742
:100D10009307B9F080E00E94A41010E080911102C6
:100D200090911202212F30E02C173D0764F0C80F7C
:100D3000D91FD0931202C0931102DF91CF911F915E
:100D4000089582E0E8CF820F931F0E94220485E07D
:100D50008A95F1F7000081E00E94090485E08A95F8
:100D6000F1F700000E94B9108111FCCF0E94B70377
:100D70000E94A41080E00E94090485E08A95F1F7A2
:100D800000001F5FCBCF1F93CF93DF93D0E0C0E075
:100D90008091130290911402C817D907C8F01FEF71
:100DA00080911302909114028C179D0769F50E949F
:100DB000B9108111FCCF85E10E94A4100E94B910E6
:100DC0008111FCCF82E0DF91CF911F910C94A41090
:100DD000CE010E94220485E08A95F1F7000081E0AF
:100DE0000E94090485E08A95F1F700000E94B7038C
:100DF000182F80E00E94090485E08A95F1F7000031
:100E00001F3F71F62196C4CF0E94B9108111FCCF0B
:100E100085E10E94A4100E94B9108111FCCF89E0E5
:100E20000E94A4100E94B9108111FCCF8D2F0E9446
:100E3000A4100E94B9108111FCCF8C2F0E94A41025
:100E40000E94B9108111FCCF812FBDCF0E942312C7
:100E500080931B020E94231280931A020E94C904ED
:100E60000E94B9108111FCCF80E10E94A4100E9461
:100E7000B9108111FCCF0C94A4100E94C9040E94E7
:100E8000B9108111FCCF82E10E94A4100E94B91018
:100E90008111FCCF0C94A4100E94C9040E94B910C7
:100EA0008111FCCF84E10E94A4100E94B91081112D
:100EB000FCCF0C94A4100E942312EFEFE80FE9304E
:100EC00008F050C00E2E000CFF0B8827E25FFC4E8E
:100ED0008F4F0C94D1120E94C9040E94B910811145
:100EE000FCCF88E10E94A4100E94B9108111FCCFB0
:100EF00044C00E94C90481E00E940904EECF0E9410
:100F0000C90482E090E00E94BE03E7CF0E94C904BA
:100F100081E00E94F303E1CF0E94C9040E94B9035B
:100F20008AEA0E94B5038AEA9AE00E942204D5CF99
:100F30000E94C9040E94B90385E50E94B50385E5B6
:100F400095E1F3CF0E94C90490E080E00E94BE03C7
:100F500090E080E0EACF0E94C90480E094E00E9423
:100F60002204D6CF0E94B9108111FCCF83E00E94E9
:100F7000A4100E94B9108111FCCF80E00C94A41041
:100F80000E94B9108111FCCF89E10E94A4100E9437
:100F9000B9108111FCCF0E94A4100E94B9108111D8
:100FA000FCCF0E94B7030C94A4101D9B2CC0809111
:100FB00002018F7B809302012D982FEF81EE94E048
:100FC000215080409040E1F700C000002FEF81EEFB
:100FD00094E0215080409040E1F700C000002FEFE6
:100FE00081EE94E0215080409040E1F700C0000085
:100FF000809102018F7E80930201809102018F7D9A
:10100000809302012C981E9B23C080910201877F50
:10101000809302012E982FEF81EE94E021508040C2
:101020009040E1F700C000002FEF81EE94E02150E6
:1010300080409040E1F700C00000809102018F7E67
:1010400080930201809102018F7D809302012C9890
:101050000C94BC031E990AC02E9A2FEF81EE94E0E7
:10106000215080409040E1F700C0000008951D9994
:101070000AC02D9A2FEF81EE94E0215080409040DD
:10108000E1F700C00000089510921E0210921D02A8
:101090000895E2E0F1E08081877F808380818F7B0B
:1010A000808380818F7E808380818F7D80832C9858
:1010B0002D982E986C986B98E1E0F1E08081886023
:1010C0008083808180618083808180628083808151
:1010D00080648083249A259A269A0895AF92BF92BD
:1010E000CF92DF92EF92FF920F931F93CF93DF93F4
:1010F00000D000D00F920F92CDB7DEB780911D02C5
:1011000090911E0200E011E0081B190B0930110537
:1011100010F008E010E0C02E0E9437088091020114
:101120008064809302018FE891E00197F1F700C09D
:101130000000FE0131965F017F018E2D8A198C150A
:1011400008F45DC0D12CE0901D02F0901E02DC106E
:101150005CC0E00EF11EF0921E02E0921D02809132
:1011600002018F7B80930201EFE8F1E03197F1F704
:1011700000C0000080911D0290911E0281159140D7
:1011800009F081C00E94B9108111FCCF81E10E9459
:10119000A4100E94B9108111FCCF82E00E94A4101B
:1011A0000E94B9108111FCCF0E94A4100E94B910B6
:1011B0008111FCCF0E94A4100E94B9108111FCCFB4
:1011C0000E94A4100E94B9108111FCCF0E94A410AB
:1011D0000E94B9108111FCCF80E028960FB6F894D8
:1011E000DEBF0FBECDBFDF91CF911F910F91FF905A
:1011F000EF90DF90CF90BF90AF900C94A4100E941E
:101200002312F70181937F0198CFF501F1905F01DF
:10121000ED0C0E94B9038F2D0E94B503F12CC7017C
:10122000809590950E940703F5EDFA95F1F700007F
:101230002C9A87E592E00197F1F700C00000C70102
:101240000E94070395ED9A95F1F700008091020145
:10125000806180930201EFE2FAE23197F1F700C07A
:101260000000809102018F7E80930201F5EDFA95D6
:10127000F1F700002C988FE79BEB0197F1F700C086
:101280000000D39460CF0E94B9108111FCCF81E19E
:101290000E94A4100E94B9108111FCCF9DCF1F9312
:1012A000CF93DF9380911D0290911E02C0E0D1E0A8
:1012B000C81BD90BC930D10514F0C8E0D0E00E949A
:1012C000B9108111FCCF83E10E94A4100E94B910D3
:1012D0008111FCCF80911D0290911E028C0F9D1FE9
:1012E0008115914079F180E00E94A4100E942A08A3
:1012F000809102018860809302018FE891E001975C
:10130000F1F700C0000010E0812F90E08C179D07DE
:10131000DCF080910201877F809302018FE891E0E9
:101320000197F1F700C0000080911D0290911E020C
:10133000C80FD91FD0931E02C0931D02DF91CF9119
:101340001F91089582E0D0CF20911D0230911E029E
:10135000820F931F0E9407038FE891E00197F1F736
:1013600000C00000809102018062809302018FE83A
:1013700091E00197F1F700C000000E94B9108111BF
:10138000FCCF0E94B7030E94A410809102018F7DC0
:10139000809302018FE891E00197F1F700C000000F
:1013A0001F5FB2CF1F93CF93DF930E942A088091D3
:1013B0000201886080930201D0E0C0E0CE010E946B
:1013C00007038FE891E00197F1F700C000008091DA
:1013D00002018062809302018FE891E00197F1F7AA
:1013E00000C000000E94B703182F809102018F7D7A
:1013F000809302018FE891E00197F1F700C00000AF
:10140000111105C02196C11591E0D907B9F6809157
:101410000201877F80930201C11581E0D80789F41A
:101420000E94B9108111FCCF85E10E94A4100E9496
:10143000B9108111FCCF82E0DF91CF911F910C9404
:10144000A4100E94B9108111FCCF85E10E94A41064
:101450000E94B9108111FCCF89E00E94A4100E9463
:10146000B9108111FCCF0E94A4100E94B910811103
:10147000FCCF8C2F0E94A4100E94B9108111FCCFC8
:10148000812FDACF0E9423120E9423120E94D507D7
:101490000E94B9108111FCCF80E10E94A4100E942B
:1014A000B9108111FCCF0C94A4100E94D5070E94A2
:1014B000B9108111FCCF82E10E94A4100E94B910E2
:1014C0008111FCCF0C94A4100E94D5070E94B91082
:1014D0008111FCCF84E10E94A4100E94B9108111F7
:1014E000FCCF0C94A4100E94D5070E94B910811162
:1014F000FCCF86E10E94A4100E94B9108111FCCF9C
:101500000C94A4100E942312EFEFE80FEA3008F0C9
:1015100054C00E2E000CFF0B8827E95EFC4E8F4F47
:101520000C94D1120E942A080E94B9108111FCCF9C
:1015300088E10E94A4100E94B9108111FCCF48C01C
:101540000E942A0880910201806280930201ECCF00
:101550000E942A08809102018860809302018AEA31
:1015600090E00E940703E0CF0E942A0880910201C8
:1015700088608093020185E590E0F3CF0E942A08FD
:10158000809102018860E1CF0E943708CDCF0E9490
:101590003708809102018061D8CF0E9437082C9AC9
:1015A000C3CF0E943708809102018064D6CF0E9489
:1015B0003708809102018064DCCF0E94B91081114C
:1015C000FCCF83E00E94A4100E94B9108111FCCFCF
:1015D00080E00C94A4100E94B9108111FCCF89E125
:1015E0000E94A4100E94B9108111FCCF0E94A41087
:1015F0000E94B9108111FCCF0E94B7030C94A41073
:1016000010922B02109225021092260210922702AD
:101610001092280210922402109223028FEF8093DE
:101620001F022E982F982D982C98E2E0F1E08081EF
:101630008F7B808380818F7E80838081877F808382
:10164000739826982798259A249AE1E0F1E0808102
:1016500080648083808180618083808188608083D2
:101660006B9A80818F7D80830895409329027093C7
:1016700024026093230280931F0210922202109290
:10168000210210922B021092250210922602109233
:1016900027021092280291E08B3009F090E091959A
:1016A00090932002089580911F028B303CF5883082
:1016B00054F5863069F1873041F18450823028F149
:1016C00080911F028B3039F58091010180628093F7
:1016D00001012D9A2FEF81EE94E02150804090403F
:1016E000E1F700C00000809102018F7E809302012B
:1016F00080911F0273988B3091F408958B3041F0E4
:101700008C508230E8F6269801C0269A2798D8CFC8
:10171000269A279AD5CF809101018F7DD8CF089541
:10172000809102018F7B8093020180910201877F6B
:1017300080930201809102018F7E809302012C9898
:1017400073982FEF81EE94E0215080409040E1F7B4
:1017500000C000002D980E94BC0390E080E00E9431
:1017600007030E94B9108111FCCF86E10E94A410EA
:101770000E94B9108111FCCF0C94A4109F92AF92DB
:10178000BF92CF92DF92EF92FF920F931F93CF936E
:10179000DF9300D000D00F920F92CDB7DEB700914B
:1017A0002302109124028091210290912202081BB1
:1017B000190B0930110514F008E010E0D12CED2CC4
:1017C000F12CE016F10608F44EC0B12CEB2CF12CF4
:1017D000C0902102D0902202E016F10608F44EC01B
:1017E0000C0D1D1D109322020093210280912302F3
:1017F000909124020817190709F059C10E94B910E5
:101800008111FCCF81E10E94A4100E94B9108111C6
:10181000FCCF82E00E94A4100E94B9108111FCCF7D
:1018200080912B020E94A4100E94B9108111FCCF5C
:10183000809128020E94A4100E94B9108111FCCF4F
:10184000809127020E94A4100E94B9108111FCCF40
:10185000809126020E94A4100E94B9108111FCCF31
:101860008091250254C00E942312E1E0F0E0EC0FC9
:10187000FD1FEE0DFF1D8083D394A1CFCE0CDF1C86
:1018800080912A02A0902902811102C0AA24A39467
:1018900080911F028B3009F04DC0739A80911F0216
:1018A0008B3029F0809102018F7E809302010E948B
:1018B000B9038C2D0E94B503C60188279F700E9432
:1018C00007032AE62A95F1F700C080911F028B30AA
:1018D00099F573988AE68A95F1F700C0C12CDD244A
:1018E000D394E1E0F0E0EC0FFD1FEE0EFF1EAD140F
:1018F00028F5C110B9C00E94B9108111FCCF81E157
:101900000E94A4100E94B9108111FCCF8AE0289691
:101910000FB6F894DEBF0FBECDBFDF91CF911F9100
:101920000F91FF90EF90DF90CF90BF90AF909F907E
:101930000C94A4107398B2CF739ACCCFF701908017
:10194000809120028915D9F180911F028B3029F0F6
:10195000809102018F7E809302010E94B903892D3C
:101960000E94B503FAE6FA95F1F700C080911F02D4
:101970008B3069F1809102018860809302018FE9C8
:101980009FE00197F1F700C000002C9A9FEFE0E77D
:10199000F2E09150E040F040E1F700C000002C98E8
:1019A0008FE99FE00197F1F700C0000080910201EC
:1019B000877F809302019AE69A95F1F700C08091A3
:1019C0002A02811128C0CC24C394D39490CF809153
:1019D00002018061809302019AE69A95F1F700C0B6
:1019E00080910201886080930201EFEFF0E722E02E
:1019F000E150F0402040E1F700C00000809102017A
:101A0000877F809302018AE68A95F1F700C0809172
:101A100002018F7ECECF0E94BC0380911F028B30CB
:101A200009F03FC0809102018F7D80930201EAE6B8
:101A3000EA95F1F700C0FAE6FA95F1F700C00E94C6
:101A4000B70390911F029B3029F49091020190629C
:101A5000909302012AE62A95F1F700C0F7019081E0
:101A60009813B3CFC110AFCF80912B028D1508F41E
:101A70008D2D80932B028091250290912602A091BA
:101A80002702B09128028D0D911DA11DB11D8093DB
:101A9000250290932602A0932702B0932802B394C4
:101AA00095CE80910201806180930201C4CF0E9493
:101AB000B9108111FCCF81E10E94A4100E94B910DD
:101AC0008111FCCF24CFFF920F931F93CF93DF930D
:101AD000C0912302D0912402809121029091220290
:101AE000C81BD90BC930D10514F0C8E0D0E00E9462
:101AF000B9108111FCCF83E10E94A4100E94B9109B
:101B00008111FCCF80912102909122028C0F9D1FA8
:101B1000209123023091240282179307C9F080E0BC
:101B20000E94A410F12C80912102909122020F2D8D
:101B300010E00C171D0774F0C80FD91FD0932202B4
:101B4000C0932102DF91CF911F910F91FF900895D3
:101B500082E0E6CF080F191F0E94B90380911F028F
:101B60008B3009F4739A802F0E94B503C80188272F
:101B70009F700E9407038AE68A95F1F700C0809162
:101B80001F028B3009F047C073980E94BC038AE69D
:101B90008A95F1F700C080911F02863011F08C30D9
:101BA00049F4809102018061809302018AE68A955E
:101BB000F1F700C080911F028B3049F4809102013F
:101BC0008F7D809302018AE68A95F1F700C00E941A
:101BD000B703182F80911F02863011F08C3029F442
:101BE000809102018F7E8093020180911F028B30D1
:101BF000A1F4809102018062809302018AE68A95B5
:101C0000F1F700C00E94B9108111FCCF812F0E9412
:101C1000A410F39488CF739AB8CF7398EFCF1F9323
:101C2000CF93DF931AEAD0E0C0E080912302909135
:101C30002402C817D907C8F080912302909124028A
:101C40008C179D0709F075C00E94B9108111FCCF57
:101C500085E10E94A4100E94B9108111FCCF82E09E
:101C6000DF91CF911F910C94A4100E94B903809131
:101C70001F028B3009F4739A8C2F0E94B503CE019A
:101C800088279F700E9407038AE68A95F1F700C0B3
:101C900080911F028B3009F048C073988AE68A95BC
:101CA000F1F700C00E94BC038AE68A95F1F700C0F4
:101CB00080911F02863011F08C3049F4809102012E
:101CC0008061809302018AE68A95F1F700C08091D5
:101CD0001F028B3049F4809102018F7D80930201B5
:101CE0008AE68A95F1F700C00E94B703182F809109
:101CF0001F02863011F08C3029F4809102018F7E12
:101D00008093020180911F028B3089F4809102013F
:101D10008062809302018AE68A95F1F700C0809183
:101D20002002811389CF219680CF739AB7CF739801
:101D3000F2CF0E94B9108111FCCF85E10E94A4105E
:101D40000E94B9108111FCCF89E00E94A4100E946A
:101D5000B9108111FCCF8D2F0E94A4100E94B910E0
:101D60008111FCCF8C2F0E94A4100E94B910811108
:101D7000FCCF812F75CF0E94231280932A020E94EC
:101D8000231280911F028850833070F40E94B91092
:101D90008111FCCF80E10E94A4100E94B910811132
:101DA000FCCF83E00C94A4100E94530B809102019D
:101DB00080648093020180911F028B3091F48091A6
:101DC00002018F7E8093020173980E94B9108111E5
:101DD000FCCF80E10E94A4100E94B9108111FCCFB9
:101DE000E1CF809102018061EDCF0E94530B809181
:101DF000020180648093020180911F02863019F0F5
:101E00008B50823098F4809102018F7E8093020182
:101E100073980E94B9108111FCCF82E10E94A41036
:101E20000E94B9108111FCCF0C94A4108091020182
:101E30008061ECCF80911F028850833070F40E9443
:101E4000B9108111FCCF84E10E94A4100E94B91046
:101E50008111FCCF83E00C94A4100E94530B80915D
:101E6000020180648093020180911F02863011F08C
:101E70008B3091F4809102018F7E809302017398E0
:101E80000E94B9108111FCCF84E10E94A4100E942D
:101E9000B9108111FCCFDFCF809102018061EDCFBD
:101EA0000E942312EFEFE80FEA3008F064C00E2E14
:101EB000000CFF0B8827EF5DFC4E8F4F0C94D11266
:101EC0000E94530B0E94B9108111FCCF88E10E943F
:101ED000A4100E94B9108111FCCF58C084E08093F7
:101EE0001F020E94530B80910201886080930201BF
:101EF000E9CF86E0F4CF88E080931F020E94530B65
:101F0000809102018064F2CF84E0F6CF86E0F4CFC6
:101F100084E080931F020E94530B2C9AD3CF0E941F
:101F2000530B0E94B9038AEA0E94B50380E09AE04D
:101F30000E940703809102018F7E809302018091AD
:101F40001F028B30B1F47398BDCF0E94530B0E94D7
:101F5000B90385E50E94B50380E095E00E94070380
:101F60008091020180618093020180911F028B3079
:101F700051F7739AA7CF0E94B9108111FCCF83E06B
:101F80000E94A4100E94B9108111FCCF80E00C9433
:101F9000A4100E94B9108111FCCF89E10E94A41005
:101FA0000E94B9108111FCCF0E94A4100E94B910A8
:101FB0008111FCCF0E94B7030C94A4102F932FB76C
:101FC0002F932BB72F938F939F93EF93FF93809132
:101FD000C0009091C600E0915302EF5FEF70209136
:101FE00052022E1799F08871E0935302F0E0EA5AFA
:101FF000FD4F908380935102FF91EF919F918F91BC
:102000002F912BBF2F912FBF2F91189580E0F2CFEA
:102010008F938FB78F938BB78F939F93EF93FF938C
:1020200090915502809154029817A9F0E0915402C2
:10203000EF5FEF70E0935402F0E0EA59FD4F8081CA
:102040008093C600FF91EF919F918F918BBF8F91ED
:102050008FBF8F9118958091C1008F7D8093C100B3
:10206000F1CF109255021092540210925302109226
:1020700052029091C20090689093C200282F217064
:102080009091C20080FF38C090649093C2009091FC
:10209000C20092609093C2009091C20094609093AD
:1020A000C2009091C10081FF29C094609093C1004B
:1020B000222319F082FF24C06A9A9091C10083FF05
:1020C00021C090619093C10084FF1EC08091C00028
:1020D00082608093C0008091C10080688093C100BD
:1020E0006093C4007093C5008091C10088608093A4
:1020F000C100699A689808959F7BC7CF9B7FD6CF10
:102100006A98DBCF9F7EDECF8091C0008D7FE1CFCC
:10211000209153029091520281E0291301C080E086
:1021200008959091530280915202981759F0E091CE
:102130005202EF5FEF70E0935202F0E0EA5AFD4F77
:102140008081089580E00895909155029F5F9F706F
:10215000209154022917E1F3E92FF0E0EA59FD4FED
:102160008083909355028091C10080628093C1006A
:1021700008959091550280915402981309C080915E
:10218000C00085FB882780F991E089278170089538
:1021900081E0FCCF8091510208952F932FB72F93A8
:1021A0002BB72F938F939F93EF93FF938091C8004A
:1021B0009091CE00E0912E02EF5FEF7020912D0202
:1021C0002E1799F08871E0932E02F0E0EF5CFD4F3E
:1021D000908380932C02FF91EF919F918F912F918B
:1021E0002BBF2F912FBF2F91189580E0F2CF8F93A7
:1021F0008FB78F938BB78F939F93EF93FF939091AC
:10220000300280912F029817A9F0E0912F02EF5F22
:10221000EF70E0932F02F0E0EF5BFD4F8081809341
:10222000CE00FF91EF919F918F918BBF8F918FBFC8
:102230008F9118958091C9008F7D8093C900F1CF4F
:102240001092300210922F0210922E0210922D0244
:102250009091CA0090689093CA00282F21709091A5
:10226000CA0080FF38C090649093CA009091CA0061
:1022700092609093CA009091CA0094609093CA00B3
:102280009091C90081FF29C094609093C9002223D6
:1022900019F082FF24C0549A9091C90083FF21C095
:1022A00090619093C90084FF1EC08091C800826035
:1022B0008093C8008091C90080688093C9006093B2
:1022C000CC007093CD008091C90088608093C900D4
:1022D000539A529808959F7BC7CF9B7FD6CF54982F
:1022E000DBCF9F7EDECF8091C8008D7FE1CF209134
:1022F0002E0290912D0281E0291301C080E0089503
:1023000090912E0280912D02981759F0E0912D02A4
:10231000EF5FEF70E0932D02F0E0EF5CFD4F808106
:10232000089580E00895909130029F5F9F70209102
:102330002F022917E1F3E92FF0E0EF5BFD4F8083D7
:10234000909330028091C90080628093C900089503
:102350009091300280912F02981309C08091C8009B
:1023600085FB882780F991E089278170089581E0B5
:10237000FCCF80912C02089510927C0087E8809316
:102380007A000895CF93DF9300D000D0CDB7DEB7A9
:102390006D837E8390E019821A821B821C829813BF
:1023A00027C0292F30E050E040E069817A818B819D
:1023B0009C810E94AF12A7E9BCE00E94D9126983F8
:1023C0007A838B839C836D817E819B0150E040E00A
:1023D00069817A818B819C810E94AF12C901269606
:1023E0000FB6F894DEBF0FBECDBFDF91CF91089539
:1023F000EFE9FFE03197F1F700C0000020917A008B
:10240000206420937A0020917A0026FDFCCF209151
:1024100078003091790049815A816B817C81420F2B
:10242000531F611D711D49835A836B837C839F5F9A
:10243000B6CFECE7F0E08081807E80836BE077E0D0
:102440008AE00C94C2110E9488108823E1F30C9456
:1024500091100F931F93CF938C010E948810C82F67
:10246000882321F00E949110F80180838C2FCF9156
:102470001F910F910895CF93C82F0E94A811811129
:10248000FCCF8C2F0E94931190E080E0CF910895B3
:102490000F920F92CDB7DEB769E170E088E00E943D
:1024A000311078940E94BC116D989D986C98809121
:1024B00001018E7F80930101809101018D7F8093C6
:1024C00001014CB182B380729CB120910001309126
:1024D000000145FD11C0811182E00E946A03CE0116
:1024E0000196082FF92ECE0102960E94291214E6B9
:1024F00081111EC0A895F7CF882381F090712170BB
:10250000922B832F827031FD04C09111E6CF83E0BE
:10251000E4CF84E0992309F380E0DFCF81E0DDCFD1
:102520008FE99FE00197F1F700C00000115011F30F
:10253000802F9F2D0E942912882391F39A818981EF
:1025400080958913D7CF482F4051550B4A305105FC
:1025500088F6A89587FDC7CF0E948A01C4CFA1E263
:102560001A2EAA1BBB1BFD010DC0AA1FBB1FEE1F0D
:10257000FF1FA217B307E407F50720F0A21BB30B58
:10258000E40BF50B661F771F881F991F1A9469F7D4
:1025900060957095809590959B01AC01BD01CF0130
:1025A0000895EE0FFF1F881F8BBF0790F691E02D57
:1025B00019940E94E412A59F900DB49F900DA49FC2
:1025C000800D911D11240895A29FB001B39FC001F9
:1025D000A39F700D811D1124911DB29F700D811D4F
:1025E0001124911D0895F894FFCF06010F012101D8
:1025F0003D014B015D014B015D014B015D01660138
:102600005D014B015D0130019801C301E5010C0240
:102610002E02550294027702B602DD026B0779079B
:102620007F0786078C0798076B07A207AB07920AFC
:10263000A00AA80AB40ABE0AC40AC70ACD0AD10A67
:10264000D70A600F7B0F840F860F880F6E0F790FEC
:062650008F0FA50F600FC3
:0E26560000000003000000003B120000000026
:00000001FF
