:100000000C94C6000C94E7000C94E7000C94E700F5
:100010000C94E7000C94E7000C94E7000C94E700C4
:100020000C94E7000C94E7000C94E7000C94E700B4
:100030000C94E7000C94E7000C94E7000C94E700A4
:100040000C94E7000C94E7000C94E7000C94E70094
:100050000C94E7000C94E7000C94E7000C94E70084
:100060000C94E7000C94920D0C94BC0D0C94E700DA
:100070000C94E7000C94E7000C94E7000C94E70064
:100080000C94E7000C94E7000C94E7000C94E70054
:100090000C94810E0C94AB0E0C94E7000C94E700CA
:1000A0000C94E7000C94E7000C94E7000C94E70034
:1000B0000C94E7000C94E7000C94E7000C94E70024
:1000C0000C94E7000C94E7000C94E7000C94E70014
:1000D0000C94E7000C94E7000C94E7000C94E70004
:1000E0000C94E7000C941E020C94CF010C948B012D
:1000F0000C944B020C9432020C944B0D0C942A0D70
:100100000C94E9010C94FD000C94CE0F0C94350670
:100110000C9450090C943D010C945D090C94420D13
:100120000C9440090C94440D0C9434090C94090669
:100130000C941F060C941F010C94A0010C944A0906
:100140000C9425060C941C0D0C9459090C94130165
:100150000C942C090C94370D0C942B010C9417065D
:100160000C9471010C94BA010C94400D0C945D0D2B
:100170000C94FE010C9404010C941E090C94630968
:100180000C9453090C94350D0C94290611241FBEB0
:10019000CFEFD1E2DEBFCDBF00E00CBF12E0A0E0A8
:1001A000B2E0EAE5F1E200E00BBF02C007900D9279
:1001B000AE30B107D9F722E0AEE0B2E001C01D9247
:1001C000A437B207E1F70E94DB0F0C947C100C946B
:1001D00000000895CF93C82F0E94B60F282F8A30B1
:1001E00008F054C0E82F880FFF0B90917102882708
:1001F000E258FF4E8F4F0C945A10913089F50E94AF
:10020000D10680E0CF910895923051F581E00E94AF
:100210006103882309F44AC044E660E072E081E0AB
:100220000E944A03EECF9230D9F482E00E9461032B
:100230008823E1F144E660E074E082E0F1CF92309F
:1002400079F483E00E946103882381F149E160E051
:1002500070E283E0E5CF45E060E074E0933091F038
:100260000E946D0E8111FCCF8C2F0E94580E0E94AF
:100270006D0E8111FCCF86E015C0933089F745E003
:1002800060E078E0822F0E94C109BBCF0E946D0E12
:100290008111FCCF8C2F0E94580E0E946D0E81118F
:1002A000FCCF84E00E94580E8FEFACCF0E946D0E01
:1002B0008111FCCF8C2F0E94580E0E946D0E81116F
:1002C000FCCF87E0EFCFCF93DF9380518A3008F0E7
:1002D000FBC0E82FF0E08827E857FF4E8F4F0C94C3
:1002E0005A1080E10E94EA0087FDEEC08091710201
:1002F000813011F40E94CF0880917102823011F494
:100300000E94C50580917102833009F0DDC0DF9144
:10031000CF910C94850C80917102813011F40E9470
:10032000FB0680917102823011F40E94A00380913B
:100330007102833009F0C8C0DF91CF910C942A0A72
:1003400082E10E94EA0087FDBFC080917102813086
:1003500011F40E94E20880917102823011F40E942F
:10036000DC0580917102833009F0AEC0DF91CF913E
:100370000C94B70C80917102813011F40E94DC075B
:1003800080917102823011F40E94F7048091710211
:10039000833009F099C0DF91CF910C947D0B84E1FB
:1003A0000E94EA0087FD90C080917102813011F4B3
:1003B0000E94F10880917102823011F40E94EB05D5
:1003C00080917102833009F07FC0DF91CF910C944E
:1003D000D90C80917102813011F40E945F088091E4
:1003E0007102823011F40E945E05809171028330A7
:1003F00009F06AC0DF91CF910C94020C0E946D0E3F
:100400008111FCCF87E10E94580E0E946D0E811170
:10041000FCCF0E94580E0E94AC0FEC010E946D0EA2
:100420008111FCCF8D2F0E94580E0E946D0E8111FC
:10043000FCCF8C2FDF91CF910C94580E80917102DC
:10044000813011F40E94000980917102823011F410
:100450000E947C03809171028330B1F5DF91CF91CE
:100460000C94FC0988E10E94EA0087FD2DC0809170
:100470007102813011F40E940F0980917102823063
:1004800011F40E94FA05809171028330E9F4DF9142
:10049000CF910C940D0D88E10E94EA0087FD14C0F5
:1004A00080917102813011F40E947709809171026C
:1004B000823011F40E944D0680917102833021F444
:1004C000DF91CF910C947D0DDF91CF91089580FF46
:1004D00046C05F9A81FF45C0A29A82FF44C0A19A9C
:1004E00083FF43C0A09A20910B0184FF40C0206885
:1004F00020930B0120910B0185FF3BC020642093CA
:100500000B0120910B0186FF36C0206220930B0166
:1005100020910B0187FF31C0206120930B012091B6
:100520000B0190FF2CC0286020930B0120910B0140
:1005300091FF27C0246020930B0120910B0192FFB3
:1005400022C0226020930B0120910B0193FF1DC05C
:10055000216020930B0194FF1AC02B9A08955F9895
:10056000B9CFA298BACFA198BBCFA098BCCF2F7714
:10057000BFCF2F7BC4CF2F7DC9CF2F7ECECF277F7C
:10058000D3CF2B7FD8CF2D7FDDCF2E7FE2CF2B98FF
:100590000895CF93C82F8093710290E080E00E946D
:1005A0006702579A9A9A999A989A80910A01806854
:1005B00080930A0180910A01806480930A018091EE
:1005C0000A01806280930A0180910A018061809310
:1005D0000A0180910A01886080930A0180910A01D2
:1005E000846080930A0180910A01826080930A01ED
:1005F00080910A01816080930A01239A11B8C13069
:1006000019F4CF910C94D606C23019F4CF910C9402
:100610001903C33019F4CF910C948C09CF9108952C
:1006200082B9089580B108958FEF81B9089511B806
:10063000089510921A02109213021092140210924E
:1006400015021092160210921702109212021092C6
:1006500011028FEF80930E02E2E0F1E080818F7D46
:10066000808380818F7B80832C982D986B986B98EA
:10067000E1E0F1E08081877F808380818F7E8083CD
:10068000808180628083808180648083249A259A1F
:1006900026980895409317027093120260931102F6
:1006A00080930E021092100210920F0210921A0202
:1006B0001092130210921402109215021092160258
:1006C0000895982F639904C08FEF890F823038F016
:1006D000639B03C081E0933009F080E0089581E0DE
:1006E00008952D9A2FEF81EE94E0215080409040A4
:1006F000E1F700C0000008952C98809102018F7BE3
:1007000080930201809102018F7D809302012FEF7F
:1007100081EE94E0215080409040E1F700C000005D
:100720002D980E9417030E946D0E8111FCCF86E167
:100730000E94580E0E946D0E8111FCCF0C94580E31
:100740007F928F929F92AF92BF92CF92DF92EF9261
:10075000FF920F931F93CF93DF9300D000D00F929F
:100760000F92CDB7DEB700911102109112022091C5
:100770000F0230911002021B130B0930110514F007
:1007800008E010E0D12CED2CF12CE016F10608F475
:1007900062C0C12CAC2CB12C80910F029091100240
:1007A000A016B10608F462C0080F191F10931002BA
:1007B00000930F02809111029091120208171907FD
:1007C00009F009C10E946D0E8111FCCF81E10E94E8
:1007D000580E0E946D0E8111FCCF82E00E94580ECF
:1007E0000E946D0E8111FCCF80911A020E94580E5A
:1007F0000E946D0E8111FCCF80910E02833009F0B2
:10080000E2C0809116020E94580E0E946D0E811166
:10081000FCCF80910E02833009F0D7C08091150281
:100820000E94580E0E946D0E8111FCCF80910E0225
:10083000833009F0CCC0809114020E94580E0E94AF
:100840006D0E8111FCCF80910E02833009F0C1C082
:100850008091130231C00E94B60FE1E0F0E0EC0F8E
:10086000FD1FEE0DFF1D8083D3948DCF20911902C3
:10087000E0901702211102C0EE24E3948A0D9B1D23
:100880000E946702D12CFF24F39481E090E08C0F4A
:100890009D1FA80EB91E4501EF1418F5D11076C0A2
:1008A0000E946D0E8111FCCF81E10E94580E0E94C2
:1008B0006D0E8111FCCF8AE028960FB6F894DEBF4A
:1008C0000FBECDBFDF91CF911F910F91FF90EF90A1
:1008D000DF90CF90BF90AF909F908F907F900C94BF
:1008E000580EF50170802C9AF5E0FA95F1F70000AA
:1008F0000E941403872D0E9410038AE18A95F1F764
:1009000000C08091020180628093020180910E02FA
:100910008330B9F5EFE3FFE13197F1F700C0000054
:10092000809102018F7D809302019AE19A95F1F7FF
:1009300000C00E9417032C98809119028823E9F0C7
:10094000E5E0EA95F1F70000809102018064809370
:100950000201F5E0FA95F1F700000E941203909170
:1009600002019F7B90930201F4019081981307C0CC
:10097000D11005C0E0901802EF0CDD24D394F3945D
:100980008BCF8FE99FE00197F1F7C8CF80911A02D2
:100990008F1508F48F2D80931A0280911302909185
:1009A0001402A0911502B09116028F0D911DA11D88
:1009B000B11D8093130290931402A0931502B0937B
:1009C0001602C394E7CE80E01ECF80E029CF80E0FE
:1009D00034CF80E071CF0E946D0E8111FCCF81E198
:1009E0000E94580E0E946D0E8111FCCF65CF1F939F
:1009F000CF93DF93C0911102D091120220910F0288
:100A000030911002C21BD30BC930D10514F0C8E0DD
:100A1000D0E00E946D0E8111FCCF83E10E94580E40
:100A20000E946D0E8111FCCF80910F0290911002F7
:100A30008C0F9D1F20911102309112028217930793
:100A4000B9F080E00E94580E10E080910F02909162
:100A50001002212F30E02C173D0764F0C80FD91F7A
:100A6000D0931002C0930F02DF91CF911F91089590
:100A700082E0E8CF820F931F0E94670285E08A958B
:100A8000F1F700008091020180648093020185E00B
:100A90008A95F1F700000E946D0E8111FCCF0E9433
:100AA00012030E94580E809102018F7B80930201F5
:100AB00085E08A95F1F700001F5FC7CF1F93CF93A2
:100AC000DF93D0E0C0E08091110290911202C8172C
:100AD000D907C8F01FEF80911102909112028C1774
:100AE0009D0789F50E946D0E8111FCCF85E10E9462
:100AF000580E0E946D0E8111FCCF82E0DF91CF91E4
:100B00001F910C94580ECE010E94670285E08A95D1
:100B1000F1F700008091020180648093020185E07A
:100B20008A95F1F700000E941203182F80910201AC
:100B30008F7B8093020185E08A95F1F700001F3FCB
:100B400051F62196C0CF0E946D0E8111FCCF85E138
:100B50000E94580E0E946D0E8111FCCF89E00E9408
:100B6000580E0E946D0E8111FCCF8D2F0E94580EE1
:100B70000E946D0E8111FCCF8C2F0E94580E0E9496
:100B80006D0E8111FCCF812FB9CF0E94B60F8093DB
:100B900019020E94B60F809318020E9471030E94EE
:100BA0006D0E8111FCCF80E10E94580E0E946D0EE7
:100BB0008111FCCF0C94580E0E9471030E946D0E9F
:100BC0008111FCCF82E10E94580E0E946D0E8111AE
:100BD000FCCF0C94580E0E9471030E946D0E81117F
:100BE000FCCF84E10E94580E0E946D0E8111FCCF53
:100BF0000C94580E0E94B60F8150873008F03FC009
:100C0000E82F880FFF0B8827EE56FF4E8F4F0C946E
:100C10005A100E9471030E946D0E8111FCCF88E171
:100C20000E94580E0E946D0E8111FCCF33C00E94AD
:100C3000710380910201806480930201ECCF0E94D5
:100C40007103809102018062F7CF0E9471032C9A98
:100C5000E2CF0E9471030E9414038AEA0E941003EB
:100C60008AEA9AE00E946702D6CF0E9471030E942E
:100C7000140385E50E94100385E595E1F3CF0E94FA
:100C80006D0E8111FCCF83E00E94580E0E946D0E04
:100C90008111FCCF80E00C94580E0E946D0E8111E2
:100CA000FCCF89E10E94580E0E946D0E8111FCCF8D
:100CB0000E94580E0E946D0E8111FCCF0E941203FB
:100CC0000C94580E1D9B2CC0809102018F7B809349
:100CD00002012D982FEF81EE94E02150804090404A
:100CE000E1F700C000002FEF81EE94E0215080403A
:100CF0009040E1F700C000002FEF81EE94E021501A
:100D000080409040E1F700C00000809102018F7E9A
:100D100080930201809102018F7D809302012C98C3
:100D20001E9B23C080910201877F809302012E9831
:100D30002FEF81EE94E0215080409040E1F700C019
:100D400000002FEF81EE94E0215080409040E1F7C9
:100D500000C00000809102018F7E8093020180918B
:100D600002018F7D809302012C980C9417031E9929
:100D70000AC02E9A2FEF81EE94E0215080409040DF
:100D8000E1F700C0000008951D990AC02D9A2FEFC9
:100D900081EE94E0215080409040E1F700C00000D7
:100DA000089510927302109272020895E2E0F1E049
:100DB0008081877F808380818F7B808380818F7E0D
:100DC000808380818F7D80832C982D982E986C98BD
:100DD0006B98E1E0F1E080818860808380818061B0
:100DE0008083808180628083808180648083249A74
:100DF000259A269A0895AF92BF92CF92DF92EF92F2
:100E0000FF920F931F93CF93DF9300D000D00F92E8
:100E10000F92CDB7DEB7809172029091730200E01D
:100E200011E0081B190B0930110510F008E010E063
:100E3000C02E0E94C406809102018064809302014A
:100E40008FE891E00197F1F700C00000FE013196B4
:100E50005F017F018E2D8A198C1508F45DC0D12C9D
:100E6000E0907202F0907302DC105CC0E00EF11EA4
:100E7000F0927302E0927202809102018F7B809364
:100E80000201EFE8F1E03197F1F700C00000809136
:100E90007202909173028115914009F081C00E9405
:100EA0006D0E8111FCCF81E10E94580E0E946D0EE3
:100EB0008111FCCF82E00E94580E0E946D0E8111BC
:100EC000FCCF0E94580E0E946D0E8111FCCF0E9433
:100ED000580E0E946D0E8111FCCF0E94580E0E9488
:100EE0006D0E8111FCCF0E94580E0E946D0E811173
:100EF000FCCF80E028960FB6F894DEBF0FBECDBFC2
:100F0000DF91CF911F910F91FF90EF90DF90CF90E5
:100F1000BF90AF900C94580E0E94B60FF7018193CA
:100F20007F0198CFF501F1905F01ED0C0E94140351
:100F30008F2D0E941003F12CC701809590950E947F
:100F40006702F5EDFA95F1F700002C9A87E592E03B
:100F50000197F1F700C00000C7010E94670295EDFC
:100F60009A95F1F70000809102018061809302015F
:100F7000EFE2FAE23197F1F700C000008091020140
:100F80008F7E80930201F5EDFA95F1F700002C9821
:100F90008FE79BEB0197F1F700C00000D39460CF7F
:100FA0000E946D0E8111FCCF81E10E94580E0E94BB
:100FB0006D0E8111FCCF9DCF1F93CF93DF93809156
:100FC000720290917302C0E0D1E0C81BD90BC93006
:100FD000D10514F0C8E0D0E00E946D0E8111FCCF65
:100FE00083E10E94580E0E946D0E8111FCCF80910A
:100FF0007202909173028C0F9D1F8115914079F1BF
:1010000080E00E94580E0E94B7068091020188601D
:10101000809302018FE891E00197F1F700C0000092
:1010200010E0812F90E08C179D07DCF08091020189
:10103000877F809302018FE891E00197F1F700C06C
:1010400000008091720290917302C80FD91FD09353
:101050007302C0937202DF91CF911F91089582E0D5
:10106000D0CF2091720230917302820F931F0E94A1
:1010700067028FE891E00197F1F700C000008091CE
:1010800002018062809302018FE891E00197F1F7FD
:1010900000C000000E946D0E8111FCCF0E9412035F
:1010A0000E94580E809102018F7D809302018FE88B
:1010B00091E00197F1F700C000001F5FB2CF1F93CE
:1010C000CF93DF930E94B7068091020188608093DE
:1010D0000201D0E0C0E0CE010E9467028FE891E0FB
:1010E0000197F1F700C000008091020180628093B7
:1010F00002018FE891E00197F1F700C000000E9423
:101100001203182F809102018F7D809302018FE8D6
:1011100091E00197F1F700C00000111105C0219680
:10112000C11591E0D907B9F680910201877F8093BC
:101130000201C11581E0D80789F40E946D0E81116A
:10114000FCCF85E10E94580E0E946D0E8111FCCFEC
:1011500082E0DF91CF911F910C94580E0E946D0E8A
:101160008111FCCF85E10E94580E0E946D0E811105
:10117000FCCF89E00E94580E0E946D0E8111FCCFB9
:101180000E94580E0E946D0E8111FCCF8C2F0E9480
:10119000580E0E946D0E8111FCCF812FDACF0E9474
:1011A000B60F0E94B60F0E9462060E946D0E81115A
:1011B000FCCF80E10E94580E0E946D0E8111FCCF81
:1011C0000C94580E0E9462060E946D0E8111FCCF95
:1011D00082E10E94580E0E946D0E8111FCCF0C948A
:1011E000580E0E9462060E946D0E8111FCCF84E1B0
:1011F0000E94580E0E946D0E8111FCCF0C94580E67
:101200000E9462060E946D0E8111FCCF86E10E9451
:10121000580E0E946D0E8111FCCF0C94580E0E9446
:10122000B60F81508A3008F054C0E82F880FFF0BAA
:101230008827E756FF4E8F4F0C945A100E94B7062E
:101240000E946D0E8111FCCF88E10E94580E0E9411
:101250006D0E8111FCCF48C00E94B706809102013B
:10126000806280930201ECCF0E94B7068091020158
:101270008860809302018AEA90E00E946702E0CFD2
:101280000E94B7068091020188608093020185E583
:1012900090E0F3CF0E94B706809102018860E1CF11
:1012A0000E94C406CDCF0E94C406809102018061D5
:1012B000D8CF0E94C4062C9AC3CF0E94C406809146
:1012C00002018064D6CF0E94C4068091020180642E
:1012D000DCCF0E946D0E8111FCCF83E00E94580E7E
:1012E0000E946D0E8111FCCF80E00C94580E0E947C
:1012F0006D0E8111FCCF89E10E94580E0E946D0E87
:101300008111FCCF0E94580E0E946D0E8111FCCFFE
:101310000E9412030C94580E109226021092200282
:1013200010922102109222021092230210921F02A8
:1013300010921E028FEF80931B022E982F982D98EB
:101340002C98E2E0F1E080818F7B808380818F7E2A
:1013500080838081877F8083739826982798259A39
:10136000249AE1E0F1E08081806480838081806163
:1013700080838081886080836B9A80818F7D808369
:1013800008954093240270931F0260931E0280937D
:101390001B0210921D0210921C0210922602109243
:1013A000200210922102109222021092230208952C
:1013B00080911B028630D9F02CF484303CF0269AC0
:1013C000279804C08730D9F38A30A4F02D9A2FEFE4
:1013D00081EE94E0215080409040E1F700C0000091
:1013E000809102018F7E8093020173980895269A5E
:1013F000279AECCF2698E4CF809102018F7B8093CF
:10140000020180910201877F809302018091020195
:101410008F7E809302012C9873982FEF81EE94E0D9
:10142000215080409040E1F700C000002D980E94BC
:10143000170390E080E00E9467020E946D0E811108
:10144000FCCF86E10E94580E0E946D0E8111FCCFE8
:101450000C94580E7F928F929F92AF92BF92CF9230
:10146000DF92EF92FF920F931F93CF93DF9300D001
:1014700000D00F920F92CDB7DEB700911E021091EF
:101480001F0280911C0290911D02081B190B09304C
:10149000110514F008E010E0D12CED2CF12CE01631
:1014A000F10608F44EC0B12CEB2CF12CC0901C02BC
:1014B000D0901D02E016F10608F44EC00C0D1D1D63
:1014C00010931D0200931C0280911E0290911F0236
:1014D0000817190709F005C10E946D0E8111FCCF94
:1014E00081E10E94580E0E946D0E8111FCCF82E0B6
:1014F0000E94580E0E946D0E8111FCCF8091260231
:101500000E94580E0E946D0E8111FCCF8091230223
:101510000E94580E0E946D0E8111FCCF8091220214
:101520000E94580E0E946D0E8111FCCF8091210205
:101530000E94580E0E946D0E8111FCCF80912002F6
:1015400048C00E94B60FE1E0F0E0EC0FFD1FEE0D89
:10155000FF1D8083D394A1CFCE0CDF1C8091250288
:10156000A0902402811102C0AA24A39473988091B0
:1015700002018F7E809302010E9414038C2D0E9431
:101580001003C601882797700E9467022AE62A95F1
:10159000F1F700C0739A8AE68A95F1F700C0C12C72
:1015A000DD24D394E1E0F0E0EC0FFD1FEE0EFF1E12
:1015B0004701AD1418F5C11077C00E946D0E81115E
:1015C000FCCF81E10E94580E0E946D0E8111FCCF6C
:1015D0008AE028960FB6F894DEBF0FBECDBFDF912C
:1015E000CF911F910F91FF90EF90DF90CF90BF9020
:1015F000AF909F908F907F900C94580EF701708061
:10160000772099F1809102018F7E809302010E94E0
:101610001403872D0E941003FAE6FA95F1F700C033
:10162000809102018860809302018FE99FE0019719
:10163000F1F700C000002C9A9FEFE0E7F2E0915034
:10164000E040F040E1F700C000002C988FE99FE0F7
:101650000197F1F700C0000080910201877F80931D
:1016600002019AE69A95F1F700C080912502811156
:1016700004C0CC24C394D3949CCF0E9417038091C0
:101680000201806180930201EAE6EA95F1F700C069
:101690000E941203FAE6FA95F1F700C0F401908176
:1016A0009813E9CFC110E5CF809126028D1508F47B
:1016B0008D2D809326028091200290912102A0918D
:1016C0002202B09123028D0D911DA11DB11D8093A9
:1016D000200290932102A0932202B0932302B3949C
:1016E000E3CE0E946D0E8111FCCF81E10E94580E65
:1016F0000E946D0E8111FCCF6CCFFF920F931F9350
:10170000CF93DF93C0911E02D0911F0280911C02E3
:1017100090911D02C81BD90BC930D10514F0C8E047
:10172000D0E00E946D0E8111FCCF83E10E94580E23
:101730000E946D0E8111FCCF80911C0290911D02C0
:101740008C0F9D1F20911E0230911F02821793075C
:10175000C9F080E00E94580EF12C80911C029091FB
:101760001D020F2D10E00C171D0774F0C80FD91FB4
:10177000D0931D02C0931C02DF91CF911F910F9156
:10178000FF90089582E0E6CF080F191F0E9414030E
:10179000802F0E941003C801882797700E9467025B
:1017A0008AE68A95F1F700C0739A0E9417038AE6C9
:1017B0008A95F1F700C080911B02863049F4809130
:1017C00002018061809302018AE68A95F1F700C0E8
:1017D0000E941203182F80911B02863029F48091F9
:1017E00002018F7E8093020173988AE68A95F1F751
:1017F00000C00E946D0E8111FCCF812F0E94580EF7
:10180000F394ABCF1F93CF93DF93D0E0C0E08091F0
:101810001E0290911F02C817D907D0F010E08091E6
:101820001E0290911F028C179D0709F04CC00E9468
:101830006D0E8111FCCF85E10E94580E0E946D0E45
:101840008111FCCF82E0DF91CF911F910C94580E53
:101850000E9414038C2F0E941003CE0188279770DA
:101860000E9467028AE68A95F1F700C0739A8AE6B9
:101870008A95F1F700C00E9417038AE68A95F1F76E
:1018800000C080911B02863049F480910201806182
:10189000809302018AE68A95F1F700C00E94120344
:1018A000182F80911B02863029F4809102018F7ECF
:1018B0008093020173988AE68A95F1F700C01111AE
:1018C000AECF2196A4CF0E946D0E8111FCCF85E191
:1018D0000E94580E0E946D0E8111FCCF89E00E947B
:1018E000580E0E946D0E8111FCCF8D2F0E94580E54
:1018F0000E946D0E8111FCCF8C2F0E94580E0E9409
:101900006D0E8111FCCF812F9ECF0E94B60F809368
:1019100025020E94B60F80911B028850823070F41D
:101920000E946D0E8111FCCF80E10E94580E0E9432
:101930006D0E8111FCCF83E00C94580E0E94D809E3
:101940008091020180648093020180910201806194
:101950008093020173980E946D0E8111FCCF80E18B
:101960000E94580E0E946D0E8111FCCFE5CF0E949F
:10197000D8098091020180648093020180911B024A
:10198000863099F4809102018F7E809302017398D2
:101990000E946D0E8111FCCF82E10E94580E0E94C0
:1019A0006D0E8111FCCF0C94580E80910201806164
:1019B000ECCF80911B028850823070F40E946D0E33
:1019C0008111FCCF84E10E94580E0E946D0E81119E
:1019D000FCCF83E00C94580E0E94D809809102013C
:1019E00080648093020180911B02863091F4809183
:1019F00002018F7E8093020173980E946D0E811107
:101A0000FCCF84E10E94580E0E946D0E8111FCCF24
:101A1000E1CF809102018061EDCF0E94B60F81502D
:101A20008A3008F05CC0E82F880FFF0B8827ED553F
:101A3000FF4E8F4F0C945A100E94D8090E946D0ED1
:101A40008111FCCF88E10E94580E0E946D0E811119
:101A5000FCCF50C084E080931B020E94D809809183
:101A60000201886080930201E9CF86E0F4CF88E02C
:101A700080931B020E94D809809102018064F2CFFA
:101A800084E0F6CF86E0F4CF84E080931B020E94CE
:101A9000D8092C9AD3CF0E94D8090E9414038AEA4D
:101AA0000E94100380E092E00E9467028091020190
:101AB0008F7E80930201739AC1CF0E94D8090E9441
:101AC000140385E50E94100380E095E00E94670200
:101AD000809102018061809302017398AFCF0E94D0
:101AE0006D0E8111FCCF83E00E94580E0E946D0E96
:101AF0008111FCCF80E00C94580E0E946D0E811174
:101B0000FCCF89E10E94580E0E946D0E8111FCCF1E
:101B10000E94580E0E946D0E8111FCCF0E9412038C
:101B20000C94580E2F932FB72F932BB72F938F937F
:101B30009F93EF93FF938091C0009091C600E09136
:101B40004E02EF5FEF7020914D022E1799F08871D1
:101B5000E0934E02F0E0EF5AFD4F908380934C02E9
:101B6000FF91EF919F918F912F912BBF2F912FBFBD
:101B70002F91189580E0F2CF8F938FB78F938BB70B
:101B80008F939F93EF93FF939091500280914F0218
:101B90009817A9F0E0914F02EF5FEF70E0934F02CA
:101BA000F0E0EF59FD4F80818093C600FF91EF91E7
:101BB0009F918F918BBF8F918FBF8F91189580913F
:101BC000C1008F7D8093C100F1CF1092500210921E
:101BD0004F0210924E0210924D029091C2009068F6
:101BE0009093C200282F21709091C20080FF38C0CE
:101BF00090649093C2009091C20092609093C20052
:101C00009091C20094609093C2009091C10081FFB6
:101C100029C094609093C100222319F082FF24C050
:101C20006A9A9091C10083FF21C090619093C10096
:101C300084FF1EC08091C00082608093C0008091AC
:101C4000C10080688093C1006093C4007093C50098
:101C50008091C10088608093C100699A6898089556
:101C60009F7BC7CF9B7FD6CF6A98DBCF9F7EDECF8F
:101C70008091C0008D7FE1CF20914E0290914D0266
:101C800081E0291301C080E0089590914E02809177
:101C90004D02981759F0E0914D02EF5FEF70E0931D
:101CA0004D02F0E0EF5AFD4F8081089580E00895E5
:101CB000909150029F5F9F7020914F022917E1F38E
:101CC000E92FF0E0EF59FD4F80839093500280910F
:101CD000C10080628093C10008959091500280916C
:101CE0004F02981309C08091C00085FB882780F9B6
:101CF00091E089278170089581E0FCCF80914C02AA
:101D000008952F932FB72F932BB72F938F939F93D4
:101D1000EF93FF938091C8009091CE00E09129024B
:101D2000EF5FEF70209128022E1799F08871E093F1
:101D30002902F0E0E45DFD4F908380932702FF913C
:101D4000EF919F918F912F912BBF2F912FBF2F91AB
:101D5000189580E0F2CF8F938FB78F938BB78F93C7
:101D60009F93EF93FF9390912B0280912A029817F3
:101D7000A9F0E0912A02EF5FEF70E0932A02F0E011
:101D8000E45CFD4F80818093CE00FF91EF919F91A5
:101D90008F918BBF8F918FBF8F9118958091C900C4
:101DA0008F7D8093C900F1CF10922B0210922A02EE
:101DB00010922902109228029091CA009068909384
:101DC000CA00282F21709091CA0080FF38C090640B
:101DD0009093CA009091CA0092609093CA0090912B
:101DE000CA0094609093CA009091C90081FF29C0F5
:101DF00094609093C900222319F082FF24C0549A62
:101E00009091C90083FF21C090619093C90084FF25
:101E10001EC08091C80082608093C8008091C90074
:101E200080688093C9006093CC007093CD0080914E
:101E3000C90088608093C900539A529808959F7B87
:101E4000C7CF9B7FD6CF5498DBCF9F7EDECF8091CC
:101E5000C8008D7FE1CF209129029091280281E076
:101E6000291301C080E008959091290280912802F1
:101E7000981759F0E0912802EF5FEF70E093280285
:101E8000F0E0E45DFD4F8081089580E00895909139
:101E90002B029F5F9F7020912A022917E1F3E92FFF
:101EA000F0E0E45CFD4F808390932B028091C900A9
:101EB00080628093C900089590912B0280912A023C
:101EC000981309C08091C80085FB882780F991E0AC
:101ED00089278170089581E0FCCF809127020895C1
:101EE00010927C0087E880937A000895CF93DF9367
:101EF000582FEB0140E060E070E0CB01451313C0C8
:101F0000242F30E050E040E00E943810A7E9BCE008
:101F10000E9462109E0150E040E00E943810C9010A
:101F2000DF91CF910895EFE9FFE03197F1F700C01D
:101F3000000020917A00206420937A0020917A009A
:101F400026FDFCCF2091780030917900620F731F3D
:101F5000811D911D4F5FD2CFECE7F0E08081807E44
:101F600080836BE077E08AE00C94760F0E943C0E51
:101F70008823E1F30C94450E0F931F93CF938C01AC
:101F80000E943C0EC82F882321F00E94450EF801C4
:101F900080838C2FCF911F910F910895CF93C82FDD
:101FA0000E945C0F8111FCCF8C2F0E94470F90E0A4
:101FB00080E0CF9108950F920F92CDB7DEB769E11F
:101FC00070E088E00E94E50D78940E94700F6D9893
:101FD0009D986C98809101018E7F80930101809182
:101FE00001018D7F809301014CB192B390728CB14D
:101FF000309100012091000145FD03C091110BC0FB
:10200000FFCF9923A1F080713170832B2270822B36
:10201000B9F783E001C082E00E94C902CE010296B6
:102020000E94BC0F14E681110CC0A895F7CF81E087
:10203000F3CF8FE99FE00197F1F700C00000115046
:10204000A1F3CE0101960E94BC0F882391F39A81DF
:10205000898180958913E9CF482F4051550B4A302B
:10206000510518F7A89587FDD9CF0E946301D6CFF7
:10207000A1E21A2EAA1BBB1BFD010DC0AA1FBB1F8C
:10208000EE1FFF1FA217B307E407F50720F0A21BFE
:10209000B30BE40BF50B661F771F881F991F1A946B
:1020A00069F760957095809590959B01AC01BD0195
:1020B000CF010895EE0FFF1F881F8BBF0790F69189
:1020C000E02D19940E946D10A59F900DB49F900D66
:1020D000A49F800D911D11240895A29FB001B39F6C
:1020E000C001A39F700D811D1124911DB29F700D21
:1020F000811D1124911D0895F894FFCFFD00040166
:1021000013011F012B013D012B013D012B013D015D
:1021100071018B01A001BA01CF01E9011E02FE018C
:1021200032024B02090617061F0625062906350648
:1021300009061E092C09340940094A0950095309A6
:1021400059095D0963091C0D370D400D420D440D01
:0A2150002A0D350D4B0D5D0D1C0D21
:0E215A000000000300000000CE0F0000000097
:00000001FF
