:100000000C94C0000C94E1000C94E1000C94E1000D
:100010000C94E1000C94E1000C94E1000C94E100DC
:100020000C94E1000C94E1000C94E1000C94E100CC
:100030000C94E1000C94E1000C94E1000C94E100BC
:100040000C94E1000C94E1000C94E1000C94E100AC
:100050000C94E1000C94E1000C94E1000C94E1009C
:100060000C94E1000C945C0D0C94860D0C94E10052
:100070000C94E1000C94E1000C94E1000C94E1007C
:100080000C94E1000C94E1000C94E1000C94E1006C
:100090000C944B0E0C94750E0C94E1000C94E10042
:1000A0000C94E1000C94E1000C94E1000C94E1004C
:1000B0000C94E1000C94E1000C94E1000C94E1003C
:1000C0000C94E1000C94E1000C94E1000C94E1002C
:1000D0000C94E1000C94E1000C94E1000C94E1001C
:1000E0000C94E1000C9418020C94C9010C94850145
:1000F0000C9418060C9445020C942C020C941E06C9
:100100000C9410060C94E3010C9422060C94F70056
:100110000C94980F0C9449090C9437010C945609CF
:100120000C9439090C942D090C9419010C949A0122
:100130000C9443090C94150D0C9452090C940D0168
:100140000C9425090C94070D0C94190D0C942501A1
:100150000C94F90C0C946B010C94B4010C940F0DDD
:100160000C9402060C94F8010C94270D0C94FE00DC
:100170000C9417090C945C090C944C090C942E06F1
:1001800011241FBECFEFD1E2DEBFCDBF00E00CBF18
:1001900012E0A0E0B2E0E4EEF0E200E00BBF02C04B
:1001A00007900D92AE30B107D9F722E0AEE0B2E091
:1001B00001C01D92A537B207E1F70E94A50F0C946C
:1001C00046100C9400000895CF93C82F0E94800F12
:1001D000282F883008F054C0E82F880FFF0B90912B
:1001E00072028827E85BFF4E8F4F0C9424109130E9
:1001F00089F50E94CA0680E0CF910895923051F5AA
:1002000081E00E945B03882309F44AC044E660E071
:1002100072E081E00E944403EECF9230D9F482E094
:100220000E945B038823E1F144E660E074E082E031
:10023000F1CF923079F483E00E945B03882381F14F
:1002400049E160E070E283E0E5CF45E060E074E022
:10025000933091F00E94370E8111FCCF8C2F0E94B9
:10026000220E0E94370E8111FCCF86E015C093301C
:1002700089F745E060E078E0822F0E94BC09BBCF9F
:100280000E94370E8111FCCF8C2F0E94220E0E94FB
:10029000370E8111FCCF84E00E94220E8FEFACCF8D
:1002A0000E94370E8111FCCF8C2F0E94220E0E94DB
:1002B000370E8111FCCF87E0EFCFCF93DF938051D2
:1002C0008A3008F0FBC0E82FF0E08827E05BFF4EA3
:1002D0008F4F0C94241080E10E94E40087FDEEC053
:1002E00080917202813011F40E94C80880917202DC
:1002F000823011F40E94BE0580917202833009F0B1
:10030000DDC0DF91CF910C94940C8091720281300A
:1003100011F40E94F40680917202823011F40E945E
:100320009A0380917202833009F0C8C0DF91CF91A7
:100330000C940E0A82E10E94E40087FDBFC0809108
:100340007202813011F40E94DB08809172028230C7
:1003500011F40E94D50580917202833009F0AEC07D
:10036000DF91CF910C94B60C80917202813011F420
:100370000E94D50780917202823011F40E94F0042D
:1003800080917202833009F099C0DF91CF910C9473
:10039000940B84E10E94E40087FD90C0809172027A
:1003A000813011F40E94EA0880917202823011F4C7
:1003B0000E94E40580917202833009F07FC0DF91D2
:1003C000CF910C94D00C80917202813011F40E9474
:1003D000580880917202823011F40E945705809172
:1003E0007202833009F06AC0DF91CF910C94150C32
:1003F0000E94370E8111FCCF87E10E94220E0E94DD
:10040000370E8111FCCF0E94220E0E94760FEC0164
:100410000E94370E8111FCCF8D2F0E94220E0E9468
:10042000370E8111FCCF8C2FDF91CF910C94220ECF
:1004300080917202813011F40E94F9088091720259
:10044000823011F40E947603809172028330B1F5FC
:10045000DF91CF910C94DE0988E10E94E40087FDD2
:100460002DC080917202813011F40E9408098091A0
:100470007202823011F40E94F3058091720283307F
:10048000E9F4DF91CF910C94EA0C88E10E94E4003A
:1004900087FD14C080917202813011F40E947009AE
:1004A00080917202823011F40E944606809172029D
:1004B000833021F4DF91CF910C94470DDF91CF91E0
:1004C000089580FF46C05F9A81FF45C0A29A82FFCF
:1004D00044C0A19A83FF43C0A09A20910B0184FFDE
:1004E00040C0206820930B0120910B0185FF3BC089
:1004F000206420930B0120910B0186FF36C02062FF
:1005000020930B0120910B0187FF31C020612093C4
:100510000B0120910B0190FF2CC0286020930B0150
:1005200020910B0191FF27C0246020930B012091A3
:100530000B0192FF22C0226020930B0120910B013E
:1005400093FF1DC0216020930B0194FF1AC02B9ACA
:1005500008955F98B9CFA298BACFA198BBCFA098C1
:10056000BCCF2F77BFCF2F7BC4CF2F7DC9CF2F7E9E
:10057000CECF277FD3CF2B7FD8CF2D7FDDCF2E7F40
:10058000E2CF2B980895CF93C82F8093720290E00A
:1005900080E00E946102579A9A9A999A989A80915B
:1005A0000A01806880930A0180910A018064809327
:1005B0000A0180910A01806280930A0180910A01F8
:1005C000806180930A0180910A01886080930A010A
:1005D00080910A01846080930A0180910A018260FF
:1005E00080930A0180910A01816080930A01239A15
:1005F00011B8C13019F4CF910C94CF06C23019F460
:10060000CF910C941303C33019F4CF910C94850946
:10061000CF91089582B9089580B108958FEF81B97F
:10062000089511B8089510921A02109213021092B0
:1006300014021092150210921602109217021092D4
:100640001202109211028FEF80930E02E2E0F1E0AD
:1006500080818F7D808380818F7B80832C982D98F3
:100660006B986B98E1E0F1E08081877F80838081E7
:100670008F7E80838081806280838081806480839C
:10068000249A259A2698089540931702709312028F
:100690006093110280930E021092100210920F02CA
:1006A00010921A0210921302109214021092150264
:1006B000109216020895982F639904C08FEF890F46
:1006C000823038F0639B03C081E0933009F080E012
:1006D000089581E008952D9A2FEF81EE94E0215046
:1006E00080409040E1F700C0000008952C98809170
:1006F00002018F7B80930201809102018F7D8093A4
:1007000002012FEF81EE94E0215080409040E1F70C
:1007100000C000002D980E9411030E94370E811125
:10072000FCCF86E10E94220E0E94370E8111FCCF81
:100730000C94220E7F928F929F92AF92BF92CF9293
:10074000DF92EF92FF920F931F93CF93DF9300D02E
:1007500000D00F920F92CDB7DEB700911102109129
:10076000120220910F0230911002021B130B09306C
:10077000110514F008E010E0D12CED2CF12CE0165E
:10078000F10608F462C0C12CAC2CB12C80910F0290
:1007900090911002A016B10608F462C0080F191F4C
:1007A0001093100200930F02809111029091120297
:1007B0000817190709F008C10E94370E8111FCCFF4
:1007C00081E10E94220E0E94370E8111FCCF82E04F
:1007D0000E94220E0E94370E8111FCCF80911A02D6
:1007E0000E94220E0E94370E8111FCCF80910E02D2
:1007F000833009F0E1C0809116020E94220E0E940F
:10080000370E8111FCCF80910E02833009F0D6C0E3
:10081000809115020E94220E0E94370E8111FCCF9A
:1008200080910E02833009F0CBC0809114020E94A7
:10083000220E0E94370E8111FCCF80910E02833070
:1008400009F0C0C08091130230C00E94800FE1E027
:10085000F0E0EC0FFD1FEE0DFF1D8083D3948DCFD4
:1008600020911902E0901702211102C0EE24E394B6
:100870008A0D9B1D0E946102D12CF12C81E090E039
:100880008C0F9D1FA80EB91E4501FE1418F1D11042
:1008900076C00E94370E8111FCCF81E10E94220EAA
:1008A0000E94370E8111FCCF8AE028960FB6F8948B
:1008B000DEBF0FBECDBFDF91CF911F910F91FF9093
:1008C000EF90DF90CF90BF90AF909F908F907F90F0
:1008D0000C94220EF50170802C9AF5E0FA95F1F750
:1008E00000000E940E03872D0E940A038AE18A9568
:1008F000F1F700C080910201806280930201809133
:100900000E028330B9F5EFE3FFE13197F1F700C054
:100910000000809102018F7D809302019AE19A95F7
:10092000F1F700C00E9411032C98809119028823CE
:10093000E9F0E5E0EA95F1F70000809102018064BA
:1009400080930201F5E0FA95F1F700000E940C0394
:10095000909102019F7B90930201F4019081981382
:1009600007C0D11005C0E0901802EF0CDD24D3942D
:10097000F3948BCF8FE99FE00197F1F7C8CF809177
:100980001A028F1508F48F2D80931A02809113029A
:1009900090911402A0911502B09116028F0D911D35
:1009A000A11DB11D8093130290931402A093150210
:1009B000B0931602C394E8CE80E01FCF80E02ACF28
:1009C00080E035CF80E071CF0E94370E8111FCCFDF
:1009D00081E10E94220E0E94370E8111FCCF65CF6B
:1009E0001F93CF93DF93C0911102D09112022091F7
:1009F0000F0230911002C21BD30BC930D10514F085
:100A0000C8E0D0E00E94370E8111FCCF83E10E9444
:100A1000220E0E94370E8111FCCF80910F0290911F
:100A200010028C0F9D1F209111023091120282172B
:100A30009307B9F080E00E94220E10E080910F022F
:100A400090911002212F30E02C173D0764F0C80F61
:100A5000D91FD0931002C0930F02DF91CF911F9145
:100A6000089582E0E8CF820F931F0E94610285E023
:100A70008A95F1F700008091020180648093020161
:100A800085E08A95F1F700000E94370E8111FCCFB6
:100A90000E940C030E94220E809102018F7B8093A2
:100AA000020185E08A95F1F700001F5FC7CF1F9311
:100AB000CF93DF93D0E0C0E08091110290911202B9
:100AC000C817D907C8F01FEF809111029091120248
:100AD0008C179D0789F50E94370E8111FCCF85E1A7
:100AE0000E94220E0E94370E8111FCCF82E0DF911E
:100AF000CF911F910C94220ECE010E94610285E0DD
:100B00008A95F1F7000080910201806480930201D0
:100B100085E08A95F1F700000E940C03182F809160
:100B200002018F7B8093020185E08A95F1F7000036
:100B30001F3F51F62196C0CF0E94370E8111FCCF86
:100B400085E10E94220E0E94370E8111FCCF89E0C0
:100B50000E94220E0E94370E8111FCCF8D2F0E9421
:100B6000220E0E94370E8111FCCF8C2F0E94220E84
:100B70000E94370E8111FCCF812FB9CF0E94800FC8
:100B8000809319020E94800F809318020E946B03C9
:100B90000E94370E8111FCCF80E10E94220E0E943C
:100BA000370E8111FCCF0C94220E0E946B030E9421
:100BB000370E8111FCCF82E10E94220E0E94370E77
:100BC0008111FCCF0C94220E0E946B030E94370E01
:100BD0008111FCCF84E10E94220E0E94370E811108
:100BE000FCCF0C94220E0E94800F8150873008F0B9
:100BF0003FC0E82F880FFF0B8827E65AFF4E8F4F24
:100C00000C9424100E946B030E94370E8111FCCFBC
:100C100088E10E94220E0E94370E8111FCCF33C062
:100C20000E946B0380910201806480930201ECCFEB
:100C30000E946B03809102018062F7CF0E946B03D8
:100C40002C9AE2CF0E946B030E940E038AEA0E9454
:100C50000A038AEA9AE00E946102D6CF0E946B03DF
:100C60000E940E0385E50E940A0385E595E1F3CF16
:100C70000E94370E8111FCCF83E00E94220E0E9459
:100C8000370E8111FCCF80E00C94220E0E94370EAB
:100C90008111FCCF89E10E94220E0E94370E811142
:100CA000FCCF0E94220E0E94370E8111FCCF0E94C1
:100CB0000C030C94220E1D9B2CC0809102018F7B93
:100CC000809302012D982FEF81EE94E02150804017
:100CD0009040E1F700C000002FEF81EE94E021503A
:100CE00080409040E1F700C000002FEF81EE94E0DB
:100CF000215080409040E1F700C000008091020147
:100D00008F7E80930201809102018F7D809302018A
:100D10002C981E9B23C080910201877F8093020143
:100D20002E982FEF81EE94E0215080409040E1F723
:100D300000C000002FEF81EE94E0215080409040F1
:100D4000E1F700C00000809102018F7E80930201D4
:100D5000809102018F7D809302012C980C941103E5
:100D60001E990AC02E9A2FEF81EE94E02150804008
:100D70009040E1F700C0000008951D990AC02D9A27
:100D80002FEF81EE94E0215080409040E1F700C0C9
:100D90000000089510927402109273020895E2E028
:100DA000F1E08081877F808380818F7B8083808159
:100DB0008F7E808380818F7D80832C982D982E98C4
:100DC0006C986B98E1E0F1E080818860808380819D
:100DD0008061808380818062808380818064808361
:100DE000249A259A269A0895AF92BF92CF92DF92C5
:100DF000EF92FF920F931F93CF93DF9300D000D019
:100E00000F920F92CDB7DEB780917302909174026A
:100E100000E011E0081B190B0930110510F008E083
:100E200010E0C02E0E94BD06809102018064809374
:100E300002018FE891E00197F1F700C00000FE0188
:100E400031965F017F018E2D8A198C1508F45DC0E3
:100E5000D12CE0907302F0907402DC105CC0E00EC4
:100E6000F11EF0927402E0927302809102018F7B76
:100E700080930201EFE8F1E03197F1F700C0000044
:100E800080917302909174028115914009F081C0A4
:100E90000E94370E8111FCCF81E10E94220E0E9438
:100EA000370E8111FCCF82E00E94220E0E94370E85
:100EB0008111FCCF0E94220E0E94370E8111FCCFBF
:100EC0000E94220E0E94370E8111FCCF0E94220E3A
:100ED0000E94370E8111FCCF0E94220E0E94370E15
:100EE0008111FCCF80E028960FB6F894DEBF0FBECC
:100EF000CDBFDF91CF911F910F91FF90EF90DF90C9
:100F0000CF90BF90AF900C94220E0E94800FF701FB
:100F100081937F0198CFF501F1905F01ED0C0E9464
:100F20000E038F2D0E940A03F12CC7018095909526
:100F30000E946102F5EDFA95F1F700002C9A87E521
:100F400092E00197F1F700C00000C7010E94610222
:100F500095ED9A95F1F700008091020180618093F0
:100F60000201EFE2FAE23197F1F700C00000809150
:100F700002018F7E80930201F5EDFA95F1F70000F2
:100F80002C988FE79BEB0197F1F700C00000D394FA
:100F900060CF0E94370E8111FCCF81E10E94220EAA
:100FA0000E94370E8111FCCF9DCF1F93CF93DF930B
:100FB0008091730290917402C0E0D1E0C81BD90BFC
:100FC000C930D10514F0C8E0D0E00E94370E81117D
:100FD000FCCF83E10E94220E0E94370E8111FCCFCC
:100FE00080917302909174028C0F9D1F8115914026
:100FF00079F180E00E94220E0E94B00680910201E9
:101000008860809302018FE891E00197F1F700C0BA
:10101000000010E0812F90E08C179D07DCF080919C
:101020000201877F809302018FE891E00197F1F739
:1010300000C000008091730290917402C80FD91F04
:10104000D0937402C0937302DF91CF911F910895E2
:1010500082E0D0CF2091730230917402820F931FEF
:101060000E9461028FE891E00197F1F700C0000053
:10107000809102018062809302018FE891E00197E4
:10108000F1F700C000000E94370E8111FCCF0E94D2
:101090000C030E94220E809102018F7D8093020139
:1010A0008FE891E00197F1F700C000001F5FB2CF19
:1010B0001F93CF93DF930E94B00680910201886056
:1010C00080930201D0E0C0E0CE010E9461028FE86F
:1010D00091E00197F1F700C0000080910201806269
:1010E000809302018FE891E00197F1F700C00000C2
:1010F0000E940C03182F809102018F7D80930201C2
:101100008FE891E00197F1F700C00000111105C0D0
:101110002196C11591E0D907B9F680910201877F28
:1011200080930201C11581E0D80789F40E94370E2F
:101130008111FCCF85E10E94220E0E94370E8111A1
:10114000FCCF82E0DF91CF911F910C94220E0E9480
:10115000370E8111FCCF85E10E94220E0E94370ECE
:101160008111FCCF89E00E94220E0E94370E81116E
:10117000FCCF0E94220E0E94370E8111FCCF8C2FD3
:101180000E94220E0E94370E8111FCCF812FDACFF0
:101190000E94800F0E94800F0E945B060E94370E03
:1011A0008111FCCF80E10E94220E0E94370E811136
:1011B000FCCF0C94220E0E945B060E94370E811118
:1011C000FCCF82E10E94220E0E94370E8111FCCFDB
:1011D0000C94220E0E945B060E94370E8111FCCFF8
:1011E00084E10E94220E0E94370E8111FCCF0C94E4
:1011F000220E0E945B060E94370E8111FCCF86E111
:101200000E94220E0E94370E8111FCCF0C94220EF8
:101210000E94800F81508A3008F054C0E82F880F58
:10122000FF0B8827EF59FF4E8F4F0C9424100E941C
:10123000B0060E94370E8111FCCF88E10E94220E79
:101240000E94370E8111FCCF48C00E94B0068091E9
:101250000201806280930201ECCF0E94B00680916F
:1012600002018860809302018AEA90E00E94610294
:10127000E0CF0E94B0068091020188608093020155
:1012800085E590E0F3CF0E94B0068091020188606E
:10129000E1CF0E94BD06CDCF0E94BD068091020124
:1012A0008061D8CF0E94BD062C9AC3CF0E94BD0694
:1012B000809102018064D6CF0E94BD068091020118
:1012C0008064DCCF0E94370E8111FCCF83E00E9446
:1012D000220E0E94370E8111FCCF80E00C94220E6A
:1012E0000E94370E8111FCCF89E10E94220E0E94DC
:1012F000370E8111FCCF0E94220E0E94370E811101
:10130000FCCF0E940C030C94220E10922702109224
:1013100020021092210210922202109223021092B7
:10132000240210921F0210921E028FEF80931B0264
:101330002F982E982D982C98E2E0F1E080818F7BF9
:10134000808380818F7E80838081877F8083739874
:10135000279A269A259A249AE1E0F1E08081806418
:1013600080838081806180838081886080836B9AA4
:1013700080818F7D808308954093240270931F02A3
:1013800060931E0280931B0210921D0210921C0299
:101390001092270210922002109221021092220233
:1013A0001092230208952D9A2FEF81EE94E02150A0
:1013B00080409040E1F700C0000008952E98809191
:1013C00002018F7B8093020180910201877F8093CD
:1013D0000201809102018F7E809302012C98739804
:1013E0002F982FEF81EE94E0215080409040E1F75C
:1013F00000C000002D980E94110390E080E00E9440
:1014000061020E94370E8111FCCF86E10E94220EFC
:101410000E94370E8111FCCF0C94220E9F92AF9246
:10142000BF92CF92DF92EF92FF920F931F93CF93D1
:10143000DF9300D000D00F920F92CDB7DEB70091AE
:101440001E0210911F0280911C0290911D02081B28
:10145000190B0930110514F008E010E0D12CED2C27
:10146000F12CE016F10608F462C0A12CCA2CD12C94
:10147000E0901C02F0901D02C016D10608F462C074
:101480000E0D1F1D10931D0200931C0280911E0261
:1014900090911F020817190709F03AC10E94370EF0
:1014A0008111FCCF81E10E94220E0E94370E811132
:1014B000FCCF82E00E94220E0E94370E8111FCCFE9
:1014C000809127020E94220E0E94370E8111FCCFCC
:1014D00080911B02833009F013C1809123020E9486
:1014E000220E0E94370E8111FCCF80911B028330A7
:1014F00009F008C1809122020E94220E0E94370E3C
:101500008111FCCF80911B02833009F0FDC08091D6
:1015100021020E94220E0E94370E8111FCCF809181
:101520001B02833009F0F2C08091200252C00E9459
:10153000800FE1E0F0E0EC0FFD1FEE0DFF1D80835A
:10154000D3948DCFEC0CFD1C80912602B090240228
:10155000811102C0BB24B39473982AE12A95F1F754
:1015600000C0809102018F7E809302018AE18A95FA
:10157000F1F700C00E940E038E2D0E940A03C701DE
:10158000882797700E946102EFEFFCE73197F1F72F
:1015900000C00000739A8FEF9CE70197F1F700C03D
:1015A0000000E12CF12CE1E0F0E0EC0FFD1FCE0E8D
:1015B000DF1EFB1408F1E11086C00E94370E811176
:1015C000FCCF81E10E94220E0E94370E8111FCCFD8
:1015D0008AE028960FB6F894DEBF0FBECDBFDF912C
:1015E000CF911F910F91FF90EF90DF90CF90BF9020
:1015F000AF909F900C94220EF60190808091020192
:101600008F7E80930201FAE1FA95F1F700C00E9403
:101610000E032AE12A95F1F700C0892D0E940A03E2
:101620008AE18A95F1F700C0809102018860809379
:1016300002019AE19A95F1F700C02C9AEFEFF0E7DA
:1016400022E0E150F0402040E1F700C000002C987B
:101650008AE18A95F1F700C080910201877F80932B
:10166000020180E00E940A039FEFE9EFF0E0915051
:10167000E040F040E1F700C000008091260288239E
:10168000F1F00E9411032AE12A95F1F700C0809140
:1016900002018061809302018AE68A95F1F700C019
:1016A0000E940C039AE19A95F1F700C0F60190812F
:1016B000981307C0E11005C0B0902502BF0CEE24BE
:1016C000E394F39476CF809127028F1508F48F2D41
:1016D000809327028091200290912102A091220202
:1016E000B09123028F0D911DA11DB11D8093200289
:1016F00090932102A0932202B0932302A394B6CE2A
:1017000080E0EDCE80E0F8CE80E003CF80E061CFD6
:101710000E94370E8111FCCF81E10E94220E0E94AF
:10172000370E8111FCCF55CFFF920F931F93CF93AC
:10173000DF93C0911E02D0911F0280911C029091F4
:101740001D02C81BD90BC930D10514F0C8E0D0E088
:101750000E94370E8111FCCF83E10E94220E0E946D
:10176000370E8111FCCF80911C0290911D028C0FCD
:101770009D1F20911E0230911F0282179307C9F00E
:1017800080E00E94220EF12C80911C0290911D029B
:101790000F2D10E00C171D0774F0C80FD91FD09340
:1017A0001D02C0931C02DF91CF911F910F91FF90FA
:1017B000089582E0E6CF080F191F809102018F7E05
:1017C000809302018AE18A95F1F700C00E940E031E
:1017D000802F0E940A03C801882797700E94610227
:1017E0008AE18A95F1F700C0739A8AE18A95F1F748
:1017F00000C00E9411038091020180618093020168
:101800008AE68A95F1F700C00E940C03182F73989E
:101810008AE18A95F1F700C00E94370E8111FCCF52
:10182000812F0E94220EF394AFCF1F93CF93DF93AB
:10183000D0E0C0E080911E0290911F02C817D90726
:10184000D0F010E080911E0290911F028C179D072E
:1018500009F048C00E94370E8111FCCF85E10E943B
:10186000220E0E94370E8111FCCF82E0DF91CF91D2
:101870001F910C94220E809102018F7E80930201B1
:101880008AE18A95F1F700C00E940E038C2F0E9416
:101890000A03CE01882797700E9461028AE18A9527
:1018A000F1F700C0739A8AE18A95F1F700C00E94AF
:1018B0001103809102018061809302018AE18A957F
:1018C000F1F700C08AE68A95F1F700C00E940C0388
:1018D000182F73988AE18A95F1F700C01111B2CFE1
:1018E0002196A8CF0E94370E8111FCCF85E10E947E
:1018F000220E0E94370E8111FCCF89E00E94220E39
:101900000E94370E8111FCCF8D2F0E94220E0E9463
:10191000370E8111FCCF8C2F0E94220E0E94370EB1
:101920008111FCCF812FA2CF0E94800F80932602CD
:101930000E94800F809325020E94D30980910201AA
:101940008064809302012F9A8091020180618093CC
:1019500002010E94370E8111FCCF80E10E94220E0D
:101960000E94370E8111FCCF0C94220E0E94D309E5
:10197000809102018064809302012F9A809102017C
:101980008061809302010E94370E8111FCCF82E1B9
:101990000E94220E0E94370E8111FCCF0C94220E61
:1019A0000E94D309809102018064809302012F9AE2
:1019B000809102018061809302010E94370E8111A3
:1019C000FCCF84E10E94220E0E94370E8111FCCFD1
:1019D0000C94220E0E94800F8150873008F049C07D
:1019E000E82F880FFF0B8827E559FF4E8F4F0C9487
:1019F00024100E94D3090E94370E8111FCCF88E188
:101A00000E94220E0E94370E8111FCCF3DC00E9421
:101A1000D30980910201886080930201ECCF0E947B
:101A2000D309809102018064F7CF0E94D3092C9AD8
:101A3000E2CF0E94D3090E940E038AEA0E940A03A1
:101A400080E092E00E9461022E9A2F98D4CF0E94EB
:101A5000D3090E940E0385E50E940A0380E095E009
:101A60000E9461028091020180618093020173985B
:101A7000C2CF0E94370E8111FCCF83E00E94220E5C
:101A80000E94370E8111FCCF80E00C94220E0E9440
:101A9000370E8111FCCF89E10E94220E0E94370E81
:101AA0008111FCCF0E94220E0E94370E8111FCCFC3
:101AB0000E940C030C94220E2F932FB72F932BB759
:101AC0002F938F939F93EF93FF938091C0009091FA
:101AD000C600E0914F02EF5FEF7020914E022E178B
:101AE00099F08871E0934F02F0E0EE5AFD4F908339
:101AF00080934D02FF91EF919F918F912F912BBF7A
:101B00002F912FBF2F91189580E0F2CF8F938FB731
:101B10008F938BB78F939F93EF93FF939091510285
:101B2000809150029817A9F0E0915002EF5FEF709A
:101B3000E0935002F0E0EE59FD4F80818093C600A3
:101B4000FF91EF919F918F918BBF8F918FBF8F915D
:101B500018958091C1008F7D8093C100F1CF1092C4
:101B600051021092500210924F0210924E02909128
:101B7000C20090689093C200282F21709091C200FB
:101B800080FF38C090649093C2009091C200926030
:101B90009093C2009091C20094609093C200909183
:101BA000C10081FF29C094609093C100222319F0E5
:101BB00082FF24C06A9A9091C10083FF21C0906186
:101BC0009093C10084FF1EC08091C000826080930A
:101BD000C0008091C10080688093C1006093C40000
:101BE0007093C5008091C10088608093C100699A9C
:101BF000689808959F7BC7CF9B7FD6CF6A98DBCF2D
:101C00009F7EDECF8091C0008D7FE1CF20914F027B
:101C100090914E0281E0291301C080E008959091D7
:101C20004F0280914E02981759F0E0914E02EF5FFB
:101C3000EF70E0934E02F0E0EE5AFD4F8081089580
:101C400080E00895909151029F5F9F702091500213
:101C50002917E1F3E92FF0E0EE59FD4F80839093CF
:101C600051028091C10080628093C10008959091DB
:101C7000510280915002981309C08091C00085FBE9
:101C8000882780F991E089278170089581E0FCCF51
:101C900080914D0208952F932FB72F932BB72F9339
:101CA0008F939F93EF93FF938091C8009091CE0004
:101CB000E0912A02EF5FEF70209129022E1799F030
:101CC0008871E0932A02F0E0E35DFD4F90838093FA
:101CD0002802FF91EF919F918F912F912BBF2F9110
:101CE0002FBF2F91189580E0F2CF8F938FB78F93EE
:101CF0008BB78F939F93EF93FF9390912C028091DA
:101D00002B029817A9F0E0912B02EF5FEF70E093A0
:101D10002B02F0E0E35CFD4F80818093CE00FF91C9
:101D2000EF919F918F918BBF8F918FBF8F9118955E
:101D30008091C9008F7D8093C900F1CF10922C0251
:101D400010922B0210922A02109229029091CA003E
:101D500090689093CA00282F21709091CA0080FF4C
:101D600038C090649093CA009091CA00926090939A
:101D7000CA009091CA0094609093CA009091C900E3
:101D800081FF29C094609093C900222319F082FF3B
:101D900024C0549A9091C90083FF21C09061909310
:101DA000C90084FF1EC08091C80082608093C80073
:101DB0008091C90080688093C9006093CC007093C3
:101DC000CD008091C90088608093C900539A5298D1
:101DD00008959F7BC7CF9B7FD6CF5498DBCF9F7E44
:101DE000DECF8091C8008D7FE1CF20912A029091B3
:101DF000290281E0291301C080E0089590912A0210
:101E000080912902981759F0E0912902EF5FEF7055
:101E1000E0932902F0E0E35DFD4F8081089580E0CA
:101E2000089590912C029F5F9F7020912B0229179B
:101E3000E1F3E92FF0E0E35CFD4F808390932C0207
:101E40008091C90080628093C900089590912C020E
:101E500080912B02981309C08091C80085FB8827C8
:101E600080F991E089278170089581E0FCCF80910D
:101E70002802089510927C0087E880937A000895E4
:101E8000CF93DF93582FEB0140E060E070E0CB018F
:101E9000451313C0242F30E050E040E00E940210B0
:101EA000A7E9BCE00E942C109E0150E040E00E9497
:101EB0000210C901DF91CF910895EFE9FFE031975A
:101EC000F1F700C0000020917A00206420937A008E
:101ED00020917A0026FDFCCF209178003091790086
:101EE000620F731F811D911D4F5FD2CFECE7F0E0B1
:101EF0008081807E80836BE077E08AE00C94400FE5
:101F00000E94060E8823E1F30C940F0E0F931F938B
:101F1000CF938C010E94060EC82F882321F00E94C7
:101F20000F0EF80180838C2FCF911F910F91089590
:101F3000CF93C82F0E94260F8111FCCF8C2F0E94B7
:101F4000110F90E080E0CF9108950F920F92CDB7DE
:101F5000DEB769E170E088E00E94AF0D78940E94DE
:101F60003A0F6D989D986C98809101018E7F8093B7
:101F70000101809101018D7F809301014CB192B3E9
:101F800090728CB1309100012091000145FD03C099
:101F900091110BC0FFCF9923A1F080713170832B79
:101FA0002270822BB9F783E001C082E00E94C30255
:101FB000CE0102960E94860F14E681110CC0A895EE
:101FC000F7CF81E0F3CF8FE99FE00197F1F700C0F1
:101FD00000001150A1F3CE0101960E94860F8823C4
:101FE00091F39A81898180958913E9CF482F4051D7
:101FF000550B4A30510518F7A89587FDD9CF0E9497
:102000005D01D6CFA1E21A2EAA1BBB1BFD010DC09C
:10201000AA1FBB1FEE1FFF1FA217B307E407F50798
:1020200020F0A21BB30BE40BF50B661F771F881F74
:10203000991F1A9469F760957095809590959B010A
:10204000AC01BD01CF010895EE0FFF1F881F8BBFAC
:102050000790F691E02D19940E943710A59F900DDE
:10206000B49F900DA49F800D911D11240895A29FEF
:10207000B001B39FC001A39F700D811D1124911D5C
:10208000B29F700D811D1124911D0895F894FFCF0A
:10209000F700FE000D011901250137012501370167
:1020A0006B0185019A01B401C901E3011802F8012D
:1020B0002C0245020206100618061E0622062E06EF
:1020C0000206170925092D093909430949094C094F
:1020D000520956095C09F90C0F0D150D070D190D64
:0420E000270DF90CC3
:0E20E4000000000300000000980F0000000044
:00000001FF
