:100000000C9484000C94A5000C94A5000C94A500FD
:100010000C94A5000C94A5000C94A5000C94A500CC
:100020000C94A5000C94A5000C94A5000C94A500BC
:100030000C94A5000C94A5000C94A5000C94A500AC
:100040000C94A5000C94A5000C94A5000C94A5009C
:100050000C94A5000C94A5000C94A5000C94A5008C
:100060000C94A5000C94F1070C941B080C94A500AB
:100070000C94A5000C94A5000C94A5000C94A5006C
:100080000C94A5000C94A5000C94A5000C94A5005C
:100090000C94D7080C9401090C94A5000C94A500AD
:1000A0000C94A5000C94A5000C94A5000C94A5003C
:1000B0000C94A5000C94A5000C94A5000C94A5002C
:1000C0000C94A5000C94A5000C94A5000C94A5001C
:1000D0000C94A5000C94A5000C94A5000C94A5000C
:1000E0000C94A5000C941B0A0C94A9010C945801C3
:1000F0000C9489010C9444010C9467010C947B01CD
:100100000C9435010C94210111241FBECFEFD1E2D4
:10011000DEBFCDBF00E00CBF12E0A0E0B2E0EAE835
:10012000F5E100E00BBF02C007900D92AE30B107C1
:10013000D9F722E0AEE0B2E001C01D92A836B207C6
:10014000E1F70E94280A0C94BB0A0C940000089561
:10015000CF93C82F0E94030A813071F194F4882351
:1001600011F10E94C3088111FCCF8C2F0E94AE08B0
:100170000E94C3088111FCCF84E00E94AE088FEF7B
:1001800019C0823049F1833061F780915802823082
:1001900081F583E00E94AF028823C1F149E160E06C
:1001A00070E283E016C080915802813011F50E9400
:1001B000A90580E0CF910895809158028230C9F45A
:1001C00081E00E94AF02882309F144E660E072E01A
:1001D00081E00E949802EDCF80915802823049F46C
:1001E0000E94AF02882391F044E660E074E082E070
:1001F000F0CF0E94C3088111FCCF8C2F0E94AE0863
:100200000E94C3088111FCCF86E0B7CF0E94C308CB
:100210008111FCCF8C2F0E94AE080E94C30881116F
:10022000FCCF87E0AACFCF93DF938051883008F0CE
:100230009EC0E82FF0E08827E354F54F8F4F0C94D1
:10024000990A80E10E94A80087FD91C08091580220
:10025000813011F40E94B10780915802823009F078
:1002600086C0DF91CF910C941205809158028130A5
:1002700011F40E94D30580915802823009F077C0B2
:10028000DF91CF910C94EE0282E10E94A80087FDDD
:100290006EC080915802813011F40E94C407809191
:1002A0005802823009F063C0DF91CF910C94290588
:1002B00080915802813011F40E94BE06809158024C
:1002C000823009F054C0DF91CF910C94440484E152
:1002D0000E94A80087FD4BC080915802813011F424
:1002E0000E94D30780915802823009F040C0DF910C
:1002F000CF910C94380580915802813011F40E94FE
:10030000410780915802823091F5DF91CF910C9492
:10031000AB040E94C3088111FCCF87E10E94AE08A4
:100320000E94C3088111FCCF0E94AE080E94F90907
:10033000EC010E94C3088111FCCF8D2F0E94AE08F2
:100340000E94C3088111FCCF8C2FDF91CF910C94B8
:10035000AE0880915802813011F40E94E20780912A
:100360005802823021F4DF91CF910C94CA02DF91C0
:10037000CF91089580FF46C05F9A81FF45C0A29A41
:1003800082FF44C0A19A83FF43C0A09A20910B0131
:1003900084FF40C0206820930B0120910B0185FF52
:1003A0003BC0206420930B0120910B0186FF36C0D7
:1003B000206220930B0120910B0187FF31C0206147
:1003C00020930B0120910B0190FF2CC028602093FB
:1003D0000B0120910B0191FF27C0246020930B019A
:1003E00020910B0192FF22C0226020930B012091EB
:1003F0000B0193FF1DC0216020930B0194FF1AC0D5
:100400002B9A08955F98B9CFA298BACFA198BBCF85
:10041000A098BCCF2F77BFCF2F7BC4CF2F7DC9CF64
:100420002F7ECECF277FD3CF2B7FD8CF2D7FDDCF91
:100430002E7FE2CF2B980895CF93C82F8093580238
:1004400090E080E00E94BA01579A9A9A999A989AF5
:1004500080910A01806880930A0180910A0180647A
:1004600080930A0180910A01806280930A01809141
:100470000A01806180930A0180910A01886080935B
:100480000A0180910A01846080930A0180910A0127
:10049000826080930A0180910A01816080930A0141
:1004A000239A11B8C13019F4CF910C94AE05C23023
:1004B00019F4CF910C946702CF91089582B90895F1
:1004C00080B108958FEF81B9089511B80895109201
:1004D00063021092590210925A0210925B0210921B
:1004E0005C021092600210925F0210925E028FEF27
:1004F00080935D02E2E0F1E080818F7D80838081E6
:100500008F7B80832C982D986B986B98E1E0F1E0BD
:100510008081877F808380818F7E808380818062DD
:100520008083808180648083249A259A2698089508
:100530004093600270935F0260935E0280935D025D
:100540001092650210926402109263021092590296
:1005500010925A0210925B0210925C020895982F3A
:10056000639904C08FEF890F823038F0639B03C01A
:1005700081E0933009F080E0089581E008952D9A9C
:100580002FEF81EE94E0215080409040E1F700C0D1
:10059000000008952C98809102018F7B80930201C6
:1005A000809102018F7D809302012FEF81EE94E014
:1005B000215080409040E1F700C000002D980E943B
:1005C00065020E94C3088111FCCF86E10E94AE083B
:1005D0000E94C3088111FCCF0C94AE087F928F92C9
:1005E0009F92AF92BF92CF92DF92EF92FF920F93C2
:1005F0001F93CF93DF9300D000D00F920F92CDB70F
:10060000DEB700915E0210915F022091640230918A
:100610006502021B130B0930110514F008E010E00D
:10062000D12CED2CF12CE016F10608F462C0C12C9F
:10063000AC2CB12C8091640290916502A016B10699
:1006400008F462C0080F191F10936502009364023A
:1006500080915E0290915F020817190709F008C1A6
:100660000E94C3088111FCCF81E10E94AE080E9464
:10067000C3088111FCCF82E00E94AE080E94C3082B
:100680008111FCCF809163020E94AE080E94C308D2
:100690008111FCCF80915D02833009F0E1C080912F
:1006A0005C020E94AE080E94C3088111FCCF8091B9
:1006B0005D02833009F0D6C080915B020E94AE08D3
:1006C0000E94C3088111FCCF80915D02833009F044
:1006D000CBC080915A020E94AE080E94C3088111CB
:1006E000FCCF80915D02833009F0C0C08091590237
:1006F00030C00E94030AE1E0F0E0EC0FFD1FEE0DB8
:10070000FF1D8083D3948DCF20916102E090600221
:10071000211102C0EE24E3948A0D9B1D0E94BA01B0
:10072000D12CF12C81E090E08C0F9D1FA80EB91EFA
:100730004501FE1418F1D11076C00E94C308811142
:10074000FCCF81E10E94AE080E94C3088111FCCF5A
:100750008AE028960FB6F894DEBF0FBECDBFDF91BA
:10076000CF911F910F91FF90EF90DF90CF90BF90AE
:10077000AF909F908F907F900C94AE08F5017080A1
:100780002C9AF5E0FA95F1F700000E946202872D9D
:100790000E945E028AE18A95F1F700C08091020111
:1007A00080628093020180915D028330B9F5EFE3AE
:1007B000FFE13197F1F700C00000809102018F7DC9
:1007C000809302019AE19A95F1F700C00E946502B8
:1007D0002C98809161028823E9F0E5E0EA95F1F731
:1007E000000080910201806480930201F5E0FA9597
:1007F000F1F700000E946002909102019F7B9093AC
:100800000201F4019081981307C0D11005C0E09057
:100810006202EF0CDD24D394F3948BCF8FE99FE039
:100820000197F1F7C8CF809163028F1508F48F2DDF
:10083000809363028091590290915A02A0915B02C9
:10084000B0915C028F0D911DA11DB11D80935902C5
:1008500090935A02A0935B02B0935C02C394E8CEDB
:1008600080E01FCF80E02ACF80E035CF80E071CFDD
:100870000E94C3088111FCCF81E10E94AE080E9452
:10088000C3088111FCCF65CF1F93CF93DF93C09135
:100890005E02D0915F022091640230916502C21B1A
:1008A000D30BC930D10514F0C8E0D0E00E94C308D2
:1008B0008111FCCF83E10E94AE080E94C308811120
:1008C000FCCF80916402909165028C0F9D1F209156
:1008D0005E0230915F0282179307B9F080E00E94B8
:1008E000AE0810E08091640290916502212F30E003
:1008F0002C173D0764F0C80FD91FD0936502C09331
:100900006402DF91CF911F91089582E0E8CF820FBA
:10091000931F0E94BA0185E08A95F1F7000080914B
:10092000020180648093020185E08A95F1F700005E
:100930000E94C3088111FCCF0E9460020E94AE0891
:10094000809102018F7B8093020185E08A95F1F707
:1009500000001F5FC7CF1F93CF93DF93D0E0C0E0AD
:1009600080915E0290915F02C817D907C8F01FEF0F
:1009700080915E0290915F028C179D0789F50E941D
:10098000C3088111FCCF85E10E94AE080E94C30814
:100990008111FCCF82E0DF91CF911F910C94AE08C2
:1009A000CE010E94BA0185E08A95F1F7000080919E
:1009B000020180648093020185E08A95F1F70000CE
:1009C0000E946002182F809102018F7B80930201A8
:1009D00085E08A95F1F700001F3F51F62196C0CFC0
:1009E0000E94C3088111FCCF85E10E94AE080E94DD
:1009F000C3088111FCCF89E00E94AE080E94C308A1
:100A00008111FCCF8D2F0E94AE080E94C308811176
:100A1000FCCF8C2F0E94AE080E94C3088111FCCF2E
:100A2000812FB9CF0E94030A809361020E94030ABA
:100A3000809362020E94BF020E94C3088111FCCF12
:100A400080E10E94AE080E94C3088111FCCF0C9483
:100A5000AE080E94BF020E94C3088111FCCF82E150
:100A60000E94AE080E94C3088111FCCF0C94AE080E
:100A70000E94BF020E94C3088111FCCF84E10E9442
:100A8000AE080E94C3088111FCCF0C94AE081D9BD8
:100A90002CC0809102018F7B809302012D982FEF53
:100AA00081EE94E0215080409040E1F700C00000CA
:100AB0002FEF81EE94E0215080409040E1F700C09C
:100AC00000002FEF81EE94E0215080409040E1F74C
:100AD00000C00000809102018F7E8093020180910E
:100AE00002018F7D809302012C981E9B23C0809170
:100AF0000201877F809302012E982FEF81EE94E010
:100B0000215080409040E1F700C000002FEF81EEBF
:100B100094E0215080409040E1F700C000008091B7
:100B200002018F7E80930201809102018F7D80936C
:100B300002012C980C9465021E990AC02E9A2FEF80
:100B400081EE94E0215080409040E1F700C0000029
:100B5000089510926702109266020895E2E0F1E0B3
:100B60008081877F808380818F7B808380818F7E5F
:100B7000808380818F7D80832C982D982E986C980F
:100B80006B98E1E0F1E08081886080838081806102
:100B90008083808180628083808180648083249AC6
:100BA000259A269A0895AF92BF92CF92DF92EF9244
:100BB000FF920F931F93CF93DF9300D000D00F923B
:100BC0000F92CDB7DEB7809166029091670200E088
:100BD00011E0081B190B0930110510F008E010E0B6
:100BE000C02E1D990AC02D9A2FEF81EE94E021505E
:100BF00080409040E1F700C00000809102018064D5
:100C000080930201EFE8F1E03197F1F700C00000B6
:100C1000CE0101965C017C018E2D8A198C1508F499
:100C20005DC0D12CE0906602F0906702DC105CC0E1
:100C3000E00EF11EF0926702E092660280910201DE
:100C40008F7B80930201EFE8F1E03197F1F700C06C
:100C5000000080916602909167028115914009F031
:100C600081C00E94C3088111FCCF81E10E94AE08BF
:100C70000E94C3088111FCCF82E00E94AE080E944E
:100C8000C3088111FCCF0E94AE080E94C3088111E5
:100C9000FCCF0E94AE080E94C3088111FCCF0E94C5
:100CA000AE080E94C3088111FCCF0E94AE080E94CA
:100CB000C3088111FCCF80E028960FB6F894DEBF00
:100CC0000FBECDBFDF91CF911F910F91FF90EF909D
:100CD000DF90CF90BF90AF900C94AE080E94030AB3
:100CE000F70181937F0198CFF501F1905F01ED0C41
:100CF0000E9462028F2D0E945E02F12CC701809536
:100D000090950E94BA01F5EDFA95F1F700002C9A42
:100D100087E592E00197F1F700C00000C7010E944B
:100D2000BA0195ED9A95F1F700008091020180617A
:100D300080930201EFE2FAE23197F1F700C0000080
:100D4000809102018F7E80930201F5EDFA95F1F713
:100D500000002C988FE79BEB0197F1F700C0000093
:100D6000D39460CF0E94C3088111FCCF81E10E941F
:100D7000AE080E94C3088111FCCF9DCF1F93CF9373
:100D8000DF938091660290916702C0E0D1E0C81BBA
:100D9000D90BC930D10514F0C8E0D0E00E94C308D7
:100DA0008111FCCF83E10E94AE080E94C30881112B
:100DB000FCCF80916602909167028C0F9D1F811578
:100DC000914079F180E00E94AE080E949C058091DC
:100DD00002018860809302018FE891E00197F1F7AA
:100DE00000C0000010E0812F90E08C179D07DCF020
:100DF00080910201877F809302018FE891E0019743
:100E0000F1F700C000008091660290916702C80F60
:100E1000D91FD0936702C0936602DF91CF911F91D3
:100E2000089582E0D0CF2091660230916702820F50
:100E3000931F0E94BA018FE891E00197F1F700C07B
:100E40000000809102018062809302018FE891E0AE
:100E50000197F1F700C000000E94C3088111FCCF88
:100E60000E9460020E94AE08809102018F7D8093F3
:100E700002018FE891E00197F1F700C000001F5FC9
:100E8000B2CF1F93CF93DF930E949C058091020104
:100E9000886080930201D0E0C0E0CE010E94BA01D8
:100EA0008FE891E00197F1F700C000008091020106
:100EB0008062809302018FE891E00197F1F700C012
:100EC00000000E946002182F809102018F7D8093A4
:100ED00002018FE891E00197F1F700C000001111C5
:100EE00005C02196C11591E0D907B9F6809102019C
:100EF000877F80930201C11581E0D80789F40E94A1
:100F0000C3088111FCCF85E10E94AE080E94C3088E
:100F10008111FCCF82E0DF91CF911F910C94AE083C
:100F20000E94C3088111FCCF85E10E94AE080E9497
:100F3000C3088111FCCF89E00E94AE080E94C3085B
:100F40008111FCCF0E94AE080E94C3088111FCCF22
:100F50008C2F0E94AE080E94C3088111FCCF812F04
:100F6000DACF0E94030A0E94030A0E9447050E94EA
:100F7000C3088111FCCF80E10E94AE080E94C30823
:100F80008111FCCF0C94AE080E9447050E94C30853
:100F90008111FCCF82E10E94AE080E94C30881113A
:100FA000FCCF0C94AE080E9447050E94C308811133
:100FB000FCCF84E10E94AE080E94C3088111FCCFDF
:100FC0000C94AE080E9447050E94C3088111FCCF13
:100FD00086E10E94AE080E94C3088111FCCF0C94E8
:100FE000AE082F932FB72F932BB72F938F939F93E9
:100FF000EF93FF938091C0009091C600E09135027D
:10100000EF5FEF70209134022E1799F08871E09312
:101010003502F0E0E85CFD4F908380933302FF914E
:10102000EF919F918F912F912BBF2F912FBF2F91D8
:10103000189580E0F2CF8F938FB78F938BB78F93F4
:101040009F93EF93FF939091370280913602981708
:10105000A9F0E0913602EF5FEF70E0933602F0E026
:10106000E85BFD4F80818093C600FF91EF919F91D7
:101070008F918BBF8F918FBF8F9118958091C100F9
:101080008F7D8093C100F1CF10923702109236020B
:1010900010923502109234029091C20090689093A1
:1010A000C200282F21709091C20080FF31C090644F
:1010B0009093C2009091C20092609093C200909170
:1010C000C20094609093C2009091C10081FF22C041
:1010D00094609093C100222319F082FF1DC06A9A88
:1010E00083FF1CC08091C10080618093C10080910A
:1010F000C10080688093C1006093C4007093C500F4
:101100008091C10088608093C100699A68980895B1
:101110009F7BCECF9B7FDDCF6A98E2CF8091C100CD
:101120008F7EE3CF209135029091340281E0291324
:1011300001C080E0089590913502809134029817A3
:1011400059F0E0913402EF5FEF70E0933402F0E089
:10115000E85CFD4F8081089580E00895909137020A
:101160009F5F9F70209136022917E1F3E92FF0E08D
:10117000E85BFD4F8083909337028091C1008062CD
:101180008093C100089590913702809136029813A0
:1011900009C08091C00085FB882780F991E08927EC
:1011A0008170089581E0FCCF8091330208952F93E0
:1011B0002FB72F932BB72F938F939F93EF93FF937B
:1011C0008091C8009091CE00E0911002EF5FEF7027
:1011D00020910F022E1799F08871E0931002F0E031
:1011E000ED5EFD4F908380930E02FF91EF919F91F2
:1011F0008F912F912BBF2F912FBF2F91189580E0AA
:10120000F2CF8F938FB78F938BB78F939F93EF937B
:10121000FF9390911202809111029817A9F0E0912A
:101220001102EF5FEF70E0931102F0E0ED5DFD4F12
:1012300080818093CE00FF91EF919F918F918BBF22
:101240008F918FBF8F9118958091C9008F7D80936A
:10125000C900F1CF109212021092110210921002E6
:1012600010920F029091CA0090689093CA00282FA4
:1012700021709091CA0080FF31C090649093CA00A1
:101280009091CA0092609093CA009091CA009460B5
:101290009093CA009091C90081FF22C094609093FE
:1012A000C900222319F082FF1DC0549A83FF1CC07D
:1012B0008091C90080618093C9008091C9008068D5
:1012C0008093C9006093CC007093CD008091C900D9
:1012D00088608093C900539A529808959F7BCECF1F
:1012E0009B7FDDCF5498E2CF8091C9008F7EE3CF02
:1012F0002091100290910F0281E0291301C080E03B
:1013000008959091100280910F02981759F0E09182
:101310000F02EF5FEF70E0930F02F0E0ED5EFD4F24
:101320008081089580E00895909112029F5F9F70E0
:10133000209111022917E1F3E92FF0E0ED5DFD4F57
:101340008083909312028091C90080628093C900CB
:1013500008959091120280911102981309C0809112
:10136000C80085FB882780F991E08927817008955E
:1013700081E0FCCF80910E02089510927C0087E8F6
:1013800080937A000895CF93DF93582FEB0140E0CC
:1013900060E070E0CB01451313C0242F30E050E033
:1013A00040E00E94770AA7E9BCE00E94A10A9E01E2
:1013B00050E040E00E94770AC901DF91CF91089583
:1013C000EFE9FFE03197F1F700C0000020917A00CB
:1013D000206420937A0020917A0026FDFCCF209192
:1013E000780030917900620F731F811D911D4F5F4E
:1013F000D2CFECE7F0E08081807E80836BE077E005
:101400008AE00C94C3090E9492088823E1F30C94AB
:101410009B080F931F93CF938C010E949208C82FB3
:10142000882321F00E949B08F80180838C2FCF91A4
:101430001F910F910895CF93C82F0E94A909811180
:10144000FCCF8C2F0E94940990E080E0CF9108950A
:101450000F920F92CDB7DEB769E170E088E00E948D
:10146000440878940E94BD0988E19EE00FB6F89484
:10147000A895809360000FBE909360006D989D9832
:101480009CB182B3807295FD03C0811105C0FFCF6E
:101490008111FDCF81E001C082E00E941C02CE01DB
:1014A00002960E94090A14E681110AC0A895F7CF96
:1014B0008FE99FE00197F1F700C000001150B1F3F0
:1014C000CE0101960E94090A882391F39A818981AD
:1014D00080958913EBCF482F4051550B483051056B
:1014E00028F7A89587FDDBCF0E941301D8CFA1E292
:1014F0001A2EAA1BBB1BFD010DC0AA1FBB1FEE1F8E
:10150000FF1FA217B307E407F50720F0A21BB30BD8
:10151000E40BF50B661F771F881F991F1A9469F754
:1015200060957095809590959B01AC01BD01CF01B0
:101530000895EE0FFF1F881F8BBF0790F691E02DD7
:1015400019940E94AC0AA59F900DB49F900DA49F82
:10155000800D911D11240895A29FB001B39FC00179
:10156000A39F700D811D1124911DB29F700D811DCF
:101570001124911D0895F894FFCF210135014401F4
:0A158000580167017B01A9018901F0
:0E158A0000000003000000001B0A000000002B
:00000001FF
