:100000000C94CA000C94EB000C94EB000C94EB00E5
:100010000C94EB000C94EB000C94EB000C94EB00B4
:100020000C94EB000C94EB000C94EB000C94EB00A4
:100030000C94EB000C94EB000C94EB000C94EB0094
:100040000C94EB000C94EB000C94EB000C94EB0084
:100050000C94EB000C94EB000C94EB000C94EB0074
:100060000C94EB000C94BB0F0C94E50F0C94EB007C
:100070000C94EB000C94EB000C94EB000C94EB0054
:100080000C94EB000C94EB000C94EB000C94EB0044
:100090000C94AA100C94D4100C94EB000C94EB006C
:1000A0000C94EB000C94EB000C94EB000C94EB0024
:1000B0000C94EB000C94EB000C94EB000C94EB0014
:1000C0000C94EB000C94EB000C94EB000C94EB0004
:1000D0000C94EB000C94EB000C94EB000C94EB00F4
:1000E0000C94EB000C945A0F0C9494010C94BD01E9
:1000F0000C9422020C94610A0C94C9020C944701DE
:100100000C94A4020C94860A0C9462010C9467026D
:100110000C9442070C94360F0C94770A0C944F0FF2
:100120000C94590A0C9439010C944B0A0C94800AD3
:100130000C944F070C9418120C94DD010C94610779
:100140000C9459010C9484020C948A0A0C941D019D
:100150000C94510F0C9448070C940B010C947B0FDA
:100160000C9434070C945C0F0C94440F0C942C01E9
:100170000C945E0F0C9402020C9447020C947D0ABE
:100180000C9402010C946D0A0C9455070C94650FA5
:100190000C94900A11241FBECFEFD1E2DEBFCDBF79
:1001A00000E00CBF12E0A0E0B2E0ECE0F6E200E01C
:1001B0000BBF02C007900D92AE30B107D9F722E015
:1001C000AEE0B2E001C01D92A637B207E1F70E948F
:1001D00025120C94D0120C9400000895CF93DF9355
:1001E000D82F0E940012C82F8F3008F072C0E82F5D
:1001F000880FFF0B90910E028827EE52FD4E8F4F15
:100200000C94AE12913009F047C00E94FD078C2F6C
:10021000DF91CF910895923011F09430E9F581E0AB
:100220000E947504882309F464C044E660E072E02B
:1002300081E00E945E04C0E0EACF923011F0943079
:1002400059F582E00E947504882309F452C044E6FF
:1002500060E074E082E0EDCF9430F1F48EE00E9433
:100260007504882309F445C044E660E078E08EE038
:10027000E0CF923011F0943079F483E00E9475045D
:100280008823B9F149E160E070E283E0D2CF45E034
:1002900060E074E0933091F00E9496108111FCCFE1
:1002A0008D2F0E9481100E9496108111FCCF86E054
:1002B0001CC0933089F745E060E078E08C2F0E9405
:1002C000EE0AB9CF933041F745E060E070E18AE093
:1002D000F6CF0E9496108111FCCF8D2F0E948110C5
:1002E0000E9496108111FCCF84E00E948110CFEF14
:1002F0008ECF0E9496108111FCCF8D2F0E9481100D
:100300000E9496108111FCCF87E0EFCFCF93DF934F
:1003100080518A3008F062C1E82FF0E08827EF5161
:10032000FD4E8F4F0C94AE1280E10E94EE0087FDCF
:1003300055C180910E02813021F4DF91CF910C9450
:10034000FB09823021F4DF91CF910C94EF068330CA
:1003500021F4DF91CF910C94910E0E94961081119F
:10036000FCCF80E10E9481100E9496108111FCCF89
:1003700085E0DF91CF910C94811080910E02813045
:1003800021F4DF91CF910C942708823021F4DF9182
:10039000CF910C94D804833021F4DF91CF910C9449
:1003A000710B0E9496108111FCCF81E10E94811097
:1003B0000E9496108111FCCFDBCF82E10E94EE00FB
:1003C00087FD0CC180910E02813021F4DF91CF9125
:1003D0000C940E0A823021F4DF91CF910C94060721
:1003E000833021F4DF91CF910C94CB0E0E949610B4
:1003F0008111FCCF82E10E9481100E949610811130
:10040000FCCFB6CF80910E02813021F4DF91CF91E5
:100410000C940809823021F4DF91CF910C942906C5
:10042000833021F4DF91CF910C94220D0E9496101D
:100430008111FCCF83E10E9481100E9496108111EE
:10044000FCCF96CF84E10E94EE0087FDC7C080916B
:100450000E02813021F4DF91CF910C941D0A82307D
:1004600021F4DF91CF910C941507833021F4DF91B3
:10047000CF910C94F00E0E9496108111FCCF84E174
:100480000E9481100E9496108111FCCF71CF809143
:100490000E02813021F4DF91CF910C948B098230D0
:1004A00021F4DF91CF910C948C06833021F4DF91FD
:1004B000CF910C94D90D0E9496108111FCCF85E14B
:1004C0000E9481100E9496108111FCCF51CF0E9492
:1004D00096108111FCCF87E10E9481100E94961036
:1004E0008111FCCF0E9481100E94F611EC010E9444
:1004F00096108111FCCF8D2F0E9481100E949610C2
:100500008111FCCF8C2F35CF80910E02813021F4E8
:10051000DF91CF910C942C0A823021F4DF91CF919E
:100520000C94B504833021F4DF91CF910C943C0BF3
:100530000E9496108111FCCF86E10E9481100E94DA
:1005400096108111FCCF14CF88E10E94EE0087FD48
:1005500045C080910E02813021F4DF91CF910C943F
:100560003B0A823021F4DF91CF910C942407833031
:1005700021F4DF91CF910C94260F0E9496108111E7
:10058000FCCF88E10E9481100E9496108111FCCF5F
:10059000EFCE89E10E94EE0087FD20C080910E021F
:1005A000813021F4DF91CF910C94A40A823021F4A0
:1005B000DF91CF910C947907833021F4DF91CF91B3
:1005C0000C94A60F0E9496108111FCCF89E10E9425
:1005D00081100E9496108111FCCFCACEDF91CF917D
:1005E00008959C0180FF46C05F9A21FF45C0A29AF2
:1005F00022FF44C0A19A23FF43C0A09A80910B011F
:1006000024FF40C0806880930B0180910B0125FF7F
:100610003BC0806480930B0180910B0126FF36C0A4
:10062000806280930B0180910B0127FF31C08061B4
:1006300080930B0180910B0130FF2CC08860809368
:100640000B0180910B0131FF27C0846080930B0167
:1006500080910B0132FF22C0826080930B01809158
:100660000B0133FF1DC0816080930B0134FF1AC062
:100670002B9A08955F98B9CFA298BACFA198BBCF13
:10068000A098BCCF8F77BFCF8F7BC4CF8F7DC9CFD2
:100690008F7ECECF877FD3CF8B7FD8CF8D7FDDCF9F
:1006A0008E7FE2CF2B980895CF93C82F80930E02B0
:1006B00090E080E00E94F102579A9A9A999A989A4B
:1006C00080910A01806880930A0180910A01806408
:1006D00080930A0180910A01806280930A018091CF
:1006E0000A01806180930A0180910A0188608093E9
:1006F0000A0180910A01846080930A0180910A01B5
:10070000826080930A0180910A01816080930A01CE
:10071000239A11B8C13019F4CF910C94020880913A
:100720000E02823019F4CF910C941F04C33019F4D7
:10073000CF910C94B90ACF91089582B9089580B1F0
:1007400008958FEF81B9089511B808959C018091A3
:10075000020185FF15C02130310549F022303105F5
:1007600029F0809102018F7D80930201089580918C
:1007700002018F7D80930201809102018061F4CF9C
:100780008091020184FF0CC02130310579F3809102
:1007900002018F7E809302012230310541F00895DD
:1007A0002130310549F32230310509F00895809157
:1007B00002018062D9CF90910F029E3061F48823AC
:1007C00031F0809102018860809302010895809148
:1007D0000201877FF9CF882311F02C9A08952C9875
:1007E000089590910F029E3049F4882321F081E012
:1007F00090E00C94A60390E080E0FBCF882331F0DA
:100800008091020180648093020108958091020129
:100810008F7BF9CFCF93DF93EC010E94F10280919F
:100820000F028E3039F480910201D2FF06C08F7B17
:1008300080930201DF91CF9108958064F9CF1092E7
:100840001C021092150210921602109217021092BA
:1008500018021092190210921402109213029FEFC4
:1008600090930F0280931002E2E0F1E080818F7E8E
:1008700080838081877F808380818F7D808380815A
:100880008F7B80832C982D986B986B98E1E0F1E03A
:100890008081877F808380818F7E8083808180625A
:1008A0008083808180648083249A808188608083B3
:1008B000808180618083259A26980895409319024B
:1008C000709314026093130280930F02109212022D
:1008D0001092110210921C02109215021092160230
:1008E00010921702109218020895909110029230FF
:1008F00081F4639908C09FEF980F923010F481E063
:1009000008958E30E1F3639B02C08330C1F380E031
:1009100008959430E1F790910A019E7F90930A0127
:1009200095E09A95F1F700009091090190FF06C0BB
:100930009FEF980F923018F38E3009F390910901D0
:1009400090FD02C08330D9F280910A0181608093CA
:100950000A01DDCF2D9A2FEF81EE94E021508040E7
:100960009040E1F700C00000089580E00E94DB03A2
:1009700080E00E94F10390E080E00E94A6032FEF48
:1009800081EE94E0215080409040E1F700C00000EB
:100990002D980E94A4030E9496108111FCCF86E13D
:1009A0000E9481100E9496108111FCCF0C9481103E
:1009B0008F929F92AF92BF92CF92DF92EF92FF926F
:1009C0000F931F93CF93DF9300D000D00F920F921D
:1009D000CDB7DEB70091130210911402809111027D
:1009E00090911202081B190B0930110514F008E050
:1009F00010E0D12CED2CF12CE016F10608F462C0C9
:100A0000C12CAC2CB12C8091110290911202A01635
:100A1000B10608F462C0080F191F10931202009368
:100A2000110280911302909114020817190709F01E
:100A300004C10E9496108111FCCF81E10E948110B7
:100A40000E9496108111FCCF82E00E9481100E94CA
:100A500096108111FCCF80911C020E9481100E948F
:100A600096108111FCCF80910F02833009F0DDC018
:100A7000809118020E9481100E9496108111FCCF73
:100A800080910F02833009F0D2C0809117020E943A
:100A900081100E9496108111FCCF80910F0283304B
:100AA00009F0C7C0809116020E9481100E94961022
:100AB0008111FCCF80910F02833009F0BCC080917E
:100AC000150230C00E940012E1E0F0E0EC0FFD1FC3
:100AD000EE0DFF1D8083D3948DCF20911B02E090FB
:100AE0001902211102C0EE24E3948A0D9B1D0E947D
:100AF0000A04D12CFF24F39481E090E08C0F9D1F19
:100B0000A80EB91EEF1410F5D11072C00E949610F5
:100B10008111FCCF81E10E9481100E949610811109
:100B2000FCCF8AE028960FB6F894DEBF0FBECDBF8B
:100B3000DF91CF911F910F91FF90EF90DF90CF90B9
:100B4000BF90AF909F908F900C948110F5018080A2
:100B500081E00E94DB03F5E0FA95F1F700000E94C6
:100B6000A103882D0E949D038AE18A95F1F700C0B8
:100B700082E090E00E94A60380910F02833099F5F5
:100B8000EFE3FFE13197F1F700C0000081E090E072
:100B90000E94A6039AE19A95F1F700C00E94A4036F
:100BA00080E00E94DB0380911B028823C1F0E5E016
:100BB000EA95F1F7000081E00E94F103F5E0FA9573
:100BC000F1F700000E949F03982E80E00E94F1033D
:100BD000891007C0D11005C0E0901A02EF0CDD2487
:100BE000D394F3948FCF8FE99FE00197F1F7CCCFA7
:100BF00080911C028F1508F48F2D80931C02809128
:100C0000150290911602A0911702B09118028F0D53
:100C1000911DA11DB11D8093150290931602A09302
:100C20001702B0931802C394ECCE80E023CF80E08B
:100C30002ECF80E039CF80E075CF0E9496108111D1
:100C4000FCCF81E10E9481100E9496108111FCCF9F
:100C500069CF1F93CF93DF93C0911302D0911402F9
:100C60008091110290911202C81BD90BC930D10595
:100C700014F0C8E0D0E00E9496108111FCCF83E10F
:100C80000E9481100E9496108111FCCF8091110268
:100C9000909112028C0F9D1F20911302309114022B
:100CA00082179307B9F080E00E94811010E08091D4
:100CB000110290911202212F30E02C173D0764F0B1
:100CC000C80FD91FD0931202C0931102DF91CF91A8
:100CD0001F91089582E0E8CF820F931F0E940A04BB
:100CE00085E08A95F1F7000081E00E94F10385E03C
:100CF0008A95F1F700000E9496108111FCCF0E94A6
:100D00009F030E94811080E00E94F10385E08A9594
:100D1000F1F700001F5FCBCF1F93CF93DF93D0E09D
:100D2000C0E08091130290911402C817D907C8F04F
:100D30001FEF80911302909114028C179D0769F5A3
:100D40000E9496108111FCCF85E10E9481100E94C3
:100D500096108111FCCF82E0DF91CF911F910C940E
:100D60008110CE010E940A0485E08A95F1F7000007
:100D700081E00E94F10385E08A95F1F700000E946E
:100D80009F03182F80E00E94F10385E08A95F1F718
:100D900000001F3F71F62196C4CF0E94961081116A
:100DA000FCCF85E10E9481100E9496108111FCCF3A
:100DB00089E00E9481100E9496108111FCCF8D2F36
:100DC0000E9481100E9496108111FCCF8C2F0E94EE
:100DD00081100E9496108111FCCF812FBDCF0E94FF
:100DE000001280931B020E94001280931A020E943C
:100DF000AA040E9496108111FCCF80E10E9481100C
:100E00000E9496108111FCCF0C9481100E94AA04BC
:100E10000E9496108111FCCF82E10E9481100E94F5
:100E200096108111FCCF0C9481100E94AA040E949C
:100E300096108111FCCF84E10E9481100E949610CF
:100E40008111FCCF0C9481100E940012EFEFE80F8B
:100E5000E73008F040C00E2E000CFF0B8827E5514C
:100E6000FD4E8F4F0C94AE120E94AA040E94961061
:100E70008111FCCF88E10E9481100E94961081119F
:100E8000FCCF34C00E94AA0481E00E94F103EECF9F
:100E90000E94AA0482E090E00E94A603E7CF0E948D
:100EA000AA0481E00E94DB03E1CF0E94AA040E9411
:100EB000A1038AEA0E949D038AEA9AE00E94F10255
:100EC000D5CF0E94AA040E94A10385E50E949D033C
:100ED00085E595E1F3CF0E9496108111FCCF83E068
:100EE0000E9481100E9496108111FCCF80E00C942A
:100EF00081100E9496108111FCCF89E10E9481101F
:100F00000E9496108111FCCF0E9481100E949610C1
:100F10008111FCCF0E949F030C9481101D9B2CC05B
:100F2000809102018F7B809302012D982FEF81EE3B
:100F300094E0215080409040E1F700C000002FEF86
:100F400081EE94E0215080409040E1F700C0000025
:100F50002FEF81EE94E0215080409040E1F700C0F7
:100F60000000809102018F7E809302018091020136
:100F70008F7D809302012C981E9B23C080910201DB
:100F8000877F809302012E982FEF81EE94E021500D
:100F900080409040E1F700C000002FEF81EE94E028
:100FA000215080409040E1F700C000008091020194
:100FB0008F7E80930201809102018F7D80930201D8
:100FC0002C980C94A4031E990AC02E9A2FEF81EE40
:100FD00094E0215080409040E1F700C00000089567
:100FE0001D990AC02D9A2FEF81EE94E02150804088
:100FF0009040E1F700C00000089510921E02109288
:101000001D020895E2E0F1E08081877F8083808186
:101010008F7B808380818F7E808380818F7D8083A2
:101020002C982D982E986C986B98E1E0F1E08081D7
:1010300088608083808180618083808180628083FA
:10104000808180648083249A259A269A0895AF929D
:10105000BF92CF92DF92EF92FF920F931F93CF93A5
:10106000DF9300D000D00F920F92CDB7DEB7809102
:101070001D0290911E0200E011E0081B190B0930BF
:10108000110510F008E010E0C02E0E94F0078091DA
:1010900002018064809302018FE891E00197F1F7EB
:1010A00000C00000FE0131965F017F018E2D8A197C
:1010B0008C1508F45DC0D12CE0901D02F0901E024A
:1010C000DC105CC0E00EF11EF0921E02E0921D02E8
:1010D000809102018F7B80930201EFE8F1E031976C
:1010E000F1F700C0000080911D0290911E02811551
:1010F000914009F081C00E9496108111FCCF81E1DE
:101100000E9481100E9496108111FCCF82E00E9403
:1011100081100E9496108111FCCF0E9481100E94C4
:1011200096108111FCCF0E9481100E9496108111AF
:10113000FCCF0E9481100E9496108111FCCF0E946A
:1011400081100E9496108111FCCF80E028960FB686
:10115000F894DEBF0FBECDBFDF91CF911F910F91ED
:10116000FF90EF90DF90CF90BF90AF900C948110E4
:101170000E940012F70181937F0198CFF501F19051
:101180005F01ED0C0E94A1038F2D0E949D03F12CA5
:10119000C701809590950E94F102F5EDFA95F1F75F
:1011A00000002C9A87E592E00197F1F700C000005B
:1011B000C7010E94F10295ED9A95F1F70000809128
:1011C0000201806180930201EFE2FAE23197F1F7C8
:1011D00000C00000809102018F7E80930201F5ED36
:1011E000FA95F1F700002C988FE79BEB0197F1F748
:1011F00000C00000D39460CF0E9496108111FCCFF4
:1012000081E10E9481100E9496108111FCCF9DCF38
:101210001F93CF93DF9380911D0290911E02C0E037
:10122000D1E0C81BD90BC930D10514F0C8E0D0E01B
:101230000E9496108111FCCF83E10E9481100E94D0
:1012400096108111FCCF80911D0290911E028C0F8F
:101250009D1F8115914079F180E00E9481100E94CC
:10126000E307809102018860809302018FE891E09A
:101270000197F1F700C0000010E0812F90E08C177B
:101280009D07DCF080910201877F809302018FE847
:1012900091E00197F1F700C0000080911D0290914C
:1012A0001E02C80FD91FD0931E02C0931D02DF91EA
:1012B000CF911F91089582E0D0CF20911D023091EF
:1012C0001E02820F931F0E94F1028FE891E00197A6
:1012D000F1F700C00000809102018062809302015A
:1012E0008FE891E00197F1F700C000000E9496108E
:1012F0008111FCCF0E949F030E9481108091020106
:101300008F7D809302018FE891E00197F1F700C093
:1013100000001F5FB2CF1F93CF93DF930E94E307BC
:1013200080910201886080930201D0E0C0E0CE018C
:101330000E94F1028FE891E00197F1F700C00000F0
:10134000809102018062809302018FE891E0019711
:10135000F1F700C000000E949F03182F8091020146
:101360008F7D809302018FE891E00197F1F700C033
:101370000000111105C02196C11591E0D907B9F6F9
:1013800080910201877F80930201C11581E0D80717
:1013900089F40E9496108111FCCF85E10E94811092
:1013A0000E9496108111FCCF82E0DF91CF911F91B6
:1013B0000C9481100E9496108111FCCF85E10E944F
:1013C00081100E9496108111FCCF89E00E9481104B
:1013D0000E9496108111FCCF0E9481100E949610ED
:1013E0008111FCCF8C2F0E9481100E9496108111D8
:1013F000FCCF812FDACF0E9400120E9400120E94BF
:101400008E070E9496108111FCCF80E10E9481100E
:101410000E9496108111FCCF0C9481100E948E07BF
:101420000E9496108111FCCF82E10E9481100E94DF
:1014300096108111FCCF0C9481100E948E070E949F
:1014400096108111FCCF84E10E9481100E949610B9
:101450008111FCCF0C9481100E948E070E9496107F
:101460008111FCCF86E10E9481100E9496108111AB
:10147000FCCF0C9481100E940012EFEFE80FEA30CD
:1014800008F054C00E2E000CFF0B8827EE50FD4EC6
:101490008F4F0C94AE120E94E3070E9496108111A8
:1014A000FCCF88E10E9481100E9496108111FCCF30
:1014B00048C00E94E307809102018062809302018C
:1014C000ECCF0E94E30780910201886080930201C3
:1014D0008AEA90E00E94F102E0CF0E94E307809147
:1014E000020188608093020185E590E0F3CF0E94BD
:1014F000E307809102018860E1CF0E94F007CDCF21
:101500000E94F007809102018061D8CF0E94F0070D
:101510002C9AC3CF0E94F007809102018064D6CF3D
:101520000E94F007809102018064DCCF0E94961037
:101530008111FCCF83E00E9481100E9496108111DE
:10154000FCCF80E00C9481100E9496108111FCCF9A
:1015500089E10E9481100E9496108111FCCF0E94A7
:1015600081100E9496108111FCCF0E949F030C9461
:10157000811010922B0210922502109226021092D6
:1015800027021092280210922402109223028FEF59
:1015900080931F022E982F982D982C98E2E0F1E06E
:1015A00080818F7B808380818F7E80838081877F15
:1015B0008083739826982798259A249AE1E0F1E091
:1015C0008081806480838081806180838081886065
:1015D00080836B9A80818F7D808308954093290258
:1015E000709324026093230280931F0210922202C0
:1015F0001092210210922B021092250210922602C4
:10160000109227021092280291E08B3009F090E0AE
:10161000919590932002089580911F028B30F4F4ED
:1016200088300CF5863021F18730F9F08450823013
:10163000E0F02D9A2FEF81EE94E021508040904011
:10164000E1F700C00000809102018F7E80930201CB
:1016500080911F0273988B3071F408958B3041F0A4
:101660008C50823030F7269801C0269A2798E1CF17
:10167000269A279ADECF0895809102018F7B80936E
:10168000020180910201877F809302018091020113
:101690008F7E809302012C9873982FEF81EE94E057
:1016A000215080409040E1F700C000002D980E943A
:1016B000A40380911F028B3089F090E080E00E94AB
:1016C000F1020E9496108111FCCF86E10E948110E8
:1016D0000E9496108111FCCF0C94811080E098E05C
:1016E000EECF9F92AF92BF92CF92DF92EF92FF9296
:1016F0000F931F93CF93DF9300D000D00F920F92E0
:10170000CDB7DEB70091230210912402809121020F
:1017100090912202081B190B0930110514F008E002
:1017200010E0D12CED2CF12CE016F10608F44EC09F
:10173000B12CCB2CD12CE0902102F0902202C016CB
:10174000D10608F44EC00E0D1F1D10932202009307
:10175000210280912302909124020817190709F0B1
:1017600065C10E9496108111FCCF81E10E94811019
:101770000E9496108111FCCF82E00E9481100E948D
:1017800096108111FCCF80912B020E9481100E9443
:1017900096108111FCCF809128020E9481100E9436
:1017A00096108111FCCF809127020E9481100E9427
:1017B00096108111FCCF809126020E9481100E9418
:1017C00096108111FCCF809125025DC00E9400120D
:1017D000E1E0F0E0EC0FFD1FEE0DFF1D8083D394E0
:1017E000A1CFEC0CFD1C80912A02A090290281114E
:1017F00002C0AA24A39480911F028B3009F056C026
:10180000739A80911F028B3029F0809102018F7EA4
:10181000809302010E94A1038E2D0E949D03EE245D
:101820002FE0F22280911F028B3009F441C080E04A
:1018300090E08E299F290E94F1028AE68A95F1F7AD
:1018400000C080911F028B30B1F573989AE69A958B
:10185000F1F700C0E12CFF24F394E1E0F0E0EC0F9D
:10186000FD1FCE0EDF1EAF1440F5E110BCC00E947C
:1018700096108111FCCF81E10E9481100E94961088
:101880008111FCCF8AE028960FB6F894DEBF0FBE18
:10189000CDBFDF91CF911F910F91FF90EF90DF901F
:1018A000CF90BF90AF909F900C9481107398A9CF68
:1018B00080E098E0BECF739AC9CFF6019080809106
:1018C00020028915D9F180911F028B3029F0809177
:1018D00002018F7E809302010E94A103892D0E9444
:1018E0009D03FAE6FA95F1F700C080911F028B3054
:1018F00069F1809102018860809302018FE99FE085
:101900000197F1F700C000002C9A9FEFE0E7F2E0AA
:101910009150E040F040E1F700C000002C988FE9C2
:101920009FE00197F1F700C0000080910201877FDE
:10193000809302019AE69A95F1F700C080912A02FD
:10194000811128C0EE24E394F3948DCF809102019D
:101950008061809302019AE69A95F1F700C0809128
:101960000201886080930201EFEFF0E722E0E1508E
:10197000F0402040E1F700C0000080910201877F25
:10198000809302018AE68A95F1F700C080910201F6
:101990008F7ECECF0E94A40380911F028B3009F06E
:1019A0003FC080910B018E7F80930B01EAE6EA95A0
:1019B000F1F700C0FAE6FA95F1F700C00E949F0324
:1019C00090911F029B3029F490910B0191609093AC
:1019D0000B012AE62A95F1F700C0F60190819813D1
:1019E000B3CFE110AFCF80912B028F1508F48F2D6C
:1019F00080932B028091250290912602A0912702CC
:101A0000B09128028F0D911DA11DB11D809325025B
:101A100090932602A0932702B0932802B39489CE14
:101A200080910201806180930201C4CF0E949610D0
:101A30008111FCCF81E10E9481100E9496108111DA
:101A4000FCCF21CFFF920F931F93CF93DF93C091D1
:101A50002302D09124028091210290912202C81B7E
:101A6000D90BC930D10514F0C8E0D0E00E9496101F
:101A70008111FCCF83E10E9481100E949610811198
:101A8000FCCF80912102909122028C0F9D1F20910A
:101A900023023091240282179307C9F080E00E944C
:101AA0008110F12C80912102909122020F2D10E0E3
:101AB0000C171D0774F0C80FD91FD0932202C093D2
:101AC0002102DF91CF911F910F91FF90089582E045
:101AD000E6CF080F191F0E94A10380911F028B30CF
:101AE00009F4739A802F0E949D0300271F70809134
:101AF0001F028B3009F456C080E090E0802B912BC0
:101B00000E94F1028AE68A95F1F700C080911F02D7
:101B10008B3009F04AC073980E94A4038AE68A9524
:101B2000F1F700C080911F02863011F08C3049F42B
:101B3000809102018061809302018AE68A95F1F723
:101B400000C080911F028B3049F480910B018E7F81
:101B500080930B018AE68A95F1F700C00E949F03EB
:101B6000182F80911F02863011F08C3029F480915B
:101B700002018F7E8093020180911F028B30B9F4A5
:101B800080910B01816080930B018AE68A95F1F7C1
:101B900000C00E9496108111FCCF812F0E948110FD
:101BA000F39480CF80E098E0A9CF739AB5CF739873
:101BB000ECCF1F93CF93DF931AEAD0E0C0E080917F
:101BC000230290912402C817D907C8F080912302FC
:101BD000909124028C179D0709F081C00E949610F5
:101BE0008111FCCF85E10E9481100E949610811125
:101BF000FCCF82E0DF91CF911F910C9481100E9465
:101C0000A10380911F028B3009F4739A8C2F0E94DC
:101C10009D039E0122273F7080911F028B3009F4A3
:101C200057C080E090E0822B932B0E94F1028AE65D
:101C30008A95F1F700C080911F028B3009F04BC0EC
:101C400073988AE68A95F1F700C00E94A4038AE699
:101C50008A95F1F700C080911F02863011F08C3018
:101C600049F4809102018061809302018AE68A959D
:101C7000F1F700C080911F028B3049F480910B0175
:101C80008E7F80930B018AE68A95F1F700C00E944F
:101C90009F03182F80911F02863011F08C3029F499
:101CA000809102018F7E8093020180911F028B3010
:101CB000A1F480910B01816080930B018AE68A95E3
:101CC000F1F700C080912002811380CF219677CF59
:101CD00080E098E0A8CF739AB4CF7398EFCF0E94BA
:101CE00096108111FCCF85E10E9481100E94961010
:101CF0008111FCCF89E00E9481100E949610811111
:101D0000FCCF8D2F0E9481100E9496108111FCCF74
:101D10008C2F0E9481100E9496108111FCCF812F80
:101D200069CF0E94001280932A020E9400128091C3
:101D30001F028850833070F40E9496108111FCCFEE
:101D400080E10E9481100E9496108111FCCF83E0F7
:101D50000C9481100E940C0B80910201806480938E
:101D6000020180911F028B3091F4809102018F7EDD
:101D70008093020173980E9496108111FCCF80E13C
:101D80000E9481100E9496108111FCCFE1CF8091BA
:101D900002018061EDCF0E940C0B809102018064F2
:101DA0008093020180911F02863019F08B5082309F
:101DB00098F4809102018F7E8093020173980E94B3
:101DC00096108111FCCF82E10E9481100E94961032
:101DD0008111FCCF0C948110809102018061ECCFC5
:101DE00080911F028850833070F40E9496108111F8
:101DF000FCCF84E10E9481100E9496108111FCCFDB
:101E000083E00C9481100E940C0B8091020180648D
:101E10008093020180911F02863011F08B3091F483
:101E2000809102018F7E8093020173980E94961028
:101E30008111FCCF84E10E9481100E9496108111D3
:101E4000FCCFDFCF809102018061EDCF0E940012B4
:101E5000EFEFE80FEA3008F06BC00E2E000CFF0B1E
:101E60008827E450FD4E8F4F0C94AE120E940C0B4D
:101E70000E9496108111FCCF88E10E9481100E947F
:101E800096108111FCCF5FC084E080931F020E94F6
:101E90000C0B80910201886080930201E9CF86E0FB
:101EA000F4CF88E080931F020E940C0B8091020106
:101EB0008064F2CF84E0F6CF86E0F4CF84E08093B4
:101EC0001F020E940C0B2C9AD3CF0E940C0B0E9475
:101ED000A1038AEA0E949D0380E09AE00E94F10239
:101EE000809102018F7E8093020180911F028B30CE
:101EF000D1F47398BDCF0E940C0B0E94A10385E51D
:101F00000E949D0380911F028B3079F080E095E064
:101F10000E94F10280910201806180930201809110
:101F20001F028B3031F7739AA3CF80E09DE0F0CF92
:101F30000E9496108111FCCF83E00E9481100E94C4
:101F400096108111FCCF80E00C9481100E949610B5
:101F50008111FCCF89E10E9481100E9496108111AD
:101F6000FCCF0E9481100E9496108111FCCF0E942C
:101F70009F030C9481102F932FB72F932BB72F9380
:101F80008F939F93EF93FF938091C0009091C60031
:101F9000E0915302EF5FEF70209152022E1799F0FB
:101FA0008871E0935302F0E0EA5AFD4F90838093EA
:101FB0005102FF91EF919F918F912F912BBF2F9104
:101FC0002FBF2F91189580E0F2CF8F938FB78F930B
:101FD0008BB78F939F93EF93FF93909155028091CE
:101FE00054029817A9F0E0915402EF5FEF70E0936C
:101FF0005402F0E0EA59FD4F80818093C600FF91C2
:10200000EF919F918F918BBF8F918FBF8F9118957B
:102010008091C1008F7D8093C100F1CF1092550255
:102020001092540210925302109252029091C200E8
:1020300090689093C200282F21709091C20080FF79
:1020400038C090649093C2009091C20092609093C7
:10205000C2009091C20094609093C2009091C10020
:1020600081FF29C094609093C100222319F082FF60
:1020700024C06A9A9091C10083FF21C0906190931F
:10208000C10084FF1EC08091C00082608093C000A8
:102090008091C10080688093C1006093C4007093F8
:1020A000C5008091C10088608093C100699A6898DA
:1020B00008959F7BC7CF9B7FD6CF6A98DBCF9F7E4B
:1020C000DECF8091C0008D7FE1CF209153029091AF
:1020D000520281E0291301C080E0089590915302DB
:1020E00080915202981759F0E0915202EF5FEF7021
:1020F000E0935202F0E0EA5AFD4F8081089580E0BB
:102100000895909155029F5F9F7020915402291766
:10211000E1F3E92FF0E0EA59FD4F808390935502F7
:102120008091C10080628093C10008959091550212
:1021300080915402981309C08091C00085FB8827C4
:1021400080F991E089278170089581E0FCCF80912A
:10215000510208952F932FB72F932BB72F938F935F
:102160009F93EF93FF938091C8009091CE00E091F0
:102170002E02EF5FEF7020912D022E1799F08871DB
:10218000E0932E02F0E0EF5CFD4F908380932C02F1
:10219000FF91EF919F918F912F912BBF2F912FBF87
:1021A0002F91189580E0F2CF8F938FB78F938BB7D5
:1021B0008F939F93EF93FF939091300280912F0222
:1021C0009817A9F0E0912F02EF5FEF70E0932F02D4
:1021D000F0E0EF5BFD4F80818093CE00FF91EF91A7
:1021E0009F918F918BBF8F918FBF8F911895809109
:1021F000C9008F7D8093C900F1CF109230021092F8
:102200002F0210922E0210922D029091CA00906817
:102210009093CA00282F21709091CA0080FF38C087
:1022200090649093CA009091CA0092609093CA0003
:102230009091CA0094609093CA009091C90081FF68
:1022400029C094609093C900222319F082FF24C012
:10225000549A9091C90083FF21C090619093C90066
:1022600084FF1EC08091C80082608093C800809166
:10227000C90080688093C9006093CC007093CD0042
:102280008091C90088608093C900539A529808953C
:102290009F7BC7CF9B7FD6CF5498DBCF9F7EDECF6F
:1022A0008091C8008D7FE1CF20912E0290912D0268
:1022B00081E0291301C080E0089590912E02809161
:1022C0002D02981759F0E0912D02EF5FEF70E09327
:1022D0002D02F0E0EF5CFD4F8081089580E00895CD
:1022E000909130029F5F9F7020912F022917E1F398
:1022F000E92FF0E0EF5BFD4F8083909330028091F7
:10230000C90080628093C900089590913002809145
:102310002F02981309C08091C80085FB882780F997
:1023200091E089278170089581E0FCCF80912C0293
:10233000089510927C0087E880937A000895CF93E7
:10234000DF9300D000D0CDB7DEB76D837E8390E001
:1023500019821A821B821C82981327C0292F30E011
:1023600050E040E069817A818B819C810E948C12CF
:10237000A7E9BCE00E94B61269837A838B839C83B1
:102380006D817E819B0150E040E069817A818B8183
:102390009C810E948C12C90126960FB6F894DEBF6C
:1023A0000FBECDBFDF91CF910895EFE9FFE03197E8
:1023B000F1F700C0000020917A00206420937A0099
:1023C00020917A0026FDFCCF209178003091790091
:1023D00049815A816B817C81420F531F611D711DA0
:1023E00049835A836B837C839F5FB6CFECE7F0E031
:1023F0008081807E80836BE077E08AE00C949F117F
:102400000E9465108823E1F30C946E100F931F93C4
:10241000CF938C010E946510C82F882321F00E9461
:102420006E10F80180838C2FCF911F910F9108952A
:10243000CF93C82F0E9485118111FCCF8C2F0E9451
:10244000701190E080E0CF9108950F920F92CDB778
:10245000DEB769E170E088E00E940E1078940E9477
:1024600099116D989D986C98809101018E7F809351
:102470000101809101018D7F809301014CB182B3F4
:1024800080729CB1209100013091000145FD11C086
:10249000811182E00E945403CE010196082FF92E8B
:1024A000CE0102960E94061214E681111EC0A89564
:1024B000F7CF882381F090712170922B832F827047
:1024C00031FD04C09111E6CF83E0E4CF84E099238D
:1024D00009F380E0DFCF81E0DDCF8FE99FE0019756
:1024E000F1F700C00000115011F3802F9F2D0E94C2
:1024F0000612882391F39A81898180958913D7CF19
:10250000482F4051550B4A30510588F6A89587FD54
:10251000C7CF0E948601C4CFA1E21A2EAA1BBB1B03
:10252000FD010DC0AA1FBB1FEE1FFF1FA217B3079F
:10253000E407F50720F0A21BB30BE40BF50B661FB5
:10254000771F881F991F1A9469F760957095809579
:1025500090959B01AC01BD01CF010895EE0FFF1FC7
:10256000881F8BBF0790F691E02D19940E94C1122D
:10257000A59F900DB49F900DA49F800D911D1124D7
:102580000895A29FB001B39FC001A39F700D811D4C
:102590001124911DB29F700D811D1124911D08956C
:1025A000F894FFCF02010B011D01390147015901C8
:1025B0004701590147015901620159014701590178
:1025C0002C019401BD01DD010202220247028402B6
:1025D0006702A402C9023407420748074F0755079C
:1025E000610734074B0A590A610A6D0A770A7D0AA6
:1025F000800A860A8A0A900A360F510F5A0F5C0F1A
:0C2600005E0F440F4F0F650F7B0F360F6D
:0E260C00000000030000000018120000000093
:00000001FF
